{
	"ChildToken.sol": {
		"StandardToken": {
			"abi": [
				{
					"anonymous": false,
					"inputs": [
						{
							"indexed": true,
							"internalType": "address",
							"name": "_owner",
							"type": "address"
						},
						{
							"indexed": true,
							"internalType": "address",
							"name": "_spender",
							"type": "address"
						},
						{
							"indexed": false,
							"internalType": "uint256",
							"name": "_value",
							"type": "uint256"
						}
					],
					"name": "Approval",
					"type": "event"
				},
				{
					"anonymous": false,
					"inputs": [
						{
							"indexed": true,
							"internalType": "address",
							"name": "_from",
							"type": "address"
						},
						{
							"indexed": true,
							"internalType": "address",
							"name": "_to",
							"type": "address"
						},
						{
							"indexed": false,
							"internalType": "uint256",
							"name": "_value",
							"type": "uint256"
						}
					],
					"name": "Transfer",
					"type": "event"
				},
				{
					"inputs": [
						{
							"internalType": "address",
							"name": "_owner",
							"type": "address"
						},
						{
							"internalType": "address",
							"name": "_spender",
							"type": "address"
						}
					],
					"name": "allowance",
					"outputs": [
						{
							"internalType": "uint256",
							"name": "remaining",
							"type": "uint256"
						}
					],
					"stateMutability": "view",
					"type": "function"
				},
				{
					"inputs": [
						{
							"internalType": "address",
							"name": "_spender",
							"type": "address"
						},
						{
							"internalType": "uint256",
							"name": "_value",
							"type": "uint256"
						}
					],
					"name": "approve",
					"outputs": [
						{
							"internalType": "bool",
							"name": "success",
							"type": "bool"
						}
					],
					"stateMutability": "nonpayable",
					"type": "function"
				},
				{
					"inputs": [
						{
							"internalType": "address",
							"name": "_owner",
							"type": "address"
						}
					],
					"name": "balanceOf",
					"outputs": [
						{
							"internalType": "uint256",
							"name": "balance",
							"type": "uint256"
						}
					],
					"stateMutability": "view",
					"type": "function"
				},
				{
					"inputs": [],
					"name": "totalSupply",
					"outputs": [
						{
							"internalType": "uint256",
							"name": "",
							"type": "uint256"
						}
					],
					"stateMutability": "view",
					"type": "function"
				},
				{
					"inputs": [
						{
							"internalType": "address",
							"name": "_to",
							"type": "address"
						},
						{
							"internalType": "uint256",
							"name": "_value",
							"type": "uint256"
						}
					],
					"name": "transfer",
					"outputs": [
						{
							"internalType": "bool",
							"name": "success",
							"type": "bool"
						}
					],
					"stateMutability": "nonpayable",
					"type": "function"
				},
				{
					"inputs": [
						{
							"internalType": "address",
							"name": "_from",
							"type": "address"
						},
						{
							"internalType": "address",
							"name": "_to",
							"type": "address"
						},
						{
							"internalType": "uint256",
							"name": "_value",
							"type": "uint256"
						}
					],
					"name": "transferFrom",
					"outputs": [
						{
							"internalType": "bool",
							"name": "success",
							"type": "bool"
						}
					],
					"stateMutability": "nonpayable",
					"type": "function"
				}
			],
			"devdoc": {
				"kind": "dev",
				"methods": {},
				"version": 1
			},
			"evm": {
				"assembly": "    /* \"ChildToken.sol\":862:2356  contract StandardToken is Token {... */\n  mstore(0x40, 0x80)\n  callvalue\n  dup1\n  iszero\n  tag_1\n  jumpi\n  0x00\n  dup1\n  revert\ntag_1:\n  pop\n  dataSize(sub_0)\n  dup1\n  dataOffset(sub_0)\n  0x00\n  codecopy\n  0x00\n  return\nstop\n\nsub_0: assembly {\n        /* \"ChildToken.sol\":862:2356  contract StandardToken is Token {... */\n      mstore(0x40, 0x80)\n      callvalue\n      dup1\n      iszero\n      tag_1\n      jumpi\n      0x00\n      dup1\n      revert\n    tag_1:\n      pop\n      jumpi(tag_2, lt(calldatasize, 0x04))\n      shr(0xe0, calldataload(0x00))\n      dup1\n      0x095ea7b3\n      eq\n      tag_3\n      jumpi\n      dup1\n      0x18160ddd\n      eq\n      tag_4\n      jumpi\n      dup1\n      0x23b872dd\n      eq\n      tag_5\n      jumpi\n      dup1\n      0x70a08231\n      eq\n      tag_6\n      jumpi\n      dup1\n      0xa9059cbb\n      eq\n      tag_7\n      jumpi\n      dup1\n      0xdd62ed3e\n      eq\n      tag_8\n      jumpi\n    tag_2:\n      0x00\n      dup1\n      revert\n        /* \"ChildToken.sol\":1828:2049  function approve(address _spender, uint256 _value) external override returns (bool success) {... */\n    tag_3:\n      tag_9\n      0x04\n      dup1\n      calldatasize\n      sub\n      dup2\n      add\n      swap1\n      tag_10\n      swap2\n      swap1\n      tag_11\n      jump\t// in\n    tag_10:\n      tag_12\n      jump\t// in\n    tag_9:\n      mload(0x40)\n      tag_13\n      swap2\n      swap1\n      tag_14\n      jump\t// in\n    tag_13:\n      mload(0x40)\n      dup1\n      swap2\n      sub\n      swap1\n      return\n        /* \"ChildToken.sol\":2318:2353  uint256 public override totalSupply */\n    tag_4:\n      tag_15\n      tag_16\n      jump\t// in\n    tag_15:\n      mload(0x40)\n      tag_17\n      swap2\n      swap1\n      tag_18\n      jump\t// in\n    tag_17:\n      mload(0x40)\n      dup1\n      swap2\n      sub\n      swap1\n      return\n        /* \"ChildToken.sol\":1253:1694  function transferFrom(address _from, address _to, uint256 _value) external override returns (bool success) {... */\n    tag_5:\n      tag_19\n      0x04\n      dup1\n      calldatasize\n      sub\n      dup2\n      add\n      swap1\n      tag_20\n      swap2\n      swap1\n      tag_21\n      jump\t// in\n    tag_20:\n      tag_22\n      jump\t// in\n    tag_19:\n      mload(0x40)\n      tag_23\n      swap2\n      swap1\n      tag_14\n      jump\t// in\n    tag_23:\n      mload(0x40)\n      dup1\n      swap2\n      sub\n      swap1\n      return\n        /* \"ChildToken.sol\":1700:1822  function balanceOf(address _owner) public override view returns (uint256 balance) {... */\n    tag_6:\n      tag_24\n      0x04\n      dup1\n      calldatasize\n      sub\n      dup2\n      add\n      swap1\n      tag_25\n      swap2\n      swap1\n      tag_26\n      jump\t// in\n    tag_25:\n      tag_27\n      jump\t// in\n    tag_24:\n      mload(0x40)\n      tag_28\n      swap2\n      swap1\n      tag_18\n      jump\t// in\n    tag_28:\n      mload(0x40)\n      dup1\n      swap2\n      sub\n      swap1\n      return\n        /* \"ChildToken.sol\":901:1247  function transfer(address _to, uint256 _value) external override returns (bool success) {... */\n    tag_7:\n      tag_29\n      0x04\n      dup1\n      calldatasize\n      sub\n      dup2\n      add\n      swap1\n      tag_30\n      swap2\n      swap1\n      tag_11\n      jump\t// in\n    tag_30:\n      tag_31\n      jump\t// in\n    tag_29:\n      mload(0x40)\n      tag_32\n      swap2\n      swap1\n      tag_14\n      jump\t// in\n    tag_32:\n      mload(0x40)\n      dup1\n      swap2\n      sub\n      swap1\n      return\n        /* \"ChildToken.sol\":2055:2206  function allowance(address _owner, address _spender) external override view returns (uint256 remaining) {... */\n    tag_8:\n      tag_33\n      0x04\n      dup1\n      calldatasize\n      sub\n      dup2\n      add\n      swap1\n      tag_34\n      swap2\n      swap1\n      tag_35\n      jump\t// in\n    tag_34:\n      tag_36\n      jump\t// in\n    tag_33:\n      mload(0x40)\n      tag_37\n      swap2\n      swap1\n      tag_18\n      jump\t// in\n    tag_37:\n      mload(0x40)\n      dup1\n      swap2\n      sub\n      swap1\n      return\n        /* \"ChildToken.sol\":1828:2049  function approve(address _spender, uint256 _value) external override returns (bool success) {... */\n    tag_12:\n        /* \"ChildToken.sol\":1906:1918  bool success */\n      0x00\n        /* \"ChildToken.sol\":1962:1968  _value */\n      dup2\n        /* \"ChildToken.sol\":1930:1937  allowed */\n      0x01\n        /* \"ChildToken.sol\":1930:1949  allowed[msg.sender] */\n      0x00\n        /* \"ChildToken.sol\":1938:1948  msg.sender */\n      caller\n        /* \"ChildToken.sol\":1930:1949  allowed[msg.sender] */\n      0xffffffffffffffffffffffffffffffffffffffff\n      and\n      0xffffffffffffffffffffffffffffffffffffffff\n      and\n      dup2\n      mstore\n      0x20\n      add\n      swap1\n      dup2\n      mstore\n      0x20\n      add\n      0x00\n      keccak256\n        /* \"ChildToken.sol\":1930:1959  allowed[msg.sender][_spender] */\n      0x00\n        /* \"ChildToken.sol\":1950:1958  _spender */\n      dup6\n        /* \"ChildToken.sol\":1930:1959  allowed[msg.sender][_spender] */\n      0xffffffffffffffffffffffffffffffffffffffff\n      and\n      0xffffffffffffffffffffffffffffffffffffffff\n      and\n      dup2\n      mstore\n      0x20\n      add\n      swap1\n      dup2\n      mstore\n      0x20\n      add\n      0x00\n      keccak256\n        /* \"ChildToken.sol\":1930:1968  allowed[msg.sender][_spender] = _value */\n      dup2\n      swap1\n      sstore\n      pop\n        /* \"ChildToken.sol\":2004:2012  _spender */\n      dup3\n        /* \"ChildToken.sol\":1983:2021  Approval(msg.sender, _spender, _value) */\n      0xffffffffffffffffffffffffffffffffffffffff\n      and\n        /* \"ChildToken.sol\":1992:2002  msg.sender */\n      caller\n        /* \"ChildToken.sol\":1983:2021  Approval(msg.sender, _spender, _value) */\n      0xffffffffffffffffffffffffffffffffffffffff\n      and\n      0x8c5be1e5ebec7d5bd14f71427d1e84f3dd0314c0f7b2291e5b200ac8c7c3b925\n        /* \"ChildToken.sol\":2014:2020  _value */\n      dup5\n        /* \"ChildToken.sol\":1983:2021  Approval(msg.sender, _spender, _value) */\n      mload(0x40)\n      tag_39\n      swap2\n      swap1\n      tag_18\n      jump\t// in\n    tag_39:\n      mload(0x40)\n      dup1\n      swap2\n      sub\n      swap1\n      log3\n        /* \"ChildToken.sol\":2038:2042  true */\n      0x01\n        /* \"ChildToken.sol\":2031:2042  return true */\n      swap1\n      pop\n        /* \"ChildToken.sol\":1828:2049  function approve(address _spender, uint256 _value) external override returns (bool success) {... */\n      swap3\n      swap2\n      pop\n      pop\n      jump\t// out\n        /* \"ChildToken.sol\":2318:2353  uint256 public override totalSupply */\n    tag_16:\n      sload(0x02)\n      dup2\n      jump\t// out\n        /* \"ChildToken.sol\":1253:1694  function transferFrom(address _from, address _to, uint256 _value) external override returns (bool success) {... */\n    tag_22:\n        /* \"ChildToken.sol\":1346:1358  bool success */\n      0x00\n        /* \"ChildToken.sol\":1394:1400  _value */\n      dup2\n        /* \"ChildToken.sol\":1375:1383  balances */\n      0x00\n        /* \"ChildToken.sol\":1375:1390  balances[_from] */\n      dup1\n        /* \"ChildToken.sol\":1384:1389  _from */\n      dup7\n        /* \"ChildToken.sol\":1375:1390  balances[_from] */\n      0xffffffffffffffffffffffffffffffffffffffff\n      and\n      0xffffffffffffffffffffffffffffffffffffffff\n      and\n      dup2\n      mstore\n      0x20\n      add\n      swap1\n      dup2\n      mstore\n      0x20\n      add\n      0x00\n      keccak256\n      sload\n        /* \"ChildToken.sol\":1375:1400  balances[_from] >= _value */\n      lt\n      iszero\n        /* \"ChildToken.sol\":1375:1440  balances[_from] >= _value && allowed[_from][msg.sender] >= _value */\n      dup1\n      iszero\n      tag_41\n      jumpi\n      pop\n        /* \"ChildToken.sol\":1434:1440  _value */\n      dup2\n        /* \"ChildToken.sol\":1404:1411  allowed */\n      0x01\n        /* \"ChildToken.sol\":1404:1418  allowed[_from] */\n      0x00\n        /* \"ChildToken.sol\":1412:1417  _from */\n      dup7\n        /* \"ChildToken.sol\":1404:1418  allowed[_from] */\n      0xffffffffffffffffffffffffffffffffffffffff\n      and\n      0xffffffffffffffffffffffffffffffffffffffff\n      and\n      dup2\n      mstore\n      0x20\n      add\n      swap1\n      dup2\n      mstore\n      0x20\n      add\n      0x00\n      keccak256\n        /* \"ChildToken.sol\":1404:1430  allowed[_from][msg.sender] */\n      0x00\n        /* \"ChildToken.sol\":1419:1429  msg.sender */\n      caller\n        /* \"ChildToken.sol\":1404:1430  allowed[_from][msg.sender] */\n      0xffffffffffffffffffffffffffffffffffffffff\n      and\n      0xffffffffffffffffffffffffffffffffffffffff\n      and\n      dup2\n      mstore\n      0x20\n      add\n      swap1\n      dup2\n      mstore\n      0x20\n      add\n      0x00\n      keccak256\n      sload\n        /* \"ChildToken.sol\":1404:1440  allowed[_from][msg.sender] >= _value */\n      lt\n      iszero\n        /* \"ChildToken.sol\":1375:1440  balances[_from] >= _value && allowed[_from][msg.sender] >= _value */\n    tag_41:\n        /* \"ChildToken.sol\":1375:1454  balances[_from] >= _value && allowed[_from][msg.sender] >= _value && _value > 0 */\n      dup1\n      iszero\n      tag_42\n      jumpi\n      pop\n        /* \"ChildToken.sol\":1453:1454  0 */\n      0x00\n        /* \"ChildToken.sol\":1444:1450  _value */\n      dup3\n        /* \"ChildToken.sol\":1444:1454  _value > 0 */\n      gt\n        /* \"ChildToken.sol\":1375:1454  balances[_from] >= _value && allowed[_from][msg.sender] >= _value && _value > 0 */\n    tag_42:\n        /* \"ChildToken.sol\":1371:1688  if (balances[_from] >= _value && allowed[_from][msg.sender] >= _value && _value > 0) {... */\n      iszero\n      tag_43\n      jumpi\n        /* \"ChildToken.sol\":1487:1493  _value */\n      dup2\n        /* \"ChildToken.sol\":1470:1478  balances */\n      0x00\n        /* \"ChildToken.sol\":1470:1483  balances[_to] */\n      dup1\n        /* \"ChildToken.sol\":1479:1482  _to */\n      dup6\n        /* \"ChildToken.sol\":1470:1483  balances[_to] */\n      0xffffffffffffffffffffffffffffffffffffffff\n      and\n      0xffffffffffffffffffffffffffffffffffffffff\n      and\n      dup2\n      mstore\n      0x20\n      add\n      swap1\n      dup2\n      mstore\n      0x20\n      add\n      0x00\n      keccak256\n      0x00\n        /* \"ChildToken.sol\":1470:1493  balances[_to] += _value */\n      dup3\n      dup3\n      sload\n      tag_44\n      swap2\n      swap1\n      tag_45\n      jump\t// in\n    tag_44:\n      swap3\n      pop\n      pop\n      dup2\n      swap1\n      sstore\n      pop\n        /* \"ChildToken.sol\":1526:1532  _value */\n      dup2\n        /* \"ChildToken.sol\":1507:1515  balances */\n      0x00\n        /* \"ChildToken.sol\":1507:1522  balances[_from] */\n      dup1\n        /* \"ChildToken.sol\":1516:1521  _from */\n      dup7\n        /* \"ChildToken.sol\":1507:1522  balances[_from] */\n      0xffffffffffffffffffffffffffffffffffffffff\n      and\n      0xffffffffffffffffffffffffffffffffffffffff\n      and\n      dup2\n      mstore\n      0x20\n      add\n      swap1\n      dup2\n      mstore\n      0x20\n      add\n      0x00\n      keccak256\n      0x00\n        /* \"ChildToken.sol\":1507:1532  balances[_from] -= _value */\n      dup3\n      dup3\n      sload\n      tag_46\n      swap2\n      swap1\n      tag_47\n      jump\t// in\n    tag_46:\n      swap3\n      pop\n      pop\n      dup2\n      swap1\n      sstore\n      pop\n        /* \"ChildToken.sol\":1576:1582  _value */\n      dup2\n        /* \"ChildToken.sol\":1546:1553  allowed */\n      0x01\n        /* \"ChildToken.sol\":1546:1560  allowed[_from] */\n      0x00\n        /* \"ChildToken.sol\":1554:1559  _from */\n      dup7\n        /* \"ChildToken.sol\":1546:1560  allowed[_from] */\n      0xffffffffffffffffffffffffffffffffffffffff\n      and\n      0xffffffffffffffffffffffffffffffffffffffff\n      and\n      dup2\n      mstore\n      0x20\n      add\n      swap1\n      dup2\n      mstore\n      0x20\n      add\n      0x00\n      keccak256\n        /* \"ChildToken.sol\":1546:1572  allowed[_from][msg.sender] */\n      0x00\n        /* \"ChildToken.sol\":1561:1571  msg.sender */\n      caller\n        /* \"ChildToken.sol\":1546:1572  allowed[_from][msg.sender] */\n      0xffffffffffffffffffffffffffffffffffffffff\n      and\n      0xffffffffffffffffffffffffffffffffffffffff\n      and\n      dup2\n      mstore\n      0x20\n      add\n      swap1\n      dup2\n      mstore\n      0x20\n      add\n      0x00\n      keccak256\n      0x00\n        /* \"ChildToken.sol\":1546:1582  allowed[_from][msg.sender] -= _value */\n      dup3\n      dup3\n      sload\n      tag_48\n      swap2\n      swap1\n      tag_47\n      jump\t// in\n    tag_48:\n      swap3\n      pop\n      pop\n      dup2\n      swap1\n      sstore\n      pop\n        /* \"ChildToken.sol\":1617:1620  _to */\n      dup3\n        /* \"ChildToken.sol\":1601:1629  Transfer(_from, _to, _value) */\n      0xffffffffffffffffffffffffffffffffffffffff\n      and\n        /* \"ChildToken.sol\":1610:1615  _from */\n      dup5\n        /* \"ChildToken.sol\":1601:1629  Transfer(_from, _to, _value) */\n      0xffffffffffffffffffffffffffffffffffffffff\n      and\n      0xddf252ad1be2c89b69c2b068fc378daa952ba7f163c4a11628f55a4df523b3ef\n        /* \"ChildToken.sol\":1622:1628  _value */\n      dup5\n        /* \"ChildToken.sol\":1601:1629  Transfer(_from, _to, _value) */\n      mload(0x40)\n      tag_49\n      swap2\n      swap1\n      tag_18\n      jump\t// in\n    tag_49:\n      mload(0x40)\n      dup1\n      swap2\n      sub\n      swap1\n      log3\n        /* \"ChildToken.sol\":1650:1654  true */\n      0x01\n        /* \"ChildToken.sol\":1643:1654  return true */\n      swap1\n      pop\n      jump(tag_40)\n        /* \"ChildToken.sol\":1371:1688  if (balances[_from] >= _value && allowed[_from][msg.sender] >= _value && _value > 0) {... */\n    tag_43:\n        /* \"ChildToken.sol\":1680:1685  false */\n      0x00\n        /* \"ChildToken.sol\":1673:1685  return false */\n      swap1\n      pop\n        /* \"ChildToken.sol\":1253:1694  function transferFrom(address _from, address _to, uint256 _value) external override returns (bool success) {... */\n    tag_40:\n      swap4\n      swap3\n      pop\n      pop\n      pop\n      jump\t// out\n        /* \"ChildToken.sol\":1700:1822  function balanceOf(address _owner) public override view returns (uint256 balance) {... */\n    tag_27:\n        /* \"ChildToken.sol\":1765:1780  uint256 balance */\n      0x00\n        /* \"ChildToken.sol\":1799:1807  balances */\n      dup1\n        /* \"ChildToken.sol\":1799:1815  balances[_owner] */\n      0x00\n        /* \"ChildToken.sol\":1808:1814  _owner */\n      dup4\n        /* \"ChildToken.sol\":1799:1815  balances[_owner] */\n      0xffffffffffffffffffffffffffffffffffffffff\n      and\n      0xffffffffffffffffffffffffffffffffffffffff\n      and\n      dup2\n      mstore\n      0x20\n      add\n      swap1\n      dup2\n      mstore\n      0x20\n      add\n      0x00\n      keccak256\n      sload\n        /* \"ChildToken.sol\":1792:1815  return balances[_owner] */\n      swap1\n      pop\n        /* \"ChildToken.sol\":1700:1822  function balanceOf(address _owner) public override view returns (uint256 balance) {... */\n      swap2\n      swap1\n      pop\n      jump\t// out\n        /* \"ChildToken.sol\":901:1247  function transfer(address _to, uint256 _value) external override returns (bool success) {... */\n    tag_31:\n        /* \"ChildToken.sol\":975:987  bool success */\n      0x00\n        /* \"ChildToken.sol\":1027:1033  _value */\n      dup2\n        /* \"ChildToken.sol\":1003:1011  balances */\n      0x00\n        /* \"ChildToken.sol\":1003:1023  balances[msg.sender] */\n      dup1\n        /* \"ChildToken.sol\":1012:1022  msg.sender */\n      caller\n        /* \"ChildToken.sol\":1003:1023  balances[msg.sender] */\n      0xffffffffffffffffffffffffffffffffffffffff\n      and\n      0xffffffffffffffffffffffffffffffffffffffff\n      and\n      dup2\n      mstore\n      0x20\n      add\n      swap1\n      dup2\n      mstore\n      0x20\n      add\n      0x00\n      keccak256\n      sload\n        /* \"ChildToken.sol\":1003:1033  balances[msg.sender] >= _value */\n      lt\n      iszero\n        /* \"ChildToken.sol\":1003:1047  balances[msg.sender] >= _value && _value > 0 */\n      dup1\n      iszero\n      tag_53\n      jumpi\n      pop\n        /* \"ChildToken.sol\":1046:1047  0 */\n      0x00\n        /* \"ChildToken.sol\":1037:1043  _value */\n      dup3\n        /* \"ChildToken.sol\":1037:1047  _value > 0 */\n      gt\n        /* \"ChildToken.sol\":1003:1047  balances[msg.sender] >= _value && _value > 0 */\n    tag_53:\n        /* \"ChildToken.sol\":999:1241  if (balances[msg.sender] >= _value && _value > 0) {... */\n      iszero\n      tag_54\n      jumpi\n        /* \"ChildToken.sol\":1087:1093  _value */\n      dup2\n        /* \"ChildToken.sol\":1063:1071  balances */\n      0x00\n        /* \"ChildToken.sol\":1063:1083  balances[msg.sender] */\n      dup1\n        /* \"ChildToken.sol\":1072:1082  msg.sender */\n      caller\n        /* \"ChildToken.sol\":1063:1083  balances[msg.sender] */\n      0xffffffffffffffffffffffffffffffffffffffff\n      and\n      0xffffffffffffffffffffffffffffffffffffffff\n      and\n      dup2\n      mstore\n      0x20\n      add\n      swap1\n      dup2\n      mstore\n      0x20\n      add\n      0x00\n      keccak256\n      0x00\n        /* \"ChildToken.sol\":1063:1093  balances[msg.sender] -= _value */\n      dup3\n      dup3\n      sload\n      tag_55\n      swap2\n      swap1\n      tag_47\n      jump\t// in\n    tag_55:\n      swap3\n      pop\n      pop\n      dup2\n      swap1\n      sstore\n      pop\n        /* \"ChildToken.sol\":1124:1130  _value */\n      dup2\n        /* \"ChildToken.sol\":1107:1115  balances */\n      0x00\n        /* \"ChildToken.sol\":1107:1120  balances[_to] */\n      dup1\n        /* \"ChildToken.sol\":1116:1119  _to */\n      dup6\n        /* \"ChildToken.sol\":1107:1120  balances[_to] */\n      0xffffffffffffffffffffffffffffffffffffffff\n      and\n      0xffffffffffffffffffffffffffffffffffffffff\n      and\n      dup2\n      mstore\n      0x20\n      add\n      swap1\n      dup2\n      mstore\n      0x20\n      add\n      0x00\n      keccak256\n      0x00\n        /* \"ChildToken.sol\":1107:1130  balances[_to] += _value */\n      dup3\n      dup3\n      sload\n      tag_56\n      swap2\n      swap1\n      tag_45\n      jump\t// in\n    tag_56:\n      swap3\n      pop\n      pop\n      dup2\n      swap1\n      sstore\n      pop\n        /* \"ChildToken.sol\":1170:1173  _to */\n      dup3\n        /* \"ChildToken.sol\":1149:1182  Transfer(msg.sender, _to, _value) */\n      0xffffffffffffffffffffffffffffffffffffffff\n      and\n        /* \"ChildToken.sol\":1158:1168  msg.sender */\n      caller\n        /* \"ChildToken.sol\":1149:1182  Transfer(msg.sender, _to, _value) */\n      0xffffffffffffffffffffffffffffffffffffffff\n      and\n      0xddf252ad1be2c89b69c2b068fc378daa952ba7f163c4a11628f55a4df523b3ef\n        /* \"ChildToken.sol\":1175:1181  _value */\n      dup5\n        /* \"ChildToken.sol\":1149:1182  Transfer(msg.sender, _to, _value) */\n      mload(0x40)\n      tag_57\n      swap2\n      swap1\n      tag_18\n      jump\t// in\n    tag_57:\n      mload(0x40)\n      dup1\n      swap2\n      sub\n      swap1\n      log3\n        /* \"ChildToken.sol\":1203:1207  true */\n      0x01\n        /* \"ChildToken.sol\":1196:1207  return true */\n      swap1\n      pop\n      jump(tag_52)\n        /* \"ChildToken.sol\":999:1241  if (balances[msg.sender] >= _value && _value > 0) {... */\n    tag_54:\n        /* \"ChildToken.sol\":1233:1238  false */\n      0x00\n        /* \"ChildToken.sol\":1226:1238  return false */\n      swap1\n      pop\n        /* \"ChildToken.sol\":901:1247  function transfer(address _to, uint256 _value) external override returns (bool success) {... */\n    tag_52:\n      swap3\n      swap2\n      pop\n      pop\n      jump\t// out\n        /* \"ChildToken.sol\":2055:2206  function allowance(address _owner, address _spender) external override view returns (uint256 remaining) {... */\n    tag_36:\n        /* \"ChildToken.sol\":2140:2157  uint256 remaining */\n      0x00\n        /* \"ChildToken.sol\":2174:2181  allowed */\n      0x01\n        /* \"ChildToken.sol\":2174:2189  allowed[_owner] */\n      0x00\n        /* \"ChildToken.sol\":2182:2188  _owner */\n      dup5\n        /* \"ChildToken.sol\":2174:2189  allowed[_owner] */\n      0xffffffffffffffffffffffffffffffffffffffff\n      and\n      0xffffffffffffffffffffffffffffffffffffffff\n      and\n      dup2\n      mstore\n      0x20\n      add\n      swap1\n      dup2\n      mstore\n      0x20\n      add\n      0x00\n      keccak256\n        /* \"ChildToken.sol\":2174:2199  allowed[_owner][_spender] */\n      0x00\n        /* \"ChildToken.sol\":2190:2198  _spender */\n      dup4\n        /* \"ChildToken.sol\":2174:2199  allowed[_owner][_spender] */\n      0xffffffffffffffffffffffffffffffffffffffff\n      and\n      0xffffffffffffffffffffffffffffffffffffffff\n      and\n      dup2\n      mstore\n      0x20\n      add\n      swap1\n      dup2\n      mstore\n      0x20\n      add\n      0x00\n      keccak256\n      sload\n        /* \"ChildToken.sol\":2167:2199  return allowed[_owner][_spender] */\n      swap1\n      pop\n        /* \"ChildToken.sol\":2055:2206  function allowance(address _owner, address _spender) external override view returns (uint256 remaining) {... */\n      swap3\n      swap2\n      pop\n      pop\n      jump\t// out\n        /* \"#utility.yul\":7:146   */\n    tag_61:\n        /* \"#utility.yul\":53:58   */\n      0x00\n        /* \"#utility.yul\":91:97   */\n      dup2\n        /* \"#utility.yul\":78:98   */\n      calldataload\n        /* \"#utility.yul\":69:98   */\n      swap1\n      pop\n        /* \"#utility.yul\":107:140   */\n      tag_63\n        /* \"#utility.yul\":134:139   */\n      dup2\n        /* \"#utility.yul\":107:140   */\n      tag_64\n      jump\t// in\n    tag_63:\n        /* \"#utility.yul\":7:146   */\n      swap3\n      swap2\n      pop\n      pop\n      jump\t// out\n        /* \"#utility.yul\":152:291   */\n    tag_65:\n        /* \"#utility.yul\":198:203   */\n      0x00\n        /* \"#utility.yul\":236:242   */\n      dup2\n        /* \"#utility.yul\":223:243   */\n      calldataload\n        /* \"#utility.yul\":214:243   */\n      swap1\n      pop\n        /* \"#utility.yul\":252:285   */\n      tag_67\n        /* \"#utility.yul\":279:284   */\n      dup2\n        /* \"#utility.yul\":252:285   */\n      tag_68\n      jump\t// in\n    tag_67:\n        /* \"#utility.yul\":152:291   */\n      swap3\n      swap2\n      pop\n      pop\n      jump\t// out\n        /* \"#utility.yul\":297:626   */\n    tag_26:\n        /* \"#utility.yul\":356:362   */\n      0x00\n        /* \"#utility.yul\":405:407   */\n      0x20\n        /* \"#utility.yul\":393:402   */\n      dup3\n        /* \"#utility.yul\":384:391   */\n      dup5\n        /* \"#utility.yul\":380:403   */\n      sub\n        /* \"#utility.yul\":376:408   */\n      slt\n        /* \"#utility.yul\":373:492   */\n      iszero\n      tag_70\n      jumpi\n        /* \"#utility.yul\":411:490   */\n      tag_71\n      tag_72\n      jump\t// in\n    tag_71:\n        /* \"#utility.yul\":373:492   */\n    tag_70:\n        /* \"#utility.yul\":531:532   */\n      0x00\n        /* \"#utility.yul\":556:609   */\n      tag_73\n        /* \"#utility.yul\":601:608   */\n      dup5\n        /* \"#utility.yul\":592:598   */\n      dup3\n        /* \"#utility.yul\":581:590   */\n      dup6\n        /* \"#utility.yul\":577:599   */\n      add\n        /* \"#utility.yul\":556:609   */\n      tag_61\n      jump\t// in\n    tag_73:\n        /* \"#utility.yul\":546:609   */\n      swap2\n      pop\n        /* \"#utility.yul\":502:619   */\n      pop\n        /* \"#utility.yul\":297:626   */\n      swap3\n      swap2\n      pop\n      pop\n      jump\t// out\n        /* \"#utility.yul\":632:1106   */\n    tag_35:\n        /* \"#utility.yul\":700:706   */\n      0x00\n        /* \"#utility.yul\":708:714   */\n      dup1\n        /* \"#utility.yul\":757:759   */\n      0x40\n        /* \"#utility.yul\":745:754   */\n      dup4\n        /* \"#utility.yul\":736:743   */\n      dup6\n        /* \"#utility.yul\":732:755   */\n      sub\n        /* \"#utility.yul\":728:760   */\n      slt\n        /* \"#utility.yul\":725:844   */\n      iszero\n      tag_75\n      jumpi\n        /* \"#utility.yul\":763:842   */\n      tag_76\n      tag_72\n      jump\t// in\n    tag_76:\n        /* \"#utility.yul\":725:844   */\n    tag_75:\n        /* \"#utility.yul\":883:884   */\n      0x00\n        /* \"#utility.yul\":908:961   */\n      tag_77\n        /* \"#utility.yul\":953:960   */\n      dup6\n        /* \"#utility.yul\":944:950   */\n      dup3\n        /* \"#utility.yul\":933:942   */\n      dup7\n        /* \"#utility.yul\":929:951   */\n      add\n        /* \"#utility.yul\":908:961   */\n      tag_61\n      jump\t// in\n    tag_77:\n        /* \"#utility.yul\":898:961   */\n      swap3\n      pop\n        /* \"#utility.yul\":854:971   */\n      pop\n        /* \"#utility.yul\":1010:1012   */\n      0x20\n        /* \"#utility.yul\":1036:1089   */\n      tag_78\n        /* \"#utility.yul\":1081:1088   */\n      dup6\n        /* \"#utility.yul\":1072:1078   */\n      dup3\n        /* \"#utility.yul\":1061:1070   */\n      dup7\n        /* \"#utility.yul\":1057:1079   */\n      add\n        /* \"#utility.yul\":1036:1089   */\n      tag_61\n      jump\t// in\n    tag_78:\n        /* \"#utility.yul\":1026:1089   */\n      swap2\n      pop\n        /* \"#utility.yul\":981:1099   */\n      pop\n        /* \"#utility.yul\":632:1106   */\n      swap3\n      pop\n      swap3\n      swap1\n      pop\n      jump\t// out\n        /* \"#utility.yul\":1112:1731   */\n    tag_21:\n        /* \"#utility.yul\":1189:1195   */\n      0x00\n        /* \"#utility.yul\":1197:1203   */\n      dup1\n        /* \"#utility.yul\":1205:1211   */\n      0x00\n        /* \"#utility.yul\":1254:1256   */\n      0x60\n        /* \"#utility.yul\":1242:1251   */\n      dup5\n        /* \"#utility.yul\":1233:1240   */\n      dup7\n        /* \"#utility.yul\":1229:1252   */\n      sub\n        /* \"#utility.yul\":1225:1257   */\n      slt\n        /* \"#utility.yul\":1222:1341   */\n      iszero\n      tag_80\n      jumpi\n        /* \"#utility.yul\":1260:1339   */\n      tag_81\n      tag_72\n      jump\t// in\n    tag_81:\n        /* \"#utility.yul\":1222:1341   */\n    tag_80:\n        /* \"#utility.yul\":1380:1381   */\n      0x00\n        /* \"#utility.yul\":1405:1458   */\n      tag_82\n        /* \"#utility.yul\":1450:1457   */\n      dup7\n        /* \"#utility.yul\":1441:1447   */\n      dup3\n        /* \"#utility.yul\":1430:1439   */\n      dup8\n        /* \"#utility.yul\":1426:1448   */\n      add\n        /* \"#utility.yul\":1405:1458   */\n      tag_61\n      jump\t// in\n    tag_82:\n        /* \"#utility.yul\":1395:1458   */\n      swap4\n      pop\n        /* \"#utility.yul\":1351:1468   */\n      pop\n        /* \"#utility.yul\":1507:1509   */\n      0x20\n        /* \"#utility.yul\":1533:1586   */\n      tag_83\n        /* \"#utility.yul\":1578:1585   */\n      dup7\n        /* \"#utility.yul\":1569:1575   */\n      dup3\n        /* \"#utility.yul\":1558:1567   */\n      dup8\n        /* \"#utility.yul\":1554:1576   */\n      add\n        /* \"#utility.yul\":1533:1586   */\n      tag_61\n      jump\t// in\n    tag_83:\n        /* \"#utility.yul\":1523:1586   */\n      swap3\n      pop\n        /* \"#utility.yul\":1478:1596   */\n      pop\n        /* \"#utility.yul\":1635:1637   */\n      0x40\n        /* \"#utility.yul\":1661:1714   */\n      tag_84\n        /* \"#utility.yul\":1706:1713   */\n      dup7\n        /* \"#utility.yul\":1697:1703   */\n      dup3\n        /* \"#utility.yul\":1686:1695   */\n      dup8\n        /* \"#utility.yul\":1682:1704   */\n      add\n        /* \"#utility.yul\":1661:1714   */\n      tag_65\n      jump\t// in\n    tag_84:\n        /* \"#utility.yul\":1651:1714   */\n      swap2\n      pop\n        /* \"#utility.yul\":1606:1724   */\n      pop\n        /* \"#utility.yul\":1112:1731   */\n      swap3\n      pop\n      swap3\n      pop\n      swap3\n      jump\t// out\n        /* \"#utility.yul\":1737:2211   */\n    tag_11:\n        /* \"#utility.yul\":1805:1811   */\n      0x00\n        /* \"#utility.yul\":1813:1819   */\n      dup1\n        /* \"#utility.yul\":1862:1864   */\n      0x40\n        /* \"#utility.yul\":1850:1859   */\n      dup4\n        /* \"#utility.yul\":1841:1848   */\n      dup6\n        /* \"#utility.yul\":1837:1860   */\n      sub\n        /* \"#utility.yul\":1833:1865   */\n      slt\n        /* \"#utility.yul\":1830:1949   */\n      iszero\n      tag_86\n      jumpi\n        /* \"#utility.yul\":1868:1947   */\n      tag_87\n      tag_72\n      jump\t// in\n    tag_87:\n        /* \"#utility.yul\":1830:1949   */\n    tag_86:\n        /* \"#utility.yul\":1988:1989   */\n      0x00\n        /* \"#utility.yul\":2013:2066   */\n      tag_88\n        /* \"#utility.yul\":2058:2065   */\n      dup6\n        /* \"#utility.yul\":2049:2055   */\n      dup3\n        /* \"#utility.yul\":2038:2047   */\n      dup7\n        /* \"#utility.yul\":2034:2056   */\n      add\n        /* \"#utility.yul\":2013:2066   */\n      tag_61\n      jump\t// in\n    tag_88:\n        /* \"#utility.yul\":2003:2066   */\n      swap3\n      pop\n        /* \"#utility.yul\":1959:2076   */\n      pop\n        /* \"#utility.yul\":2115:2117   */\n      0x20\n        /* \"#utility.yul\":2141:2194   */\n      tag_89\n        /* \"#utility.yul\":2186:2193   */\n      dup6\n        /* \"#utility.yul\":2177:2183   */\n      dup3\n        /* \"#utility.yul\":2166:2175   */\n      dup7\n        /* \"#utility.yul\":2162:2184   */\n      add\n        /* \"#utility.yul\":2141:2194   */\n      tag_65\n      jump\t// in\n    tag_89:\n        /* \"#utility.yul\":2131:2194   */\n      swap2\n      pop\n        /* \"#utility.yul\":2086:2204   */\n      pop\n        /* \"#utility.yul\":1737:2211   */\n      swap3\n      pop\n      swap3\n      swap1\n      pop\n      jump\t// out\n        /* \"#utility.yul\":2217:2326   */\n    tag_90:\n        /* \"#utility.yul\":2298:2319   */\n      tag_92\n        /* \"#utility.yul\":2313:2318   */\n      dup2\n        /* \"#utility.yul\":2298:2319   */\n      tag_93\n      jump\t// in\n    tag_92:\n        /* \"#utility.yul\":2293:2296   */\n      dup3\n        /* \"#utility.yul\":2286:2320   */\n      mstore\n        /* \"#utility.yul\":2217:2326   */\n      pop\n      pop\n      jump\t// out\n        /* \"#utility.yul\":2332:2450   */\n    tag_94:\n        /* \"#utility.yul\":2419:2443   */\n      tag_96\n        /* \"#utility.yul\":2437:2442   */\n      dup2\n        /* \"#utility.yul\":2419:2443   */\n      tag_97\n      jump\t// in\n    tag_96:\n        /* \"#utility.yul\":2414:2417   */\n      dup3\n        /* \"#utility.yul\":2407:2444   */\n      mstore\n        /* \"#utility.yul\":2332:2450   */\n      pop\n      pop\n      jump\t// out\n        /* \"#utility.yul\":2456:2666   */\n    tag_14:\n        /* \"#utility.yul\":2543:2547   */\n      0x00\n        /* \"#utility.yul\":2581:2583   */\n      0x20\n        /* \"#utility.yul\":2570:2579   */\n      dup3\n        /* \"#utility.yul\":2566:2584   */\n      add\n        /* \"#utility.yul\":2558:2584   */\n      swap1\n      pop\n        /* \"#utility.yul\":2594:2659   */\n      tag_99\n        /* \"#utility.yul\":2656:2657   */\n      0x00\n        /* \"#utility.yul\":2645:2654   */\n      dup4\n        /* \"#utility.yul\":2641:2658   */\n      add\n        /* \"#utility.yul\":2632:2638   */\n      dup5\n        /* \"#utility.yul\":2594:2659   */\n      tag_90\n      jump\t// in\n    tag_99:\n        /* \"#utility.yul\":2456:2666   */\n      swap3\n      swap2\n      pop\n      pop\n      jump\t// out\n        /* \"#utility.yul\":2672:2894   */\n    tag_18:\n        /* \"#utility.yul\":2765:2769   */\n      0x00\n        /* \"#utility.yul\":2803:2805   */\n      0x20\n        /* \"#utility.yul\":2792:2801   */\n      dup3\n        /* \"#utility.yul\":2788:2806   */\n      add\n        /* \"#utility.yul\":2780:2806   */\n      swap1\n      pop\n        /* \"#utility.yul\":2816:2887   */\n      tag_101\n        /* \"#utility.yul\":2884:2885   */\n      0x00\n        /* \"#utility.yul\":2873:2882   */\n      dup4\n        /* \"#utility.yul\":2869:2886   */\n      add\n        /* \"#utility.yul\":2860:2866   */\n      dup5\n        /* \"#utility.yul\":2816:2887   */\n      tag_94\n      jump\t// in\n    tag_101:\n        /* \"#utility.yul\":2672:2894   */\n      swap3\n      swap2\n      pop\n      pop\n      jump\t// out\n        /* \"#utility.yul\":2981:3286   */\n    tag_45:\n        /* \"#utility.yul\":3021:3024   */\n      0x00\n        /* \"#utility.yul\":3040:3060   */\n      tag_105\n        /* \"#utility.yul\":3058:3059   */\n      dup3\n        /* \"#utility.yul\":3040:3060   */\n      tag_97\n      jump\t// in\n    tag_105:\n        /* \"#utility.yul\":3035:3060   */\n      swap2\n      pop\n        /* \"#utility.yul\":3074:3094   */\n      tag_106\n        /* \"#utility.yul\":3092:3093   */\n      dup4\n        /* \"#utility.yul\":3074:3094   */\n      tag_97\n      jump\t// in\n    tag_106:\n        /* \"#utility.yul\":3069:3094   */\n      swap3\n      pop\n        /* \"#utility.yul\":3228:3229   */\n      dup3\n        /* \"#utility.yul\":3160:3226   */\n      0xffffffffffffffffffffffffffffffffffffffffffffffffffffffffffffffff\n        /* \"#utility.yul\":3156:3230   */\n      sub\n        /* \"#utility.yul\":3153:3154   */\n      dup3\n        /* \"#utility.yul\":3150:3231   */\n      gt\n        /* \"#utility.yul\":3147:3254   */\n      iszero\n      tag_107\n      jumpi\n        /* \"#utility.yul\":3234:3252   */\n      tag_108\n      tag_109\n      jump\t// in\n    tag_108:\n        /* \"#utility.yul\":3147:3254   */\n    tag_107:\n        /* \"#utility.yul\":3278:3279   */\n      dup3\n        /* \"#utility.yul\":3275:3276   */\n      dup3\n        /* \"#utility.yul\":3271:3280   */\n      add\n        /* \"#utility.yul\":3264:3280   */\n      swap1\n      pop\n        /* \"#utility.yul\":2981:3286   */\n      swap3\n      swap2\n      pop\n      pop\n      jump\t// out\n        /* \"#utility.yul\":3292:3483   */\n    tag_47:\n        /* \"#utility.yul\":3332:3336   */\n      0x00\n        /* \"#utility.yul\":3352:3372   */\n      tag_111\n        /* \"#utility.yul\":3370:3371   */\n      dup3\n        /* \"#utility.yul\":3352:3372   */\n      tag_97\n      jump\t// in\n    tag_111:\n        /* \"#utility.yul\":3347:3372   */\n      swap2\n      pop\n        /* \"#utility.yul\":3386:3406   */\n      tag_112\n        /* \"#utility.yul\":3404:3405   */\n      dup4\n        /* \"#utility.yul\":3386:3406   */\n      tag_97\n      jump\t// in\n    tag_112:\n        /* \"#utility.yul\":3381:3406   */\n      swap3\n      pop\n        /* \"#utility.yul\":3425:3426   */\n      dup3\n        /* \"#utility.yul\":3422:3423   */\n      dup3\n        /* \"#utility.yul\":3419:3427   */\n      lt\n        /* \"#utility.yul\":3416:3450   */\n      iszero\n      tag_113\n      jumpi\n        /* \"#utility.yul\":3430:3448   */\n      tag_114\n      tag_109\n      jump\t// in\n    tag_114:\n        /* \"#utility.yul\":3416:3450   */\n    tag_113:\n        /* \"#utility.yul\":3475:3476   */\n      dup3\n        /* \"#utility.yul\":3472:3473   */\n      dup3\n        /* \"#utility.yul\":3468:3477   */\n      sub\n        /* \"#utility.yul\":3460:3477   */\n      swap1\n      pop\n        /* \"#utility.yul\":3292:3483   */\n      swap3\n      swap2\n      pop\n      pop\n      jump\t// out\n        /* \"#utility.yul\":3489:3585   */\n    tag_115:\n        /* \"#utility.yul\":3526:3533   */\n      0x00\n        /* \"#utility.yul\":3555:3579   */\n      tag_117\n        /* \"#utility.yul\":3573:3578   */\n      dup3\n        /* \"#utility.yul\":3555:3579   */\n      tag_118\n      jump\t// in\n    tag_117:\n        /* \"#utility.yul\":3544:3579   */\n      swap1\n      pop\n        /* \"#utility.yul\":3489:3585   */\n      swap2\n      swap1\n      pop\n      jump\t// out\n        /* \"#utility.yul\":3591:3681   */\n    tag_93:\n        /* \"#utility.yul\":3625:3632   */\n      0x00\n        /* \"#utility.yul\":3668:3673   */\n      dup2\n        /* \"#utility.yul\":3661:3674   */\n      iszero\n        /* \"#utility.yul\":3654:3675   */\n      iszero\n        /* \"#utility.yul\":3643:3675   */\n      swap1\n      pop\n        /* \"#utility.yul\":3591:3681   */\n      swap2\n      swap1\n      pop\n      jump\t// out\n        /* \"#utility.yul\":3687:3813   */\n    tag_118:\n        /* \"#utility.yul\":3724:3731   */\n      0x00\n        /* \"#utility.yul\":3764:3806   */\n      0xffffffffffffffffffffffffffffffffffffffff\n        /* \"#utility.yul\":3757:3762   */\n      dup3\n        /* \"#utility.yul\":3753:3807   */\n      and\n        /* \"#utility.yul\":3742:3807   */\n      swap1\n      pop\n        /* \"#utility.yul\":3687:3813   */\n      swap2\n      swap1\n      pop\n      jump\t// out\n        /* \"#utility.yul\":3819:3896   */\n    tag_97:\n        /* \"#utility.yul\":3856:3863   */\n      0x00\n        /* \"#utility.yul\":3885:3890   */\n      dup2\n        /* \"#utility.yul\":3874:3890   */\n      swap1\n      pop\n        /* \"#utility.yul\":3819:3896   */\n      swap2\n      swap1\n      pop\n      jump\t// out\n        /* \"#utility.yul\":3902:4082   */\n    tag_109:\n        /* \"#utility.yul\":3950:4027   */\n      0x4e487b7100000000000000000000000000000000000000000000000000000000\n        /* \"#utility.yul\":3947:3948   */\n      0x00\n        /* \"#utility.yul\":3940:4028   */\n      mstore\n        /* \"#utility.yul\":4047:4051   */\n      0x11\n        /* \"#utility.yul\":4044:4045   */\n      0x04\n        /* \"#utility.yul\":4037:4052   */\n      mstore\n        /* \"#utility.yul\":4071:4075   */\n      0x24\n        /* \"#utility.yul\":4068:4069   */\n      0x00\n        /* \"#utility.yul\":4061:4076   */\n      revert\n        /* \"#utility.yul\":4211:4328   */\n    tag_72:\n        /* \"#utility.yul\":4320:4321   */\n      0x00\n        /* \"#utility.yul\":4317:4318   */\n      dup1\n        /* \"#utility.yul\":4310:4322   */\n      revert\n        /* \"#utility.yul\":4334:4456   */\n    tag_64:\n        /* \"#utility.yul\":4407:4431   */\n      tag_127\n        /* \"#utility.yul\":4425:4430   */\n      dup2\n        /* \"#utility.yul\":4407:4431   */\n      tag_115\n      jump\t// in\n    tag_127:\n        /* \"#utility.yul\":4400:4405   */\n      dup2\n        /* \"#utility.yul\":4397:4432   */\n      eq\n        /* \"#utility.yul\":4387:4450   */\n      tag_128\n      jumpi\n        /* \"#utility.yul\":4446:4447   */\n      0x00\n        /* \"#utility.yul\":4443:4444   */\n      dup1\n        /* \"#utility.yul\":4436:4448   */\n      revert\n        /* \"#utility.yul\":4387:4450   */\n    tag_128:\n        /* \"#utility.yul\":4334:4456   */\n      pop\n      jump\t// out\n        /* \"#utility.yul\":4462:4584   */\n    tag_68:\n        /* \"#utility.yul\":4535:4559   */\n      tag_130\n        /* \"#utility.yul\":4553:4558   */\n      dup2\n        /* \"#utility.yul\":4535:4559   */\n      tag_97\n      jump\t// in\n    tag_130:\n        /* \"#utility.yul\":4528:4533   */\n      dup2\n        /* \"#utility.yul\":4525:4560   */\n      eq\n        /* \"#utility.yul\":4515:4578   */\n      tag_131\n      jumpi\n        /* \"#utility.yul\":4574:4575   */\n      0x00\n        /* \"#utility.yul\":4571:4572   */\n      dup1\n        /* \"#utility.yul\":4564:4576   */\n      revert\n        /* \"#utility.yul\":4515:4578   */\n    tag_131:\n        /* \"#utility.yul\":4462:4584   */\n      pop\n      jump\t// out\n\n    auxdata: 0xa2646970667358221220ac41f53602e81bc95d67ac7286e68d19204e0de3a0551a2e9978d3e24ef5626b64736f6c63430008070033\n}\n",
				"bytecode": {
					"linkReferences": {},
					"object": "608060405234801561001057600080fd5b50610a30806100206000396000f3fe608060405234801561001057600080fd5b50600436106100625760003560e01c8063095ea7b31461006757806318160ddd1461009757806323b872dd146100b557806370a08231146100e5578063a9059cbb14610115578063dd62ed3e14610145575b600080fd5b610081600480360381019061007c9190610832565b610175565b60405161008e9190610890565b60405180910390f35b61009f610267565b6040516100ac91906108ab565b60405180910390f35b6100cf60048036038101906100ca91906107df565b61026d565b6040516100dc9190610890565b60405180910390f35b6100ff60048036038101906100fa9190610772565b610501565b60405161010c91906108ab565b60405180910390f35b61012f600480360381019061012a9190610832565b610549565b60405161013c9190610890565b60405180910390f35b61015f600480360381019061015a919061079f565b6106c1565b60405161016c91906108ab565b60405180910390f35b600081600160003373ffffffffffffffffffffffffffffffffffffffff1673ffffffffffffffffffffffffffffffffffffffff16815260200190815260200160002060008573ffffffffffffffffffffffffffffffffffffffff1673ffffffffffffffffffffffffffffffffffffffff168152602001908152602001600020819055508273ffffffffffffffffffffffffffffffffffffffff163373ffffffffffffffffffffffffffffffffffffffff167f8c5be1e5ebec7d5bd14f71427d1e84f3dd0314c0f7b2291e5b200ac8c7c3b9258460405161025591906108ab565b60405180910390a36001905092915050565b60025481565b6000816000808673ffffffffffffffffffffffffffffffffffffffff1673ffffffffffffffffffffffffffffffffffffffff1681526020019081526020016000205410158015610339575081600160008673ffffffffffffffffffffffffffffffffffffffff1673ffffffffffffffffffffffffffffffffffffffff16815260200190815260200160002060003373ffffffffffffffffffffffffffffffffffffffff1673ffffffffffffffffffffffffffffffffffffffff1681526020019081526020016000205410155b80156103455750600082115b156104f557816000808573ffffffffffffffffffffffffffffffffffffffff1673ffffffffffffffffffffffffffffffffffffffff168152602001908152602001600020600082825461039891906108c6565b92505081905550816000808673ffffffffffffffffffffffffffffffffffffffff1673ffffffffffffffffffffffffffffffffffffffff16815260200190815260200160002060008282546103ed919061091c565b9250508190555081600160008673ffffffffffffffffffffffffffffffffffffffff1673ffffffffffffffffffffffffffffffffffffffff16815260200190815260200160002060003373ffffffffffffffffffffffffffffffffffffffff1673ffffffffffffffffffffffffffffffffffffffff1681526020019081526020016000206000828254610480919061091c565b925050819055508273ffffffffffffffffffffffffffffffffffffffff168473ffffffffffffffffffffffffffffffffffffffff167fddf252ad1be2c89b69c2b068fc378daa952ba7f163c4a11628f55a4df523b3ef846040516104e491906108ab565b60405180910390a3600190506104fa565b600090505b9392505050565b60008060008373ffffffffffffffffffffffffffffffffffffffff1673ffffffffffffffffffffffffffffffffffffffff168152602001908152602001600020549050919050565b6000816000803373ffffffffffffffffffffffffffffffffffffffff1673ffffffffffffffffffffffffffffffffffffffff16815260200190815260200160002054101580156105995750600082115b156106b657816000803373ffffffffffffffffffffffffffffffffffffffff1673ffffffffffffffffffffffffffffffffffffffff16815260200190815260200160002060008282546105ec919061091c565b92505081905550816000808573ffffffffffffffffffffffffffffffffffffffff1673ffffffffffffffffffffffffffffffffffffffff168152602001908152602001600020600082825461064191906108c6565b925050819055508273ffffffffffffffffffffffffffffffffffffffff163373ffffffffffffffffffffffffffffffffffffffff167fddf252ad1be2c89b69c2b068fc378daa952ba7f163c4a11628f55a4df523b3ef846040516106a591906108ab565b60405180910390a3600190506106bb565b600090505b92915050565b6000600160008473ffffffffffffffffffffffffffffffffffffffff1673ffffffffffffffffffffffffffffffffffffffff16815260200190815260200160002060008373ffffffffffffffffffffffffffffffffffffffff1673ffffffffffffffffffffffffffffffffffffffff16815260200190815260200160002054905092915050565b600081359050610757816109cc565b92915050565b60008135905061076c816109e3565b92915050565b600060208284031215610788576107876109c7565b5b600061079684828501610748565b91505092915050565b600080604083850312156107b6576107b56109c7565b5b60006107c485828601610748565b92505060206107d585828601610748565b9150509250929050565b6000806000606084860312156107f8576107f76109c7565b5b600061080686828701610748565b935050602061081786828701610748565b92505060406108288682870161075d565b9150509250925092565b60008060408385031215610849576108486109c7565b5b600061085785828601610748565b92505060206108688582860161075d565b9150509250929050565b61087b81610962565b82525050565b61088a8161098e565b82525050565b60006020820190506108a56000830184610872565b92915050565b60006020820190506108c06000830184610881565b92915050565b60006108d18261098e565b91506108dc8361098e565b9250827fffffffffffffffffffffffffffffffffffffffffffffffffffffffffffffffff0382111561091157610910610998565b5b828201905092915050565b60006109278261098e565b91506109328361098e565b92508282101561094557610944610998565b5b828203905092915050565b600061095b8261096e565b9050919050565b60008115159050919050565b600073ffffffffffffffffffffffffffffffffffffffff82169050919050565b6000819050919050565b7f4e487b7100000000000000000000000000000000000000000000000000000000600052601160045260246000fd5b600080fd5b6109d581610950565b81146109e057600080fd5b50565b6109ec8161098e565b81146109f757600080fd5b5056fea2646970667358221220ac41f53602e81bc95d67ac7286e68d19204e0de3a0551a2e9978d3e24ef5626b64736f6c63430008070033",
					"opcodes": "PUSH1 0x80 PUSH1 0x40 MSTORE CALLVALUE DUP1 ISZERO PUSH2 0x10 JUMPI PUSH1 0x0 DUP1 REVERT JUMPDEST POP PUSH2 0xA30 DUP1 PUSH2 0x20 PUSH1 0x0 CODECOPY PUSH1 0x0 RETURN INVALID PUSH1 0x80 PUSH1 0x40 MSTORE CALLVALUE DUP1 ISZERO PUSH2 0x10 JUMPI PUSH1 0x0 DUP1 REVERT JUMPDEST POP PUSH1 0x4 CALLDATASIZE LT PUSH2 0x62 JUMPI PUSH1 0x0 CALLDATALOAD PUSH1 0xE0 SHR DUP1 PUSH4 0x95EA7B3 EQ PUSH2 0x67 JUMPI DUP1 PUSH4 0x18160DDD EQ PUSH2 0x97 JUMPI DUP1 PUSH4 0x23B872DD EQ PUSH2 0xB5 JUMPI DUP1 PUSH4 0x70A08231 EQ PUSH2 0xE5 JUMPI DUP1 PUSH4 0xA9059CBB EQ PUSH2 0x115 JUMPI DUP1 PUSH4 0xDD62ED3E EQ PUSH2 0x145 JUMPI JUMPDEST PUSH1 0x0 DUP1 REVERT JUMPDEST PUSH2 0x81 PUSH1 0x4 DUP1 CALLDATASIZE SUB DUP2 ADD SWAP1 PUSH2 0x7C SWAP2 SWAP1 PUSH2 0x832 JUMP JUMPDEST PUSH2 0x175 JUMP JUMPDEST PUSH1 0x40 MLOAD PUSH2 0x8E SWAP2 SWAP1 PUSH2 0x890 JUMP JUMPDEST PUSH1 0x40 MLOAD DUP1 SWAP2 SUB SWAP1 RETURN JUMPDEST PUSH2 0x9F PUSH2 0x267 JUMP JUMPDEST PUSH1 0x40 MLOAD PUSH2 0xAC SWAP2 SWAP1 PUSH2 0x8AB JUMP JUMPDEST PUSH1 0x40 MLOAD DUP1 SWAP2 SUB SWAP1 RETURN JUMPDEST PUSH2 0xCF PUSH1 0x4 DUP1 CALLDATASIZE SUB DUP2 ADD SWAP1 PUSH2 0xCA SWAP2 SWAP1 PUSH2 0x7DF JUMP JUMPDEST PUSH2 0x26D JUMP JUMPDEST PUSH1 0x40 MLOAD PUSH2 0xDC SWAP2 SWAP1 PUSH2 0x890 JUMP JUMPDEST PUSH1 0x40 MLOAD DUP1 SWAP2 SUB SWAP1 RETURN JUMPDEST PUSH2 0xFF PUSH1 0x4 DUP1 CALLDATASIZE SUB DUP2 ADD SWAP1 PUSH2 0xFA SWAP2 SWAP1 PUSH2 0x772 JUMP JUMPDEST PUSH2 0x501 JUMP JUMPDEST PUSH1 0x40 MLOAD PUSH2 0x10C SWAP2 SWAP1 PUSH2 0x8AB JUMP JUMPDEST PUSH1 0x40 MLOAD DUP1 SWAP2 SUB SWAP1 RETURN JUMPDEST PUSH2 0x12F PUSH1 0x4 DUP1 CALLDATASIZE SUB DUP2 ADD SWAP1 PUSH2 0x12A SWAP2 SWAP1 PUSH2 0x832 JUMP JUMPDEST PUSH2 0x549 JUMP JUMPDEST PUSH1 0x40 MLOAD PUSH2 0x13C SWAP2 SWAP1 PUSH2 0x890 JUMP JUMPDEST PUSH1 0x40 MLOAD DUP1 SWAP2 SUB SWAP1 RETURN JUMPDEST PUSH2 0x15F PUSH1 0x4 DUP1 CALLDATASIZE SUB DUP2 ADD SWAP1 PUSH2 0x15A SWAP2 SWAP1 PUSH2 0x79F JUMP JUMPDEST PUSH2 0x6C1 JUMP JUMPDEST PUSH1 0x40 MLOAD PUSH2 0x16C SWAP2 SWAP1 PUSH2 0x8AB JUMP JUMPDEST PUSH1 0x40 MLOAD DUP1 SWAP2 SUB SWAP1 RETURN JUMPDEST PUSH1 0x0 DUP2 PUSH1 0x1 PUSH1 0x0 CALLER PUSH20 0xFFFFFFFFFFFFFFFFFFFFFFFFFFFFFFFFFFFFFFFF AND PUSH20 0xFFFFFFFFFFFFFFFFFFFFFFFFFFFFFFFFFFFFFFFF AND DUP2 MSTORE PUSH1 0x20 ADD SWAP1 DUP2 MSTORE PUSH1 0x20 ADD PUSH1 0x0 KECCAK256 PUSH1 0x0 DUP6 PUSH20 0xFFFFFFFFFFFFFFFFFFFFFFFFFFFFFFFFFFFFFFFF AND PUSH20 0xFFFFFFFFFFFFFFFFFFFFFFFFFFFFFFFFFFFFFFFF AND DUP2 MSTORE PUSH1 0x20 ADD SWAP1 DUP2 MSTORE PUSH1 0x20 ADD PUSH1 0x0 KECCAK256 DUP2 SWAP1 SSTORE POP DUP3 PUSH20 0xFFFFFFFFFFFFFFFFFFFFFFFFFFFFFFFFFFFFFFFF AND CALLER PUSH20 0xFFFFFFFFFFFFFFFFFFFFFFFFFFFFFFFFFFFFFFFF AND PUSH32 0x8C5BE1E5EBEC7D5BD14F71427D1E84F3DD0314C0F7B2291E5B200AC8C7C3B925 DUP5 PUSH1 0x40 MLOAD PUSH2 0x255 SWAP2 SWAP1 PUSH2 0x8AB JUMP JUMPDEST PUSH1 0x40 MLOAD DUP1 SWAP2 SUB SWAP1 LOG3 PUSH1 0x1 SWAP1 POP SWAP3 SWAP2 POP POP JUMP JUMPDEST PUSH1 0x2 SLOAD DUP2 JUMP JUMPDEST PUSH1 0x0 DUP2 PUSH1 0x0 DUP1 DUP7 PUSH20 0xFFFFFFFFFFFFFFFFFFFFFFFFFFFFFFFFFFFFFFFF AND PUSH20 0xFFFFFFFFFFFFFFFFFFFFFFFFFFFFFFFFFFFFFFFF AND DUP2 MSTORE PUSH1 0x20 ADD SWAP1 DUP2 MSTORE PUSH1 0x20 ADD PUSH1 0x0 KECCAK256 SLOAD LT ISZERO DUP1 ISZERO PUSH2 0x339 JUMPI POP DUP2 PUSH1 0x1 PUSH1 0x0 DUP7 PUSH20 0xFFFFFFFFFFFFFFFFFFFFFFFFFFFFFFFFFFFFFFFF AND PUSH20 0xFFFFFFFFFFFFFFFFFFFFFFFFFFFFFFFFFFFFFFFF AND DUP2 MSTORE PUSH1 0x20 ADD SWAP1 DUP2 MSTORE PUSH1 0x20 ADD PUSH1 0x0 KECCAK256 PUSH1 0x0 CALLER PUSH20 0xFFFFFFFFFFFFFFFFFFFFFFFFFFFFFFFFFFFFFFFF AND PUSH20 0xFFFFFFFFFFFFFFFFFFFFFFFFFFFFFFFFFFFFFFFF AND DUP2 MSTORE PUSH1 0x20 ADD SWAP1 DUP2 MSTORE PUSH1 0x20 ADD PUSH1 0x0 KECCAK256 SLOAD LT ISZERO JUMPDEST DUP1 ISZERO PUSH2 0x345 JUMPI POP PUSH1 0x0 DUP3 GT JUMPDEST ISZERO PUSH2 0x4F5 JUMPI DUP2 PUSH1 0x0 DUP1 DUP6 PUSH20 0xFFFFFFFFFFFFFFFFFFFFFFFFFFFFFFFFFFFFFFFF AND PUSH20 0xFFFFFFFFFFFFFFFFFFFFFFFFFFFFFFFFFFFFFFFF AND DUP2 MSTORE PUSH1 0x20 ADD SWAP1 DUP2 MSTORE PUSH1 0x20 ADD PUSH1 0x0 KECCAK256 PUSH1 0x0 DUP3 DUP3 SLOAD PUSH2 0x398 SWAP2 SWAP1 PUSH2 0x8C6 JUMP JUMPDEST SWAP3 POP POP DUP2 SWAP1 SSTORE POP DUP2 PUSH1 0x0 DUP1 DUP7 PUSH20 0xFFFFFFFFFFFFFFFFFFFFFFFFFFFFFFFFFFFFFFFF AND PUSH20 0xFFFFFFFFFFFFFFFFFFFFFFFFFFFFFFFFFFFFFFFF AND DUP2 MSTORE PUSH1 0x20 ADD SWAP1 DUP2 MSTORE PUSH1 0x20 ADD PUSH1 0x0 KECCAK256 PUSH1 0x0 DUP3 DUP3 SLOAD PUSH2 0x3ED SWAP2 SWAP1 PUSH2 0x91C JUMP JUMPDEST SWAP3 POP POP DUP2 SWAP1 SSTORE POP DUP2 PUSH1 0x1 PUSH1 0x0 DUP7 PUSH20 0xFFFFFFFFFFFFFFFFFFFFFFFFFFFFFFFFFFFFFFFF AND PUSH20 0xFFFFFFFFFFFFFFFFFFFFFFFFFFFFFFFFFFFFFFFF AND DUP2 MSTORE PUSH1 0x20 ADD SWAP1 DUP2 MSTORE PUSH1 0x20 ADD PUSH1 0x0 KECCAK256 PUSH1 0x0 CALLER PUSH20 0xFFFFFFFFFFFFFFFFFFFFFFFFFFFFFFFFFFFFFFFF AND PUSH20 0xFFFFFFFFFFFFFFFFFFFFFFFFFFFFFFFFFFFFFFFF AND DUP2 MSTORE PUSH1 0x20 ADD SWAP1 DUP2 MSTORE PUSH1 0x20 ADD PUSH1 0x0 KECCAK256 PUSH1 0x0 DUP3 DUP3 SLOAD PUSH2 0x480 SWAP2 SWAP1 PUSH2 0x91C JUMP JUMPDEST SWAP3 POP POP DUP2 SWAP1 SSTORE POP DUP3 PUSH20 0xFFFFFFFFFFFFFFFFFFFFFFFFFFFFFFFFFFFFFFFF AND DUP5 PUSH20 0xFFFFFFFFFFFFFFFFFFFFFFFFFFFFFFFFFFFFFFFF AND PUSH32 0xDDF252AD1BE2C89B69C2B068FC378DAA952BA7F163C4A11628F55A4DF523B3EF DUP5 PUSH1 0x40 MLOAD PUSH2 0x4E4 SWAP2 SWAP1 PUSH2 0x8AB JUMP JUMPDEST PUSH1 0x40 MLOAD DUP1 SWAP2 SUB SWAP1 LOG3 PUSH1 0x1 SWAP1 POP PUSH2 0x4FA JUMP JUMPDEST PUSH1 0x0 SWAP1 POP JUMPDEST SWAP4 SWAP3 POP POP POP JUMP JUMPDEST PUSH1 0x0 DUP1 PUSH1 0x0 DUP4 PUSH20 0xFFFFFFFFFFFFFFFFFFFFFFFFFFFFFFFFFFFFFFFF AND PUSH20 0xFFFFFFFFFFFFFFFFFFFFFFFFFFFFFFFFFFFFFFFF AND DUP2 MSTORE PUSH1 0x20 ADD SWAP1 DUP2 MSTORE PUSH1 0x20 ADD PUSH1 0x0 KECCAK256 SLOAD SWAP1 POP SWAP2 SWAP1 POP JUMP JUMPDEST PUSH1 0x0 DUP2 PUSH1 0x0 DUP1 CALLER PUSH20 0xFFFFFFFFFFFFFFFFFFFFFFFFFFFFFFFFFFFFFFFF AND PUSH20 0xFFFFFFFFFFFFFFFFFFFFFFFFFFFFFFFFFFFFFFFF AND DUP2 MSTORE PUSH1 0x20 ADD SWAP1 DUP2 MSTORE PUSH1 0x20 ADD PUSH1 0x0 KECCAK256 SLOAD LT ISZERO DUP1 ISZERO PUSH2 0x599 JUMPI POP PUSH1 0x0 DUP3 GT JUMPDEST ISZERO PUSH2 0x6B6 JUMPI DUP2 PUSH1 0x0 DUP1 CALLER PUSH20 0xFFFFFFFFFFFFFFFFFFFFFFFFFFFFFFFFFFFFFFFF AND PUSH20 0xFFFFFFFFFFFFFFFFFFFFFFFFFFFFFFFFFFFFFFFF AND DUP2 MSTORE PUSH1 0x20 ADD SWAP1 DUP2 MSTORE PUSH1 0x20 ADD PUSH1 0x0 KECCAK256 PUSH1 0x0 DUP3 DUP3 SLOAD PUSH2 0x5EC SWAP2 SWAP1 PUSH2 0x91C JUMP JUMPDEST SWAP3 POP POP DUP2 SWAP1 SSTORE POP DUP2 PUSH1 0x0 DUP1 DUP6 PUSH20 0xFFFFFFFFFFFFFFFFFFFFFFFFFFFFFFFFFFFFFFFF AND PUSH20 0xFFFFFFFFFFFFFFFFFFFFFFFFFFFFFFFFFFFFFFFF AND DUP2 MSTORE PUSH1 0x20 ADD SWAP1 DUP2 MSTORE PUSH1 0x20 ADD PUSH1 0x0 KECCAK256 PUSH1 0x0 DUP3 DUP3 SLOAD PUSH2 0x641 SWAP2 SWAP1 PUSH2 0x8C6 JUMP JUMPDEST SWAP3 POP POP DUP2 SWAP1 SSTORE POP DUP3 PUSH20 0xFFFFFFFFFFFFFFFFFFFFFFFFFFFFFFFFFFFFFFFF AND CALLER PUSH20 0xFFFFFFFFFFFFFFFFFFFFFFFFFFFFFFFFFFFFFFFF AND PUSH32 0xDDF252AD1BE2C89B69C2B068FC378DAA952BA7F163C4A11628F55A4DF523B3EF DUP5 PUSH1 0x40 MLOAD PUSH2 0x6A5 SWAP2 SWAP1 PUSH2 0x8AB JUMP JUMPDEST PUSH1 0x40 MLOAD DUP1 SWAP2 SUB SWAP1 LOG3 PUSH1 0x1 SWAP1 POP PUSH2 0x6BB JUMP JUMPDEST PUSH1 0x0 SWAP1 POP JUMPDEST SWAP3 SWAP2 POP POP JUMP JUMPDEST PUSH1 0x0 PUSH1 0x1 PUSH1 0x0 DUP5 PUSH20 0xFFFFFFFFFFFFFFFFFFFFFFFFFFFFFFFFFFFFFFFF AND PUSH20 0xFFFFFFFFFFFFFFFFFFFFFFFFFFFFFFFFFFFFFFFF AND DUP2 MSTORE PUSH1 0x20 ADD SWAP1 DUP2 MSTORE PUSH1 0x20 ADD PUSH1 0x0 KECCAK256 PUSH1 0x0 DUP4 PUSH20 0xFFFFFFFFFFFFFFFFFFFFFFFFFFFFFFFFFFFFFFFF AND PUSH20 0xFFFFFFFFFFFFFFFFFFFFFFFFFFFFFFFFFFFFFFFF AND DUP2 MSTORE PUSH1 0x20 ADD SWAP1 DUP2 MSTORE PUSH1 0x20 ADD PUSH1 0x0 KECCAK256 SLOAD SWAP1 POP SWAP3 SWAP2 POP POP JUMP JUMPDEST PUSH1 0x0 DUP2 CALLDATALOAD SWAP1 POP PUSH2 0x757 DUP2 PUSH2 0x9CC JUMP JUMPDEST SWAP3 SWAP2 POP POP JUMP JUMPDEST PUSH1 0x0 DUP2 CALLDATALOAD SWAP1 POP PUSH2 0x76C DUP2 PUSH2 0x9E3 JUMP JUMPDEST SWAP3 SWAP2 POP POP JUMP JUMPDEST PUSH1 0x0 PUSH1 0x20 DUP3 DUP5 SUB SLT ISZERO PUSH2 0x788 JUMPI PUSH2 0x787 PUSH2 0x9C7 JUMP JUMPDEST JUMPDEST PUSH1 0x0 PUSH2 0x796 DUP5 DUP3 DUP6 ADD PUSH2 0x748 JUMP JUMPDEST SWAP2 POP POP SWAP3 SWAP2 POP POP JUMP JUMPDEST PUSH1 0x0 DUP1 PUSH1 0x40 DUP4 DUP6 SUB SLT ISZERO PUSH2 0x7B6 JUMPI PUSH2 0x7B5 PUSH2 0x9C7 JUMP JUMPDEST JUMPDEST PUSH1 0x0 PUSH2 0x7C4 DUP6 DUP3 DUP7 ADD PUSH2 0x748 JUMP JUMPDEST SWAP3 POP POP PUSH1 0x20 PUSH2 0x7D5 DUP6 DUP3 DUP7 ADD PUSH2 0x748 JUMP JUMPDEST SWAP2 POP POP SWAP3 POP SWAP3 SWAP1 POP JUMP JUMPDEST PUSH1 0x0 DUP1 PUSH1 0x0 PUSH1 0x60 DUP5 DUP7 SUB SLT ISZERO PUSH2 0x7F8 JUMPI PUSH2 0x7F7 PUSH2 0x9C7 JUMP JUMPDEST JUMPDEST PUSH1 0x0 PUSH2 0x806 DUP7 DUP3 DUP8 ADD PUSH2 0x748 JUMP JUMPDEST SWAP4 POP POP PUSH1 0x20 PUSH2 0x817 DUP7 DUP3 DUP8 ADD PUSH2 0x748 JUMP JUMPDEST SWAP3 POP POP PUSH1 0x40 PUSH2 0x828 DUP7 DUP3 DUP8 ADD PUSH2 0x75D JUMP JUMPDEST SWAP2 POP POP SWAP3 POP SWAP3 POP SWAP3 JUMP JUMPDEST PUSH1 0x0 DUP1 PUSH1 0x40 DUP4 DUP6 SUB SLT ISZERO PUSH2 0x849 JUMPI PUSH2 0x848 PUSH2 0x9C7 JUMP JUMPDEST JUMPDEST PUSH1 0x0 PUSH2 0x857 DUP6 DUP3 DUP7 ADD PUSH2 0x748 JUMP JUMPDEST SWAP3 POP POP PUSH1 0x20 PUSH2 0x868 DUP6 DUP3 DUP7 ADD PUSH2 0x75D JUMP JUMPDEST SWAP2 POP POP SWAP3 POP SWAP3 SWAP1 POP JUMP JUMPDEST PUSH2 0x87B DUP2 PUSH2 0x962 JUMP JUMPDEST DUP3 MSTORE POP POP JUMP JUMPDEST PUSH2 0x88A DUP2 PUSH2 0x98E JUMP JUMPDEST DUP3 MSTORE POP POP JUMP JUMPDEST PUSH1 0x0 PUSH1 0x20 DUP3 ADD SWAP1 POP PUSH2 0x8A5 PUSH1 0x0 DUP4 ADD DUP5 PUSH2 0x872 JUMP JUMPDEST SWAP3 SWAP2 POP POP JUMP JUMPDEST PUSH1 0x0 PUSH1 0x20 DUP3 ADD SWAP1 POP PUSH2 0x8C0 PUSH1 0x0 DUP4 ADD DUP5 PUSH2 0x881 JUMP JUMPDEST SWAP3 SWAP2 POP POP JUMP JUMPDEST PUSH1 0x0 PUSH2 0x8D1 DUP3 PUSH2 0x98E JUMP JUMPDEST SWAP2 POP PUSH2 0x8DC DUP4 PUSH2 0x98E JUMP JUMPDEST SWAP3 POP DUP3 PUSH32 0xFFFFFFFFFFFFFFFFFFFFFFFFFFFFFFFFFFFFFFFFFFFFFFFFFFFFFFFFFFFFFFFF SUB DUP3 GT ISZERO PUSH2 0x911 JUMPI PUSH2 0x910 PUSH2 0x998 JUMP JUMPDEST JUMPDEST DUP3 DUP3 ADD SWAP1 POP SWAP3 SWAP2 POP POP JUMP JUMPDEST PUSH1 0x0 PUSH2 0x927 DUP3 PUSH2 0x98E JUMP JUMPDEST SWAP2 POP PUSH2 0x932 DUP4 PUSH2 0x98E JUMP JUMPDEST SWAP3 POP DUP3 DUP3 LT ISZERO PUSH2 0x945 JUMPI PUSH2 0x944 PUSH2 0x998 JUMP JUMPDEST JUMPDEST DUP3 DUP3 SUB SWAP1 POP SWAP3 SWAP2 POP POP JUMP JUMPDEST PUSH1 0x0 PUSH2 0x95B DUP3 PUSH2 0x96E JUMP JUMPDEST SWAP1 POP SWAP2 SWAP1 POP JUMP JUMPDEST PUSH1 0x0 DUP2 ISZERO ISZERO SWAP1 POP SWAP2 SWAP1 POP JUMP JUMPDEST PUSH1 0x0 PUSH20 0xFFFFFFFFFFFFFFFFFFFFFFFFFFFFFFFFFFFFFFFF DUP3 AND SWAP1 POP SWAP2 SWAP1 POP JUMP JUMPDEST PUSH1 0x0 DUP2 SWAP1 POP SWAP2 SWAP1 POP JUMP JUMPDEST PUSH32 0x4E487B7100000000000000000000000000000000000000000000000000000000 PUSH1 0x0 MSTORE PUSH1 0x11 PUSH1 0x4 MSTORE PUSH1 0x24 PUSH1 0x0 REVERT JUMPDEST PUSH1 0x0 DUP1 REVERT JUMPDEST PUSH2 0x9D5 DUP2 PUSH2 0x950 JUMP JUMPDEST DUP2 EQ PUSH2 0x9E0 JUMPI PUSH1 0x0 DUP1 REVERT JUMPDEST POP JUMP JUMPDEST PUSH2 0x9EC DUP2 PUSH2 0x98E JUMP JUMPDEST DUP2 EQ PUSH2 0x9F7 JUMPI PUSH1 0x0 DUP1 REVERT JUMPDEST POP JUMP INVALID LOG2 PUSH5 0x6970667358 0x22 SLT KECCAK256 0xAC COINBASE CREATE2 CALLDATASIZE MUL 0xE8 SHL 0xC9 0x5D PUSH8 0xAC7286E68D19204E 0xD 0xE3 LOG0 SSTORE BYTE 0x2E SWAP10 PUSH25 0xD3E24EF5626B64736F6C634300080700330000000000000000 "
				},
				"gasEstimates": {
					"creation": {
						"codeDepositCost": "521600",
						"executionCost": "556",
						"totalCost": "522156"
					},
					"external": {
						"allowance(address,address)": "infinite",
						"approve(address,uint256)": "infinite",
						"balanceOf(address)": "2885",
						"totalSupply()": "2429",
						"transfer(address,uint256)": "infinite",
						"transferFrom(address,address,uint256)": "infinite"
					}
				},
				"methodIdentifiers": {
					"allowance(address,address)": "dd62ed3e",
					"approve(address,uint256)": "095ea7b3",
					"balanceOf(address)": "70a08231",
					"totalSupply()": "18160ddd",
					"transfer(address,uint256)": "a9059cbb",
					"transferFrom(address,address,uint256)": "23b872dd"
				}
			},
			"storageLayout": {
				"storage": [
					{
						"astId": 254,
						"contract": "ChildToken.sol:StandardToken",
						"label": "balances",
						"offset": 0,
						"slot": "0",
						"type": "t_mapping(t_address,t_uint256)"
					},
					{
						"astId": 260,
						"contract": "ChildToken.sol:StandardToken",
						"label": "allowed",
						"offset": 0,
						"slot": "1",
						"type": "t_mapping(t_address,t_mapping(t_address,t_uint256))"
					},
					{
						"astId": 263,
						"contract": "ChildToken.sol:StandardToken",
						"label": "totalSupply",
						"offset": 0,
						"slot": "2",
						"type": "t_uint256"
					}
				],
				"types": {
					"t_address": {
						"encoding": "inplace",
						"label": "address",
						"numberOfBytes": "20"
					},
					"t_mapping(t_address,t_mapping(t_address,t_uint256))": {
						"encoding": "mapping",
						"key": "t_address",
						"label": "mapping(address => mapping(address => uint256))",
						"numberOfBytes": "32",
						"value": "t_mapping(t_address,t_uint256)"
					},
					"t_mapping(t_address,t_uint256)": {
						"encoding": "mapping",
						"key": "t_address",
						"label": "mapping(address => uint256)",
						"numberOfBytes": "32",
						"value": "t_uint256"
					},
					"t_uint256": {
						"encoding": "inplace",
						"label": "uint256",
						"numberOfBytes": "32"
					}
				}
			},
			"userdoc": {
				"kind": "user",
				"methods": {},
				"version": 1
			}
		}
	}
}