{"contracts/ERC721Verifier.sol":{"ERC721Verifier":{"abi":[{"inputs":[{"internalType":"string","name":"name_","type":"string"},{"internalType":"string","name":"symbol_","type":"string"}],"stateMutability":"nonpayable","type":"constructor"},{"anonymous":false,"inputs":[{"indexed":true,"internalType":"address","name":"owner","type":"address"},{"indexed":true,"internalType":"address","name":"approved","type":"address"},{"indexed":true,"internalType":"uint256","name":"tokenId","type":"uint256"}],"name":"Approval","type":"event"},{"anonymous":false,"inputs":[{"indexed":true,"internalType":"address","name":"owner","type":"address"},{"indexed":true,"internalType":"address","name":"operator","type":"address"},{"indexed":false,"internalType":"bool","name":"approved","type":"bool"}],"name":"ApprovalForAll","type":"event"},{"anonymous":false,"inputs":[{"indexed":true,"internalType":"address","name":"previousOwner","type":"address"},{"indexed":true,"internalType":"address","name":"newOwner","type":"address"}],"name":"OwnershipTransferred","type":"event"},{"anonymous":false,"inputs":[{"indexed":true,"internalType":"address","name":"from","type":"address"},{"indexed":true,"internalType":"address","name":"to","type":"address"},{"indexed":true,"internalType":"uint256","name":"tokenId","type":"uint256"}],"name":"Transfer","type":"event"},{"inputs":[],"name":"TRANSFER_REQUEST_ID","outputs":[{"internalType":"uint64","name":"","type":"uint64"}],"stateMutability":"view","type":"function"},{"inputs":[{"internalType":"address","name":"","type":"address"}],"name":"addressToId","outputs":[{"internalType":"uint256","name":"","type":"uint256"}],"stateMutability":"view","type":"function"},{"inputs":[{"internalType":"address","name":"to","type":"address"},{"internalType":"uint256","name":"tokenId","type":"uint256"}],"name":"approve","outputs":[],"stateMutability":"nonpayable","type":"function"},{"inputs":[{"internalType":"address","name":"owner","type":"address"}],"name":"balanceOf","outputs":[{"internalType":"uint256","name":"","type":"uint256"}],"stateMutability":"view","type":"function"},{"inputs":[{"internalType":"uint256","name":"tokenId","type":"uint256"}],"name":"getApproved","outputs":[{"internalType":"address","name":"","type":"address"}],"stateMutability":"view","type":"function"},{"inputs":[],"name":"getSupportedRequests","outputs":[{"internalType":"uint64[]","name":"arr","type":"uint64[]"}],"stateMutability":"view","type":"function"},{"inputs":[{"internalType":"uint64","name":"requestId","type":"uint64"}],"name":"getZKPRequest","outputs":[{"components":[{"internalType":"uint256","name":"schema","type":"uint256"},{"internalType":"uint256","name":"slotIndex","type":"uint256"},{"internalType":"uint256","name":"operator","type":"uint256"},{"internalType":"uint256[]","name":"value","type":"uint256[]"},{"internalType":"string","name":"circuitId","type":"string"}],"internalType":"struct ICircuitValidator.CircuitQuery","name":"","type":"tuple"}],"stateMutability":"view","type":"function"},{"inputs":[{"internalType":"uint256","name":"","type":"uint256"}],"name":"idToAddress","outputs":[{"internalType":"address","name":"","type":"address"}],"stateMutability":"view","type":"function"},{"inputs":[{"internalType":"address","name":"owner","type":"address"},{"internalType":"address","name":"operator","type":"address"}],"name":"isApprovedForAll","outputs":[{"internalType":"bool","name":"","type":"bool"}],"stateMutability":"view","type":"function"},{"inputs":[],"name":"name","outputs":[{"internalType":"string","name":"","type":"string"}],"stateMutability":"view","type":"function"},{"inputs":[],"name":"owner","outputs":[{"internalType":"address","name":"","type":"address"}],"stateMutability":"view","type":"function"},{"inputs":[{"internalType":"uint256","name":"tokenId","type":"uint256"}],"name":"ownerOf","outputs":[{"internalType":"address","name":"","type":"address"}],"stateMutability":"view","type":"function"},{"inputs":[{"internalType":"address","name":"","type":"address"},{"internalType":"uint64","name":"","type":"uint64"}],"name":"proofs","outputs":[{"internalType":"bool","name":"","type":"bool"}],"stateMutability":"view","type":"function"},{"inputs":[],"name":"renounceOwnership","outputs":[],"stateMutability":"nonpayable","type":"function"},{"inputs":[{"internalType":"uint64","name":"","type":"uint64"}],"name":"requestQueries","outputs":[{"internalType":"uint256","name":"schema","type":"uint256"},{"internalType":"uint256","name":"slotIndex","type":"uint256"},{"internalType":"uint256","name":"operator","type":"uint256"},{"internalType":"string","name":"circuitId","type":"string"}],"stateMutability":"view","type":"function"},{"inputs":[{"internalType":"uint64","name":"","type":"uint64"}],"name":"requestValidators","outputs":[{"internalType":"contract ICircuitValidator","name":"","type":"address"}],"stateMutability":"view","type":"function"},{"inputs":[{"internalType":"address","name":"from","type":"address"},{"internalType":"address","name":"to","type":"address"},{"internalType":"uint256","name":"tokenId","type":"uint256"}],"name":"safeTransferFrom","outputs":[],"stateMutability":"nonpayable","type":"function"},{"inputs":[{"internalType":"address","name":"from","type":"address"},{"internalType":"address","name":"to","type":"address"},{"internalType":"uint256","name":"tokenId","type":"uint256"},{"internalType":"bytes","name":"data","type":"bytes"}],"name":"safeTransferFrom","outputs":[],"stateMutability":"nonpayable","type":"function"},{"inputs":[{"internalType":"address","name":"operator","type":"address"},{"internalType":"bool","name":"approved","type":"bool"}],"name":"setApprovalForAll","outputs":[],"stateMutability":"nonpayable","type":"function"},{"inputs":[{"internalType":"uint64","name":"requestId","type":"uint64"},{"internalType":"contract ICircuitValidator","name":"validator","type":"address"},{"components":[{"internalType":"uint256","name":"schema","type":"uint256"},{"internalType":"uint256","name":"slotIndex","type":"uint256"},{"internalType":"uint256","name":"operator","type":"uint256"},{"internalType":"uint256[]","name":"value","type":"uint256[]"},{"internalType":"string","name":"circuitId","type":"string"}],"internalType":"struct ICircuitValidator.CircuitQuery","name":"query","type":"tuple"}],"name":"setZKPRequest","outputs":[{"internalType":"bool","name":"","type":"bool"}],"stateMutability":"nonpayable","type":"function"},{"inputs":[{"internalType":"uint64","name":"requestId","type":"uint64"},{"internalType":"uint256[]","name":"inputs","type":"uint256[]"},{"internalType":"uint256[2]","name":"a","type":"uint256[2]"},{"internalType":"uint256[2][2]","name":"b","type":"uint256[2][2]"},{"internalType":"uint256[2]","name":"c","type":"uint256[2]"}],"name":"submitZKPResponse","outputs":[{"internalType":"bool","name":"","type":"bool"}],"stateMutability":"nonpayable","type":"function"},{"inputs":[{"internalType":"uint256","name":"","type":"uint256"}],"name":"supportedRequests","outputs":[{"internalType":"uint64","name":"","type":"uint64"}],"stateMutability":"view","type":"function"},{"inputs":[{"internalType":"bytes4","name":"interfaceId","type":"bytes4"}],"name":"supportsInterface","outputs":[{"internalType":"bool","name":"","type":"bool"}],"stateMutability":"view","type":"function"},{"inputs":[],"name":"symbol","outputs":[{"internalType":"string","name":"","type":"string"}],"stateMutability":"view","type":"function"},{"inputs":[{"internalType":"uint256","name":"tokenId","type":"uint256"}],"name":"tokenURI","outputs":[{"internalType":"string","name":"","type":"string"}],"stateMutability":"view","type":"function"},{"inputs":[{"internalType":"address","name":"from","type":"address"},{"internalType":"address","name":"to","type":"address"},{"internalType":"uint256","name":"tokenId","type":"uint256"}],"name":"transferFrom","outputs":[],"stateMutability":"nonpayable","type":"function"},{"inputs":[{"internalType":"address","name":"newOwner","type":"address"}],"name":"transferOwnership","outputs":[],"stateMutability":"nonpayable","type":"function"},{"inputs":[{"internalType":"uint256","name":"decimalValue","type":"uint256"}],"name":"uintToHex","outputs":[{"internalType":"bytes","name":"","type":"bytes"}],"stateMutability":"pure","type":"function"}],"evm":{"bytecode":{"linkReferences":{},"object":"60806040523480156200001157600080fd5b50604051620035b1380380620035b18339810160408190526200003491620001b1565b81816000620000448382620002aa565b506001620000538282620002aa565b505050620000706200006a6200009660201b60201c565b6200009a565b600b6200007e8382620002aa565b50600c6200008d8282620002aa565b50505062000376565b3390565b600680546001600160a01b038381166001600160a01b0319831681179093556040519116919082907f8be0079c531659141344cd1fd0a4f28419497f9722a3daafe3b4186f6b6457e090600090a35050565b634e487b7160e01b600052604160045260246000fd5b600082601f8301126200011457600080fd5b81516001600160401b0380821115620001315762000131620000ec565b604051601f8301601f19908116603f011681019082821181831017156200015c576200015c620000ec565b816040528381526020925086838588010111156200017957600080fd5b600091505b838210156200019d57858201830151818301840152908201906200017e565b600093810190920192909252949350505050565b60008060408385031215620001c557600080fd5b82516001600160401b0380821115620001dd57600080fd5b620001eb8683870162000102565b935060208501519150808211156200020257600080fd5b50620002118582860162000102565b9150509250929050565b600181811c908216806200023057607f821691505b6020821081036200025157634e487b7160e01b600052602260045260246000fd5b50919050565b601f821115620002a557600081815260208120601f850160051c81016020861015620002805750805b601f850160051c820191505b81811015620002a1578281556001016200028c565b5050505b505050565b81516001600160401b03811115620002c657620002c6620000ec565b620002de81620002d784546200021b565b8462000257565b602080601f831160018114620003165760008415620002fd5750858301515b600019600386901b1c1916600185901b178555620002a1565b600085815260208120601f198616915b82811015620003475788860151825594840194600190910190840162000326565b5085821015620003665787850151600019600388901b60f8161c191681555b5050505050600190811b01905550565b61322b80620003866000396000f3fe608060405234801561001057600080fd5b50600436106101c45760003560e01c806396bf4741116100f9578063c87b56dd11610097578063e985e9c511610071578063e985e9c514610438578063f14353261461044b578063f2fde38b1461045e578063fee207e61461047157600080fd5b8063c87b56dd146103f2578063cb0e0d7d14610405578063e6f4edbd1461042557600080fd5b8063b45c0fdf116100d3578063b45c0fdf1461037e578063b68967e2146103ac578063b88d4fde146103bf578063c76d0845146103d257600080fd5b806396bf47411461031f578063a22cb46514610342578063a87231141461035557600080fd5b806342842e0e1161016657806370a082311161014057806370a08231146102dd578063715018a6146102fe5780638da5cb5b1461030657806395d89b411461031757600080fd5b806342842e0e146102975780636352211e146102aa57806363ec508f146102bd57600080fd5b8063095ea7b3116101a2578063095ea7b31461023157806323b872dd146102465780632a2d0c471461025957806337ba95231461028257600080fd5b806301ffc9a7146101c957806306fdde03146101f1578063081812fc14610206575b600080fd5b6101dc6101d73660046121ca565b610484565b60405190151581526020015b60405180910390f35b6101f96104d6565b6040516101e8919061223e565b610219610214366004612251565b610568565b6040516001600160a01b0390911681526020016101e8565b61024461023f36600461227f565b61058f565b005b6102446102543660046122ab565b6106a9565b610219610267366004612251565b600d602052600090815260409020546001600160a01b031681565b61028a6106da565b6040516101e891906122ec565b6102446102a53660046122ab565b610763565b6102196102b8366004612251565b61077e565b6102c5600181565b6040516001600160401b0390911681526020016101e8565b6102f06102eb366004612339565b6107de565b6040519081526020016101e8565b610244610864565b6006546001600160a01b0316610219565b6101f9610878565b61033261032d366004612372565b610887565b6040516101e8949392919061238d565b6102446103503660046123ca565b61093a565b610219610363366004612372565b6009602052600090815260409020546001600160a01b031681565b6101dc61038c366004612403565b600760209081526000928352604080842090915290825290205460ff1681565b6101dc6103ba366004612597565b610949565b6102446103cd3660046126b8565b610ba7565b6103e56103e0366004612372565b610bdf565b6040516101e89190612772565b6101f9610400366004612251565b610d3c565b6102f0610413366004612339565b600e6020526000908152604090205481565b6101f9610433366004612251565b610e2a565b6101dc6104463660046127d2565b6110d8565b6102c5610459366004612251565b611106565b61024461046c366004612339565b611143565b6101dc61047f366004612800565b6111bc565b60006001600160e01b031982166380ac58cd60e01b14806104b557506001600160e01b03198216635b5e139f60e01b145b806104d057506301ffc9a760e01b6001600160e01b03198316145b92915050565b6060600080546104e5906128ea565b80601f0160208091040260200160405190810160405280929190818152602001828054610511906128ea565b801561055e5780601f106105335761010080835404028352916020019161055e565b820191906000526020600020905b81548152906001019060200180831161054157829003601f168201915b5050505050905090565b60006105738261133a565b506000908152600460205260409020546001600160a01b031690565b600061059a8261077e565b9050806001600160a01b0316836001600160a01b03160361060c5760405162461bcd60e51b815260206004820152602160248201527f4552433732313a20617070726f76616c20746f2063757272656e74206f776e656044820152603960f91b60648201526084015b60405180910390fd5b336001600160a01b0382161480610628575061062881336110d8565b61069a5760405162461bcd60e51b815260206004820152603e60248201527f4552433732313a20617070726f76652063616c6c6572206973206e6f7420746f60448201527f6b656e206f776e6572206e6f7220617070726f76656420666f7220616c6c00006064820152608401610603565b6106a48383611399565b505050565b6106b33382611407565b6106cf5760405162461bcd60e51b815260040161060390612924565b6106a4838383611466565b6060600a80548060200260200160405190810160405280929190818152602001828054801561055e57602002820191906000526020600020906000905b82829054906101000a90046001600160401b03166001600160401b0316815260200190600801906020826007010492830192600103820291508084116107175790505050505050905090565b6106a483838360405180602001604052806000815250610ba7565b6000818152600260205260408120546001600160a01b0316806104d05760405162461bcd60e51b8152602060048201526018602482015277115490cdcc8c4e881a5b9d985b1a59081d1bdad95b88125160421b6044820152606401610603565b60006001600160a01b0382166108485760405162461bcd60e51b815260206004820152602960248201527f4552433732313a2061646472657373207a65726f206973206e6f7420612076616044820152683634b21037bbb732b960b91b6064820152608401610603565b506001600160a01b031660009081526003602052604090205490565b61086c61160d565b6108766000611667565b565b6060600180546104e5906128ea565b6008602052600090815260409020805460018201546002830154600484018054939492939192916108b7906128ea565b80601f01602080910402602001604051908101604052809291908181526020018280546108e3906128ea565b80156109305780601f1061090557610100808354040283529160200191610930565b820191906000526020600020905b81548152906001019060200180831161091357829003601f168201915b5050505050905084565b6109453383836116b9565b5050565b6001600160401b0385166000908152600960205260408120546001600160a01b03166109c85760405162461bcd60e51b815260206004820152602860248201527f76616c696461746f72206973206e6f742073657420666f7220746869732072656044820152671c5d595cdd081a5960c21b6064820152608401610603565b6001600160401b0386166000908152600860205260408120549003610a3b5760405162461bcd60e51b8152602060048201526024808201527f7175657279206973206e6f742073657420666f722074686973207265717565736044820152631d081a5960e21b6064820152608401610603565b6001600160401b038616600090815260096020526040902054610a6a90879087906001600160a01b0316611787565b6001600160401b03861660009081526009602090815260408083205460089092529182902091516319f8754160e21b81526001600160a01b03909116916367e1d50491610ac291899189918991899190600401612a12565b602060405180830381865afa158015610adf573d6000803e3d6000fd5b505050506040513d601f19601f82011682018060405250810190610b039190612aff565b610b4f5760405162461bcd60e51b815260206004820152601b60248201527f70726f6f6620726573706f6e7365206973206e6f742076616c696400000000006044820152606401610603565b3360009081526007602090815260408083206001600160401b038a1684528252808320805460ff191660011790556009909152902054610b9b90879087906001600160a01b0316611877565b50600195945050505050565b610bb13383611407565b610bcd5760405162461bcd60e51b815260040161060390612924565b610bd9848484846119f8565b50505050565b610c116040518060a0016040528060008152602001600081526020016000815260200160608152602001606081525090565b6001600160401b038216600090815260086020908152604091829020825160a081018452815481526001820154818401526002820154818501526003820180548551818602810186019096528086529194929360608601939290830182828015610c9a57602002820191906000526020600020905b815481526020019060010190808311610c86575b50505050508152602001600482018054610cb3906128ea565b80601f0160208091040260200160405190810160405280929190818152602001828054610cdf906128ea565b8015610d2c5780601f10610d0157610100808354040283529160200191610d2c565b820191906000526020600020905b815481529060010190602001808311610d0f57829003601f168201915b5050505050815250509050919050565b6000818152600260205260409020546060906001600160a01b0316610da35760405162461bcd60e51b815260206004820152601860248201527f546f6b656e20494420646f6573206e6f742065786973742e00000000000000006044820152606401610603565b6000610dae83610e2a565b90506000610dff610dbe85611a2b565b83600b600c610deb87604051602001610dd79190612b38565b604051602081830303815290604052611b2b565b604051602001610dd7959493929190612cb8565b905080604051602001610e129190612e0f565b60405160208183030381529060405292505050919050565b6040805160208082018352600080835283516102408101855260016102008201818152600360fc1b610220840152825285518087018752818152603160f81b818601528285015285518087018752818152601960f91b818601528287015285518087018752818152603360f81b8186015260608381019190915286518088018852828152600d60fa1b81870152608084015286518088018852828152603560f81b8187015260a084015286518088018852828152601b60f91b8187015260c084015286518088018852828152603760f81b8187015260e084015286518088018852828152600760fb1b8187015261010084015286518088018852828152603960f81b8187015261012084015286518088018852828152604160f81b8187015261014084015286518088018852828152602160f91b8187015261016084015286518088018852828152604360f81b8187015261018084015286518088018852828152601160fa1b818701526101a084015286518088018852828152604560f81b818701526101c08401528651808801909752908652602360f91b938601939093526101e081019490945290929091905b841561103f57610fea601086612e6a565b9250600081846010811061100057611000612e7e565b60200201519050808360405160200161101a929190612e94565b60408051601f198184030181529190529250611037601087612ed9565b955050610fd9565b81516005819003611071578260405160200161105b9190612eed565b60405160208183030381529060405292506110ce565b8060040361108a578260405160200161105b9190612f16565b806003036110a3578260405160200161105b9190612f40565b806004036110ce57826040516020016110bc9190612f6b565b60405160208183030381529060405292505b5090949350505050565b6001600160a01b03918216600090815260056020908152604080832093909416825291909152205460ff1690565b600a818154811061111657600080fd5b9060005260206000209060049182820401919006600802915054906101000a90046001600160401b031681565b61114b61160d565b6001600160a01b0381166111b05760405162461bcd60e51b815260206004820152602660248201527f4f776e61626c653a206e6577206f776e657220697320746865207a65726f206160448201526564647265737360d01b6064820152608401610603565b6111b981611667565b50565b60006111c661160d565b6001600160401b0384166000908152600960205260409020546001600160a01b031661124a57600a80546001810182556000919091527fc65a7bb8d6351c1cf70c95a316cc6a92839c986682d98bc35f958f4883f9d2a86004820401805460039092166008026101000a6001600160401b0381810219909316928716029190911790555b60608201516001600160401b0385166000908152600860209081526040909120825161127f9360039092019290910190612154565b506040808301516001600160401b0386166000908152600860205291909120600281019190915560808301516004909101906112bb9082612fe5565b506020808301516001600160401b03861660009081526008909252604090912060018101919091558251815560808301516004909101906112fc9082612fe5565b50506001600160401b038316600090815260096020526040902080546001600160a01b0384166001600160a01b031990911617905560019392505050565b6000818152600260205260409020546001600160a01b03166111b95760405162461bcd60e51b8152602060048201526018602482015277115490cdcc8c4e881a5b9d985b1a59081d1bdad95b88125160421b6044820152606401610603565b600081815260046020526040902080546001600160a01b0319166001600160a01b03841690811790915581906113ce8261077e565b6001600160a01b03167f8c5be1e5ebec7d5bd14f71427d1e84f3dd0314c0f7b2291e5b200ac8c7c3b92560405160405180910390a45050565b6000806114138361077e565b9050806001600160a01b0316846001600160a01b0316148061143a575061143a81856110d8565b8061145e5750836001600160a01b031661145384610568565b6001600160a01b0316145b949350505050565b826001600160a01b03166114798261077e565b6001600160a01b0316146114dd5760405162461bcd60e51b815260206004820152602560248201527f4552433732313a207472616e736665722066726f6d20696e636f72726563742060448201526437bbb732b960d91b6064820152608401610603565b6001600160a01b03821661153f5760405162461bcd60e51b8152602060048201526024808201527f4552433732313a207472616e7366657220746f20746865207a65726f206164646044820152637265737360e01b6064820152608401610603565b61154a838383611c91565b611555600082611399565b6001600160a01b038316600090815260036020526040812080546001929061157e9084906130a4565b90915550506001600160a01b03821660009081526003602052604081208054600192906115ac9084906130b7565b909155505060008181526002602052604080822080546001600160a01b0319166001600160a01b0386811691821790925591518493918716917fddf252ad1be2c89b69c2b068fc378daa952ba7f163c4a11628f55a4df523b3ef91a4505050565b6006546001600160a01b031633146108765760405162461bcd60e51b815260206004820181905260248201527f4f776e61626c653a2063616c6c6572206973206e6f7420746865206f776e65726044820152606401610603565b600680546001600160a01b038381166001600160a01b0319831681179093556040519116919082907f8be0079c531659141344cd1fd0a4f28419497f9722a3daafe3b4186f6b6457e090600090a35050565b816001600160a01b0316836001600160a01b03160361171a5760405162461bcd60e51b815260206004820152601960248201527f4552433732313a20617070726f766520746f2063616c6c6572000000000000006044820152606401610603565b6001600160a01b03838116600081815260056020908152604080832094871680845294825291829020805460ff191686151590811790915591519182527f17307eab39ab6107e8899845ad3d59bd9653f200f220920489ca2b5937696c31910160405180910390a3505050565b600061180c83836001600160a01b0316639f442afa6040518163ffffffff1660e01b8152600401602060405180830381865afa1580156117cb573d6000803e3d6000fd5b505050506040513d601f19601f820116820180604052508101906117ef91906130ca565b815181106117ff576117ff612e7e565b6020026020010151611d31565b9050336001600160a01b03821614610bd95760405162461bcd60e51b815260206004820152602860248201527f6164647265737320696e2070726f6f66206973206e6f7420612073656e646572604482015267206164647265737360c01b6064820152608401610603565b6001600160401b038316600114801561189d5750336000908152600e6020526040902054155b6118fb5760405162461bcd60e51b815260206004820152602960248201527f70726f6f662063616e206e6f74206265207375626d6974746564206d6f7265206044820152687468616e206f6e636560b81b6064820152608401610603565b600082826001600160a01b0316639f442afa6040518163ffffffff1660e01b8152600401602060405180830381865afa15801561193c573d6000803e3d6000fd5b505050506040513d601f19601f8201168201806040525081019061196091906130ca565b8151811061197057611970612e7e565b6020908102919091018101516000818152600d9092526040909120549091506001600160a01b0316610bd95760006119a7600f5490565b90506119b7600f80546001019055565b6119c13382611e8e565b50336000818152600e60209081526040808320859055938252600d90529190912080546001600160a01b0319169091179055505050565b611a03848484611466565b611a0f84848484611ea8565b610bd95760405162461bcd60e51b8152600401610603906130e3565b606081600003611a525750506040805180820190915260018152600360fc1b602082015290565b8160005b8115611a7c5780611a6681613135565b9150611a759050600a83612ed9565b9150611a56565b6000816001600160401b03811115611a9657611a96612438565b6040519080825280601f01601f191660200182016040528015611ac0576020820181803683370190505b5090505b841561145e57611ad56001836130a4565b9150611ae2600a86612e6a565b611aed9060306130b7565b60f81b818381518110611b0257611b02612e7e565b60200101906001600160f81b031916908160001a905350611b24600a86612ed9565b9450611ac4565b60608151600003611b4a57505060408051602081019091526000815290565b60006040518060600160405280604081526020016131b66040913990506000600384516002611b7991906130b7565b611b839190612ed9565b611b8e90600461314e565b90506000611b9d8260206130b7565b6001600160401b03811115611bb457611bb4612438565b6040519080825280601f01601f191660200182016040528015611bde576020820181803683370190505b509050818152600183018586518101602084015b81831015611c4c5760039283018051603f601282901c811687015160f890811b8552600c83901c8216880151811b6001860152600683901c8216880151811b60028601529116860151901b93820193909352600401611bf2565b600389510660018114611c665760028114611c7757611c83565b613d3d60f01b600119830152611c83565b603d60f81b6000198301525b509398975050505050505050565b6001600160a01b0382166000908152600760209081526040808320600180855292529091205460ff161515146106a4576040805162461bcd60e51b81526020600482015260248101919091527f6f6e6c79206964656e7469746965732077686f2070726f76696465642070726f60448201527f6f662061726520616c6c6f77656420746f207265636569766520746f6b656e736064820152608401610603565b60006104d0611e87611e828460008190506008817eff00ff00ff00ff00ff00ff00ff00ff00ff00ff00ff00ff00ff00ff00ff00ff16901b6008827fff00ff00ff00ff00ff00ff00ff00ff00ff00ff00ff00ff00ff00ff00ff00ff0016901c1790506010817dffff0000ffff0000ffff0000ffff0000ffff0000ffff0000ffff0000ffff16901b6010827fffff0000ffff0000ffff0000ffff0000ffff0000ffff0000ffff0000ffff000016901c1790506020817bffffffff00000000ffffffff00000000ffffffff00000000ffffffff16901b6020827fffffffff00000000ffffffff00000000ffffffff00000000ffffffff0000000016901c17905060408177ffffffffffffffff0000000000000000ffffffffffffffff16901b60408277ffffffffffffffff0000000000000000ffffffffffffffff1916901c179050608081901b608082901c179050919050565b611fa9565b6014015190565b610945828260405180602001604052806000815250611fd3565b60006001600160a01b0384163b15611f9e57604051630a85bd0160e11b81526001600160a01b0385169063150b7a0290611eec903390899088908890600401613165565b6020604051808303816000875af1925050508015611f27575060408051601f3d908101601f19168201909252611f2491810190613198565b60015b611f84573d808015611f55576040519150601f19603f3d011682016040523d82523d6000602084013e611f5a565b606091505b508051600003611f7c5760405162461bcd60e51b8152600401610603906130e3565b805181602001fd5b6001600160e01b031916630a85bd0160e11b14905061145e565b506001949350505050565b60408051602080825281830190925260609160208201818036833750505060208101929092525090565b611fdd8383612006565b611fea6000848484611ea8565b6106a45760405162461bcd60e51b8152600401610603906130e3565b6001600160a01b03821661205c5760405162461bcd60e51b815260206004820181905260248201527f4552433732313a206d696e7420746f20746865207a65726f20616464726573736044820152606401610603565b6000818152600260205260409020546001600160a01b0316156120c15760405162461bcd60e51b815260206004820152601c60248201527f4552433732313a20746f6b656e20616c7265616479206d696e746564000000006044820152606401610603565b6120cd60008383611c91565b6001600160a01b03821660009081526003602052604081208054600192906120f69084906130b7565b909155505060008181526002602052604080822080546001600160a01b0319166001600160a01b03861690811790915590518392907fddf252ad1be2c89b69c2b068fc378daa952ba7f163c4a11628f55a4df523b3ef908290a45050565b82805482825590600052602060002090810192821561218f579160200282015b8281111561218f578251825591602001919060010190612174565b5061219b92915061219f565b5090565b5b8082111561219b57600081556001016121a0565b6001600160e01b0319811681146111b957600080fd5b6000602082840312156121dc57600080fd5b81356121e7816121b4565b9392505050565b60005b838110156122095781810151838201526020016121f1565b50506000910152565b6000815180845261222a8160208601602086016121ee565b601f01601f19169290920160200192915050565b6020815260006121e76020830184612212565b60006020828403121561226357600080fd5b5035919050565b6001600160a01b03811681146111b957600080fd5b6000806040838503121561229257600080fd5b823561229d8161226a565b946020939093013593505050565b6000806000606084860312156122c057600080fd5b83356122cb8161226a565b925060208401356122db8161226a565b929592945050506040919091013590565b6020808252825182820181905260009190848201906040850190845b8181101561232d5783516001600160401b031683529284019291840191600101612308565b50909695505050505050565b60006020828403121561234b57600080fd5b81356121e78161226a565b80356001600160401b038116811461236d57600080fd5b919050565b60006020828403121561238457600080fd5b6121e782612356565b8481528360208201528260408201526080606082015260006123b26080830184612212565b9695505050505050565b80151581146111b957600080fd5b600080604083850312156123dd57600080fd5b82356123e88161226a565b915060208301356123f8816123bc565b809150509250929050565b6000806040838503121561241657600080fd5b82356124218161226a565b915061242f60208401612356565b90509250929050565b634e487b7160e01b600052604160045260246000fd5b60405160a081016001600160401b038111828210171561247057612470612438565b60405290565b604080519081016001600160401b038111828210171561247057612470612438565b604051601f8201601f191681016001600160401b03811182821017156124c0576124c0612438565b604052919050565b600082601f8301126124d957600080fd5b813560206001600160401b038211156124f4576124f4612438565b8160051b612503828201612498565b928352848101820192828101908785111561251d57600080fd5b83870192505b8483101561253c57823582529183019190830190612523565b979650505050505050565b600082601f83011261255857600080fd5b612560612476565b80604084018581111561257257600080fd5b845b8181101561258c578035845260209384019301612574565b509095945050505050565b600080600080600061014086880312156125b057600080fd5b6125b986612356565b94506020808701356001600160401b038111156125d557600080fd5b6125e189828a016124c8565b95505060406125f289828a01612547565b945088609f89011261260357600080fd5b61260b612476565b806101008a018b81111561261e57600080fd5b60808b015b81811015612642576126358d82612547565b8452928501928401612623565b508196506126508c82612547565b955050505050509295509295909350565b60006001600160401b0383111561267a5761267a612438565b61268d601f8401601f1916602001612498565b90508281528383830111156126a157600080fd5b828260208301376000602084830101529392505050565b600080600080608085870312156126ce57600080fd5b84356126d98161226a565b935060208501356126e98161226a565b92506040850135915060608501356001600160401b0381111561270b57600080fd5b8501601f8101871361271c57600080fd5b61272b87823560208401612661565b91505092959194509250565b600081518084526020808501945080840160005b838110156127675781518752958201959082019060010161274b565b509495945050505050565b602081528151602082015260208201516040820152604082015160608201526000606083015160a060808401526127ac60c0840182612737565b90506080840151601f198483030160a08501526127c98282612212565b95945050505050565b600080604083850312156127e557600080fd5b82356127f08161226a565b915060208301356123f88161226a565b60008060006060848603121561281557600080fd5b61281e84612356565b9250602084013561282e8161226a565b915060408401356001600160401b038082111561284a57600080fd5b9085019060a0828803121561285e57600080fd5b61286661244e565b82358152602083013560208201526040830135604082015260608301358281111561289057600080fd5b61289c898286016124c8565b6060830152506080830135828111156128b457600080fd5b80840193505087601f8401126128c957600080fd5b6128d888843560208601612661565b60808201528093505050509250925092565b600181811c908216806128fe57607f821691505b60208210810361291e57634e487b7160e01b600052602260045260246000fd5b50919050565b6020808252602e908201527f4552433732313a2063616c6c6572206973206e6f7420746f6b656e206f776e6560408201526d1c881b9bdc88185c1c1c9bdd995960921b606082015260800190565b8060005b6002811015610bd9578151845260209384019390910190600101612976565b600081546129a2816128ea565b8085526020600183811680156129bf57600181146129d957612a07565b60ff1985168884015283151560051b880183019550612a07565b866000528260002060005b858110156129ff5781548a82018601529083019084016129e4565b890184019650505b505050505092915050565b6000610140808352612a2681840189612737565b90506020612a3681850189612972565b606084018760005b6002811015612a6557612a52838351612972565b6040929092019190830190600101612a3e565b505050612a7560e0850187612972565b83820361012085015284548252600180860154828401526002860154604084015260a0606084018190526003870180549185018290526000908152838120929160c08601905b80831015612ad85784548252938301939183019190850190612abb565b508581036080870152612aee8160048b01612995565b9d9c50505050505050505050505050565b600060208284031215612b1157600080fd5b81516121e7816123bc565b60008151612b2e8185602086016121ee565b9290920192915050565b7f3c73766720786d6c6e733d22687474703a2f2f7777772e77332e6f72672f323081527f30302f73766722207072657365727665417370656374526174696f3d22784d6960208201527f6e594d696e206d656574222076696577426f783d22302030203335302033353060408201527f223e3c726563742077696474683d223130302522206865696768743d2231303060608201527f2522202f3e3c7265637420793d2230222077696474683d223130302522206865608082015272696768743d2231303025222066696c6c3d222360681b60a082015260008251612c248160b38501602087016121ee565b691110179f1e17b9bb339f60b11b60b393909101928301525060bd01919050565b60008154612c52816128ea565b60018281168015612c6a5760018114612c7f57612cae565b60ff1984168752821515830287019450612cae565b8560005260208060002060005b85811015612ca55781548a820152908401908201612c8c565b50505082870194505b5050505092915050565b6603d9134b2111d160cd1b81528551600090612cdb816007850160208b016121ee565b61016160f51b60079184019182015269226e616d65223a20222360b01b60098201528651612d10816013840160208b016121ee565b6201116160ed1b9101601381018290526e113a37b5b2b72fb730b6b2911d101160891b601682015290612d466025830188612c45565b90815270113a37b5b2b72fb9bcb6b137b6111d101160791b60038201529050612e03612df5612def612db9612d90612d81601487018b612c45565b6201116160ed1b815260030190565b7f226261636b67726f756e645f636f6c6f72223a2022464646464646222c2000008152601e0190565b7f22696d616765223a2022646174613a696d6167652f7376672b786d6c3b626173815263194d8d0b60e21b602082015260240190565b86612b1c565b61227d60f01b815260020190565b98975050505050505050565b7f646174613a6170706c69636174696f6e2f6a736f6e3b6261736536342c000000815260008251612e4781601d8501602087016121ee565b91909101601d0192915050565b634e487b7160e01b600052601260045260246000fd5b600082612e7957612e79612e54565b500690565b634e487b7160e01b600052603260045260246000fd5b60008351612ea68184602088016121ee565b835190830190612eba8183602088016121ee565b01949350505050565b634e487b7160e01b600052601160045260246000fd5b600082612ee857612ee8612e54565b500490565b600360fc1b815260008251612f098160018501602087016121ee565b9190910160010192915050565b61030360f41b815260008251612f338160028501602087016121ee565b9190910160020192915050565b6203030360ec1b815260008251612f5e8160038501602087016121ee565b9190910160030192915050565b630303030360e41b815260008251612f8a8160048501602087016121ee565b9190910160040192915050565b601f8211156106a457600081815260208120601f850160051c81016020861015612fbe5750805b601f850160051c820191505b81811015612fdd57828155600101612fca565b505050505050565b81516001600160401b03811115612ffe57612ffe612438565b6130128161300c84546128ea565b84612f97565b602080601f831160018114613047576000841561302f5750858301515b600019600386901b1c1916600185901b178555612fdd565b600085815260208120601f198616915b8281101561307657888601518255948401946001909101908401613057565b50858210156130945787850151600019600388901b60f8161c191681555b5050505050600190811b01905550565b818103818111156104d0576104d0612ec3565b808201808211156104d0576104d0612ec3565b6000602082840312156130dc57600080fd5b5051919050565b60208082526032908201527f4552433732313a207472616e7366657220746f206e6f6e20455243373231526560408201527131b2b4bb32b91034b6b83632b6b2b73a32b960711b606082015260800190565b60006001820161314757613147612ec3565b5060010190565b80820281158282048414176104d0576104d0612ec3565b6001600160a01b03858116825284166020820152604081018390526080606082018190526000906123b290830184612212565b6000602082840312156131aa57600080fd5b81516121e7816121b456fe4142434445464748494a4b4c4d4e4f505152535455565758595a6162636465666768696a6b6c6d6e6f707172737475767778797a303132333435363738392b2fa26469706673582212201e343715caae65d80565f04a425d241977a5281ebd99c618c0116373b3ce9a6364736f6c63430008110033","opcodes":"PUSH1 0x80 PUSH1 0x40 MSTORE CALLVALUE DUP1 ISZERO PUSH3 0x11 JUMPI PUSH1 0x0 DUP1 REVERT JUMPDEST POP PUSH1 0x40 MLOAD PUSH3 0x35B1 CODESIZE SUB DUP1 PUSH3 0x35B1 DUP4 CODECOPY DUP2 ADD PUSH1 0x40 DUP2 SWAP1 MSTORE PUSH3 0x34 SWAP2 PUSH3 0x1B1 JUMP JUMPDEST DUP2 DUP2 PUSH1 0x0 PUSH3 0x44 DUP4 DUP3 PUSH3 0x2AA JUMP JUMPDEST POP PUSH1 0x1 PUSH3 0x53 DUP3 DUP3 PUSH3 0x2AA JUMP JUMPDEST POP POP POP PUSH3 0x70 PUSH3 0x6A PUSH3 0x96 PUSH1 0x20 SHL PUSH1 0x20 SHR JUMP JUMPDEST PUSH3 0x9A JUMP JUMPDEST PUSH1 0xB PUSH3 0x7E DUP4 DUP3 PUSH3 0x2AA JUMP JUMPDEST POP PUSH1 0xC PUSH3 0x8D DUP3 DUP3 PUSH3 0x2AA JUMP JUMPDEST POP POP POP PUSH3 0x376 JUMP JUMPDEST CALLER SWAP1 JUMP JUMPDEST PUSH1 0x6 DUP1 SLOAD PUSH1 0x1 PUSH1 0x1 PUSH1 0xA0 SHL SUB DUP4 DUP2 AND PUSH1 0x1 PUSH1 0x1 PUSH1 0xA0 SHL SUB NOT DUP4 AND DUP2 OR SWAP1 SWAP4 SSTORE PUSH1 0x40 MLOAD SWAP2 AND SWAP2 SWAP1 DUP3 SWAP1 PUSH32 0x8BE0079C531659141344CD1FD0A4F28419497F9722A3DAAFE3B4186F6B6457E0 SWAP1 PUSH1 0x0 SWAP1 LOG3 POP POP JUMP JUMPDEST PUSH4 0x4E487B71 PUSH1 0xE0 SHL PUSH1 0x0 MSTORE PUSH1 0x41 PUSH1 0x4 MSTORE PUSH1 0x24 PUSH1 0x0 REVERT JUMPDEST PUSH1 0x0 DUP3 PUSH1 0x1F DUP4 ADD SLT PUSH3 0x114 JUMPI PUSH1 0x0 DUP1 REVERT JUMPDEST DUP2 MLOAD PUSH1 0x1 PUSH1 0x1 PUSH1 0x40 SHL SUB DUP1 DUP3 GT ISZERO PUSH3 0x131 JUMPI PUSH3 0x131 PUSH3 0xEC JUMP JUMPDEST PUSH1 0x40 MLOAD PUSH1 0x1F DUP4 ADD PUSH1 0x1F NOT SWAP1 DUP2 AND PUSH1 0x3F ADD AND DUP2 ADD SWAP1 DUP3 DUP3 GT DUP2 DUP4 LT OR ISZERO PUSH3 0x15C JUMPI PUSH3 0x15C PUSH3 0xEC JUMP JUMPDEST DUP2 PUSH1 0x40 MSTORE DUP4 DUP2 MSTORE PUSH1 0x20 SWAP3 POP DUP7 DUP4 DUP6 DUP9 ADD ADD GT ISZERO PUSH3 0x179 JUMPI PUSH1 0x0 DUP1 REVERT JUMPDEST PUSH1 0x0 SWAP2 POP JUMPDEST DUP4 DUP3 LT ISZERO PUSH3 0x19D JUMPI DUP6 DUP3 ADD DUP4 ADD MLOAD DUP2 DUP4 ADD DUP5 ADD MSTORE SWAP1 DUP3 ADD SWAP1 PUSH3 0x17E JUMP JUMPDEST PUSH1 0x0 SWAP4 DUP2 ADD SWAP1 SWAP3 ADD SWAP3 SWAP1 SWAP3 MSTORE SWAP5 SWAP4 POP POP POP POP JUMP JUMPDEST PUSH1 0x0 DUP1 PUSH1 0x40 DUP4 DUP6 SUB SLT ISZERO PUSH3 0x1C5 JUMPI PUSH1 0x0 DUP1 REVERT JUMPDEST DUP3 MLOAD PUSH1 0x1 PUSH1 0x1 PUSH1 0x40 SHL SUB DUP1 DUP3 GT ISZERO PUSH3 0x1DD JUMPI PUSH1 0x0 DUP1 REVERT JUMPDEST PUSH3 0x1EB DUP7 DUP4 DUP8 ADD PUSH3 0x102 JUMP JUMPDEST SWAP4 POP PUSH1 0x20 DUP6 ADD MLOAD SWAP2 POP DUP1 DUP3 GT ISZERO PUSH3 0x202 JUMPI PUSH1 0x0 DUP1 REVERT JUMPDEST POP PUSH3 0x211 DUP6 DUP3 DUP7 ADD PUSH3 0x102 JUMP JUMPDEST SWAP2 POP POP SWAP3 POP SWAP3 SWAP1 POP JUMP JUMPDEST PUSH1 0x1 DUP2 DUP2 SHR SWAP1 DUP3 AND DUP1 PUSH3 0x230 JUMPI PUSH1 0x7F DUP3 AND SWAP2 POP JUMPDEST PUSH1 0x20 DUP3 LT DUP2 SUB PUSH3 0x251 JUMPI PUSH4 0x4E487B71 PUSH1 0xE0 SHL PUSH1 0x0 MSTORE PUSH1 0x22 PUSH1 0x4 MSTORE PUSH1 0x24 PUSH1 0x0 REVERT JUMPDEST POP SWAP2 SWAP1 POP JUMP JUMPDEST PUSH1 0x1F DUP3 GT ISZERO PUSH3 0x2A5 JUMPI PUSH1 0x0 DUP2 DUP2 MSTORE PUSH1 0x20 DUP2 KECCAK256 PUSH1 0x1F DUP6 ADD PUSH1 0x5 SHR DUP2 ADD PUSH1 0x20 DUP7 LT ISZERO PUSH3 0x280 JUMPI POP DUP1 JUMPDEST PUSH1 0x1F DUP6 ADD PUSH1 0x5 SHR DUP3 ADD SWAP2 POP JUMPDEST DUP2 DUP2 LT ISZERO PUSH3 0x2A1 JUMPI DUP3 DUP2 SSTORE PUSH1 0x1 ADD PUSH3 0x28C JUMP JUMPDEST POP POP POP JUMPDEST POP POP POP JUMP JUMPDEST DUP2 MLOAD PUSH1 0x1 PUSH1 0x1 PUSH1 0x40 SHL SUB DUP2 GT ISZERO PUSH3 0x2C6 JUMPI PUSH3 0x2C6 PUSH3 0xEC JUMP JUMPDEST PUSH3 0x2DE DUP2 PUSH3 0x2D7 DUP5 SLOAD PUSH3 0x21B JUMP JUMPDEST DUP5 PUSH3 0x257 JUMP JUMPDEST PUSH1 0x20 DUP1 PUSH1 0x1F DUP4 GT PUSH1 0x1 DUP2 EQ PUSH3 0x316 JUMPI PUSH1 0x0 DUP5 ISZERO PUSH3 0x2FD JUMPI POP DUP6 DUP4 ADD MLOAD JUMPDEST PUSH1 0x0 NOT PUSH1 0x3 DUP7 SWAP1 SHL SHR NOT AND PUSH1 0x1 DUP6 SWAP1 SHL OR DUP6 SSTORE PUSH3 0x2A1 JUMP JUMPDEST PUSH1 0x0 DUP6 DUP2 MSTORE PUSH1 0x20 DUP2 KECCAK256 PUSH1 0x1F NOT DUP7 AND SWAP2 JUMPDEST DUP3 DUP2 LT ISZERO PUSH3 0x347 JUMPI DUP9 DUP7 ADD MLOAD DUP3 SSTORE SWAP5 DUP5 ADD SWAP5 PUSH1 0x1 SWAP1 SWAP2 ADD SWAP1 DUP5 ADD PUSH3 0x326 JUMP JUMPDEST POP DUP6 DUP3 LT ISZERO PUSH3 0x366 JUMPI DUP8 DUP6 ADD MLOAD PUSH1 0x0 NOT PUSH1 0x3 DUP9 SWAP1 SHL PUSH1 0xF8 AND SHR NOT AND DUP2 SSTORE JUMPDEST POP POP POP POP POP PUSH1 0x1 SWAP1 DUP2 SHL ADD SWAP1 SSTORE POP JUMP JUMPDEST PUSH2 0x322B DUP1 PUSH3 0x386 PUSH1 0x0 CODECOPY PUSH1 0x0 RETURN INVALID PUSH1 0x80 PUSH1 0x40 MSTORE CALLVALUE DUP1 ISZERO PUSH2 0x10 JUMPI PUSH1 0x0 DUP1 REVERT JUMPDEST POP PUSH1 0x4 CALLDATASIZE LT PUSH2 0x1C4 JUMPI PUSH1 0x0 CALLDATALOAD PUSH1 0xE0 SHR DUP1 PUSH4 0x96BF4741 GT PUSH2 0xF9 JUMPI DUP1 PUSH4 0xC87B56DD GT PUSH2 0x97 JUMPI DUP1 PUSH4 0xE985E9C5 GT PUSH2 0x71 JUMPI DUP1 PUSH4 0xE985E9C5 EQ PUSH2 0x438 JUMPI DUP1 PUSH4 0xF1435326 EQ PUSH2 0x44B JUMPI DUP1 PUSH4 0xF2FDE38B EQ PUSH2 0x45E JUMPI DUP1 PUSH4 0xFEE207E6 EQ PUSH2 0x471 JUMPI PUSH1 0x0 DUP1 REVERT JUMPDEST DUP1 PUSH4 0xC87B56DD EQ PUSH2 0x3F2 JUMPI DUP1 PUSH4 0xCB0E0D7D EQ PUSH2 0x405 JUMPI DUP1 PUSH4 0xE6F4EDBD EQ PUSH2 0x425 JUMPI PUSH1 0x0 DUP1 REVERT JUMPDEST DUP1 PUSH4 0xB45C0FDF GT PUSH2 0xD3 JUMPI DUP1 PUSH4 0xB45C0FDF EQ PUSH2 0x37E JUMPI DUP1 PUSH4 0xB68967E2 EQ PUSH2 0x3AC JUMPI DUP1 PUSH4 0xB88D4FDE EQ PUSH2 0x3BF JUMPI DUP1 PUSH4 0xC76D0845 EQ PUSH2 0x3D2 JUMPI PUSH1 0x0 DUP1 REVERT JUMPDEST DUP1 PUSH4 0x96BF4741 EQ PUSH2 0x31F JUMPI DUP1 PUSH4 0xA22CB465 EQ PUSH2 0x342 JUMPI DUP1 PUSH4 0xA8723114 EQ PUSH2 0x355 JUMPI PUSH1 0x0 DUP1 REVERT JUMPDEST DUP1 PUSH4 0x42842E0E GT PUSH2 0x166 JUMPI DUP1 PUSH4 0x70A08231 GT PUSH2 0x140 JUMPI DUP1 PUSH4 0x70A08231 EQ PUSH2 0x2DD JUMPI DUP1 PUSH4 0x715018A6 EQ PUSH2 0x2FE JUMPI DUP1 PUSH4 0x8DA5CB5B EQ PUSH2 0x306 JUMPI DUP1 PUSH4 0x95D89B41 EQ PUSH2 0x317 JUMPI PUSH1 0x0 DUP1 REVERT JUMPDEST DUP1 PUSH4 0x42842E0E EQ PUSH2 0x297 JUMPI DUP1 PUSH4 0x6352211E EQ PUSH2 0x2AA JUMPI DUP1 PUSH4 0x63EC508F EQ PUSH2 0x2BD JUMPI PUSH1 0x0 DUP1 REVERT JUMPDEST DUP1 PUSH4 0x95EA7B3 GT PUSH2 0x1A2 JUMPI DUP1 PUSH4 0x95EA7B3 EQ PUSH2 0x231 JUMPI DUP1 PUSH4 0x23B872DD EQ PUSH2 0x246 JUMPI DUP1 PUSH4 0x2A2D0C47 EQ PUSH2 0x259 JUMPI DUP1 PUSH4 0x37BA9523 EQ PUSH2 0x282 JUMPI PUSH1 0x0 DUP1 REVERT JUMPDEST DUP1 PUSH4 0x1FFC9A7 EQ PUSH2 0x1C9 JUMPI DUP1 PUSH4 0x6FDDE03 EQ PUSH2 0x1F1 JUMPI DUP1 PUSH4 0x81812FC EQ PUSH2 0x206 JUMPI JUMPDEST PUSH1 0x0 DUP1 REVERT JUMPDEST PUSH2 0x1DC PUSH2 0x1D7 CALLDATASIZE PUSH1 0x4 PUSH2 0x21CA JUMP JUMPDEST PUSH2 0x484 JUMP JUMPDEST PUSH1 0x40 MLOAD SWAP1 ISZERO ISZERO DUP2 MSTORE PUSH1 0x20 ADD JUMPDEST PUSH1 0x40 MLOAD DUP1 SWAP2 SUB SWAP1 RETURN JUMPDEST PUSH2 0x1F9 PUSH2 0x4D6 JUMP JUMPDEST PUSH1 0x40 MLOAD PUSH2 0x1E8 SWAP2 SWAP1 PUSH2 0x223E JUMP JUMPDEST PUSH2 0x219 PUSH2 0x214 CALLDATASIZE PUSH1 0x4 PUSH2 0x2251 JUMP JUMPDEST PUSH2 0x568 JUMP JUMPDEST PUSH1 0x40 MLOAD PUSH1 0x1 PUSH1 0x1 PUSH1 0xA0 SHL SUB SWAP1 SWAP2 AND DUP2 MSTORE PUSH1 0x20 ADD PUSH2 0x1E8 JUMP JUMPDEST PUSH2 0x244 PUSH2 0x23F CALLDATASIZE PUSH1 0x4 PUSH2 0x227F JUMP JUMPDEST PUSH2 0x58F JUMP JUMPDEST STOP JUMPDEST PUSH2 0x244 PUSH2 0x254 CALLDATASIZE PUSH1 0x4 PUSH2 0x22AB JUMP JUMPDEST PUSH2 0x6A9 JUMP JUMPDEST PUSH2 0x219 PUSH2 0x267 CALLDATASIZE PUSH1 0x4 PUSH2 0x2251 JUMP JUMPDEST PUSH1 0xD PUSH1 0x20 MSTORE PUSH1 0x0 SWAP1 DUP2 MSTORE PUSH1 0x40 SWAP1 KECCAK256 SLOAD PUSH1 0x1 PUSH1 0x1 PUSH1 0xA0 SHL SUB AND DUP2 JUMP JUMPDEST PUSH2 0x28A PUSH2 0x6DA JUMP JUMPDEST PUSH1 0x40 MLOAD PUSH2 0x1E8 SWAP2 SWAP1 PUSH2 0x22EC JUMP JUMPDEST PUSH2 0x244 PUSH2 0x2A5 CALLDATASIZE PUSH1 0x4 PUSH2 0x22AB JUMP JUMPDEST PUSH2 0x763 JUMP JUMPDEST PUSH2 0x219 PUSH2 0x2B8 CALLDATASIZE PUSH1 0x4 PUSH2 0x2251 JUMP JUMPDEST PUSH2 0x77E JUMP JUMPDEST PUSH2 0x2C5 PUSH1 0x1 DUP2 JUMP JUMPDEST PUSH1 0x40 MLOAD PUSH1 0x1 PUSH1 0x1 PUSH1 0x40 SHL SUB SWAP1 SWAP2 AND DUP2 MSTORE PUSH1 0x20 ADD PUSH2 0x1E8 JUMP JUMPDEST PUSH2 0x2F0 PUSH2 0x2EB CALLDATASIZE PUSH1 0x4 PUSH2 0x2339 JUMP JUMPDEST PUSH2 0x7DE JUMP JUMPDEST PUSH1 0x40 MLOAD SWAP1 DUP2 MSTORE PUSH1 0x20 ADD PUSH2 0x1E8 JUMP JUMPDEST PUSH2 0x244 PUSH2 0x864 JUMP JUMPDEST PUSH1 0x6 SLOAD PUSH1 0x1 PUSH1 0x1 PUSH1 0xA0 SHL SUB AND PUSH2 0x219 JUMP JUMPDEST PUSH2 0x1F9 PUSH2 0x878 JUMP JUMPDEST PUSH2 0x332 PUSH2 0x32D CALLDATASIZE PUSH1 0x4 PUSH2 0x2372 JUMP JUMPDEST PUSH2 0x887 JUMP JUMPDEST PUSH1 0x40 MLOAD PUSH2 0x1E8 SWAP5 SWAP4 SWAP3 SWAP2 SWAP1 PUSH2 0x238D JUMP JUMPDEST PUSH2 0x244 PUSH2 0x350 CALLDATASIZE PUSH1 0x4 PUSH2 0x23CA JUMP JUMPDEST PUSH2 0x93A JUMP JUMPDEST PUSH2 0x219 PUSH2 0x363 CALLDATASIZE PUSH1 0x4 PUSH2 0x2372 JUMP JUMPDEST PUSH1 0x9 PUSH1 0x20 MSTORE PUSH1 0x0 SWAP1 DUP2 MSTORE PUSH1 0x40 SWAP1 KECCAK256 SLOAD PUSH1 0x1 PUSH1 0x1 PUSH1 0xA0 SHL SUB AND DUP2 JUMP JUMPDEST PUSH2 0x1DC PUSH2 0x38C CALLDATASIZE PUSH1 0x4 PUSH2 0x2403 JUMP JUMPDEST PUSH1 0x7 PUSH1 0x20 SWAP1 DUP2 MSTORE PUSH1 0x0 SWAP3 DUP4 MSTORE PUSH1 0x40 DUP1 DUP5 KECCAK256 SWAP1 SWAP2 MSTORE SWAP1 DUP3 MSTORE SWAP1 KECCAK256 SLOAD PUSH1 0xFF AND DUP2 JUMP JUMPDEST PUSH2 0x1DC PUSH2 0x3BA CALLDATASIZE PUSH1 0x4 PUSH2 0x2597 JUMP JUMPDEST PUSH2 0x949 JUMP JUMPDEST PUSH2 0x244 PUSH2 0x3CD CALLDATASIZE PUSH1 0x4 PUSH2 0x26B8 JUMP JUMPDEST PUSH2 0xBA7 JUMP JUMPDEST PUSH2 0x3E5 PUSH2 0x3E0 CALLDATASIZE PUSH1 0x4 PUSH2 0x2372 JUMP JUMPDEST PUSH2 0xBDF JUMP JUMPDEST PUSH1 0x40 MLOAD PUSH2 0x1E8 SWAP2 SWAP1 PUSH2 0x2772 JUMP JUMPDEST PUSH2 0x1F9 PUSH2 0x400 CALLDATASIZE PUSH1 0x4 PUSH2 0x2251 JUMP JUMPDEST PUSH2 0xD3C JUMP JUMPDEST PUSH2 0x2F0 PUSH2 0x413 CALLDATASIZE PUSH1 0x4 PUSH2 0x2339 JUMP JUMPDEST PUSH1 0xE PUSH1 0x20 MSTORE PUSH1 0x0 SWAP1 DUP2 MSTORE PUSH1 0x40 SWAP1 KECCAK256 SLOAD DUP2 JUMP JUMPDEST PUSH2 0x1F9 PUSH2 0x433 CALLDATASIZE PUSH1 0x4 PUSH2 0x2251 JUMP JUMPDEST PUSH2 0xE2A JUMP JUMPDEST PUSH2 0x1DC PUSH2 0x446 CALLDATASIZE PUSH1 0x4 PUSH2 0x27D2 JUMP JUMPDEST PUSH2 0x10D8 JUMP JUMPDEST PUSH2 0x2C5 PUSH2 0x459 CALLDATASIZE PUSH1 0x4 PUSH2 0x2251 JUMP JUMPDEST PUSH2 0x1106 JUMP JUMPDEST PUSH2 0x244 PUSH2 0x46C CALLDATASIZE PUSH1 0x4 PUSH2 0x2339 JUMP JUMPDEST PUSH2 0x1143 JUMP JUMPDEST PUSH2 0x1DC PUSH2 0x47F CALLDATASIZE PUSH1 0x4 PUSH2 0x2800 JUMP JUMPDEST PUSH2 0x11BC JUMP JUMPDEST PUSH1 0x0 PUSH1 0x1 PUSH1 0x1 PUSH1 0xE0 SHL SUB NOT DUP3 AND PUSH4 0x80AC58CD PUSH1 0xE0 SHL EQ DUP1 PUSH2 0x4B5 JUMPI POP PUSH1 0x1 PUSH1 0x1 PUSH1 0xE0 SHL SUB NOT DUP3 AND PUSH4 0x5B5E139F PUSH1 0xE0 SHL EQ JUMPDEST DUP1 PUSH2 0x4D0 JUMPI POP PUSH4 0x1FFC9A7 PUSH1 0xE0 SHL PUSH1 0x1 PUSH1 0x1 PUSH1 0xE0 SHL SUB NOT DUP4 AND EQ JUMPDEST SWAP3 SWAP2 POP POP JUMP JUMPDEST PUSH1 0x60 PUSH1 0x0 DUP1 SLOAD PUSH2 0x4E5 SWAP1 PUSH2 0x28EA JUMP JUMPDEST DUP1 PUSH1 0x1F ADD PUSH1 0x20 DUP1 SWAP2 DIV MUL PUSH1 0x20 ADD PUSH1 0x40 MLOAD SWAP1 DUP2 ADD PUSH1 0x40 MSTORE DUP1 SWAP3 SWAP2 SWAP1 DUP2 DUP2 MSTORE PUSH1 0x20 ADD DUP3 DUP1 SLOAD PUSH2 0x511 SWAP1 PUSH2 0x28EA JUMP JUMPDEST DUP1 ISZERO PUSH2 0x55E JUMPI DUP1 PUSH1 0x1F LT PUSH2 0x533 JUMPI PUSH2 0x100 DUP1 DUP4 SLOAD DIV MUL DUP4 MSTORE SWAP2 PUSH1 0x20 ADD SWAP2 PUSH2 0x55E JUMP JUMPDEST DUP3 ADD SWAP2 SWAP1 PUSH1 0x0 MSTORE PUSH1 0x20 PUSH1 0x0 KECCAK256 SWAP1 JUMPDEST DUP2 SLOAD DUP2 MSTORE SWAP1 PUSH1 0x1 ADD SWAP1 PUSH1 0x20 ADD DUP1 DUP4 GT PUSH2 0x541 JUMPI DUP3 SWAP1 SUB PUSH1 0x1F AND DUP3 ADD SWAP2 JUMPDEST POP POP POP POP POP SWAP1 POP SWAP1 JUMP JUMPDEST PUSH1 0x0 PUSH2 0x573 DUP3 PUSH2 0x133A JUMP JUMPDEST POP PUSH1 0x0 SWAP1 DUP2 MSTORE PUSH1 0x4 PUSH1 0x20 MSTORE PUSH1 0x40 SWAP1 KECCAK256 SLOAD PUSH1 0x1 PUSH1 0x1 PUSH1 0xA0 SHL SUB AND SWAP1 JUMP JUMPDEST PUSH1 0x0 PUSH2 0x59A DUP3 PUSH2 0x77E JUMP JUMPDEST SWAP1 POP DUP1 PUSH1 0x1 PUSH1 0x1 PUSH1 0xA0 SHL SUB AND DUP4 PUSH1 0x1 PUSH1 0x1 PUSH1 0xA0 SHL SUB AND SUB PUSH2 0x60C JUMPI PUSH1 0x40 MLOAD PUSH3 0x461BCD PUSH1 0xE5 SHL DUP2 MSTORE PUSH1 0x20 PUSH1 0x4 DUP3 ADD MSTORE PUSH1 0x21 PUSH1 0x24 DUP3 ADD MSTORE PUSH32 0x4552433732313A20617070726F76616C20746F2063757272656E74206F776E65 PUSH1 0x44 DUP3 ADD MSTORE PUSH1 0x39 PUSH1 0xF9 SHL PUSH1 0x64 DUP3 ADD MSTORE PUSH1 0x84 ADD JUMPDEST PUSH1 0x40 MLOAD DUP1 SWAP2 SUB SWAP1 REVERT JUMPDEST CALLER PUSH1 0x1 PUSH1 0x1 PUSH1 0xA0 SHL SUB DUP3 AND EQ DUP1 PUSH2 0x628 JUMPI POP PUSH2 0x628 DUP2 CALLER PUSH2 0x10D8 JUMP JUMPDEST PUSH2 0x69A JUMPI PUSH1 0x40 MLOAD PUSH3 0x461BCD PUSH1 0xE5 SHL DUP2 MSTORE PUSH1 0x20 PUSH1 0x4 DUP3 ADD MSTORE PUSH1 0x3E PUSH1 0x24 DUP3 ADD MSTORE PUSH32 0x4552433732313A20617070726F76652063616C6C6572206973206E6F7420746F PUSH1 0x44 DUP3 ADD MSTORE PUSH32 0x6B656E206F776E6572206E6F7220617070726F76656420666F7220616C6C0000 PUSH1 0x64 DUP3 ADD MSTORE PUSH1 0x84 ADD PUSH2 0x603 JUMP JUMPDEST PUSH2 0x6A4 DUP4 DUP4 PUSH2 0x1399 JUMP JUMPDEST POP POP POP JUMP JUMPDEST PUSH2 0x6B3 CALLER DUP3 PUSH2 0x1407 JUMP JUMPDEST PUSH2 0x6CF JUMPI PUSH1 0x40 MLOAD PUSH3 0x461BCD PUSH1 0xE5 SHL DUP2 MSTORE PUSH1 0x4 ADD PUSH2 0x603 SWAP1 PUSH2 0x2924 JUMP JUMPDEST PUSH2 0x6A4 DUP4 DUP4 DUP4 PUSH2 0x1466 JUMP JUMPDEST PUSH1 0x60 PUSH1 0xA DUP1 SLOAD DUP1 PUSH1 0x20 MUL PUSH1 0x20 ADD PUSH1 0x40 MLOAD SWAP1 DUP2 ADD PUSH1 0x40 MSTORE DUP1 SWAP3 SWAP2 SWAP1 DUP2 DUP2 MSTORE PUSH1 0x20 ADD DUP3 DUP1 SLOAD DUP1 ISZERO PUSH2 0x55E JUMPI PUSH1 0x20 MUL DUP3 ADD SWAP2 SWAP1 PUSH1 0x0 MSTORE PUSH1 0x20 PUSH1 0x0 KECCAK256 SWAP1 PUSH1 0x0 SWAP1 JUMPDEST DUP3 DUP3 SWAP1 SLOAD SWAP1 PUSH2 0x100 EXP SWAP1 DIV PUSH1 0x1 PUSH1 0x1 PUSH1 0x40 SHL SUB AND PUSH1 0x1 PUSH1 0x1 PUSH1 0x40 SHL SUB AND DUP2 MSTORE PUSH1 0x20 ADD SWAP1 PUSH1 0x8 ADD SWAP1 PUSH1 0x20 DUP3 PUSH1 0x7 ADD DIV SWAP3 DUP4 ADD SWAP3 PUSH1 0x1 SUB DUP3 MUL SWAP2 POP DUP1 DUP5 GT PUSH2 0x717 JUMPI SWAP1 POP POP POP POP POP POP SWAP1 POP SWAP1 JUMP JUMPDEST PUSH2 0x6A4 DUP4 DUP4 DUP4 PUSH1 0x40 MLOAD DUP1 PUSH1 0x20 ADD PUSH1 0x40 MSTORE DUP1 PUSH1 0x0 DUP2 MSTORE POP PUSH2 0xBA7 JUMP JUMPDEST PUSH1 0x0 DUP2 DUP2 MSTORE PUSH1 0x2 PUSH1 0x20 MSTORE PUSH1 0x40 DUP2 KECCAK256 SLOAD PUSH1 0x1 PUSH1 0x1 PUSH1 0xA0 SHL SUB AND DUP1 PUSH2 0x4D0 JUMPI PUSH1 0x40 MLOAD PUSH3 0x461BCD PUSH1 0xE5 SHL DUP2 MSTORE PUSH1 0x20 PUSH1 0x4 DUP3 ADD MSTORE PUSH1 0x18 PUSH1 0x24 DUP3 ADD MSTORE PUSH24 0x115490CDCC8C4E881A5B9D985B1A59081D1BDAD95B881251 PUSH1 0x42 SHL PUSH1 0x44 DUP3 ADD MSTORE PUSH1 0x64 ADD PUSH2 0x603 JUMP JUMPDEST PUSH1 0x0 PUSH1 0x1 PUSH1 0x1 PUSH1 0xA0 SHL SUB DUP3 AND PUSH2 0x848 JUMPI PUSH1 0x40 MLOAD PUSH3 0x461BCD PUSH1 0xE5 SHL DUP2 MSTORE PUSH1 0x20 PUSH1 0x4 DUP3 ADD MSTORE PUSH1 0x29 PUSH1 0x24 DUP3 ADD MSTORE PUSH32 0x4552433732313A2061646472657373207A65726F206973206E6F742061207661 PUSH1 0x44 DUP3 ADD MSTORE PUSH9 0x3634B21037BBB732B9 PUSH1 0xB9 SHL PUSH1 0x64 DUP3 ADD MSTORE PUSH1 0x84 ADD PUSH2 0x603 JUMP JUMPDEST POP PUSH1 0x1 PUSH1 0x1 PUSH1 0xA0 SHL SUB AND PUSH1 0x0 SWAP1 DUP2 MSTORE PUSH1 0x3 PUSH1 0x20 MSTORE PUSH1 0x40 SWAP1 KECCAK256 SLOAD SWAP1 JUMP JUMPDEST PUSH2 0x86C PUSH2 0x160D JUMP JUMPDEST PUSH2 0x876 PUSH1 0x0 PUSH2 0x1667 JUMP JUMPDEST JUMP JUMPDEST PUSH1 0x60 PUSH1 0x1 DUP1 SLOAD PUSH2 0x4E5 SWAP1 PUSH2 0x28EA JUMP JUMPDEST PUSH1 0x8 PUSH1 0x20 MSTORE PUSH1 0x0 SWAP1 DUP2 MSTORE PUSH1 0x40 SWAP1 KECCAK256 DUP1 SLOAD PUSH1 0x1 DUP3 ADD SLOAD PUSH1 0x2 DUP4 ADD SLOAD PUSH1 0x4 DUP5 ADD DUP1 SLOAD SWAP4 SWAP5 SWAP3 SWAP4 SWAP2 SWAP3 SWAP2 PUSH2 0x8B7 SWAP1 PUSH2 0x28EA JUMP JUMPDEST DUP1 PUSH1 0x1F ADD PUSH1 0x20 DUP1 SWAP2 DIV MUL PUSH1 0x20 ADD PUSH1 0x40 MLOAD SWAP1 DUP2 ADD PUSH1 0x40 MSTORE DUP1 SWAP3 SWAP2 SWAP1 DUP2 DUP2 MSTORE PUSH1 0x20 ADD DUP3 DUP1 SLOAD PUSH2 0x8E3 SWAP1 PUSH2 0x28EA JUMP JUMPDEST DUP1 ISZERO PUSH2 0x930 JUMPI DUP1 PUSH1 0x1F LT PUSH2 0x905 JUMPI PUSH2 0x100 DUP1 DUP4 SLOAD DIV MUL DUP4 MSTORE SWAP2 PUSH1 0x20 ADD SWAP2 PUSH2 0x930 JUMP JUMPDEST DUP3 ADD SWAP2 SWAP1 PUSH1 0x0 MSTORE PUSH1 0x20 PUSH1 0x0 KECCAK256 SWAP1 JUMPDEST DUP2 SLOAD DUP2 MSTORE SWAP1 PUSH1 0x1 ADD SWAP1 PUSH1 0x20 ADD DUP1 DUP4 GT PUSH2 0x913 JUMPI DUP3 SWAP1 SUB PUSH1 0x1F AND DUP3 ADD SWAP2 JUMPDEST POP POP POP POP POP SWAP1 POP DUP5 JUMP JUMPDEST PUSH2 0x945 CALLER DUP4 DUP4 PUSH2 0x16B9 JUMP JUMPDEST POP POP JUMP JUMPDEST PUSH1 0x1 PUSH1 0x1 PUSH1 0x40 SHL SUB DUP6 AND PUSH1 0x0 SWAP1 DUP2 MSTORE PUSH1 0x9 PUSH1 0x20 MSTORE PUSH1 0x40 DUP2 KECCAK256 SLOAD PUSH1 0x1 PUSH1 0x1 PUSH1 0xA0 SHL SUB AND PUSH2 0x9C8 JUMPI PUSH1 0x40 MLOAD PUSH3 0x461BCD PUSH1 0xE5 SHL DUP2 MSTORE PUSH1 0x20 PUSH1 0x4 DUP3 ADD MSTORE PUSH1 0x28 PUSH1 0x24 DUP3 ADD MSTORE PUSH32 0x76616C696461746F72206973206E6F742073657420666F722074686973207265 PUSH1 0x44 DUP3 ADD MSTORE PUSH8 0x1C5D595CDD081A59 PUSH1 0xC2 SHL PUSH1 0x64 DUP3 ADD MSTORE PUSH1 0x84 ADD PUSH2 0x603 JUMP JUMPDEST PUSH1 0x1 PUSH1 0x1 PUSH1 0x40 SHL SUB DUP7 AND PUSH1 0x0 SWAP1 DUP2 MSTORE PUSH1 0x8 PUSH1 0x20 MSTORE PUSH1 0x40 DUP2 KECCAK256 SLOAD SWAP1 SUB PUSH2 0xA3B JUMPI PUSH1 0x40 MLOAD PUSH3 0x461BCD PUSH1 0xE5 SHL DUP2 MSTORE PUSH1 0x20 PUSH1 0x4 DUP3 ADD MSTORE PUSH1 0x24 DUP1 DUP3 ADD MSTORE PUSH32 0x7175657279206973206E6F742073657420666F72207468697320726571756573 PUSH1 0x44 DUP3 ADD MSTORE PUSH4 0x1D081A59 PUSH1 0xE2 SHL PUSH1 0x64 DUP3 ADD MSTORE PUSH1 0x84 ADD PUSH2 0x603 JUMP JUMPDEST PUSH1 0x1 PUSH1 0x1 PUSH1 0x40 SHL SUB DUP7 AND PUSH1 0x0 SWAP1 DUP2 MSTORE PUSH1 0x9 PUSH1 0x20 MSTORE PUSH1 0x40 SWAP1 KECCAK256 SLOAD PUSH2 0xA6A SWAP1 DUP8 SWAP1 DUP8 SWAP1 PUSH1 0x1 PUSH1 0x1 PUSH1 0xA0 SHL SUB AND PUSH2 0x1787 JUMP JUMPDEST PUSH1 0x1 PUSH1 0x1 PUSH1 0x40 SHL SUB DUP7 AND PUSH1 0x0 SWAP1 DUP2 MSTORE PUSH1 0x9 PUSH1 0x20 SWAP1 DUP2 MSTORE PUSH1 0x40 DUP1 DUP4 KECCAK256 SLOAD PUSH1 0x8 SWAP1 SWAP3 MSTORE SWAP2 DUP3 SWAP1 KECCAK256 SWAP2 MLOAD PUSH4 0x19F87541 PUSH1 0xE2 SHL DUP2 MSTORE PUSH1 0x1 PUSH1 0x1 PUSH1 0xA0 SHL SUB SWAP1 SWAP2 AND SWAP2 PUSH4 0x67E1D504 SWAP2 PUSH2 0xAC2 SWAP2 DUP10 SWAP2 DUP10 SWAP2 DUP10 SWAP2 DUP10 SWAP2 SWAP1 PUSH1 0x4 ADD PUSH2 0x2A12 JUMP JUMPDEST PUSH1 0x20 PUSH1 0x40 MLOAD DUP1 DUP4 SUB DUP2 DUP7 GAS STATICCALL ISZERO DUP1 ISZERO PUSH2 0xADF JUMPI RETURNDATASIZE PUSH1 0x0 DUP1 RETURNDATACOPY RETURNDATASIZE PUSH1 0x0 REVERT JUMPDEST POP POP POP POP PUSH1 0x40 MLOAD RETURNDATASIZE PUSH1 0x1F NOT PUSH1 0x1F DUP3 ADD AND DUP3 ADD DUP1 PUSH1 0x40 MSTORE POP DUP2 ADD SWAP1 PUSH2 0xB03 SWAP2 SWAP1 PUSH2 0x2AFF JUMP JUMPDEST PUSH2 0xB4F JUMPI PUSH1 0x40 MLOAD PUSH3 0x461BCD PUSH1 0xE5 SHL DUP2 MSTORE PUSH1 0x20 PUSH1 0x4 DUP3 ADD MSTORE PUSH1 0x1B PUSH1 0x24 DUP3 ADD MSTORE PUSH32 0x70726F6F6620726573706F6E7365206973206E6F742076616C69640000000000 PUSH1 0x44 DUP3 ADD MSTORE PUSH1 0x64 ADD PUSH2 0x603 JUMP JUMPDEST CALLER PUSH1 0x0 SWAP1 DUP2 MSTORE PUSH1 0x7 PUSH1 0x20 SWAP1 DUP2 MSTORE PUSH1 0x40 DUP1 DUP4 KECCAK256 PUSH1 0x1 PUSH1 0x1 PUSH1 0x40 SHL SUB DUP11 AND DUP5 MSTORE DUP3 MSTORE DUP1 DUP4 KECCAK256 DUP1 SLOAD PUSH1 0xFF NOT AND PUSH1 0x1 OR SWAP1 SSTORE PUSH1 0x9 SWAP1 SWAP2 MSTORE SWAP1 KECCAK256 SLOAD PUSH2 0xB9B SWAP1 DUP8 SWAP1 DUP8 SWAP1 PUSH1 0x1 PUSH1 0x1 PUSH1 0xA0 SHL SUB AND PUSH2 0x1877 JUMP JUMPDEST POP PUSH1 0x1 SWAP6 SWAP5 POP POP POP POP POP JUMP JUMPDEST PUSH2 0xBB1 CALLER DUP4 PUSH2 0x1407 JUMP JUMPDEST PUSH2 0xBCD JUMPI PUSH1 0x40 MLOAD PUSH3 0x461BCD PUSH1 0xE5 SHL DUP2 MSTORE PUSH1 0x4 ADD PUSH2 0x603 SWAP1 PUSH2 0x2924 JUMP JUMPDEST PUSH2 0xBD9 DUP5 DUP5 DUP5 DUP5 PUSH2 0x19F8 JUMP JUMPDEST POP POP POP POP JUMP JUMPDEST PUSH2 0xC11 PUSH1 0x40 MLOAD DUP1 PUSH1 0xA0 ADD PUSH1 0x40 MSTORE DUP1 PUSH1 0x0 DUP2 MSTORE PUSH1 0x20 ADD PUSH1 0x0 DUP2 MSTORE PUSH1 0x20 ADD PUSH1 0x0 DUP2 MSTORE PUSH1 0x20 ADD PUSH1 0x60 DUP2 MSTORE PUSH1 0x20 ADD PUSH1 0x60 DUP2 MSTORE POP SWAP1 JUMP JUMPDEST PUSH1 0x1 PUSH1 0x1 PUSH1 0x40 SHL SUB DUP3 AND PUSH1 0x0 SWAP1 DUP2 MSTORE PUSH1 0x8 PUSH1 0x20 SWAP1 DUP2 MSTORE PUSH1 0x40 SWAP2 DUP3 SWAP1 KECCAK256 DUP3 MLOAD PUSH1 0xA0 DUP2 ADD DUP5 MSTORE DUP2 SLOAD DUP2 MSTORE PUSH1 0x1 DUP3 ADD SLOAD DUP2 DUP5 ADD MSTORE PUSH1 0x2 DUP3 ADD SLOAD DUP2 DUP6 ADD MSTORE PUSH1 0x3 DUP3 ADD DUP1 SLOAD DUP6 MLOAD DUP2 DUP7 MUL DUP2 ADD DUP7 ADD SWAP1 SWAP7 MSTORE DUP1 DUP7 MSTORE SWAP2 SWAP5 SWAP3 SWAP4 PUSH1 0x60 DUP7 ADD SWAP4 SWAP3 SWAP1 DUP4 ADD DUP3 DUP3 DUP1 ISZERO PUSH2 0xC9A JUMPI PUSH1 0x20 MUL DUP3 ADD SWAP2 SWAP1 PUSH1 0x0 MSTORE PUSH1 0x20 PUSH1 0x0 KECCAK256 SWAP1 JUMPDEST DUP2 SLOAD DUP2 MSTORE PUSH1 0x20 ADD SWAP1 PUSH1 0x1 ADD SWAP1 DUP1 DUP4 GT PUSH2 0xC86 JUMPI JUMPDEST POP POP POP POP POP DUP2 MSTORE PUSH1 0x20 ADD PUSH1 0x4 DUP3 ADD DUP1 SLOAD PUSH2 0xCB3 SWAP1 PUSH2 0x28EA JUMP JUMPDEST DUP1 PUSH1 0x1F ADD PUSH1 0x20 DUP1 SWAP2 DIV MUL PUSH1 0x20 ADD PUSH1 0x40 MLOAD SWAP1 DUP2 ADD PUSH1 0x40 MSTORE DUP1 SWAP3 SWAP2 SWAP1 DUP2 DUP2 MSTORE PUSH1 0x20 ADD DUP3 DUP1 SLOAD PUSH2 0xCDF SWAP1 PUSH2 0x28EA JUMP JUMPDEST DUP1 ISZERO PUSH2 0xD2C JUMPI DUP1 PUSH1 0x1F LT PUSH2 0xD01 JUMPI PUSH2 0x100 DUP1 DUP4 SLOAD DIV MUL DUP4 MSTORE SWAP2 PUSH1 0x20 ADD SWAP2 PUSH2 0xD2C JUMP JUMPDEST DUP3 ADD SWAP2 SWAP1 PUSH1 0x0 MSTORE PUSH1 0x20 PUSH1 0x0 KECCAK256 SWAP1 JUMPDEST DUP2 SLOAD DUP2 MSTORE SWAP1 PUSH1 0x1 ADD SWAP1 PUSH1 0x20 ADD DUP1 DUP4 GT PUSH2 0xD0F JUMPI DUP3 SWAP1 SUB PUSH1 0x1F AND DUP3 ADD SWAP2 JUMPDEST POP POP POP POP POP DUP2 MSTORE POP POP SWAP1 POP SWAP2 SWAP1 POP JUMP JUMPDEST PUSH1 0x0 DUP2 DUP2 MSTORE PUSH1 0x2 PUSH1 0x20 MSTORE PUSH1 0x40 SWAP1 KECCAK256 SLOAD PUSH1 0x60 SWAP1 PUSH1 0x1 PUSH1 0x1 PUSH1 0xA0 SHL SUB AND PUSH2 0xDA3 JUMPI PUSH1 0x40 MLOAD PUSH3 0x461BCD PUSH1 0xE5 SHL DUP2 MSTORE PUSH1 0x20 PUSH1 0x4 DUP3 ADD MSTORE PUSH1 0x18 PUSH1 0x24 DUP3 ADD MSTORE PUSH32 0x546F6B656E20494420646F6573206E6F742065786973742E0000000000000000 PUSH1 0x44 DUP3 ADD MSTORE PUSH1 0x64 ADD PUSH2 0x603 JUMP JUMPDEST PUSH1 0x0 PUSH2 0xDAE DUP4 PUSH2 0xE2A JUMP JUMPDEST SWAP1 POP PUSH1 0x0 PUSH2 0xDFF PUSH2 0xDBE DUP6 PUSH2 0x1A2B JUMP JUMPDEST DUP4 PUSH1 0xB PUSH1 0xC PUSH2 0xDEB DUP8 PUSH1 0x40 MLOAD PUSH1 0x20 ADD PUSH2 0xDD7 SWAP2 SWAP1 PUSH2 0x2B38 JUMP JUMPDEST PUSH1 0x40 MLOAD PUSH1 0x20 DUP2 DUP4 SUB SUB DUP2 MSTORE SWAP1 PUSH1 0x40 MSTORE PUSH2 0x1B2B JUMP JUMPDEST PUSH1 0x40 MLOAD PUSH1 0x20 ADD PUSH2 0xDD7 SWAP6 SWAP5 SWAP4 SWAP3 SWAP2 SWAP1 PUSH2 0x2CB8 JUMP JUMPDEST SWAP1 POP DUP1 PUSH1 0x40 MLOAD PUSH1 0x20 ADD PUSH2 0xE12 SWAP2 SWAP1 PUSH2 0x2E0F JUMP JUMPDEST PUSH1 0x40 MLOAD PUSH1 0x20 DUP2 DUP4 SUB SUB DUP2 MSTORE SWAP1 PUSH1 0x40 MSTORE SWAP3 POP POP POP SWAP2 SWAP1 POP JUMP JUMPDEST PUSH1 0x40 DUP1 MLOAD PUSH1 0x20 DUP1 DUP3 ADD DUP4 MSTORE PUSH1 0x0 DUP1 DUP4 MSTORE DUP4 MLOAD PUSH2 0x240 DUP2 ADD DUP6 MSTORE PUSH1 0x1 PUSH2 0x200 DUP3 ADD DUP2 DUP2 MSTORE PUSH1 0x3 PUSH1 0xFC SHL PUSH2 0x220 DUP5 ADD MSTORE DUP3 MSTORE DUP6 MLOAD DUP1 DUP8 ADD DUP8 MSTORE DUP2 DUP2 MSTORE PUSH1 0x31 PUSH1 0xF8 SHL DUP2 DUP7 ADD MSTORE DUP3 DUP6 ADD MSTORE DUP6 MLOAD DUP1 DUP8 ADD DUP8 MSTORE DUP2 DUP2 MSTORE PUSH1 0x19 PUSH1 0xF9 SHL DUP2 DUP7 ADD MSTORE DUP3 DUP8 ADD MSTORE DUP6 MLOAD DUP1 DUP8 ADD DUP8 MSTORE DUP2 DUP2 MSTORE PUSH1 0x33 PUSH1 0xF8 SHL DUP2 DUP7 ADD MSTORE PUSH1 0x60 DUP4 DUP2 ADD SWAP2 SWAP1 SWAP2 MSTORE DUP7 MLOAD DUP1 DUP9 ADD DUP9 MSTORE DUP3 DUP2 MSTORE PUSH1 0xD PUSH1 0xFA SHL DUP2 DUP8 ADD MSTORE PUSH1 0x80 DUP5 ADD MSTORE DUP7 MLOAD DUP1 DUP9 ADD DUP9 MSTORE DUP3 DUP2 MSTORE PUSH1 0x35 PUSH1 0xF8 SHL DUP2 DUP8 ADD MSTORE PUSH1 0xA0 DUP5 ADD MSTORE DUP7 MLOAD DUP1 DUP9 ADD DUP9 MSTORE DUP3 DUP2 MSTORE PUSH1 0x1B PUSH1 0xF9 SHL DUP2 DUP8 ADD MSTORE PUSH1 0xC0 DUP5 ADD MSTORE DUP7 MLOAD DUP1 DUP9 ADD DUP9 MSTORE DUP3 DUP2 MSTORE PUSH1 0x37 PUSH1 0xF8 SHL DUP2 DUP8 ADD MSTORE PUSH1 0xE0 DUP5 ADD MSTORE DUP7 MLOAD DUP1 DUP9 ADD DUP9 MSTORE DUP3 DUP2 MSTORE PUSH1 0x7 PUSH1 0xFB SHL DUP2 DUP8 ADD MSTORE PUSH2 0x100 DUP5 ADD MSTORE DUP7 MLOAD DUP1 DUP9 ADD DUP9 MSTORE DUP3 DUP2 MSTORE PUSH1 0x39 PUSH1 0xF8 SHL DUP2 DUP8 ADD MSTORE PUSH2 0x120 DUP5 ADD MSTORE DUP7 MLOAD DUP1 DUP9 ADD DUP9 MSTORE DUP3 DUP2 MSTORE PUSH1 0x41 PUSH1 0xF8 SHL DUP2 DUP8 ADD MSTORE PUSH2 0x140 DUP5 ADD MSTORE DUP7 MLOAD DUP1 DUP9 ADD DUP9 MSTORE DUP3 DUP2 MSTORE PUSH1 0x21 PUSH1 0xF9 SHL DUP2 DUP8 ADD MSTORE PUSH2 0x160 DUP5 ADD MSTORE DUP7 MLOAD DUP1 DUP9 ADD DUP9 MSTORE DUP3 DUP2 MSTORE PUSH1 0x43 PUSH1 0xF8 SHL DUP2 DUP8 ADD MSTORE PUSH2 0x180 DUP5 ADD MSTORE DUP7 MLOAD DUP1 DUP9 ADD DUP9 MSTORE DUP3 DUP2 MSTORE PUSH1 0x11 PUSH1 0xFA SHL DUP2 DUP8 ADD MSTORE PUSH2 0x1A0 DUP5 ADD MSTORE DUP7 MLOAD DUP1 DUP9 ADD DUP9 MSTORE DUP3 DUP2 MSTORE PUSH1 0x45 PUSH1 0xF8 SHL DUP2 DUP8 ADD MSTORE PUSH2 0x1C0 DUP5 ADD MSTORE DUP7 MLOAD DUP1 DUP9 ADD SWAP1 SWAP8 MSTORE SWAP1 DUP7 MSTORE PUSH1 0x23 PUSH1 0xF9 SHL SWAP4 DUP7 ADD SWAP4 SWAP1 SWAP4 MSTORE PUSH2 0x1E0 DUP2 ADD SWAP5 SWAP1 SWAP5 MSTORE SWAP1 SWAP3 SWAP1 SWAP2 SWAP1 JUMPDEST DUP5 ISZERO PUSH2 0x103F JUMPI PUSH2 0xFEA PUSH1 0x10 DUP7 PUSH2 0x2E6A JUMP JUMPDEST SWAP3 POP PUSH1 0x0 DUP2 DUP5 PUSH1 0x10 DUP2 LT PUSH2 0x1000 JUMPI PUSH2 0x1000 PUSH2 0x2E7E JUMP JUMPDEST PUSH1 0x20 MUL ADD MLOAD SWAP1 POP DUP1 DUP4 PUSH1 0x40 MLOAD PUSH1 0x20 ADD PUSH2 0x101A SWAP3 SWAP2 SWAP1 PUSH2 0x2E94 JUMP JUMPDEST PUSH1 0x40 DUP1 MLOAD PUSH1 0x1F NOT DUP2 DUP5 SUB ADD DUP2 MSTORE SWAP2 SWAP1 MSTORE SWAP3 POP PUSH2 0x1037 PUSH1 0x10 DUP8 PUSH2 0x2ED9 JUMP JUMPDEST SWAP6 POP POP PUSH2 0xFD9 JUMP JUMPDEST DUP2 MLOAD PUSH1 0x5 DUP2 SWAP1 SUB PUSH2 0x1071 JUMPI DUP3 PUSH1 0x40 MLOAD PUSH1 0x20 ADD PUSH2 0x105B SWAP2 SWAP1 PUSH2 0x2EED JUMP JUMPDEST PUSH1 0x40 MLOAD PUSH1 0x20 DUP2 DUP4 SUB SUB DUP2 MSTORE SWAP1 PUSH1 0x40 MSTORE SWAP3 POP PUSH2 0x10CE JUMP JUMPDEST DUP1 PUSH1 0x4 SUB PUSH2 0x108A JUMPI DUP3 PUSH1 0x40 MLOAD PUSH1 0x20 ADD PUSH2 0x105B SWAP2 SWAP1 PUSH2 0x2F16 JUMP JUMPDEST DUP1 PUSH1 0x3 SUB PUSH2 0x10A3 JUMPI DUP3 PUSH1 0x40 MLOAD PUSH1 0x20 ADD PUSH2 0x105B SWAP2 SWAP1 PUSH2 0x2F40 JUMP JUMPDEST DUP1 PUSH1 0x4 SUB PUSH2 0x10CE JUMPI DUP3 PUSH1 0x40 MLOAD PUSH1 0x20 ADD PUSH2 0x10BC SWAP2 SWAP1 PUSH2 0x2F6B JUMP JUMPDEST PUSH1 0x40 MLOAD PUSH1 0x20 DUP2 DUP4 SUB SUB DUP2 MSTORE SWAP1 PUSH1 0x40 MSTORE SWAP3 POP JUMPDEST POP SWAP1 SWAP5 SWAP4 POP POP POP POP JUMP JUMPDEST PUSH1 0x1 PUSH1 0x1 PUSH1 0xA0 SHL SUB SWAP2 DUP3 AND PUSH1 0x0 SWAP1 DUP2 MSTORE PUSH1 0x5 PUSH1 0x20 SWAP1 DUP2 MSTORE PUSH1 0x40 DUP1 DUP4 KECCAK256 SWAP4 SWAP1 SWAP5 AND DUP3 MSTORE SWAP2 SWAP1 SWAP2 MSTORE KECCAK256 SLOAD PUSH1 0xFF AND SWAP1 JUMP JUMPDEST PUSH1 0xA DUP2 DUP2 SLOAD DUP2 LT PUSH2 0x1116 JUMPI PUSH1 0x0 DUP1 REVERT JUMPDEST SWAP1 PUSH1 0x0 MSTORE PUSH1 0x20 PUSH1 0x0 KECCAK256 SWAP1 PUSH1 0x4 SWAP2 DUP3 DUP3 DIV ADD SWAP2 SWAP1 MOD PUSH1 0x8 MUL SWAP2 POP SLOAD SWAP1 PUSH2 0x100 EXP SWAP1 DIV PUSH1 0x1 PUSH1 0x1 PUSH1 0x40 SHL SUB AND DUP2 JUMP JUMPDEST PUSH2 0x114B PUSH2 0x160D JUMP JUMPDEST PUSH1 0x1 PUSH1 0x1 PUSH1 0xA0 SHL SUB DUP2 AND PUSH2 0x11B0 JUMPI PUSH1 0x40 MLOAD PUSH3 0x461BCD PUSH1 0xE5 SHL DUP2 MSTORE PUSH1 0x20 PUSH1 0x4 DUP3 ADD MSTORE PUSH1 0x26 PUSH1 0x24 DUP3 ADD MSTORE PUSH32 0x4F776E61626C653A206E6577206F776E657220697320746865207A65726F2061 PUSH1 0x44 DUP3 ADD MSTORE PUSH6 0x646472657373 PUSH1 0xD0 SHL PUSH1 0x64 DUP3 ADD MSTORE PUSH1 0x84 ADD PUSH2 0x603 JUMP JUMPDEST PUSH2 0x11B9 DUP2 PUSH2 0x1667 JUMP JUMPDEST POP JUMP JUMPDEST PUSH1 0x0 PUSH2 0x11C6 PUSH2 0x160D JUMP JUMPDEST PUSH1 0x1 PUSH1 0x1 PUSH1 0x40 SHL SUB DUP5 AND PUSH1 0x0 SWAP1 DUP2 MSTORE PUSH1 0x9 PUSH1 0x20 MSTORE PUSH1 0x40 SWAP1 KECCAK256 SLOAD PUSH1 0x1 PUSH1 0x1 PUSH1 0xA0 SHL SUB AND PUSH2 0x124A JUMPI PUSH1 0xA DUP1 SLOAD PUSH1 0x1 DUP2 ADD DUP3 SSTORE PUSH1 0x0 SWAP2 SWAP1 SWAP2 MSTORE PUSH32 0xC65A7BB8D6351C1CF70C95A316CC6A92839C986682D98BC35F958F4883F9D2A8 PUSH1 0x4 DUP3 DIV ADD DUP1 SLOAD PUSH1 0x3 SWAP1 SWAP3 AND PUSH1 0x8 MUL PUSH2 0x100 EXP PUSH1 0x1 PUSH1 0x1 PUSH1 0x40 SHL SUB DUP2 DUP2 MUL NOT SWAP1 SWAP4 AND SWAP3 DUP8 AND MUL SWAP2 SWAP1 SWAP2 OR SWAP1 SSTORE JUMPDEST PUSH1 0x60 DUP3 ADD MLOAD PUSH1 0x1 PUSH1 0x1 PUSH1 0x40 SHL SUB DUP6 AND PUSH1 0x0 SWAP1 DUP2 MSTORE PUSH1 0x8 PUSH1 0x20 SWAP1 DUP2 MSTORE PUSH1 0x40 SWAP1 SWAP2 KECCAK256 DUP3 MLOAD PUSH2 0x127F SWAP4 PUSH1 0x3 SWAP1 SWAP3 ADD SWAP3 SWAP1 SWAP2 ADD SWAP1 PUSH2 0x2154 JUMP JUMPDEST POP PUSH1 0x40 DUP1 DUP4 ADD MLOAD PUSH1 0x1 PUSH1 0x1 PUSH1 0x40 SHL SUB DUP7 AND PUSH1 0x0 SWAP1 DUP2 MSTORE PUSH1 0x8 PUSH1 0x20 MSTORE SWAP2 SWAP1 SWAP2 KECCAK256 PUSH1 0x2 DUP2 ADD SWAP2 SWAP1 SWAP2 SSTORE PUSH1 0x80 DUP4 ADD MLOAD PUSH1 0x4 SWAP1 SWAP2 ADD SWAP1 PUSH2 0x12BB SWAP1 DUP3 PUSH2 0x2FE5 JUMP JUMPDEST POP PUSH1 0x20 DUP1 DUP4 ADD MLOAD PUSH1 0x1 PUSH1 0x1 PUSH1 0x40 SHL SUB DUP7 AND PUSH1 0x0 SWAP1 DUP2 MSTORE PUSH1 0x8 SWAP1 SWAP3 MSTORE PUSH1 0x40 SWAP1 SWAP2 KECCAK256 PUSH1 0x1 DUP2 ADD SWAP2 SWAP1 SWAP2 SSTORE DUP3 MLOAD DUP2 SSTORE PUSH1 0x80 DUP4 ADD MLOAD PUSH1 0x4 SWAP1 SWAP2 ADD SWAP1 PUSH2 0x12FC SWAP1 DUP3 PUSH2 0x2FE5 JUMP JUMPDEST POP POP PUSH1 0x1 PUSH1 0x1 PUSH1 0x40 SHL SUB DUP4 AND PUSH1 0x0 SWAP1 DUP2 MSTORE PUSH1 0x9 PUSH1 0x20 MSTORE PUSH1 0x40 SWAP1 KECCAK256 DUP1 SLOAD PUSH1 0x1 PUSH1 0x1 PUSH1 0xA0 SHL SUB DUP5 AND PUSH1 0x1 PUSH1 0x1 PUSH1 0xA0 SHL SUB NOT SWAP1 SWAP2 AND OR SWAP1 SSTORE PUSH1 0x1 SWAP4 SWAP3 POP POP POP JUMP JUMPDEST PUSH1 0x0 DUP2 DUP2 MSTORE PUSH1 0x2 PUSH1 0x20 MSTORE PUSH1 0x40 SWAP1 KECCAK256 SLOAD PUSH1 0x1 PUSH1 0x1 PUSH1 0xA0 SHL SUB AND PUSH2 0x11B9 JUMPI PUSH1 0x40 MLOAD PUSH3 0x461BCD PUSH1 0xE5 SHL DUP2 MSTORE PUSH1 0x20 PUSH1 0x4 DUP3 ADD MSTORE PUSH1 0x18 PUSH1 0x24 DUP3 ADD MSTORE PUSH24 0x115490CDCC8C4E881A5B9D985B1A59081D1BDAD95B881251 PUSH1 0x42 SHL PUSH1 0x44 DUP3 ADD MSTORE PUSH1 0x64 ADD PUSH2 0x603 JUMP JUMPDEST PUSH1 0x0 DUP2 DUP2 MSTORE PUSH1 0x4 PUSH1 0x20 MSTORE PUSH1 0x40 SWAP1 KECCAK256 DUP1 SLOAD PUSH1 0x1 PUSH1 0x1 PUSH1 0xA0 SHL SUB NOT AND PUSH1 0x1 PUSH1 0x1 PUSH1 0xA0 SHL SUB DUP5 AND SWAP1 DUP2 OR SWAP1 SWAP2 SSTORE DUP2 SWAP1 PUSH2 0x13CE DUP3 PUSH2 0x77E JUMP JUMPDEST PUSH1 0x1 PUSH1 0x1 PUSH1 0xA0 SHL SUB AND PUSH32 0x8C5BE1E5EBEC7D5BD14F71427D1E84F3DD0314C0F7B2291E5B200AC8C7C3B925 PUSH1 0x40 MLOAD PUSH1 0x40 MLOAD DUP1 SWAP2 SUB SWAP1 LOG4 POP POP JUMP JUMPDEST PUSH1 0x0 DUP1 PUSH2 0x1413 DUP4 PUSH2 0x77E JUMP JUMPDEST SWAP1 POP DUP1 PUSH1 0x1 PUSH1 0x1 PUSH1 0xA0 SHL SUB AND DUP5 PUSH1 0x1 PUSH1 0x1 PUSH1 0xA0 SHL SUB AND EQ DUP1 PUSH2 0x143A JUMPI POP PUSH2 0x143A DUP2 DUP6 PUSH2 0x10D8 JUMP JUMPDEST DUP1 PUSH2 0x145E JUMPI POP DUP4 PUSH1 0x1 PUSH1 0x1 PUSH1 0xA0 SHL SUB AND PUSH2 0x1453 DUP5 PUSH2 0x568 JUMP JUMPDEST PUSH1 0x1 PUSH1 0x1 PUSH1 0xA0 SHL SUB AND EQ JUMPDEST SWAP5 SWAP4 POP POP POP POP JUMP JUMPDEST DUP3 PUSH1 0x1 PUSH1 0x1 PUSH1 0xA0 SHL SUB AND PUSH2 0x1479 DUP3 PUSH2 0x77E JUMP JUMPDEST PUSH1 0x1 PUSH1 0x1 PUSH1 0xA0 SHL SUB AND EQ PUSH2 0x14DD JUMPI PUSH1 0x40 MLOAD PUSH3 0x461BCD PUSH1 0xE5 SHL DUP2 MSTORE PUSH1 0x20 PUSH1 0x4 DUP3 ADD MSTORE PUSH1 0x25 PUSH1 0x24 DUP3 ADD MSTORE PUSH32 0x4552433732313A207472616E736665722066726F6D20696E636F727265637420 PUSH1 0x44 DUP3 ADD MSTORE PUSH5 0x37BBB732B9 PUSH1 0xD9 SHL PUSH1 0x64 DUP3 ADD MSTORE PUSH1 0x84 ADD PUSH2 0x603 JUMP JUMPDEST PUSH1 0x1 PUSH1 0x1 PUSH1 0xA0 SHL SUB DUP3 AND PUSH2 0x153F JUMPI PUSH1 0x40 MLOAD PUSH3 0x461BCD PUSH1 0xE5 SHL DUP2 MSTORE PUSH1 0x20 PUSH1 0x4 DUP3 ADD MSTORE PUSH1 0x24 DUP1 DUP3 ADD MSTORE PUSH32 0x4552433732313A207472616E7366657220746F20746865207A65726F20616464 PUSH1 0x44 DUP3 ADD MSTORE PUSH4 0x72657373 PUSH1 0xE0 SHL PUSH1 0x64 DUP3 ADD MSTORE PUSH1 0x84 ADD PUSH2 0x603 JUMP JUMPDEST PUSH2 0x154A DUP4 DUP4 DUP4 PUSH2 0x1C91 JUMP JUMPDEST PUSH2 0x1555 PUSH1 0x0 DUP3 PUSH2 0x1399 JUMP JUMPDEST PUSH1 0x1 PUSH1 0x1 PUSH1 0xA0 SHL SUB DUP4 AND PUSH1 0x0 SWAP1 DUP2 MSTORE PUSH1 0x3 PUSH1 0x20 MSTORE PUSH1 0x40 DUP2 KECCAK256 DUP1 SLOAD PUSH1 0x1 SWAP3 SWAP1 PUSH2 0x157E SWAP1 DUP5 SWAP1 PUSH2 0x30A4 JUMP JUMPDEST SWAP1 SWAP2 SSTORE POP POP PUSH1 0x1 PUSH1 0x1 PUSH1 0xA0 SHL SUB DUP3 AND PUSH1 0x0 SWAP1 DUP2 MSTORE PUSH1 0x3 PUSH1 0x20 MSTORE PUSH1 0x40 DUP2 KECCAK256 DUP1 SLOAD PUSH1 0x1 SWAP3 SWAP1 PUSH2 0x15AC SWAP1 DUP5 SWAP1 PUSH2 0x30B7 JUMP JUMPDEST SWAP1 SWAP2 SSTORE POP POP PUSH1 0x0 DUP2 DUP2 MSTORE PUSH1 0x2 PUSH1 0x20 MSTORE PUSH1 0x40 DUP1 DUP3 KECCAK256 DUP1 SLOAD PUSH1 0x1 PUSH1 0x1 PUSH1 0xA0 SHL SUB NOT AND PUSH1 0x1 PUSH1 0x1 PUSH1 0xA0 SHL SUB DUP7 DUP2 AND SWAP2 DUP3 OR SWAP1 SWAP3 SSTORE SWAP2 MLOAD DUP5 SWAP4 SWAP2 DUP8 AND SWAP2 PUSH32 0xDDF252AD1BE2C89B69C2B068FC378DAA952BA7F163C4A11628F55A4DF523B3EF SWAP2 LOG4 POP POP POP JUMP JUMPDEST PUSH1 0x6 SLOAD PUSH1 0x1 PUSH1 0x1 PUSH1 0xA0 SHL SUB AND CALLER EQ PUSH2 0x876 JUMPI PUSH1 0x40 MLOAD PUSH3 0x461BCD PUSH1 0xE5 SHL DUP2 MSTORE PUSH1 0x20 PUSH1 0x4 DUP3 ADD DUP2 SWAP1 MSTORE PUSH1 0x24 DUP3 ADD MSTORE PUSH32 0x4F776E61626C653A2063616C6C6572206973206E6F7420746865206F776E6572 PUSH1 0x44 DUP3 ADD MSTORE PUSH1 0x64 ADD PUSH2 0x603 JUMP JUMPDEST PUSH1 0x6 DUP1 SLOAD PUSH1 0x1 PUSH1 0x1 PUSH1 0xA0 SHL SUB DUP4 DUP2 AND PUSH1 0x1 PUSH1 0x1 PUSH1 0xA0 SHL SUB NOT DUP4 AND DUP2 OR SWAP1 SWAP4 SSTORE PUSH1 0x40 MLOAD SWAP2 AND SWAP2 SWAP1 DUP3 SWAP1 PUSH32 0x8BE0079C531659141344CD1FD0A4F28419497F9722A3DAAFE3B4186F6B6457E0 SWAP1 PUSH1 0x0 SWAP1 LOG3 POP POP JUMP JUMPDEST DUP2 PUSH1 0x1 PUSH1 0x1 PUSH1 0xA0 SHL SUB AND DUP4 PUSH1 0x1 PUSH1 0x1 PUSH1 0xA0 SHL SUB AND SUB PUSH2 0x171A JUMPI PUSH1 0x40 MLOAD PUSH3 0x461BCD PUSH1 0xE5 SHL DUP2 MSTORE PUSH1 0x20 PUSH1 0x4 DUP3 ADD MSTORE PUSH1 0x19 PUSH1 0x24 DUP3 ADD MSTORE PUSH32 0x4552433732313A20617070726F766520746F2063616C6C657200000000000000 PUSH1 0x44 DUP3 ADD MSTORE PUSH1 0x64 ADD PUSH2 0x603 JUMP JUMPDEST PUSH1 0x1 PUSH1 0x1 PUSH1 0xA0 SHL SUB DUP4 DUP2 AND PUSH1 0x0 DUP2 DUP2 MSTORE PUSH1 0x5 PUSH1 0x20 SWAP1 DUP2 MSTORE PUSH1 0x40 DUP1 DUP4 KECCAK256 SWAP5 DUP8 AND DUP1 DUP5 MSTORE SWAP5 DUP3 MSTORE SWAP2 DUP3 SWAP1 KECCAK256 DUP1 SLOAD PUSH1 0xFF NOT AND DUP7 ISZERO ISZERO SWAP1 DUP2 OR SWAP1 SWAP2 SSTORE SWAP2 MLOAD SWAP2 DUP3 MSTORE PUSH32 0x17307EAB39AB6107E8899845AD3D59BD9653F200F220920489CA2B5937696C31 SWAP2 ADD PUSH1 0x40 MLOAD DUP1 SWAP2 SUB SWAP1 LOG3 POP POP POP JUMP JUMPDEST PUSH1 0x0 PUSH2 0x180C DUP4 DUP4 PUSH1 0x1 PUSH1 0x1 PUSH1 0xA0 SHL SUB AND PUSH4 0x9F442AFA PUSH1 0x40 MLOAD DUP2 PUSH4 0xFFFFFFFF AND PUSH1 0xE0 SHL DUP2 MSTORE PUSH1 0x4 ADD PUSH1 0x20 PUSH1 0x40 MLOAD DUP1 DUP4 SUB DUP2 DUP7 GAS STATICCALL ISZERO DUP1 ISZERO PUSH2 0x17CB JUMPI RETURNDATASIZE PUSH1 0x0 DUP1 RETURNDATACOPY RETURNDATASIZE PUSH1 0x0 REVERT JUMPDEST POP POP POP POP PUSH1 0x40 MLOAD RETURNDATASIZE PUSH1 0x1F NOT PUSH1 0x1F DUP3 ADD AND DUP3 ADD DUP1 PUSH1 0x40 MSTORE POP DUP2 ADD SWAP1 PUSH2 0x17EF SWAP2 SWAP1 PUSH2 0x30CA JUMP JUMPDEST DUP2 MLOAD DUP2 LT PUSH2 0x17FF JUMPI PUSH2 0x17FF PUSH2 0x2E7E JUMP JUMPDEST PUSH1 0x20 MUL PUSH1 0x20 ADD ADD MLOAD PUSH2 0x1D31 JUMP JUMPDEST SWAP1 POP CALLER PUSH1 0x1 PUSH1 0x1 PUSH1 0xA0 SHL SUB DUP3 AND EQ PUSH2 0xBD9 JUMPI PUSH1 0x40 MLOAD PUSH3 0x461BCD PUSH1 0xE5 SHL DUP2 MSTORE PUSH1 0x20 PUSH1 0x4 DUP3 ADD MSTORE PUSH1 0x28 PUSH1 0x24 DUP3 ADD MSTORE PUSH32 0x6164647265737320696E2070726F6F66206973206E6F7420612073656E646572 PUSH1 0x44 DUP3 ADD MSTORE PUSH8 0x2061646472657373 PUSH1 0xC0 SHL PUSH1 0x64 DUP3 ADD MSTORE PUSH1 0x84 ADD PUSH2 0x603 JUMP JUMPDEST PUSH1 0x1 PUSH1 0x1 PUSH1 0x40 SHL SUB DUP4 AND PUSH1 0x1 EQ DUP1 ISZERO PUSH2 0x189D JUMPI POP CALLER PUSH1 0x0 SWAP1 DUP2 MSTORE PUSH1 0xE PUSH1 0x20 MSTORE PUSH1 0x40 SWAP1 KECCAK256 SLOAD ISZERO JUMPDEST PUSH2 0x18FB JUMPI PUSH1 0x40 MLOAD PUSH3 0x461BCD PUSH1 0xE5 SHL DUP2 MSTORE PUSH1 0x20 PUSH1 0x4 DUP3 ADD MSTORE PUSH1 0x29 PUSH1 0x24 DUP3 ADD MSTORE PUSH32 0x70726F6F662063616E206E6F74206265207375626D6974746564206D6F726520 PUSH1 0x44 DUP3 ADD MSTORE PUSH9 0x7468616E206F6E6365 PUSH1 0xB8 SHL PUSH1 0x64 DUP3 ADD MSTORE PUSH1 0x84 ADD PUSH2 0x603 JUMP JUMPDEST PUSH1 0x0 DUP3 DUP3 PUSH1 0x1 PUSH1 0x1 PUSH1 0xA0 SHL SUB AND PUSH4 0x9F442AFA PUSH1 0x40 MLOAD DUP2 PUSH4 0xFFFFFFFF AND PUSH1 0xE0 SHL DUP2 MSTORE PUSH1 0x4 ADD PUSH1 0x20 PUSH1 0x40 MLOAD DUP1 DUP4 SUB DUP2 DUP7 GAS STATICCALL ISZERO DUP1 ISZERO PUSH2 0x193C JUMPI RETURNDATASIZE PUSH1 0x0 DUP1 RETURNDATACOPY RETURNDATASIZE PUSH1 0x0 REVERT JUMPDEST POP POP POP POP PUSH1 0x40 MLOAD RETURNDATASIZE PUSH1 0x1F NOT PUSH1 0x1F DUP3 ADD AND DUP3 ADD DUP1 PUSH1 0x40 MSTORE POP DUP2 ADD SWAP1 PUSH2 0x1960 SWAP2 SWAP1 PUSH2 0x30CA JUMP JUMPDEST DUP2 MLOAD DUP2 LT PUSH2 0x1970 JUMPI PUSH2 0x1970 PUSH2 0x2E7E JUMP JUMPDEST PUSH1 0x20 SWAP1 DUP2 MUL SWAP2 SWAP1 SWAP2 ADD DUP2 ADD MLOAD PUSH1 0x0 DUP2 DUP2 MSTORE PUSH1 0xD SWAP1 SWAP3 MSTORE PUSH1 0x40 SWAP1 SWAP2 KECCAK256 SLOAD SWAP1 SWAP2 POP PUSH1 0x1 PUSH1 0x1 PUSH1 0xA0 SHL SUB AND PUSH2 0xBD9 JUMPI PUSH1 0x0 PUSH2 0x19A7 PUSH1 0xF SLOAD SWAP1 JUMP JUMPDEST SWAP1 POP PUSH2 0x19B7 PUSH1 0xF DUP1 SLOAD PUSH1 0x1 ADD SWAP1 SSTORE JUMP JUMPDEST PUSH2 0x19C1 CALLER DUP3 PUSH2 0x1E8E JUMP JUMPDEST POP CALLER PUSH1 0x0 DUP2 DUP2 MSTORE PUSH1 0xE PUSH1 0x20 SWAP1 DUP2 MSTORE PUSH1 0x40 DUP1 DUP4 KECCAK256 DUP6 SWAP1 SSTORE SWAP4 DUP3 MSTORE PUSH1 0xD SWAP1 MSTORE SWAP2 SWAP1 SWAP2 KECCAK256 DUP1 SLOAD PUSH1 0x1 PUSH1 0x1 PUSH1 0xA0 SHL SUB NOT AND SWAP1 SWAP2 OR SWAP1 SSTORE POP POP POP JUMP JUMPDEST PUSH2 0x1A03 DUP5 DUP5 DUP5 PUSH2 0x1466 JUMP JUMPDEST PUSH2 0x1A0F DUP5 DUP5 DUP5 DUP5 PUSH2 0x1EA8 JUMP JUMPDEST PUSH2 0xBD9 JUMPI PUSH1 0x40 MLOAD PUSH3 0x461BCD PUSH1 0xE5 SHL DUP2 MSTORE PUSH1 0x4 ADD PUSH2 0x603 SWAP1 PUSH2 0x30E3 JUMP JUMPDEST PUSH1 0x60 DUP2 PUSH1 0x0 SUB PUSH2 0x1A52 JUMPI POP POP PUSH1 0x40 DUP1 MLOAD DUP1 DUP3 ADD SWAP1 SWAP2 MSTORE PUSH1 0x1 DUP2 MSTORE PUSH1 0x3 PUSH1 0xFC SHL PUSH1 0x20 DUP3 ADD MSTORE SWAP1 JUMP JUMPDEST DUP2 PUSH1 0x0 JUMPDEST DUP2 ISZERO PUSH2 0x1A7C JUMPI DUP1 PUSH2 0x1A66 DUP2 PUSH2 0x3135 JUMP JUMPDEST SWAP2 POP PUSH2 0x1A75 SWAP1 POP PUSH1 0xA DUP4 PUSH2 0x2ED9 JUMP JUMPDEST SWAP2 POP PUSH2 0x1A56 JUMP JUMPDEST PUSH1 0x0 DUP2 PUSH1 0x1 PUSH1 0x1 PUSH1 0x40 SHL SUB DUP2 GT ISZERO PUSH2 0x1A96 JUMPI PUSH2 0x1A96 PUSH2 0x2438 JUMP JUMPDEST PUSH1 0x40 MLOAD SWAP1 DUP1 DUP3 MSTORE DUP1 PUSH1 0x1F ADD PUSH1 0x1F NOT AND PUSH1 0x20 ADD DUP3 ADD PUSH1 0x40 MSTORE DUP1 ISZERO PUSH2 0x1AC0 JUMPI PUSH1 0x20 DUP3 ADD DUP2 DUP1 CALLDATASIZE DUP4 CALLDATACOPY ADD SWAP1 POP JUMPDEST POP SWAP1 POP JUMPDEST DUP5 ISZERO PUSH2 0x145E JUMPI PUSH2 0x1AD5 PUSH1 0x1 DUP4 PUSH2 0x30A4 JUMP JUMPDEST SWAP2 POP PUSH2 0x1AE2 PUSH1 0xA DUP7 PUSH2 0x2E6A JUMP JUMPDEST PUSH2 0x1AED SWAP1 PUSH1 0x30 PUSH2 0x30B7 JUMP JUMPDEST PUSH1 0xF8 SHL DUP2 DUP4 DUP2 MLOAD DUP2 LT PUSH2 0x1B02 JUMPI PUSH2 0x1B02 PUSH2 0x2E7E JUMP JUMPDEST PUSH1 0x20 ADD ADD SWAP1 PUSH1 0x1 PUSH1 0x1 PUSH1 0xF8 SHL SUB NOT AND SWAP1 DUP2 PUSH1 0x0 BYTE SWAP1 MSTORE8 POP PUSH2 0x1B24 PUSH1 0xA DUP7 PUSH2 0x2ED9 JUMP JUMPDEST SWAP5 POP PUSH2 0x1AC4 JUMP JUMPDEST PUSH1 0x60 DUP2 MLOAD PUSH1 0x0 SUB PUSH2 0x1B4A JUMPI POP POP PUSH1 0x40 DUP1 MLOAD PUSH1 0x20 DUP2 ADD SWAP1 SWAP2 MSTORE PUSH1 0x0 DUP2 MSTORE SWAP1 JUMP JUMPDEST PUSH1 0x0 PUSH1 0x40 MLOAD DUP1 PUSH1 0x60 ADD PUSH1 0x40 MSTORE DUP1 PUSH1 0x40 DUP2 MSTORE PUSH1 0x20 ADD PUSH2 0x31B6 PUSH1 0x40 SWAP2 CODECOPY SWAP1 POP PUSH1 0x0 PUSH1 0x3 DUP5 MLOAD PUSH1 0x2 PUSH2 0x1B79 SWAP2 SWAP1 PUSH2 0x30B7 JUMP JUMPDEST PUSH2 0x1B83 SWAP2 SWAP1 PUSH2 0x2ED9 JUMP JUMPDEST PUSH2 0x1B8E SWAP1 PUSH1 0x4 PUSH2 0x314E JUMP JUMPDEST SWAP1 POP PUSH1 0x0 PUSH2 0x1B9D DUP3 PUSH1 0x20 PUSH2 0x30B7 JUMP JUMPDEST PUSH1 0x1 PUSH1 0x1 PUSH1 0x40 SHL SUB DUP2 GT ISZERO PUSH2 0x1BB4 JUMPI PUSH2 0x1BB4 PUSH2 0x2438 JUMP JUMPDEST PUSH1 0x40 MLOAD SWAP1 DUP1 DUP3 MSTORE DUP1 PUSH1 0x1F ADD PUSH1 0x1F NOT AND PUSH1 0x20 ADD DUP3 ADD PUSH1 0x40 MSTORE DUP1 ISZERO PUSH2 0x1BDE JUMPI PUSH1 0x20 DUP3 ADD DUP2 DUP1 CALLDATASIZE DUP4 CALLDATACOPY ADD SWAP1 POP JUMPDEST POP SWAP1 POP DUP2 DUP2 MSTORE PUSH1 0x1 DUP4 ADD DUP6 DUP7 MLOAD DUP2 ADD PUSH1 0x20 DUP5 ADD JUMPDEST DUP2 DUP4 LT ISZERO PUSH2 0x1C4C JUMPI PUSH1 0x3 SWAP3 DUP4 ADD DUP1 MLOAD PUSH1 0x3F PUSH1 0x12 DUP3 SWAP1 SHR DUP2 AND DUP8 ADD MLOAD PUSH1 0xF8 SWAP1 DUP2 SHL DUP6 MSTORE PUSH1 0xC DUP4 SWAP1 SHR DUP3 AND DUP9 ADD MLOAD DUP2 SHL PUSH1 0x1 DUP7 ADD MSTORE PUSH1 0x6 DUP4 SWAP1 SHR DUP3 AND DUP9 ADD MLOAD DUP2 SHL PUSH1 0x2 DUP7 ADD MSTORE SWAP2 AND DUP7 ADD MLOAD SWAP1 SHL SWAP4 DUP3 ADD SWAP4 SWAP1 SWAP4 MSTORE PUSH1 0x4 ADD PUSH2 0x1BF2 JUMP JUMPDEST PUSH1 0x3 DUP10 MLOAD MOD PUSH1 0x1 DUP2 EQ PUSH2 0x1C66 JUMPI PUSH1 0x2 DUP2 EQ PUSH2 0x1C77 JUMPI PUSH2 0x1C83 JUMP JUMPDEST PUSH2 0x3D3D PUSH1 0xF0 SHL PUSH1 0x1 NOT DUP4 ADD MSTORE PUSH2 0x1C83 JUMP JUMPDEST PUSH1 0x3D PUSH1 0xF8 SHL PUSH1 0x0 NOT DUP4 ADD MSTORE JUMPDEST POP SWAP4 SWAP9 SWAP8 POP POP POP POP POP POP POP POP JUMP JUMPDEST PUSH1 0x1 PUSH1 0x1 PUSH1 0xA0 SHL SUB DUP3 AND PUSH1 0x0 SWAP1 DUP2 MSTORE PUSH1 0x7 PUSH1 0x20 SWAP1 DUP2 MSTORE PUSH1 0x40 DUP1 DUP4 KECCAK256 PUSH1 0x1 DUP1 DUP6 MSTORE SWAP3 MSTORE SWAP1 SWAP2 KECCAK256 SLOAD PUSH1 0xFF AND ISZERO ISZERO EQ PUSH2 0x6A4 JUMPI PUSH1 0x40 DUP1 MLOAD PUSH3 0x461BCD PUSH1 0xE5 SHL DUP2 MSTORE PUSH1 0x20 PUSH1 0x4 DUP3 ADD MSTORE PUSH1 0x24 DUP2 ADD SWAP2 SWAP1 SWAP2 MSTORE PUSH32 0x6F6E6C79206964656E7469746965732077686F2070726F76696465642070726F PUSH1 0x44 DUP3 ADD MSTORE PUSH32 0x6F662061726520616C6C6F77656420746F207265636569766520746F6B656E73 PUSH1 0x64 DUP3 ADD MSTORE PUSH1 0x84 ADD PUSH2 0x603 JUMP JUMPDEST PUSH1 0x0 PUSH2 0x4D0 PUSH2 0x1E87 PUSH2 0x1E82 DUP5 PUSH1 0x0 DUP2 SWAP1 POP PUSH1 0x8 DUP2 PUSH31 0xFF00FF00FF00FF00FF00FF00FF00FF00FF00FF00FF00FF00FF00FF00FF00FF AND SWAP1 SHL PUSH1 0x8 DUP3 PUSH32 0xFF00FF00FF00FF00FF00FF00FF00FF00FF00FF00FF00FF00FF00FF00FF00FF00 AND SWAP1 SHR OR SWAP1 POP PUSH1 0x10 DUP2 PUSH30 0xFFFF0000FFFF0000FFFF0000FFFF0000FFFF0000FFFF0000FFFF0000FFFF AND SWAP1 SHL PUSH1 0x10 DUP3 PUSH32 0xFFFF0000FFFF0000FFFF0000FFFF0000FFFF0000FFFF0000FFFF0000FFFF0000 AND SWAP1 SHR OR SWAP1 POP PUSH1 0x20 DUP2 PUSH28 0xFFFFFFFF00000000FFFFFFFF00000000FFFFFFFF00000000FFFFFFFF AND SWAP1 SHL PUSH1 0x20 DUP3 PUSH32 0xFFFFFFFF00000000FFFFFFFF00000000FFFFFFFF00000000FFFFFFFF00000000 AND SWAP1 SHR OR SWAP1 POP PUSH1 0x40 DUP2 PUSH24 0xFFFFFFFFFFFFFFFF0000000000000000FFFFFFFFFFFFFFFF AND SWAP1 SHL PUSH1 0x40 DUP3 PUSH24 0xFFFFFFFFFFFFFFFF0000000000000000FFFFFFFFFFFFFFFF NOT AND SWAP1 SHR OR SWAP1 POP PUSH1 0x80 DUP2 SWAP1 SHL PUSH1 0x80 DUP3 SWAP1 SHR OR SWAP1 POP SWAP2 SWAP1 POP JUMP JUMPDEST PUSH2 0x1FA9 JUMP JUMPDEST PUSH1 0x14 ADD MLOAD SWAP1 JUMP JUMPDEST PUSH2 0x945 DUP3 DUP3 PUSH1 0x40 MLOAD DUP1 PUSH1 0x20 ADD PUSH1 0x40 MSTORE DUP1 PUSH1 0x0 DUP2 MSTORE POP PUSH2 0x1FD3 JUMP JUMPDEST PUSH1 0x0 PUSH1 0x1 PUSH1 0x1 PUSH1 0xA0 SHL SUB DUP5 AND EXTCODESIZE ISZERO PUSH2 0x1F9E JUMPI PUSH1 0x40 MLOAD PUSH4 0xA85BD01 PUSH1 0xE1 SHL DUP2 MSTORE PUSH1 0x1 PUSH1 0x1 PUSH1 0xA0 SHL SUB DUP6 AND SWAP1 PUSH4 0x150B7A02 SWAP1 PUSH2 0x1EEC SWAP1 CALLER SWAP1 DUP10 SWAP1 DUP9 SWAP1 DUP9 SWAP1 PUSH1 0x4 ADD PUSH2 0x3165 JUMP JUMPDEST PUSH1 0x20 PUSH1 0x40 MLOAD DUP1 DUP4 SUB DUP2 PUSH1 0x0 DUP8 GAS CALL SWAP3 POP POP POP DUP1 ISZERO PUSH2 0x1F27 JUMPI POP PUSH1 0x40 DUP1 MLOAD PUSH1 0x1F RETURNDATASIZE SWAP1 DUP2 ADD PUSH1 0x1F NOT AND DUP3 ADD SWAP1 SWAP3 MSTORE PUSH2 0x1F24 SWAP2 DUP2 ADD SWAP1 PUSH2 0x3198 JUMP JUMPDEST PUSH1 0x1 JUMPDEST PUSH2 0x1F84 JUMPI RETURNDATASIZE DUP1 DUP1 ISZERO PUSH2 0x1F55 JUMPI PUSH1 0x40 MLOAD SWAP2 POP PUSH1 0x1F NOT PUSH1 0x3F RETURNDATASIZE ADD AND DUP3 ADD PUSH1 0x40 MSTORE RETURNDATASIZE DUP3 MSTORE RETURNDATASIZE PUSH1 0x0 PUSH1 0x20 DUP5 ADD RETURNDATACOPY PUSH2 0x1F5A JUMP JUMPDEST PUSH1 0x60 SWAP2 POP JUMPDEST POP DUP1 MLOAD PUSH1 0x0 SUB PUSH2 0x1F7C JUMPI PUSH1 0x40 MLOAD PUSH3 0x461BCD PUSH1 0xE5 SHL DUP2 MSTORE PUSH1 0x4 ADD PUSH2 0x603 SWAP1 PUSH2 0x30E3 JUMP JUMPDEST DUP1 MLOAD DUP2 PUSH1 0x20 ADD REVERT JUMPDEST PUSH1 0x1 PUSH1 0x1 PUSH1 0xE0 SHL SUB NOT AND PUSH4 0xA85BD01 PUSH1 0xE1 SHL EQ SWAP1 POP PUSH2 0x145E JUMP JUMPDEST POP PUSH1 0x1 SWAP5 SWAP4 POP POP POP POP JUMP JUMPDEST PUSH1 0x40 DUP1 MLOAD PUSH1 0x20 DUP1 DUP3 MSTORE DUP2 DUP4 ADD SWAP1 SWAP3 MSTORE PUSH1 0x60 SWAP2 PUSH1 0x20 DUP3 ADD DUP2 DUP1 CALLDATASIZE DUP4 CALLDATACOPY POP POP POP PUSH1 0x20 DUP2 ADD SWAP3 SWAP1 SWAP3 MSTORE POP SWAP1 JUMP JUMPDEST PUSH2 0x1FDD DUP4 DUP4 PUSH2 0x2006 JUMP JUMPDEST PUSH2 0x1FEA PUSH1 0x0 DUP5 DUP5 DUP5 PUSH2 0x1EA8 JUMP JUMPDEST PUSH2 0x6A4 JUMPI PUSH1 0x40 MLOAD PUSH3 0x461BCD PUSH1 0xE5 SHL DUP2 MSTORE PUSH1 0x4 ADD PUSH2 0x603 SWAP1 PUSH2 0x30E3 JUMP JUMPDEST PUSH1 0x1 PUSH1 0x1 PUSH1 0xA0 SHL SUB DUP3 AND PUSH2 0x205C JUMPI PUSH1 0x40 MLOAD PUSH3 0x461BCD PUSH1 0xE5 SHL DUP2 MSTORE PUSH1 0x20 PUSH1 0x4 DUP3 ADD DUP2 SWAP1 MSTORE PUSH1 0x24 DUP3 ADD MSTORE PUSH32 0x4552433732313A206D696E7420746F20746865207A65726F2061646472657373 PUSH1 0x44 DUP3 ADD MSTORE PUSH1 0x64 ADD PUSH2 0x603 JUMP JUMPDEST PUSH1 0x0 DUP2 DUP2 MSTORE PUSH1 0x2 PUSH1 0x20 MSTORE PUSH1 0x40 SWAP1 KECCAK256 SLOAD PUSH1 0x1 PUSH1 0x1 PUSH1 0xA0 SHL SUB AND ISZERO PUSH2 0x20C1 JUMPI PUSH1 0x40 MLOAD PUSH3 0x461BCD PUSH1 0xE5 SHL DUP2 MSTORE PUSH1 0x20 PUSH1 0x4 DUP3 ADD MSTORE PUSH1 0x1C PUSH1 0x24 DUP3 ADD MSTORE PUSH32 0x4552433732313A20746F6B656E20616C7265616479206D696E74656400000000 PUSH1 0x44 DUP3 ADD MSTORE PUSH1 0x64 ADD PUSH2 0x603 JUMP JUMPDEST PUSH2 0x20CD PUSH1 0x0 DUP4 DUP4 PUSH2 0x1C91 JUMP JUMPDEST PUSH1 0x1 PUSH1 0x1 PUSH1 0xA0 SHL SUB DUP3 AND PUSH1 0x0 SWAP1 DUP2 MSTORE PUSH1 0x3 PUSH1 0x20 MSTORE PUSH1 0x40 DUP2 KECCAK256 DUP1 SLOAD PUSH1 0x1 SWAP3 SWAP1 PUSH2 0x20F6 SWAP1 DUP5 SWAP1 PUSH2 0x30B7 JUMP JUMPDEST SWAP1 SWAP2 SSTORE POP POP PUSH1 0x0 DUP2 DUP2 MSTORE PUSH1 0x2 PUSH1 0x20 MSTORE PUSH1 0x40 DUP1 DUP3 KECCAK256 DUP1 SLOAD PUSH1 0x1 PUSH1 0x1 PUSH1 0xA0 SHL SUB NOT AND PUSH1 0x1 PUSH1 0x1 PUSH1 0xA0 SHL SUB DUP7 AND SWAP1 DUP2 OR SWAP1 SWAP2 SSTORE SWAP1 MLOAD DUP4 SWAP3 SWAP1 PUSH32 0xDDF252AD1BE2C89B69C2B068FC378DAA952BA7F163C4A11628F55A4DF523B3EF SWAP1 DUP3 SWAP1 LOG4 POP POP JUMP JUMPDEST DUP3 DUP1 SLOAD DUP3 DUP3 SSTORE SWAP1 PUSH1 0x0 MSTORE PUSH1 0x20 PUSH1 0x0 KECCAK256 SWAP1 DUP2 ADD SWAP3 DUP3 ISZERO PUSH2 0x218F JUMPI SWAP2 PUSH1 0x20 MUL DUP3 ADD JUMPDEST DUP3 DUP2 GT ISZERO PUSH2 0x218F JUMPI DUP3 MLOAD DUP3 SSTORE SWAP2 PUSH1 0x20 ADD SWAP2 SWAP1 PUSH1 0x1 ADD SWAP1 PUSH2 0x2174 JUMP JUMPDEST POP PUSH2 0x219B SWAP3 SWAP2 POP PUSH2 0x219F JUMP JUMPDEST POP SWAP1 JUMP JUMPDEST JUMPDEST DUP1 DUP3 GT ISZERO PUSH2 0x219B JUMPI PUSH1 0x0 DUP2 SSTORE PUSH1 0x1 ADD PUSH2 0x21A0 JUMP JUMPDEST PUSH1 0x1 PUSH1 0x1 PUSH1 0xE0 SHL SUB NOT DUP2 AND DUP2 EQ PUSH2 0x11B9 JUMPI PUSH1 0x0 DUP1 REVERT JUMPDEST PUSH1 0x0 PUSH1 0x20 DUP3 DUP5 SUB SLT ISZERO PUSH2 0x21DC JUMPI PUSH1 0x0 DUP1 REVERT JUMPDEST DUP2 CALLDATALOAD PUSH2 0x21E7 DUP2 PUSH2 0x21B4 JUMP JUMPDEST SWAP4 SWAP3 POP POP POP JUMP JUMPDEST PUSH1 0x0 JUMPDEST DUP4 DUP2 LT ISZERO PUSH2 0x2209 JUMPI DUP2 DUP2 ADD MLOAD DUP4 DUP3 ADD MSTORE PUSH1 0x20 ADD PUSH2 0x21F1 JUMP JUMPDEST POP POP PUSH1 0x0 SWAP2 ADD MSTORE JUMP JUMPDEST PUSH1 0x0 DUP2 MLOAD DUP1 DUP5 MSTORE PUSH2 0x222A DUP2 PUSH1 0x20 DUP7 ADD PUSH1 0x20 DUP7 ADD PUSH2 0x21EE JUMP JUMPDEST PUSH1 0x1F ADD PUSH1 0x1F NOT AND SWAP3 SWAP1 SWAP3 ADD PUSH1 0x20 ADD SWAP3 SWAP2 POP POP JUMP JUMPDEST PUSH1 0x20 DUP2 MSTORE PUSH1 0x0 PUSH2 0x21E7 PUSH1 0x20 DUP4 ADD DUP5 PUSH2 0x2212 JUMP JUMPDEST PUSH1 0x0 PUSH1 0x20 DUP3 DUP5 SUB SLT ISZERO PUSH2 0x2263 JUMPI PUSH1 0x0 DUP1 REVERT JUMPDEST POP CALLDATALOAD SWAP2 SWAP1 POP JUMP JUMPDEST PUSH1 0x1 PUSH1 0x1 PUSH1 0xA0 SHL SUB DUP2 AND DUP2 EQ PUSH2 0x11B9 JUMPI PUSH1 0x0 DUP1 REVERT JUMPDEST PUSH1 0x0 DUP1 PUSH1 0x40 DUP4 DUP6 SUB SLT ISZERO PUSH2 0x2292 JUMPI PUSH1 0x0 DUP1 REVERT JUMPDEST DUP3 CALLDATALOAD PUSH2 0x229D DUP2 PUSH2 0x226A JUMP JUMPDEST SWAP5 PUSH1 0x20 SWAP4 SWAP1 SWAP4 ADD CALLDATALOAD SWAP4 POP POP POP JUMP JUMPDEST PUSH1 0x0 DUP1 PUSH1 0x0 PUSH1 0x60 DUP5 DUP7 SUB SLT ISZERO PUSH2 0x22C0 JUMPI PUSH1 0x0 DUP1 REVERT JUMPDEST DUP4 CALLDATALOAD PUSH2 0x22CB DUP2 PUSH2 0x226A JUMP JUMPDEST SWAP3 POP PUSH1 0x20 DUP5 ADD CALLDATALOAD PUSH2 0x22DB DUP2 PUSH2 0x226A JUMP JUMPDEST SWAP3 SWAP6 SWAP3 SWAP5 POP POP POP PUSH1 0x40 SWAP2 SWAP1 SWAP2 ADD CALLDATALOAD SWAP1 JUMP JUMPDEST PUSH1 0x20 DUP1 DUP3 MSTORE DUP3 MLOAD DUP3 DUP3 ADD DUP2 SWAP1 MSTORE PUSH1 0x0 SWAP2 SWAP1 DUP5 DUP3 ADD SWAP1 PUSH1 0x40 DUP6 ADD SWAP1 DUP5 JUMPDEST DUP2 DUP2 LT ISZERO PUSH2 0x232D JUMPI DUP4 MLOAD PUSH1 0x1 PUSH1 0x1 PUSH1 0x40 SHL SUB AND DUP4 MSTORE SWAP3 DUP5 ADD SWAP3 SWAP2 DUP5 ADD SWAP2 PUSH1 0x1 ADD PUSH2 0x2308 JUMP JUMPDEST POP SWAP1 SWAP7 SWAP6 POP POP POP POP POP POP JUMP JUMPDEST PUSH1 0x0 PUSH1 0x20 DUP3 DUP5 SUB SLT ISZERO PUSH2 0x234B JUMPI PUSH1 0x0 DUP1 REVERT JUMPDEST DUP2 CALLDATALOAD PUSH2 0x21E7 DUP2 PUSH2 0x226A JUMP JUMPDEST DUP1 CALLDATALOAD PUSH1 0x1 PUSH1 0x1 PUSH1 0x40 SHL SUB DUP2 AND DUP2 EQ PUSH2 0x236D JUMPI PUSH1 0x0 DUP1 REVERT JUMPDEST SWAP2 SWAP1 POP JUMP JUMPDEST PUSH1 0x0 PUSH1 0x20 DUP3 DUP5 SUB SLT ISZERO PUSH2 0x2384 JUMPI PUSH1 0x0 DUP1 REVERT JUMPDEST PUSH2 0x21E7 DUP3 PUSH2 0x2356 JUMP JUMPDEST DUP5 DUP2 MSTORE DUP4 PUSH1 0x20 DUP3 ADD MSTORE DUP3 PUSH1 0x40 DUP3 ADD MSTORE PUSH1 0x80 PUSH1 0x60 DUP3 ADD MSTORE PUSH1 0x0 PUSH2 0x23B2 PUSH1 0x80 DUP4 ADD DUP5 PUSH2 0x2212 JUMP JUMPDEST SWAP7 SWAP6 POP POP POP POP POP POP JUMP JUMPDEST DUP1 ISZERO ISZERO DUP2 EQ PUSH2 0x11B9 JUMPI PUSH1 0x0 DUP1 REVERT JUMPDEST PUSH1 0x0 DUP1 PUSH1 0x40 DUP4 DUP6 SUB SLT ISZERO PUSH2 0x23DD JUMPI PUSH1 0x0 DUP1 REVERT JUMPDEST DUP3 CALLDATALOAD PUSH2 0x23E8 DUP2 PUSH2 0x226A JUMP JUMPDEST SWAP2 POP PUSH1 0x20 DUP4 ADD CALLDATALOAD PUSH2 0x23F8 DUP2 PUSH2 0x23BC JUMP JUMPDEST DUP1 SWAP2 POP POP SWAP3 POP SWAP3 SWAP1 POP JUMP JUMPDEST PUSH1 0x0 DUP1 PUSH1 0x40 DUP4 DUP6 SUB SLT ISZERO PUSH2 0x2416 JUMPI PUSH1 0x0 DUP1 REVERT JUMPDEST DUP3 CALLDATALOAD PUSH2 0x2421 DUP2 PUSH2 0x226A JUMP JUMPDEST SWAP2 POP PUSH2 0x242F PUSH1 0x20 DUP5 ADD PUSH2 0x2356 JUMP JUMPDEST SWAP1 POP SWAP3 POP SWAP3 SWAP1 POP JUMP JUMPDEST PUSH4 0x4E487B71 PUSH1 0xE0 SHL PUSH1 0x0 MSTORE PUSH1 0x41 PUSH1 0x4 MSTORE PUSH1 0x24 PUSH1 0x0 REVERT JUMPDEST PUSH1 0x40 MLOAD PUSH1 0xA0 DUP2 ADD PUSH1 0x1 PUSH1 0x1 PUSH1 0x40 SHL SUB DUP2 GT DUP3 DUP3 LT OR ISZERO PUSH2 0x2470 JUMPI PUSH2 0x2470 PUSH2 0x2438 JUMP JUMPDEST PUSH1 0x40 MSTORE SWAP1 JUMP JUMPDEST PUSH1 0x40 DUP1 MLOAD SWAP1 DUP2 ADD PUSH1 0x1 PUSH1 0x1 PUSH1 0x40 SHL SUB DUP2 GT DUP3 DUP3 LT OR ISZERO PUSH2 0x2470 JUMPI PUSH2 0x2470 PUSH2 0x2438 JUMP JUMPDEST PUSH1 0x40 MLOAD PUSH1 0x1F DUP3 ADD PUSH1 0x1F NOT AND DUP2 ADD PUSH1 0x1 PUSH1 0x1 PUSH1 0x40 SHL SUB DUP2 GT DUP3 DUP3 LT OR ISZERO PUSH2 0x24C0 JUMPI PUSH2 0x24C0 PUSH2 0x2438 JUMP JUMPDEST PUSH1 0x40 MSTORE SWAP2 SWAP1 POP JUMP JUMPDEST PUSH1 0x0 DUP3 PUSH1 0x1F DUP4 ADD SLT PUSH2 0x24D9 JUMPI PUSH1 0x0 DUP1 REVERT JUMPDEST DUP2 CALLDATALOAD PUSH1 0x20 PUSH1 0x1 PUSH1 0x1 PUSH1 0x40 SHL SUB DUP3 GT ISZERO PUSH2 0x24F4 JUMPI PUSH2 0x24F4 PUSH2 0x2438 JUMP JUMPDEST DUP2 PUSH1 0x5 SHL PUSH2 0x2503 DUP3 DUP3 ADD PUSH2 0x2498 JUMP JUMPDEST SWAP3 DUP4 MSTORE DUP5 DUP2 ADD DUP3 ADD SWAP3 DUP3 DUP2 ADD SWAP1 DUP8 DUP6 GT ISZERO PUSH2 0x251D JUMPI PUSH1 0x0 DUP1 REVERT JUMPDEST DUP4 DUP8 ADD SWAP3 POP JUMPDEST DUP5 DUP4 LT ISZERO PUSH2 0x253C JUMPI DUP3 CALLDATALOAD DUP3 MSTORE SWAP2 DUP4 ADD SWAP2 SWAP1 DUP4 ADD SWAP1 PUSH2 0x2523 JUMP JUMPDEST SWAP8 SWAP7 POP POP POP POP POP POP POP JUMP JUMPDEST PUSH1 0x0 DUP3 PUSH1 0x1F DUP4 ADD SLT PUSH2 0x2558 JUMPI PUSH1 0x0 DUP1 REVERT JUMPDEST PUSH2 0x2560 PUSH2 0x2476 JUMP JUMPDEST DUP1 PUSH1 0x40 DUP5 ADD DUP6 DUP2 GT ISZERO PUSH2 0x2572 JUMPI PUSH1 0x0 DUP1 REVERT JUMPDEST DUP5 JUMPDEST DUP2 DUP2 LT ISZERO PUSH2 0x258C JUMPI DUP1 CALLDATALOAD DUP5 MSTORE PUSH1 0x20 SWAP4 DUP5 ADD SWAP4 ADD PUSH2 0x2574 JUMP JUMPDEST POP SWAP1 SWAP6 SWAP5 POP POP POP POP POP JUMP JUMPDEST PUSH1 0x0 DUP1 PUSH1 0x0 DUP1 PUSH1 0x0 PUSH2 0x140 DUP7 DUP9 SUB SLT ISZERO PUSH2 0x25B0 JUMPI PUSH1 0x0 DUP1 REVERT JUMPDEST PUSH2 0x25B9 DUP7 PUSH2 0x2356 JUMP JUMPDEST SWAP5 POP PUSH1 0x20 DUP1 DUP8 ADD CALLDATALOAD PUSH1 0x1 PUSH1 0x1 PUSH1 0x40 SHL SUB DUP2 GT ISZERO PUSH2 0x25D5 JUMPI PUSH1 0x0 DUP1 REVERT JUMPDEST PUSH2 0x25E1 DUP10 DUP3 DUP11 ADD PUSH2 0x24C8 JUMP JUMPDEST SWAP6 POP POP PUSH1 0x40 PUSH2 0x25F2 DUP10 DUP3 DUP11 ADD PUSH2 0x2547 JUMP JUMPDEST SWAP5 POP DUP9 PUSH1 0x9F DUP10 ADD SLT PUSH2 0x2603 JUMPI PUSH1 0x0 DUP1 REVERT JUMPDEST PUSH2 0x260B PUSH2 0x2476 JUMP JUMPDEST DUP1 PUSH2 0x100 DUP11 ADD DUP12 DUP2 GT ISZERO PUSH2 0x261E JUMPI PUSH1 0x0 DUP1 REVERT JUMPDEST PUSH1 0x80 DUP12 ADD JUMPDEST DUP2 DUP2 LT ISZERO PUSH2 0x2642 JUMPI PUSH2 0x2635 DUP14 DUP3 PUSH2 0x2547 JUMP JUMPDEST DUP5 MSTORE SWAP3 DUP6 ADD SWAP3 DUP5 ADD PUSH2 0x2623 JUMP JUMPDEST POP DUP2 SWAP7 POP PUSH2 0x2650 DUP13 DUP3 PUSH2 0x2547 JUMP JUMPDEST SWAP6 POP POP POP POP POP POP SWAP3 SWAP6 POP SWAP3 SWAP6 SWAP1 SWAP4 POP JUMP JUMPDEST PUSH1 0x0 PUSH1 0x1 PUSH1 0x1 PUSH1 0x40 SHL SUB DUP4 GT ISZERO PUSH2 0x267A JUMPI PUSH2 0x267A PUSH2 0x2438 JUMP JUMPDEST PUSH2 0x268D PUSH1 0x1F DUP5 ADD PUSH1 0x1F NOT AND PUSH1 0x20 ADD PUSH2 0x2498 JUMP JUMPDEST SWAP1 POP DUP3 DUP2 MSTORE DUP4 DUP4 DUP4 ADD GT ISZERO PUSH2 0x26A1 JUMPI PUSH1 0x0 DUP1 REVERT JUMPDEST DUP3 DUP3 PUSH1 0x20 DUP4 ADD CALLDATACOPY PUSH1 0x0 PUSH1 0x20 DUP5 DUP4 ADD ADD MSTORE SWAP4 SWAP3 POP POP POP JUMP JUMPDEST PUSH1 0x0 DUP1 PUSH1 0x0 DUP1 PUSH1 0x80 DUP6 DUP8 SUB SLT ISZERO PUSH2 0x26CE JUMPI PUSH1 0x0 DUP1 REVERT JUMPDEST DUP5 CALLDATALOAD PUSH2 0x26D9 DUP2 PUSH2 0x226A JUMP JUMPDEST SWAP4 POP PUSH1 0x20 DUP6 ADD CALLDATALOAD PUSH2 0x26E9 DUP2 PUSH2 0x226A JUMP JUMPDEST SWAP3 POP PUSH1 0x40 DUP6 ADD CALLDATALOAD SWAP2 POP PUSH1 0x60 DUP6 ADD CALLDATALOAD PUSH1 0x1 PUSH1 0x1 PUSH1 0x40 SHL SUB DUP2 GT ISZERO PUSH2 0x270B JUMPI PUSH1 0x0 DUP1 REVERT JUMPDEST DUP6 ADD PUSH1 0x1F DUP2 ADD DUP8 SGT PUSH2 0x271C JUMPI PUSH1 0x0 DUP1 REVERT JUMPDEST PUSH2 0x272B DUP8 DUP3 CALLDATALOAD PUSH1 0x20 DUP5 ADD PUSH2 0x2661 JUMP JUMPDEST SWAP2 POP POP SWAP3 SWAP6 SWAP2 SWAP5 POP SWAP3 POP JUMP JUMPDEST PUSH1 0x0 DUP2 MLOAD DUP1 DUP5 MSTORE PUSH1 0x20 DUP1 DUP6 ADD SWAP5 POP DUP1 DUP5 ADD PUSH1 0x0 JUMPDEST DUP4 DUP2 LT ISZERO PUSH2 0x2767 JUMPI DUP2 MLOAD DUP8 MSTORE SWAP6 DUP3 ADD SWAP6 SWAP1 DUP3 ADD SWAP1 PUSH1 0x1 ADD PUSH2 0x274B JUMP JUMPDEST POP SWAP5 SWAP6 SWAP5 POP POP POP POP POP JUMP JUMPDEST PUSH1 0x20 DUP2 MSTORE DUP2 MLOAD PUSH1 0x20 DUP3 ADD MSTORE PUSH1 0x20 DUP3 ADD MLOAD PUSH1 0x40 DUP3 ADD MSTORE PUSH1 0x40 DUP3 ADD MLOAD PUSH1 0x60 DUP3 ADD MSTORE PUSH1 0x0 PUSH1 0x60 DUP4 ADD MLOAD PUSH1 0xA0 PUSH1 0x80 DUP5 ADD MSTORE PUSH2 0x27AC PUSH1 0xC0 DUP5 ADD DUP3 PUSH2 0x2737 JUMP JUMPDEST SWAP1 POP PUSH1 0x80 DUP5 ADD MLOAD PUSH1 0x1F NOT DUP5 DUP4 SUB ADD PUSH1 0xA0 DUP6 ADD MSTORE PUSH2 0x27C9 DUP3 DUP3 PUSH2 0x2212 JUMP JUMPDEST SWAP6 SWAP5 POP POP POP POP POP JUMP JUMPDEST PUSH1 0x0 DUP1 PUSH1 0x40 DUP4 DUP6 SUB SLT ISZERO PUSH2 0x27E5 JUMPI PUSH1 0x0 DUP1 REVERT JUMPDEST DUP3 CALLDATALOAD PUSH2 0x27F0 DUP2 PUSH2 0x226A JUMP JUMPDEST SWAP2 POP PUSH1 0x20 DUP4 ADD CALLDATALOAD PUSH2 0x23F8 DUP2 PUSH2 0x226A JUMP JUMPDEST PUSH1 0x0 DUP1 PUSH1 0x0 PUSH1 0x60 DUP5 DUP7 SUB SLT ISZERO PUSH2 0x2815 JUMPI PUSH1 0x0 DUP1 REVERT JUMPDEST PUSH2 0x281E DUP5 PUSH2 0x2356 JUMP JUMPDEST SWAP3 POP PUSH1 0x20 DUP5 ADD CALLDATALOAD PUSH2 0x282E DUP2 PUSH2 0x226A JUMP JUMPDEST SWAP2 POP PUSH1 0x40 DUP5 ADD CALLDATALOAD PUSH1 0x1 PUSH1 0x1 PUSH1 0x40 SHL SUB DUP1 DUP3 GT ISZERO PUSH2 0x284A JUMPI PUSH1 0x0 DUP1 REVERT JUMPDEST SWAP1 DUP6 ADD SWAP1 PUSH1 0xA0 DUP3 DUP9 SUB SLT ISZERO PUSH2 0x285E JUMPI PUSH1 0x0 DUP1 REVERT JUMPDEST PUSH2 0x2866 PUSH2 0x244E JUMP JUMPDEST DUP3 CALLDATALOAD DUP2 MSTORE PUSH1 0x20 DUP4 ADD CALLDATALOAD PUSH1 0x20 DUP3 ADD MSTORE PUSH1 0x40 DUP4 ADD CALLDATALOAD PUSH1 0x40 DUP3 ADD MSTORE PUSH1 0x60 DUP4 ADD CALLDATALOAD DUP3 DUP2 GT ISZERO PUSH2 0x2890 JUMPI PUSH1 0x0 DUP1 REVERT JUMPDEST PUSH2 0x289C DUP10 DUP3 DUP7 ADD PUSH2 0x24C8 JUMP JUMPDEST PUSH1 0x60 DUP4 ADD MSTORE POP PUSH1 0x80 DUP4 ADD CALLDATALOAD DUP3 DUP2 GT ISZERO PUSH2 0x28B4 JUMPI PUSH1 0x0 DUP1 REVERT JUMPDEST DUP1 DUP5 ADD SWAP4 POP POP DUP8 PUSH1 0x1F DUP5 ADD SLT PUSH2 0x28C9 JUMPI PUSH1 0x0 DUP1 REVERT JUMPDEST PUSH2 0x28D8 DUP9 DUP5 CALLDATALOAD PUSH1 0x20 DUP7 ADD PUSH2 0x2661 JUMP JUMPDEST PUSH1 0x80 DUP3 ADD MSTORE DUP1 SWAP4 POP POP POP POP SWAP3 POP SWAP3 POP SWAP3 JUMP JUMPDEST PUSH1 0x1 DUP2 DUP2 SHR SWAP1 DUP3 AND DUP1 PUSH2 0x28FE JUMPI PUSH1 0x7F DUP3 AND SWAP2 POP JUMPDEST PUSH1 0x20 DUP3 LT DUP2 SUB PUSH2 0x291E JUMPI PUSH4 0x4E487B71 PUSH1 0xE0 SHL PUSH1 0x0 MSTORE PUSH1 0x22 PUSH1 0x4 MSTORE PUSH1 0x24 PUSH1 0x0 REVERT JUMPDEST POP SWAP2 SWAP1 POP JUMP JUMPDEST PUSH1 0x20 DUP1 DUP3 MSTORE PUSH1 0x2E SWAP1 DUP3 ADD MSTORE PUSH32 0x4552433732313A2063616C6C6572206973206E6F7420746F6B656E206F776E65 PUSH1 0x40 DUP3 ADD MSTORE PUSH14 0x1C881B9BDC88185C1C1C9BDD9959 PUSH1 0x92 SHL PUSH1 0x60 DUP3 ADD MSTORE PUSH1 0x80 ADD SWAP1 JUMP JUMPDEST DUP1 PUSH1 0x0 JUMPDEST PUSH1 0x2 DUP2 LT ISZERO PUSH2 0xBD9 JUMPI DUP2 MLOAD DUP5 MSTORE PUSH1 0x20 SWAP4 DUP5 ADD SWAP4 SWAP1 SWAP2 ADD SWAP1 PUSH1 0x1 ADD PUSH2 0x2976 JUMP JUMPDEST PUSH1 0x0 DUP2 SLOAD PUSH2 0x29A2 DUP2 PUSH2 0x28EA JUMP JUMPDEST DUP1 DUP6 MSTORE PUSH1 0x20 PUSH1 0x1 DUP4 DUP2 AND DUP1 ISZERO PUSH2 0x29BF JUMPI PUSH1 0x1 DUP2 EQ PUSH2 0x29D9 JUMPI PUSH2 0x2A07 JUMP JUMPDEST PUSH1 0xFF NOT DUP6 AND DUP9 DUP5 ADD MSTORE DUP4 ISZERO ISZERO PUSH1 0x5 SHL DUP9 ADD DUP4 ADD SWAP6 POP PUSH2 0x2A07 JUMP JUMPDEST DUP7 PUSH1 0x0 MSTORE DUP3 PUSH1 0x0 KECCAK256 PUSH1 0x0 JUMPDEST DUP6 DUP2 LT ISZERO PUSH2 0x29FF JUMPI DUP2 SLOAD DUP11 DUP3 ADD DUP7 ADD MSTORE SWAP1 DUP4 ADD SWAP1 DUP5 ADD PUSH2 0x29E4 JUMP JUMPDEST DUP10 ADD DUP5 ADD SWAP7 POP POP JUMPDEST POP POP POP POP POP SWAP3 SWAP2 POP POP JUMP JUMPDEST PUSH1 0x0 PUSH2 0x140 DUP1 DUP4 MSTORE PUSH2 0x2A26 DUP2 DUP5 ADD DUP10 PUSH2 0x2737 JUMP JUMPDEST SWAP1 POP PUSH1 0x20 PUSH2 0x2A36 DUP2 DUP6 ADD DUP10 PUSH2 0x2972 JUMP JUMPDEST PUSH1 0x60 DUP5 ADD DUP8 PUSH1 0x0 JUMPDEST PUSH1 0x2 DUP2 LT ISZERO PUSH2 0x2A65 JUMPI PUSH2 0x2A52 DUP4 DUP4 MLOAD PUSH2 0x2972 JUMP JUMPDEST PUSH1 0x40 SWAP3 SWAP1 SWAP3 ADD SWAP2 SWAP1 DUP4 ADD SWAP1 PUSH1 0x1 ADD PUSH2 0x2A3E JUMP JUMPDEST POP POP POP PUSH2 0x2A75 PUSH1 0xE0 DUP6 ADD DUP8 PUSH2 0x2972 JUMP JUMPDEST DUP4 DUP3 SUB PUSH2 0x120 DUP6 ADD MSTORE DUP5 SLOAD DUP3 MSTORE PUSH1 0x1 DUP1 DUP7 ADD SLOAD DUP3 DUP5 ADD MSTORE PUSH1 0x2 DUP7 ADD SLOAD PUSH1 0x40 DUP5 ADD MSTORE PUSH1 0xA0 PUSH1 0x60 DUP5 ADD DUP2 SWAP1 MSTORE PUSH1 0x3 DUP8 ADD DUP1 SLOAD SWAP2 DUP6 ADD DUP3 SWAP1 MSTORE PUSH1 0x0 SWAP1 DUP2 MSTORE DUP4 DUP2 KECCAK256 SWAP3 SWAP2 PUSH1 0xC0 DUP7 ADD SWAP1 JUMPDEST DUP1 DUP4 LT ISZERO PUSH2 0x2AD8 JUMPI DUP5 SLOAD DUP3 MSTORE SWAP4 DUP4 ADD SWAP4 SWAP2 DUP4 ADD SWAP2 SWAP1 DUP6 ADD SWAP1 PUSH2 0x2ABB JUMP JUMPDEST POP DUP6 DUP2 SUB PUSH1 0x80 DUP8 ADD MSTORE PUSH2 0x2AEE DUP2 PUSH1 0x4 DUP12 ADD PUSH2 0x2995 JUMP JUMPDEST SWAP14 SWAP13 POP POP POP POP POP POP POP POP POP POP POP POP POP JUMP JUMPDEST PUSH1 0x0 PUSH1 0x20 DUP3 DUP5 SUB SLT ISZERO PUSH2 0x2B11 JUMPI PUSH1 0x0 DUP1 REVERT JUMPDEST DUP2 MLOAD PUSH2 0x21E7 DUP2 PUSH2 0x23BC JUMP JUMPDEST PUSH1 0x0 DUP2 MLOAD PUSH2 0x2B2E DUP2 DUP6 PUSH1 0x20 DUP7 ADD PUSH2 0x21EE JUMP JUMPDEST SWAP3 SWAP1 SWAP3 ADD SWAP3 SWAP2 POP POP JUMP JUMPDEST PUSH32 0x3C73766720786D6C6E733D22687474703A2F2F7777772E77332E6F72672F3230 DUP2 MSTORE PUSH32 0x30302F73766722207072657365727665417370656374526174696F3D22784D69 PUSH1 0x20 DUP3 ADD MSTORE PUSH32 0x6E594D696E206D656574222076696577426F783D223020302033353020333530 PUSH1 0x40 DUP3 ADD MSTORE PUSH32 0x223E3C726563742077696474683D223130302522206865696768743D22313030 PUSH1 0x60 DUP3 ADD MSTORE PUSH32 0x2522202F3E3C7265637420793D2230222077696474683D223130302522206865 PUSH1 0x80 DUP3 ADD MSTORE PUSH19 0x696768743D2231303025222066696C6C3D2223 PUSH1 0x68 SHL PUSH1 0xA0 DUP3 ADD MSTORE PUSH1 0x0 DUP3 MLOAD PUSH2 0x2C24 DUP2 PUSH1 0xB3 DUP6 ADD PUSH1 0x20 DUP8 ADD PUSH2 0x21EE JUMP JUMPDEST PUSH10 0x1110179F1E17B9BB339F PUSH1 0xB1 SHL PUSH1 0xB3 SWAP4 SWAP1 SWAP2 ADD SWAP3 DUP4 ADD MSTORE POP PUSH1 0xBD ADD SWAP2 SWAP1 POP JUMP JUMPDEST PUSH1 0x0 DUP2 SLOAD PUSH2 0x2C52 DUP2 PUSH2 0x28EA JUMP JUMPDEST PUSH1 0x1 DUP3 DUP2 AND DUP1 ISZERO PUSH2 0x2C6A JUMPI PUSH1 0x1 DUP2 EQ PUSH2 0x2C7F JUMPI PUSH2 0x2CAE JUMP JUMPDEST PUSH1 0xFF NOT DUP5 AND DUP8 MSTORE DUP3 ISZERO ISZERO DUP4 MUL DUP8 ADD SWAP5 POP PUSH2 0x2CAE JUMP JUMPDEST DUP6 PUSH1 0x0 MSTORE PUSH1 0x20 DUP1 PUSH1 0x0 KECCAK256 PUSH1 0x0 JUMPDEST DUP6 DUP2 LT ISZERO PUSH2 0x2CA5 JUMPI DUP2 SLOAD DUP11 DUP3 ADD MSTORE SWAP1 DUP5 ADD SWAP1 DUP3 ADD PUSH2 0x2C8C JUMP JUMPDEST POP POP POP DUP3 DUP8 ADD SWAP5 POP JUMPDEST POP POP POP POP SWAP3 SWAP2 POP POP JUMP JUMPDEST PUSH7 0x3D9134B2111D1 PUSH1 0xCD SHL DUP2 MSTORE DUP6 MLOAD PUSH1 0x0 SWAP1 PUSH2 0x2CDB DUP2 PUSH1 0x7 DUP6 ADD PUSH1 0x20 DUP12 ADD PUSH2 0x21EE JUMP JUMPDEST PUSH2 0x161 PUSH1 0xF5 SHL PUSH1 0x7 SWAP2 DUP5 ADD SWAP2 DUP3 ADD MSTORE PUSH10 0x226E616D65223A202223 PUSH1 0xB0 SHL PUSH1 0x9 DUP3 ADD MSTORE DUP7 MLOAD PUSH2 0x2D10 DUP2 PUSH1 0x13 DUP5 ADD PUSH1 0x20 DUP12 ADD PUSH2 0x21EE JUMP JUMPDEST PUSH3 0x11161 PUSH1 0xED SHL SWAP2 ADD PUSH1 0x13 DUP2 ADD DUP3 SWAP1 MSTORE PUSH15 0x113A37B5B2B72FB730B6B2911D1011 PUSH1 0x89 SHL PUSH1 0x16 DUP3 ADD MSTORE SWAP1 PUSH2 0x2D46 PUSH1 0x25 DUP4 ADD DUP9 PUSH2 0x2C45 JUMP JUMPDEST SWAP1 DUP2 MSTORE PUSH17 0x113A37B5B2B72FB9BCB6B137B6111D1011 PUSH1 0x79 SHL PUSH1 0x3 DUP3 ADD MSTORE SWAP1 POP PUSH2 0x2E03 PUSH2 0x2DF5 PUSH2 0x2DEF PUSH2 0x2DB9 PUSH2 0x2D90 PUSH2 0x2D81 PUSH1 0x14 DUP8 ADD DUP12 PUSH2 0x2C45 JUMP JUMPDEST PUSH3 0x11161 PUSH1 0xED SHL DUP2 MSTORE PUSH1 0x3 ADD SWAP1 JUMP JUMPDEST PUSH32 0x226261636B67726F756E645F636F6C6F72223A2022464646464646222C200000 DUP2 MSTORE PUSH1 0x1E ADD SWAP1 JUMP JUMPDEST PUSH32 0x22696D616765223A2022646174613A696D6167652F7376672B786D6C3B626173 DUP2 MSTORE PUSH4 0x194D8D0B PUSH1 0xE2 SHL PUSH1 0x20 DUP3 ADD MSTORE PUSH1 0x24 ADD SWAP1 JUMP JUMPDEST DUP7 PUSH2 0x2B1C JUMP JUMPDEST PUSH2 0x227D PUSH1 0xF0 SHL DUP2 MSTORE PUSH1 0x2 ADD SWAP1 JUMP JUMPDEST SWAP9 SWAP8 POP POP POP POP POP POP POP POP JUMP JUMPDEST PUSH32 0x646174613A6170706C69636174696F6E2F6A736F6E3B6261736536342C000000 DUP2 MSTORE PUSH1 0x0 DUP3 MLOAD PUSH2 0x2E47 DUP2 PUSH1 0x1D DUP6 ADD PUSH1 0x20 DUP8 ADD PUSH2 0x21EE JUMP JUMPDEST SWAP2 SWAP1 SWAP2 ADD PUSH1 0x1D ADD SWAP3 SWAP2 POP POP JUMP JUMPDEST PUSH4 0x4E487B71 PUSH1 0xE0 SHL PUSH1 0x0 MSTORE PUSH1 0x12 PUSH1 0x4 MSTORE PUSH1 0x24 PUSH1 0x0 REVERT JUMPDEST PUSH1 0x0 DUP3 PUSH2 0x2E79 JUMPI PUSH2 0x2E79 PUSH2 0x2E54 JUMP JUMPDEST POP MOD SWAP1 JUMP JUMPDEST PUSH4 0x4E487B71 PUSH1 0xE0 SHL PUSH1 0x0 MSTORE PUSH1 0x32 PUSH1 0x4 MSTORE PUSH1 0x24 PUSH1 0x0 REVERT JUMPDEST PUSH1 0x0 DUP4 MLOAD PUSH2 0x2EA6 DUP2 DUP5 PUSH1 0x20 DUP9 ADD PUSH2 0x21EE JUMP JUMPDEST DUP4 MLOAD SWAP1 DUP4 ADD SWAP1 PUSH2 0x2EBA DUP2 DUP4 PUSH1 0x20 DUP9 ADD PUSH2 0x21EE JUMP JUMPDEST ADD SWAP5 SWAP4 POP POP POP POP JUMP JUMPDEST PUSH4 0x4E487B71 PUSH1 0xE0 SHL PUSH1 0x0 MSTORE PUSH1 0x11 PUSH1 0x4 MSTORE PUSH1 0x24 PUSH1 0x0 REVERT JUMPDEST PUSH1 0x0 DUP3 PUSH2 0x2EE8 JUMPI PUSH2 0x2EE8 PUSH2 0x2E54 JUMP JUMPDEST POP DIV SWAP1 JUMP JUMPDEST PUSH1 0x3 PUSH1 0xFC SHL DUP2 MSTORE PUSH1 0x0 DUP3 MLOAD PUSH2 0x2F09 DUP2 PUSH1 0x1 DUP6 ADD PUSH1 0x20 DUP8 ADD PUSH2 0x21EE JUMP JUMPDEST SWAP2 SWAP1 SWAP2 ADD PUSH1 0x1 ADD SWAP3 SWAP2 POP POP JUMP JUMPDEST PUSH2 0x303 PUSH1 0xF4 SHL DUP2 MSTORE PUSH1 0x0 DUP3 MLOAD PUSH2 0x2F33 DUP2 PUSH1 0x2 DUP6 ADD PUSH1 0x20 DUP8 ADD PUSH2 0x21EE JUMP JUMPDEST SWAP2 SWAP1 SWAP2 ADD PUSH1 0x2 ADD SWAP3 SWAP2 POP POP JUMP JUMPDEST PUSH3 0x30303 PUSH1 0xEC SHL DUP2 MSTORE PUSH1 0x0 DUP3 MLOAD PUSH2 0x2F5E DUP2 PUSH1 0x3 DUP6 ADD PUSH1 0x20 DUP8 ADD PUSH2 0x21EE JUMP JUMPDEST SWAP2 SWAP1 SWAP2 ADD PUSH1 0x3 ADD SWAP3 SWAP2 POP POP JUMP JUMPDEST PUSH4 0x3030303 PUSH1 0xE4 SHL DUP2 MSTORE PUSH1 0x0 DUP3 MLOAD PUSH2 0x2F8A DUP2 PUSH1 0x4 DUP6 ADD PUSH1 0x20 DUP8 ADD PUSH2 0x21EE JUMP JUMPDEST SWAP2 SWAP1 SWAP2 ADD PUSH1 0x4 ADD SWAP3 SWAP2 POP POP JUMP JUMPDEST PUSH1 0x1F DUP3 GT ISZERO PUSH2 0x6A4 JUMPI PUSH1 0x0 DUP2 DUP2 MSTORE PUSH1 0x20 DUP2 KECCAK256 PUSH1 0x1F DUP6 ADD PUSH1 0x5 SHR DUP2 ADD PUSH1 0x20 DUP7 LT ISZERO PUSH2 0x2FBE JUMPI POP DUP1 JUMPDEST PUSH1 0x1F DUP6 ADD PUSH1 0x5 SHR DUP3 ADD SWAP2 POP JUMPDEST DUP2 DUP2 LT ISZERO PUSH2 0x2FDD JUMPI DUP3 DUP2 SSTORE PUSH1 0x1 ADD PUSH2 0x2FCA JUMP JUMPDEST POP POP POP POP POP POP JUMP JUMPDEST DUP2 MLOAD PUSH1 0x1 PUSH1 0x1 PUSH1 0x40 SHL SUB DUP2 GT ISZERO PUSH2 0x2FFE JUMPI PUSH2 0x2FFE PUSH2 0x2438 JUMP JUMPDEST PUSH2 0x3012 DUP2 PUSH2 0x300C DUP5 SLOAD PUSH2 0x28EA JUMP JUMPDEST DUP5 PUSH2 0x2F97 JUMP JUMPDEST PUSH1 0x20 DUP1 PUSH1 0x1F DUP4 GT PUSH1 0x1 DUP2 EQ PUSH2 0x3047 JUMPI PUSH1 0x0 DUP5 ISZERO PUSH2 0x302F JUMPI POP DUP6 DUP4 ADD MLOAD JUMPDEST PUSH1 0x0 NOT PUSH1 0x3 DUP7 SWAP1 SHL SHR NOT AND PUSH1 0x1 DUP6 SWAP1 SHL OR DUP6 SSTORE PUSH2 0x2FDD JUMP JUMPDEST PUSH1 0x0 DUP6 DUP2 MSTORE PUSH1 0x20 DUP2 KECCAK256 PUSH1 0x1F NOT DUP7 AND SWAP2 JUMPDEST DUP3 DUP2 LT ISZERO PUSH2 0x3076 JUMPI DUP9 DUP7 ADD MLOAD DUP3 SSTORE SWAP5 DUP5 ADD SWAP5 PUSH1 0x1 SWAP1 SWAP2 ADD SWAP1 DUP5 ADD PUSH2 0x3057 JUMP JUMPDEST POP DUP6 DUP3 LT ISZERO PUSH2 0x3094 JUMPI DUP8 DUP6 ADD MLOAD PUSH1 0x0 NOT PUSH1 0x3 DUP9 SWAP1 SHL PUSH1 0xF8 AND SHR NOT AND DUP2 SSTORE JUMPDEST POP POP POP POP POP PUSH1 0x1 SWAP1 DUP2 SHL ADD SWAP1 SSTORE POP JUMP JUMPDEST DUP2 DUP2 SUB DUP2 DUP2 GT ISZERO PUSH2 0x4D0 JUMPI PUSH2 0x4D0 PUSH2 0x2EC3 JUMP JUMPDEST DUP1 DUP3 ADD DUP1 DUP3 GT ISZERO PUSH2 0x4D0 JUMPI PUSH2 0x4D0 PUSH2 0x2EC3 JUMP JUMPDEST PUSH1 0x0 PUSH1 0x20 DUP3 DUP5 SUB SLT ISZERO PUSH2 0x30DC JUMPI PUSH1 0x0 DUP1 REVERT JUMPDEST POP MLOAD SWAP2 SWAP1 POP JUMP JUMPDEST PUSH1 0x20 DUP1 DUP3 MSTORE PUSH1 0x32 SWAP1 DUP3 ADD MSTORE PUSH32 0x4552433732313A207472616E7366657220746F206E6F6E204552433732315265 PUSH1 0x40 DUP3 ADD MSTORE PUSH18 0x31B2B4BB32B91034B6B83632B6B2B73A32B9 PUSH1 0x71 SHL PUSH1 0x60 DUP3 ADD MSTORE PUSH1 0x80 ADD SWAP1 JUMP JUMPDEST PUSH1 0x0 PUSH1 0x1 DUP3 ADD PUSH2 0x3147 JUMPI PUSH2 0x3147 PUSH2 0x2EC3 JUMP JUMPDEST POP PUSH1 0x1 ADD SWAP1 JUMP JUMPDEST DUP1 DUP3 MUL DUP2 ISZERO DUP3 DUP3 DIV DUP5 EQ OR PUSH2 0x4D0 JUMPI PUSH2 0x4D0 PUSH2 0x2EC3 JUMP JUMPDEST PUSH1 0x1 PUSH1 0x1 PUSH1 0xA0 SHL SUB DUP6 DUP2 AND DUP3 MSTORE DUP5 AND PUSH1 0x20 DUP3 ADD MSTORE PUSH1 0x40 DUP2 ADD DUP4 SWAP1 MSTORE PUSH1 0x80 PUSH1 0x60 DUP3 ADD DUP2 SWAP1 MSTORE PUSH1 0x0 SWAP1 PUSH2 0x23B2 SWAP1 DUP4 ADD DUP5 PUSH2 0x2212 JUMP JUMPDEST PUSH1 0x0 PUSH1 0x20 DUP3 DUP5 SUB SLT ISZERO PUSH2 0x31AA JUMPI PUSH1 0x0 DUP1 REVERT JUMPDEST DUP2 MLOAD PUSH2 0x21E7 DUP2 PUSH2 0x21B4 JUMP INVALID COINBASE TIMESTAMP NUMBER DIFFICULTY GASLIMIT CHAINID SELFBALANCE BASEFEE 0x49 0x4A 0x4B 0x4C 0x4D 0x4E 0x4F POP MLOAD MSTORE MSTORE8 SLOAD SSTORE JUMP JUMPI PC MSIZE GAS PUSH2 0x6263 PUSH5 0x6566676869 PUSH11 0x6B6C6D6E6F707172737475 PUSH23 0x7778797A303132333435363738392B2FA2646970667358 0x22 SLT KECCAK256 0x1E CALLVALUE CALLDATACOPY ISZERO 0xCA 0xAE PUSH6 0xD80565F04A42 0x5D 0x24 NOT PUSH24 0xA5281EBD99C618C0116373B3CE9A6364736F6C6343000811 STOP CALLER "},"methodIdentifiers":{"TRANSFER_REQUEST_ID()":"63ec508f","addressToId(address)":"cb0e0d7d","approve(address,uint256)":"095ea7b3","balanceOf(address)":"70a08231","getApproved(uint256)":"081812fc","getSupportedRequests()":"37ba9523","getZKPRequest(uint64)":"c76d0845","idToAddress(uint256)":"2a2d0c47","isApprovedForAll(address,address)":"e985e9c5","name()":"06fdde03","owner()":"8da5cb5b","ownerOf(uint256)":"6352211e","proofs(address,uint64)":"b45c0fdf","renounceOwnership()":"715018a6","requestQueries(uint64)":"96bf4741","requestValidators(uint64)":"a8723114","safeTransferFrom(address,address,uint256)":"42842e0e","safeTransferFrom(address,address,uint256,bytes)":"b88d4fde","setApprovalForAll(address,bool)":"a22cb465","setZKPRequest(uint64,address,(uint256,uint256,uint256,uint256[],string))":"fee207e6","submitZKPResponse(uint64,uint256[],uint256[2],uint256[2][2],uint256[2])":"b68967e2","supportedRequests(uint256)":"f1435326","supportsInterface(bytes4)":"01ffc9a7","symbol()":"95d89b41","tokenURI(uint256)":"c87b56dd","transferFrom(address,address,uint256)":"23b872dd","transferOwnership(address)":"f2fde38b","uintToHex(uint256)":"e6f4edbd"}}}}}