{"contracts/ERC20Verifier.sol":{"PrimeToadToken":{"abi":[{"inputs":[],"stateMutability":"nonpayable","type":"constructor"},{"anonymous":false,"inputs":[{"indexed":true,"internalType":"address","name":"owner","type":"address"},{"indexed":true,"internalType":"address","name":"spender","type":"address"},{"indexed":false,"internalType":"uint256","name":"value","type":"uint256"}],"name":"Approval","type":"event"},{"anonymous":false,"inputs":[{"indexed":true,"internalType":"address","name":"previousOwner","type":"address"},{"indexed":true,"internalType":"address","name":"newOwner","type":"address"}],"name":"OwnershipTransferred","type":"event"},{"anonymous":false,"inputs":[{"indexed":true,"internalType":"address","name":"from","type":"address"},{"indexed":true,"internalType":"address","name":"to","type":"address"},{"indexed":false,"internalType":"uint256","name":"value","type":"uint256"}],"name":"Transfer","type":"event"},{"inputs":[],"name":"TOKEN_AMOUNT_FOR_AIRDROP_PER_ID","outputs":[{"internalType":"uint256","name":"","type":"uint256"}],"stateMutability":"view","type":"function"},{"inputs":[],"name":"TRANSFER_REQUEST_ID","outputs":[{"internalType":"uint64","name":"","type":"uint64"}],"stateMutability":"view","type":"function"},{"inputs":[{"internalType":"address","name":"","type":"address"}],"name":"addressToId","outputs":[{"internalType":"uint256","name":"","type":"uint256"}],"stateMutability":"view","type":"function"},{"inputs":[{"internalType":"address","name":"owner","type":"address"},{"internalType":"address","name":"spender","type":"address"}],"name":"allowance","outputs":[{"internalType":"uint256","name":"","type":"uint256"}],"stateMutability":"view","type":"function"},{"inputs":[{"internalType":"address","name":"spender","type":"address"},{"internalType":"uint256","name":"amount","type":"uint256"}],"name":"approve","outputs":[{"internalType":"bool","name":"","type":"bool"}],"stateMutability":"nonpayable","type":"function"},{"inputs":[{"internalType":"address","name":"account","type":"address"}],"name":"balanceOf","outputs":[{"internalType":"uint256","name":"","type":"uint256"}],"stateMutability":"view","type":"function"},{"inputs":[{"internalType":"uint256","name":"amount","type":"uint256"}],"name":"burn","outputs":[],"stateMutability":"nonpayable","type":"function"},{"inputs":[{"internalType":"address","name":"account","type":"address"},{"internalType":"uint256","name":"amount","type":"uint256"}],"name":"burnFrom","outputs":[],"stateMutability":"nonpayable","type":"function"},{"inputs":[],"name":"decimals","outputs":[{"internalType":"uint8","name":"","type":"uint8"}],"stateMutability":"view","type":"function"},{"inputs":[{"internalType":"address","name":"spender","type":"address"},{"internalType":"uint256","name":"subtractedValue","type":"uint256"}],"name":"decreaseAllowance","outputs":[{"internalType":"bool","name":"","type":"bool"}],"stateMutability":"nonpayable","type":"function"},{"inputs":[],"name":"getSupportedRequests","outputs":[{"internalType":"uint64[]","name":"arr","type":"uint64[]"}],"stateMutability":"view","type":"function"},{"inputs":[{"internalType":"uint64","name":"requestId","type":"uint64"}],"name":"getZKPRequest","outputs":[{"components":[{"internalType":"uint256","name":"schema","type":"uint256"},{"internalType":"uint256","name":"slotIndex","type":"uint256"},{"internalType":"uint256","name":"operator","type":"uint256"},{"internalType":"uint256[]","name":"value","type":"uint256[]"},{"internalType":"string","name":"circuitId","type":"string"}],"internalType":"struct ICircuitValidator.CircuitQuery","name":"","type":"tuple"}],"stateMutability":"view","type":"function"},{"inputs":[{"internalType":"uint256","name":"","type":"uint256"}],"name":"idToAddress","outputs":[{"internalType":"address","name":"","type":"address"}],"stateMutability":"view","type":"function"},{"inputs":[{"internalType":"address","name":"spender","type":"address"},{"internalType":"uint256","name":"addedValue","type":"uint256"}],"name":"increaseAllowance","outputs":[{"internalType":"bool","name":"","type":"bool"}],"stateMutability":"nonpayable","type":"function"},{"inputs":[{"internalType":"address","name":"to","type":"address"},{"internalType":"uint256","name":"amount","type":"uint256"}],"name":"mint","outputs":[],"stateMutability":"nonpayable","type":"function"},{"inputs":[],"name":"name","outputs":[{"internalType":"string","name":"","type":"string"}],"stateMutability":"view","type":"function"},{"inputs":[],"name":"owner","outputs":[{"internalType":"address","name":"","type":"address"}],"stateMutability":"view","type":"function"},{"inputs":[{"internalType":"address","name":"","type":"address"},{"internalType":"uint64","name":"","type":"uint64"}],"name":"proofs","outputs":[{"internalType":"bool","name":"","type":"bool"}],"stateMutability":"view","type":"function"},{"inputs":[],"name":"renounceOwnership","outputs":[],"stateMutability":"nonpayable","type":"function"},{"inputs":[{"internalType":"uint64","name":"","type":"uint64"}],"name":"requestQueries","outputs":[{"internalType":"uint256","name":"schema","type":"uint256"},{"internalType":"uint256","name":"slotIndex","type":"uint256"},{"internalType":"uint256","name":"operator","type":"uint256"},{"internalType":"string","name":"circuitId","type":"string"}],"stateMutability":"view","type":"function"},{"inputs":[{"internalType":"uint64","name":"","type":"uint64"}],"name":"requestValidators","outputs":[{"internalType":"contract ICircuitValidator","name":"","type":"address"}],"stateMutability":"view","type":"function"},{"inputs":[{"internalType":"uint64","name":"requestId","type":"uint64"},{"internalType":"contract ICircuitValidator","name":"validator","type":"address"},{"components":[{"internalType":"uint256","name":"schema","type":"uint256"},{"internalType":"uint256","name":"slotIndex","type":"uint256"},{"internalType":"uint256","name":"operator","type":"uint256"},{"internalType":"uint256[]","name":"value","type":"uint256[]"},{"internalType":"string","name":"circuitId","type":"string"}],"internalType":"struct ICircuitValidator.CircuitQuery","name":"query","type":"tuple"}],"name":"setZKPRequest","outputs":[{"internalType":"bool","name":"","type":"bool"}],"stateMutability":"nonpayable","type":"function"},{"inputs":[{"internalType":"uint64","name":"requestId","type":"uint64"},{"internalType":"uint256[]","name":"inputs","type":"uint256[]"},{"internalType":"uint256[2]","name":"a","type":"uint256[2]"},{"internalType":"uint256[2][2]","name":"b","type":"uint256[2][2]"},{"internalType":"uint256[2]","name":"c","type":"uint256[2]"}],"name":"submitZKPResponse","outputs":[{"internalType":"bool","name":"","type":"bool"}],"stateMutability":"nonpayable","type":"function"},{"inputs":[{"internalType":"uint256","name":"","type":"uint256"}],"name":"supportedRequests","outputs":[{"internalType":"uint64","name":"","type":"uint64"}],"stateMutability":"view","type":"function"},{"inputs":[],"name":"symbol","outputs":[{"internalType":"string","name":"","type":"string"}],"stateMutability":"view","type":"function"},{"inputs":[],"name":"totalSupply","outputs":[{"internalType":"uint256","name":"","type":"uint256"}],"stateMutability":"view","type":"function"},{"inputs":[{"internalType":"address","name":"to","type":"address"},{"internalType":"uint256","name":"amount","type":"uint256"}],"name":"transfer","outputs":[{"internalType":"bool","name":"","type":"bool"}],"stateMutability":"nonpayable","type":"function"},{"inputs":[{"internalType":"address","name":"from","type":"address"},{"internalType":"address","name":"to","type":"address"},{"internalType":"uint256","name":"amount","type":"uint256"}],"name":"transferFrom","outputs":[{"internalType":"bool","name":"","type":"bool"}],"stateMutability":"nonpayable","type":"function"},{"inputs":[{"internalType":"address","name":"newOwner","type":"address"}],"name":"transferOwnership","outputs":[],"stateMutability":"nonpayable","type":"function"}],"evm":{"bytecode":{"linkReferences":{},"object":"6080604052620000126012600a620003c7565b6200001f906005620003dc565b600a553480156200002f57600080fd5b506040518060400160405280601081526020016f283934b6b2902a37b0b2102a37b5b2b760811b8152506040518060400160405280600381526020016214151560ea1b81525081600390816200008691906200049a565b5060046200009582826200049a565b505050620000b2620000ac620000e060201b60201c565b620000e4565b620000da33620000c56012600a62000566565b620000d490620f4240620003dc565b62000136565b6200058d565b3390565b600580546001600160a01b038381166001600160a01b0319831681179093556040519116919082907f8be0079c531659141344cd1fd0a4f28419497f9722a3daafe3b4186f6b6457e090600090a35050565b6001600160a01b038216620001925760405162461bcd60e51b815260206004820152601f60248201527f45524332303a206d696e7420746f20746865207a65726f20616464726573730060448201526064015b60405180910390fd5b620001a0600083836200020b565b8060026000828254620001b4919062000577565b90915550506001600160a01b038216600081815260208181526040808320805486019055518481527fddf252ad1be2c89b69c2b068fc378daa952ba7f163c4a11628f55a4df523b3ef910160405180910390a35050565b6001600160a01b0382166000908152600660209081526040808320600180855292529091205460ff16151514620002ad576040805162461bcd60e51b81526020600482015260248101919091527f6f6e6c79206964656e7469746965732077686f2070726f76696465642070726f60448201527f6f662061726520616c6c6f77656420746f207265636569766520746f6b656e73606482015260840162000189565b505050565b634e487b7160e01b600052601160045260246000fd5b600181815b8085111562000309578160001904821115620002ed57620002ed620002b2565b80851615620002fb57918102915b93841c9390800290620002cd565b509250929050565b6000826200032257506001620003c1565b816200033157506000620003c1565b81600181146200034a5760028114620003555762000375565b6001915050620003c1565b60ff841115620003695762000369620002b2565b50506001821b620003c1565b5060208310610133831016604e8410600b84101617156200039a575081810a620003c1565b620003a68383620002c8565b8060001904821115620003bd57620003bd620002b2565b0290505b92915050565b6000620003d5838362000311565b9392505050565b8082028115828204841417620003c157620003c1620002b2565b634e487b7160e01b600052604160045260246000fd5b600181811c908216806200042157607f821691505b6020821081036200044257634e487b7160e01b600052602260045260246000fd5b50919050565b601f821115620002ad57600081815260208120601f850160051c81016020861015620004715750805b601f850160051c820191505b8181101562000492578281556001016200047d565b505050505050565b81516001600160401b03811115620004b657620004b6620003f6565b620004ce81620004c784546200040c565b8462000448565b602080601f831160018114620005065760008415620004ed5750858301515b600019600386901b1c1916600185901b17855562000492565b600085815260208120601f198616915b82811015620005375788860151825594840194600190910190840162000516565b5085821015620005565787850151600019600388901b60f8161c191681555b5050505050600190811b01905550565b6000620003d560ff84168362000311565b80820180821115620003c157620003c1620002b2565b61224a806200059d6000396000f3fe608060405234801561001057600080fd5b50600436106101cf5760003560e01c806379cc679011610104578063b45c0fdf116100a2578063dd62ed3e11610071578063dd62ed3e14610453578063f143532614610466578063f2fde38b14610479578063fee207e61461048c57600080fd5b8063b45c0fdf146103d2578063b68967e214610400578063c76d084514610413578063cb0e0d7d1461043357600080fd5b806396bf4741116100de57806396bf474114610360578063a457c2d714610383578063a872311414610396578063a9059cbb146103bf57600080fd5b806379cc6790146103345780638da5cb5b1461034757806395d89b411461035857600080fd5b8063395093511161017157806363ec508f1161014b57806363ec508f146102da5780637042f36b146102fa57806370a0823114610303578063715018a61461032c57600080fd5b8063395093511461029f57806340c10f19146102b257806342966c68146102c757600080fd5b806323b872dd116101ad57806323b872dd146102275780632a2d0c471461023a578063313ce5671461027b57806337ba95231461028a57600080fd5b806306fdde03146101d4578063095ea7b3146101f257806318160ddd14610215575b600080fd5b6101dc61049f565b6040516101e991906118f0565b60405180910390f35b61020561020036600461191f565b610531565b60405190151581526020016101e9565b6002545b6040519081526020016101e9565b61020561023536600461194b565b61054b565b61026361024836600461198c565b600b602052600090815260409020546001600160a01b031681565b6040516001600160a01b0390911681526020016101e9565b604051601281526020016101e9565b61029261056f565b6040516101e991906119a5565b6102056102ad36600461191f565b6105f8565b6102c56102c036600461191f565b61061a565b005b6102c56102d536600461198c565b610630565b6102e2600181565b6040516001600160401b0390911681526020016101e9565b610219600a5481565b6102196103113660046119f2565b6001600160a01b031660009081526020819052604090205490565b6102c561063d565b6102c561034236600461191f565b610651565b6005546001600160a01b0316610263565b6101dc610666565b61037361036e366004611a2b565b610675565b6040516101e99493929190611a46565b61020561039136600461191f565b610728565b6102636103a4366004611a2b565b6008602052600090815260409020546001600160a01b031681565b6102056103cd36600461191f565b6107a8565b6102056103e0366004611a75565b600660209081526000928352604080842090915290825290205460ff1681565b61020561040e366004611c09565b6107b6565b610426610421366004611a2b565b610a14565b6040516101e99190611d0e565b6102196104413660046119f2565b600c6020526000908152604090205481565b610219610461366004611d6e565b610b71565b6102e261047436600461198c565b610b9c565b6102c56104873660046119f2565b610bd9565b61020561049a366004611da7565b610c4f565b6060600380546104ae90611ece565b80601f01602080910402602001604051908101604052809291908181526020018280546104da90611ece565b80156105275780601f106104fc57610100808354040283529160200191610527565b820191906000526020600020905b81548152906001019060200180831161050a57829003601f168201915b5050505050905090565b60003361053f818585610dcd565b60019150505b92915050565b600033610559858285610ef2565b610564858585610f6c565b506001949350505050565b6060600980548060200260200160405190810160405280929190818152602001828054801561052757602002820191906000526020600020906000905b82829054906101000a90046001600160401b03166001600160401b0316815260200190600801906020826007010492830192600103820291508084116105ac5790505050505050905090565b60003361053f81858561060b8383610b71565b6106159190611f08565b610dcd565b61062261111b565b61062c8282611175565b5050565b61063a3382611240565b50565b61064561111b565b61064f600061137b565b565b61065c823383610ef2565b61062c8282611240565b6060600480546104ae90611ece565b6007602052600090815260409020805460018201546002830154600484018054939492939192916106a590611ece565b80601f01602080910402602001604051908101604052809291908181526020018280546106d190611ece565b801561071e5780601f106106f35761010080835404028352916020019161071e565b820191906000526020600020905b81548152906001019060200180831161070157829003601f168201915b5050505050905084565b600033816107368286610b71565b90508381101561079b5760405162461bcd60e51b815260206004820152602560248201527f45524332303a2064656372656173656420616c6c6f77616e63652062656c6f77604482015264207a65726f60d81b60648201526084015b60405180910390fd5b6105648286868403610dcd565b60003361053f818585610f6c565b6001600160401b0385166000908152600860205260408120546001600160a01b03166108355760405162461bcd60e51b815260206004820152602860248201527f76616c696461746f72206973206e6f742073657420666f7220746869732072656044820152671c5d595cdd081a5960c21b6064820152608401610792565b6001600160401b03861660009081526007602052604081205490036108a85760405162461bcd60e51b8152602060048201526024808201527f7175657279206973206e6f742073657420666f722074686973207265717565736044820152631d081a5960e21b6064820152608401610792565b6001600160401b0386166000908152600860205260409020546108d790879087906001600160a01b03166113cd565b6001600160401b03861660009081526008602090815260408083205460079092529182902091516319f8754160e21b81526001600160a01b03909116916367e1d5049161092f91899189918991899190600401611fc9565b602060405180830381865afa15801561094c573d6000803e3d6000fd5b505050506040513d601f19601f8201168201806040525081019061097091906120b6565b6109bc5760405162461bcd60e51b815260206004820152601b60248201527f70726f6f6620726573706f6e7365206973206e6f742076616c696400000000006044820152606401610792565b3360009081526006602090815260408083206001600160401b038a1684528252808320805460ff191660011790556008909152902054610a0890879087906001600160a01b03166114bd565b50600195945050505050565b610a466040518060a0016040528060008152602001600081526020016000815260200160608152602001606081525090565b6001600160401b038216600090815260076020908152604091829020825160a081018452815481526001820154818401526002820154818501526003820180548551818602810186019096528086529194929360608601939290830182828015610acf57602002820191906000526020600020905b815481526020019060010190808311610abb575b50505050508152602001600482018054610ae890611ece565b80601f0160208091040260200160405190810160405280929190818152602001828054610b1490611ece565b8015610b615780601f10610b3657610100808354040283529160200191610b61565b820191906000526020600020905b815481529060010190602001808311610b4457829003601f168201915b5050505050815250509050919050565b6001600160a01b03918216600090815260016020908152604080832093909416825291909152205490565b60098181548110610bac57600080fd5b9060005260206000209060049182820401919006600802915054906101000a90046001600160401b031681565b610be161111b565b6001600160a01b038116610c465760405162461bcd60e51b815260206004820152602660248201527f4f776e61626c653a206e6577206f776e657220697320746865207a65726f206160448201526564647265737360d01b6064820152608401610792565b61063a8161137b565b6000610c5961111b565b6001600160401b0384166000908152600860205260409020546001600160a01b0316610cdd57600980546001810182556000919091527f6e1540171b6c0c960b71a7020d9f60077f6af931a8bbf590da0223dacf75c7af6004820401805460039092166008026101000a6001600160401b0381810219909316928716029190911790555b60608201516001600160401b03851660009081526007602090815260409091208251610d12936003909201929091019061184b565b506040808301516001600160401b038616600090815260076020529190912060028101919091556080830151600490910190610d4e9082612126565b506020808301516001600160401b0386166000908152600790925260409091206001810191909155825181556080830151600490910190610d8f9082612126565b50506001600160401b038316600090815260086020526040902080546001600160a01b0384166001600160a01b031990911617905560019392505050565b6001600160a01b038316610e2f5760405162461bcd60e51b8152602060048201526024808201527f45524332303a20617070726f76652066726f6d20746865207a65726f206164646044820152637265737360e01b6064820152608401610792565b6001600160a01b038216610e905760405162461bcd60e51b815260206004820152602260248201527f45524332303a20617070726f766520746f20746865207a65726f206164647265604482015261737360f01b6064820152608401610792565b6001600160a01b0383811660008181526001602090815260408083209487168084529482529182902085905590518481527f8c5be1e5ebec7d5bd14f71427d1e84f3dd0314c0f7b2291e5b200ac8c7c3b92591015b60405180910390a3505050565b6000610efe8484610b71565b90506000198114610f665781811015610f595760405162461bcd60e51b815260206004820152601d60248201527f45524332303a20696e73756666696369656e7420616c6c6f77616e63650000006044820152606401610792565b610f668484848403610dcd565b50505050565b6001600160a01b038316610fd05760405162461bcd60e51b815260206004820152602560248201527f45524332303a207472616e736665722066726f6d20746865207a65726f206164604482015264647265737360d81b6064820152608401610792565b6001600160a01b0382166110325760405162461bcd60e51b815260206004820152602360248201527f45524332303a207472616e7366657220746f20746865207a65726f206164647260448201526265737360e81b6064820152608401610792565b61103d838383611624565b6001600160a01b038316600090815260208190526040902054818110156110b55760405162461bcd60e51b815260206004820152602660248201527f45524332303a207472616e7366657220616d6f756e7420657863656564732062604482015265616c616e636560d01b6064820152608401610792565b6001600160a01b03848116600081815260208181526040808320878703905593871680835291849020805487019055925185815290927fddf252ad1be2c89b69c2b068fc378daa952ba7f163c4a11628f55a4df523b3ef910160405180910390a3610f66565b6005546001600160a01b0316331461064f5760405162461bcd60e51b815260206004820181905260248201527f4f776e61626c653a2063616c6c6572206973206e6f7420746865206f776e65726044820152606401610792565b6001600160a01b0382166111cb5760405162461bcd60e51b815260206004820152601f60248201527f45524332303a206d696e7420746f20746865207a65726f2061646472657373006044820152606401610792565b6111d760008383611624565b80600260008282546111e99190611f08565b90915550506001600160a01b038216600081815260208181526040808320805486019055518481527fddf252ad1be2c89b69c2b068fc378daa952ba7f163c4a11628f55a4df523b3ef910160405180910390a35050565b6001600160a01b0382166112a05760405162461bcd60e51b815260206004820152602160248201527f45524332303a206275726e2066726f6d20746865207a65726f206164647265736044820152607360f81b6064820152608401610792565b6112ac82600083611624565b6001600160a01b038216600090815260208190526040902054818110156113205760405162461bcd60e51b815260206004820152602260248201527f45524332303a206275726e20616d6f756e7420657863656564732062616c616e604482015261636560f01b6064820152608401610792565b6001600160a01b0383166000818152602081815260408083208686039055600280548790039055518581529192917fddf252ad1be2c89b69c2b068fc378daa952ba7f163c4a11628f55a4df523b3ef9101610ee5565b505050565b600580546001600160a01b038381166001600160a01b0319831681179093556040519116919082907f8be0079c531659141344cd1fd0a4f28419497f9722a3daafe3b4186f6b6457e090600090a35050565b600061145283836001600160a01b0316639f442afa6040518163ffffffff1660e01b8152600401602060405180830381865afa158015611411573d6000803e3d6000fd5b505050506040513d601f19601f8201168201806040525081019061143591906121e5565b81518110611445576114456121fe565b60200260200101516116c4565b9050336001600160a01b03821614610f665760405162461bcd60e51b815260206004820152602860248201527f6164647265737320696e2070726f6f66206973206e6f7420612073656e646572604482015267206164647265737360c01b6064820152608401610792565b6001600160401b03831660011480156114e35750336000908152600c6020526040902054155b6115415760405162461bcd60e51b815260206004820152602960248201527f70726f6f662063616e206e6f74206265207375626d6974746564206d6f7265206044820152687468616e206f6e636560b81b6064820152608401610792565b600082826001600160a01b0316639f442afa6040518163ffffffff1660e01b8152600401602060405180830381865afa158015611582573d6000803e3d6000fd5b505050506040513d601f19601f820116820180604052508101906115a691906121e5565b815181106115b6576115b66121fe565b6020908102919091018101516000818152600b9092526040909120549091506001600160a01b0316610f66576115ee33600a54611175565b336000818152600c60209081526040808320859055938252600b90529190912080546001600160a01b0319169091179055505050565b6001600160a01b0382166000908152600660209081526040808320600180855292529091205460ff16151514611376576040805162461bcd60e51b81526020600482015260248101919091527f6f6e6c79206964656e7469746965732077686f2070726f76696465642070726f60448201527f6f662061726520616c6c6f77656420746f207265636569766520746f6b656e736064820152608401610792565b600061054561181a6118158460008190506008817eff00ff00ff00ff00ff00ff00ff00ff00ff00ff00ff00ff00ff00ff00ff00ff16901b6008827fff00ff00ff00ff00ff00ff00ff00ff00ff00ff00ff00ff00ff00ff00ff00ff0016901c1790506010817dffff0000ffff0000ffff0000ffff0000ffff0000ffff0000ffff0000ffff16901b6010827fffff0000ffff0000ffff0000ffff0000ffff0000ffff0000ffff0000ffff000016901c1790506020817bffffffff00000000ffffffff00000000ffffffff00000000ffffffff16901b6020827fffffffff00000000ffffffff00000000ffffffff00000000ffffffff0000000016901c17905060408177ffffffffffffffff0000000000000000ffffffffffffffff16901b60408277ffffffffffffffff0000000000000000ffffffffffffffff1916901c179050608081901b608082901c179050919050565b611821565b6014015190565b60408051602080825281830190925260609160208201818036833750505060208101929092525090565b828054828255906000526020600020908101928215611886579160200282015b8281111561188657825182559160200191906001019061186b565b50611892929150611896565b5090565b5b808211156118925760008155600101611897565b60008151808452602060005b828110156118d25784810182015186820183015281016118b7565b506000858301820152601f909101601f191690930190920192915050565b60208152600061190360208301846118ab565b9392505050565b6001600160a01b038116811461063a57600080fd5b6000806040838503121561193257600080fd5b823561193d8161190a565b946020939093013593505050565b60008060006060848603121561196057600080fd5b833561196b8161190a565b9250602084013561197b8161190a565b929592945050506040919091013590565b60006020828403121561199e57600080fd5b5035919050565b6020808252825182820181905260009190848201906040850190845b818110156119e65783516001600160401b0316835292840192918401916001016119c1565b50909695505050505050565b600060208284031215611a0457600080fd5b81356119038161190a565b80356001600160401b0381168114611a2657600080fd5b919050565b600060208284031215611a3d57600080fd5b61190382611a0f565b848152836020820152826040820152608060608201526000611a6b60808301846118ab565b9695505050505050565b60008060408385031215611a8857600080fd5b8235611a938161190a565b9150611aa160208401611a0f565b90509250929050565b634e487b7160e01b600052604160045260246000fd5b60405160a081016001600160401b0381118282101715611ae257611ae2611aaa565b60405290565b604080519081016001600160401b0381118282101715611ae257611ae2611aaa565b604051601f8201601f191681016001600160401b0381118282101715611b3257611b32611aaa565b604052919050565b600082601f830112611b4b57600080fd5b813560206001600160401b03821115611b6657611b66611aaa565b8160051b611b75828201611b0a565b9283528481018201928281019087851115611b8f57600080fd5b83870192505b84831015611bae57823582529183019190830190611b95565b979650505050505050565b600082601f830112611bca57600080fd5b611bd2611ae8565b806040840185811115611be457600080fd5b845b81811015611bfe578035845260209384019301611be6565b509095945050505050565b60008060008060006101408688031215611c2257600080fd5b611c2b86611a0f565b94506020808701356001600160401b03811115611c4757600080fd5b611c5389828a01611b3a565b9550506040611c6489828a01611bb9565b945088609f890112611c7557600080fd5b611c7d611ae8565b806101008a018b811115611c9057600080fd5b60808b015b81811015611cb457611ca78d82611bb9565b8452928501928401611c95565b50819650611cc28c82611bb9565b955050505050509295509295909350565b600081518084526020808501945080840160005b83811015611d0357815187529582019590820190600101611ce7565b509495945050505050565b602081528151602082015260208201516040820152604082015160608201526000606083015160a06080840152611d4860c0840182611cd3565b90506080840151601f198483030160a0850152611d6582826118ab565b95945050505050565b60008060408385031215611d8157600080fd5b8235611d8c8161190a565b91506020830135611d9c8161190a565b809150509250929050565b600080600060608486031215611dbc57600080fd5b611dc584611a0f565b9250602080850135611dd68161190a565b925060408501356001600160401b0380821115611df257600080fd5b9086019060a08289031215611e0657600080fd5b611e0e611ac0565b82358152838301358482015260408301356040820152606083013582811115611e3657600080fd5b611e428a828601611b3a565b606083015250608083013582811115611e5a57600080fd5b80840193505088601f840112611e6f57600080fd5b823582811115611e8157611e81611aaa565b611e93601f8201601f19168601611b0a565b92508083528985828601011115611ea957600080fd5b8085850186850137600085828501015250816080820152809450505050509250925092565b600181811c90821680611ee257607f821691505b602082108103611f0257634e487b7160e01b600052602260045260246000fd5b50919050565b8082018082111561054557634e487b7160e01b600052601160045260246000fd5b8060005b6002811015610f66578151845260209384019390910190600101611f2d565b60008154611f5981611ece565b808552602060018381168015611f765760018114611f9057611fbe565b60ff1985168884015283151560051b880183019550611fbe565b866000528260002060005b85811015611fb65781548a8201860152908301908401611f9b565b890184019650505b505050505092915050565b6000610140808352611fdd81840189611cd3565b90506020611fed81850189611f29565b606084018760005b600281101561201c57612009838351611f29565b6040929092019190830190600101611ff5565b50505061202c60e0850187611f29565b83820361012085015284548252600180860154828401526002860154604084015260a0606084018190526003870180549185018290526000908152838120929160c08601905b8083101561208f5784548252938301939183019190850190612072565b5085810360808701526120a58160048b01611f4c565b9d9c50505050505050505050505050565b6000602082840312156120c857600080fd5b8151801515811461190357600080fd5b601f82111561137657600081815260208120601f850160051c810160208610156120ff5750805b601f850160051c820191505b8181101561211e5782815560010161210b565b505050505050565b81516001600160401b0381111561213f5761213f611aaa565b6121538161214d8454611ece565b846120d8565b602080601f83116001811461218857600084156121705750858301515b600019600386901b1c1916600185901b17855561211e565b600085815260208120601f198616915b828110156121b757888601518255948401946001909101908401612198565b50858210156121d55787850151600019600388901b60f8161c191681555b5050505050600190811b01905550565b6000602082840312156121f757600080fd5b5051919050565b634e487b7160e01b600052603260045260246000fdfea2646970667358221220e3ed8ef5f2df2e3b33c21691312104e897768ffd11fe260de6e373732334751e64736f6c63430008110033","opcodes":"PUSH1 0x80 PUSH1 0x40 MSTORE PUSH3 0x12 PUSH1 0x12 PUSH1 0xA PUSH3 0x3C7 JUMP JUMPDEST PUSH3 0x1F SWAP1 PUSH1 0x5 PUSH3 0x3DC JUMP JUMPDEST PUSH1 0xA SSTORE CALLVALUE DUP1 ISZERO PUSH3 0x2F JUMPI PUSH1 0x0 DUP1 REVERT JUMPDEST POP PUSH1 0x40 MLOAD DUP1 PUSH1 0x40 ADD PUSH1 0x40 MSTORE DUP1 PUSH1 0x10 DUP2 MSTORE PUSH1 0x20 ADD PUSH16 0x283934B6B2902A37B0B2102A37B5B2B7 PUSH1 0x81 SHL DUP2 MSTORE POP PUSH1 0x40 MLOAD DUP1 PUSH1 0x40 ADD PUSH1 0x40 MSTORE DUP1 PUSH1 0x3 DUP2 MSTORE PUSH1 0x20 ADD PUSH3 0x141515 PUSH1 0xEA SHL DUP2 MSTORE POP DUP2 PUSH1 0x3 SWAP1 DUP2 PUSH3 0x86 SWAP2 SWAP1 PUSH3 0x49A JUMP JUMPDEST POP PUSH1 0x4 PUSH3 0x95 DUP3 DUP3 PUSH3 0x49A JUMP JUMPDEST POP POP POP PUSH3 0xB2 PUSH3 0xAC PUSH3 0xE0 PUSH1 0x20 SHL PUSH1 0x20 SHR JUMP JUMPDEST PUSH3 0xE4 JUMP JUMPDEST PUSH3 0xDA CALLER PUSH3 0xC5 PUSH1 0x12 PUSH1 0xA PUSH3 0x566 JUMP JUMPDEST PUSH3 0xD4 SWAP1 PUSH3 0xF4240 PUSH3 0x3DC JUMP JUMPDEST PUSH3 0x136 JUMP JUMPDEST PUSH3 0x58D JUMP JUMPDEST CALLER SWAP1 JUMP JUMPDEST PUSH1 0x5 DUP1 SLOAD PUSH1 0x1 PUSH1 0x1 PUSH1 0xA0 SHL SUB DUP4 DUP2 AND PUSH1 0x1 PUSH1 0x1 PUSH1 0xA0 SHL SUB NOT DUP4 AND DUP2 OR SWAP1 SWAP4 SSTORE PUSH1 0x40 MLOAD SWAP2 AND SWAP2 SWAP1 DUP3 SWAP1 PUSH32 0x8BE0079C531659141344CD1FD0A4F28419497F9722A3DAAFE3B4186F6B6457E0 SWAP1 PUSH1 0x0 SWAP1 LOG3 POP POP JUMP JUMPDEST PUSH1 0x1 PUSH1 0x1 PUSH1 0xA0 SHL SUB DUP3 AND PUSH3 0x192 JUMPI PUSH1 0x40 MLOAD PUSH3 0x461BCD PUSH1 0xE5 SHL DUP2 MSTORE PUSH1 0x20 PUSH1 0x4 DUP3 ADD MSTORE PUSH1 0x1F PUSH1 0x24 DUP3 ADD MSTORE PUSH32 0x45524332303A206D696E7420746F20746865207A65726F206164647265737300 PUSH1 0x44 DUP3 ADD MSTORE PUSH1 0x64 ADD JUMPDEST PUSH1 0x40 MLOAD DUP1 SWAP2 SUB SWAP1 REVERT JUMPDEST PUSH3 0x1A0 PUSH1 0x0 DUP4 DUP4 PUSH3 0x20B JUMP JUMPDEST DUP1 PUSH1 0x2 PUSH1 0x0 DUP3 DUP3 SLOAD PUSH3 0x1B4 SWAP2 SWAP1 PUSH3 0x577 JUMP JUMPDEST SWAP1 SWAP2 SSTORE POP POP PUSH1 0x1 PUSH1 0x1 PUSH1 0xA0 SHL SUB DUP3 AND PUSH1 0x0 DUP2 DUP2 MSTORE PUSH1 0x20 DUP2 DUP2 MSTORE PUSH1 0x40 DUP1 DUP4 KECCAK256 DUP1 SLOAD DUP7 ADD SWAP1 SSTORE MLOAD DUP5 DUP2 MSTORE PUSH32 0xDDF252AD1BE2C89B69C2B068FC378DAA952BA7F163C4A11628F55A4DF523B3EF SWAP2 ADD PUSH1 0x40 MLOAD DUP1 SWAP2 SUB SWAP1 LOG3 POP POP JUMP JUMPDEST PUSH1 0x1 PUSH1 0x1 PUSH1 0xA0 SHL SUB DUP3 AND PUSH1 0x0 SWAP1 DUP2 MSTORE PUSH1 0x6 PUSH1 0x20 SWAP1 DUP2 MSTORE PUSH1 0x40 DUP1 DUP4 KECCAK256 PUSH1 0x1 DUP1 DUP6 MSTORE SWAP3 MSTORE SWAP1 SWAP2 KECCAK256 SLOAD PUSH1 0xFF AND ISZERO ISZERO EQ PUSH3 0x2AD JUMPI PUSH1 0x40 DUP1 MLOAD PUSH3 0x461BCD PUSH1 0xE5 SHL DUP2 MSTORE PUSH1 0x20 PUSH1 0x4 DUP3 ADD MSTORE PUSH1 0x24 DUP2 ADD SWAP2 SWAP1 SWAP2 MSTORE PUSH32 0x6F6E6C79206964656E7469746965732077686F2070726F76696465642070726F PUSH1 0x44 DUP3 ADD MSTORE PUSH32 0x6F662061726520616C6C6F77656420746F207265636569766520746F6B656E73 PUSH1 0x64 DUP3 ADD MSTORE PUSH1 0x84 ADD PUSH3 0x189 JUMP JUMPDEST POP POP POP JUMP JUMPDEST PUSH4 0x4E487B71 PUSH1 0xE0 SHL PUSH1 0x0 MSTORE PUSH1 0x11 PUSH1 0x4 MSTORE PUSH1 0x24 PUSH1 0x0 REVERT JUMPDEST PUSH1 0x1 DUP2 DUP2 JUMPDEST DUP1 DUP6 GT ISZERO PUSH3 0x309 JUMPI DUP2 PUSH1 0x0 NOT DIV DUP3 GT ISZERO PUSH3 0x2ED JUMPI PUSH3 0x2ED PUSH3 0x2B2 JUMP JUMPDEST DUP1 DUP6 AND ISZERO PUSH3 0x2FB JUMPI SWAP2 DUP2 MUL SWAP2 JUMPDEST SWAP4 DUP5 SHR SWAP4 SWAP1 DUP1 MUL SWAP1 PUSH3 0x2CD JUMP JUMPDEST POP SWAP3 POP SWAP3 SWAP1 POP JUMP JUMPDEST PUSH1 0x0 DUP3 PUSH3 0x322 JUMPI POP PUSH1 0x1 PUSH3 0x3C1 JUMP JUMPDEST DUP2 PUSH3 0x331 JUMPI POP PUSH1 0x0 PUSH3 0x3C1 JUMP JUMPDEST DUP2 PUSH1 0x1 DUP2 EQ PUSH3 0x34A JUMPI PUSH1 0x2 DUP2 EQ PUSH3 0x355 JUMPI PUSH3 0x375 JUMP JUMPDEST PUSH1 0x1 SWAP2 POP POP PUSH3 0x3C1 JUMP JUMPDEST PUSH1 0xFF DUP5 GT ISZERO PUSH3 0x369 JUMPI PUSH3 0x369 PUSH3 0x2B2 JUMP JUMPDEST POP POP PUSH1 0x1 DUP3 SHL PUSH3 0x3C1 JUMP JUMPDEST POP PUSH1 0x20 DUP4 LT PUSH2 0x133 DUP4 LT AND PUSH1 0x4E DUP5 LT PUSH1 0xB DUP5 LT AND OR ISZERO PUSH3 0x39A JUMPI POP DUP2 DUP2 EXP PUSH3 0x3C1 JUMP JUMPDEST PUSH3 0x3A6 DUP4 DUP4 PUSH3 0x2C8 JUMP JUMPDEST DUP1 PUSH1 0x0 NOT DIV DUP3 GT ISZERO PUSH3 0x3BD JUMPI PUSH3 0x3BD PUSH3 0x2B2 JUMP JUMPDEST MUL SWAP1 POP JUMPDEST SWAP3 SWAP2 POP POP JUMP JUMPDEST PUSH1 0x0 PUSH3 0x3D5 DUP4 DUP4 PUSH3 0x311 JUMP JUMPDEST SWAP4 SWAP3 POP POP POP JUMP JUMPDEST DUP1 DUP3 MUL DUP2 ISZERO DUP3 DUP3 DIV DUP5 EQ OR PUSH3 0x3C1 JUMPI PUSH3 0x3C1 PUSH3 0x2B2 JUMP JUMPDEST PUSH4 0x4E487B71 PUSH1 0xE0 SHL PUSH1 0x0 MSTORE PUSH1 0x41 PUSH1 0x4 MSTORE PUSH1 0x24 PUSH1 0x0 REVERT JUMPDEST PUSH1 0x1 DUP2 DUP2 SHR SWAP1 DUP3 AND DUP1 PUSH3 0x421 JUMPI PUSH1 0x7F DUP3 AND SWAP2 POP JUMPDEST PUSH1 0x20 DUP3 LT DUP2 SUB PUSH3 0x442 JUMPI PUSH4 0x4E487B71 PUSH1 0xE0 SHL PUSH1 0x0 MSTORE PUSH1 0x22 PUSH1 0x4 MSTORE PUSH1 0x24 PUSH1 0x0 REVERT JUMPDEST POP SWAP2 SWAP1 POP JUMP JUMPDEST PUSH1 0x1F DUP3 GT ISZERO PUSH3 0x2AD JUMPI PUSH1 0x0 DUP2 DUP2 MSTORE PUSH1 0x20 DUP2 KECCAK256 PUSH1 0x1F DUP6 ADD PUSH1 0x5 SHR DUP2 ADD PUSH1 0x20 DUP7 LT ISZERO PUSH3 0x471 JUMPI POP DUP1 JUMPDEST PUSH1 0x1F DUP6 ADD PUSH1 0x5 SHR DUP3 ADD SWAP2 POP JUMPDEST DUP2 DUP2 LT ISZERO PUSH3 0x492 JUMPI DUP3 DUP2 SSTORE PUSH1 0x1 ADD PUSH3 0x47D JUMP JUMPDEST POP POP POP POP POP POP JUMP JUMPDEST DUP2 MLOAD PUSH1 0x1 PUSH1 0x1 PUSH1 0x40 SHL SUB DUP2 GT ISZERO PUSH3 0x4B6 JUMPI PUSH3 0x4B6 PUSH3 0x3F6 JUMP JUMPDEST PUSH3 0x4CE DUP2 PUSH3 0x4C7 DUP5 SLOAD PUSH3 0x40C JUMP JUMPDEST DUP5 PUSH3 0x448 JUMP JUMPDEST PUSH1 0x20 DUP1 PUSH1 0x1F DUP4 GT PUSH1 0x1 DUP2 EQ PUSH3 0x506 JUMPI PUSH1 0x0 DUP5 ISZERO PUSH3 0x4ED JUMPI POP DUP6 DUP4 ADD MLOAD JUMPDEST PUSH1 0x0 NOT PUSH1 0x3 DUP7 SWAP1 SHL SHR NOT AND PUSH1 0x1 DUP6 SWAP1 SHL OR DUP6 SSTORE PUSH3 0x492 JUMP JUMPDEST PUSH1 0x0 DUP6 DUP2 MSTORE PUSH1 0x20 DUP2 KECCAK256 PUSH1 0x1F NOT DUP7 AND SWAP2 JUMPDEST DUP3 DUP2 LT ISZERO PUSH3 0x537 JUMPI DUP9 DUP7 ADD MLOAD DUP3 SSTORE SWAP5 DUP5 ADD SWAP5 PUSH1 0x1 SWAP1 SWAP2 ADD SWAP1 DUP5 ADD PUSH3 0x516 JUMP JUMPDEST POP DUP6 DUP3 LT ISZERO PUSH3 0x556 JUMPI DUP8 DUP6 ADD MLOAD PUSH1 0x0 NOT PUSH1 0x3 DUP9 SWAP1 SHL PUSH1 0xF8 AND SHR NOT AND DUP2 SSTORE JUMPDEST POP POP POP POP POP PUSH1 0x1 SWAP1 DUP2 SHL ADD SWAP1 SSTORE POP JUMP JUMPDEST PUSH1 0x0 PUSH3 0x3D5 PUSH1 0xFF DUP5 AND DUP4 PUSH3 0x311 JUMP JUMPDEST DUP1 DUP3 ADD DUP1 DUP3 GT ISZERO PUSH3 0x3C1 JUMPI PUSH3 0x3C1 PUSH3 0x2B2 JUMP JUMPDEST PUSH2 0x224A DUP1 PUSH3 0x59D PUSH1 0x0 CODECOPY PUSH1 0x0 RETURN INVALID PUSH1 0x80 PUSH1 0x40 MSTORE CALLVALUE DUP1 ISZERO PUSH2 0x10 JUMPI PUSH1 0x0 DUP1 REVERT JUMPDEST POP PUSH1 0x4 CALLDATASIZE LT PUSH2 0x1CF JUMPI PUSH1 0x0 CALLDATALOAD PUSH1 0xE0 SHR DUP1 PUSH4 0x79CC6790 GT PUSH2 0x104 JUMPI DUP1 PUSH4 0xB45C0FDF GT PUSH2 0xA2 JUMPI DUP1 PUSH4 0xDD62ED3E GT PUSH2 0x71 JUMPI DUP1 PUSH4 0xDD62ED3E EQ PUSH2 0x453 JUMPI DUP1 PUSH4 0xF1435326 EQ PUSH2 0x466 JUMPI DUP1 PUSH4 0xF2FDE38B EQ PUSH2 0x479 JUMPI DUP1 PUSH4 0xFEE207E6 EQ PUSH2 0x48C JUMPI PUSH1 0x0 DUP1 REVERT JUMPDEST DUP1 PUSH4 0xB45C0FDF EQ PUSH2 0x3D2 JUMPI DUP1 PUSH4 0xB68967E2 EQ PUSH2 0x400 JUMPI DUP1 PUSH4 0xC76D0845 EQ PUSH2 0x413 JUMPI DUP1 PUSH4 0xCB0E0D7D EQ PUSH2 0x433 JUMPI PUSH1 0x0 DUP1 REVERT JUMPDEST DUP1 PUSH4 0x96BF4741 GT PUSH2 0xDE JUMPI DUP1 PUSH4 0x96BF4741 EQ PUSH2 0x360 JUMPI DUP1 PUSH4 0xA457C2D7 EQ PUSH2 0x383 JUMPI DUP1 PUSH4 0xA8723114 EQ PUSH2 0x396 JUMPI DUP1 PUSH4 0xA9059CBB EQ PUSH2 0x3BF JUMPI PUSH1 0x0 DUP1 REVERT JUMPDEST DUP1 PUSH4 0x79CC6790 EQ PUSH2 0x334 JUMPI DUP1 PUSH4 0x8DA5CB5B EQ PUSH2 0x347 JUMPI DUP1 PUSH4 0x95D89B41 EQ PUSH2 0x358 JUMPI PUSH1 0x0 DUP1 REVERT JUMPDEST DUP1 PUSH4 0x39509351 GT PUSH2 0x171 JUMPI DUP1 PUSH4 0x63EC508F GT PUSH2 0x14B JUMPI DUP1 PUSH4 0x63EC508F EQ PUSH2 0x2DA JUMPI DUP1 PUSH4 0x7042F36B EQ PUSH2 0x2FA JUMPI DUP1 PUSH4 0x70A08231 EQ PUSH2 0x303 JUMPI DUP1 PUSH4 0x715018A6 EQ PUSH2 0x32C JUMPI PUSH1 0x0 DUP1 REVERT JUMPDEST DUP1 PUSH4 0x39509351 EQ PUSH2 0x29F JUMPI DUP1 PUSH4 0x40C10F19 EQ PUSH2 0x2B2 JUMPI DUP1 PUSH4 0x42966C68 EQ PUSH2 0x2C7 JUMPI PUSH1 0x0 DUP1 REVERT JUMPDEST DUP1 PUSH4 0x23B872DD GT PUSH2 0x1AD JUMPI DUP1 PUSH4 0x23B872DD EQ PUSH2 0x227 JUMPI DUP1 PUSH4 0x2A2D0C47 EQ PUSH2 0x23A JUMPI DUP1 PUSH4 0x313CE567 EQ PUSH2 0x27B JUMPI DUP1 PUSH4 0x37BA9523 EQ PUSH2 0x28A JUMPI PUSH1 0x0 DUP1 REVERT JUMPDEST DUP1 PUSH4 0x6FDDE03 EQ PUSH2 0x1D4 JUMPI DUP1 PUSH4 0x95EA7B3 EQ PUSH2 0x1F2 JUMPI DUP1 PUSH4 0x18160DDD EQ PUSH2 0x215 JUMPI JUMPDEST PUSH1 0x0 DUP1 REVERT JUMPDEST PUSH2 0x1DC PUSH2 0x49F JUMP JUMPDEST PUSH1 0x40 MLOAD PUSH2 0x1E9 SWAP2 SWAP1 PUSH2 0x18F0 JUMP JUMPDEST PUSH1 0x40 MLOAD DUP1 SWAP2 SUB SWAP1 RETURN JUMPDEST PUSH2 0x205 PUSH2 0x200 CALLDATASIZE PUSH1 0x4 PUSH2 0x191F JUMP JUMPDEST PUSH2 0x531 JUMP JUMPDEST PUSH1 0x40 MLOAD SWAP1 ISZERO ISZERO DUP2 MSTORE PUSH1 0x20 ADD PUSH2 0x1E9 JUMP JUMPDEST PUSH1 0x2 SLOAD JUMPDEST PUSH1 0x40 MLOAD SWAP1 DUP2 MSTORE PUSH1 0x20 ADD PUSH2 0x1E9 JUMP JUMPDEST PUSH2 0x205 PUSH2 0x235 CALLDATASIZE PUSH1 0x4 PUSH2 0x194B JUMP JUMPDEST PUSH2 0x54B JUMP JUMPDEST PUSH2 0x263 PUSH2 0x248 CALLDATASIZE PUSH1 0x4 PUSH2 0x198C JUMP JUMPDEST PUSH1 0xB PUSH1 0x20 MSTORE PUSH1 0x0 SWAP1 DUP2 MSTORE PUSH1 0x40 SWAP1 KECCAK256 SLOAD PUSH1 0x1 PUSH1 0x1 PUSH1 0xA0 SHL SUB AND DUP2 JUMP JUMPDEST PUSH1 0x40 MLOAD PUSH1 0x1 PUSH1 0x1 PUSH1 0xA0 SHL SUB SWAP1 SWAP2 AND DUP2 MSTORE PUSH1 0x20 ADD PUSH2 0x1E9 JUMP JUMPDEST PUSH1 0x40 MLOAD PUSH1 0x12 DUP2 MSTORE PUSH1 0x20 ADD PUSH2 0x1E9 JUMP JUMPDEST PUSH2 0x292 PUSH2 0x56F JUMP JUMPDEST PUSH1 0x40 MLOAD PUSH2 0x1E9 SWAP2 SWAP1 PUSH2 0x19A5 JUMP JUMPDEST PUSH2 0x205 PUSH2 0x2AD CALLDATASIZE PUSH1 0x4 PUSH2 0x191F JUMP JUMPDEST PUSH2 0x5F8 JUMP JUMPDEST PUSH2 0x2C5 PUSH2 0x2C0 CALLDATASIZE PUSH1 0x4 PUSH2 0x191F JUMP JUMPDEST PUSH2 0x61A JUMP JUMPDEST STOP JUMPDEST PUSH2 0x2C5 PUSH2 0x2D5 CALLDATASIZE PUSH1 0x4 PUSH2 0x198C JUMP JUMPDEST PUSH2 0x630 JUMP JUMPDEST PUSH2 0x2E2 PUSH1 0x1 DUP2 JUMP JUMPDEST PUSH1 0x40 MLOAD PUSH1 0x1 PUSH1 0x1 PUSH1 0x40 SHL SUB SWAP1 SWAP2 AND DUP2 MSTORE PUSH1 0x20 ADD PUSH2 0x1E9 JUMP JUMPDEST PUSH2 0x219 PUSH1 0xA SLOAD DUP2 JUMP JUMPDEST PUSH2 0x219 PUSH2 0x311 CALLDATASIZE PUSH1 0x4 PUSH2 0x19F2 JUMP JUMPDEST PUSH1 0x1 PUSH1 0x1 PUSH1 0xA0 SHL SUB AND PUSH1 0x0 SWAP1 DUP2 MSTORE PUSH1 0x20 DUP2 SWAP1 MSTORE PUSH1 0x40 SWAP1 KECCAK256 SLOAD SWAP1 JUMP JUMPDEST PUSH2 0x2C5 PUSH2 0x63D JUMP JUMPDEST PUSH2 0x2C5 PUSH2 0x342 CALLDATASIZE PUSH1 0x4 PUSH2 0x191F JUMP JUMPDEST PUSH2 0x651 JUMP JUMPDEST PUSH1 0x5 SLOAD PUSH1 0x1 PUSH1 0x1 PUSH1 0xA0 SHL SUB AND PUSH2 0x263 JUMP JUMPDEST PUSH2 0x1DC PUSH2 0x666 JUMP JUMPDEST PUSH2 0x373 PUSH2 0x36E CALLDATASIZE PUSH1 0x4 PUSH2 0x1A2B JUMP JUMPDEST PUSH2 0x675 JUMP JUMPDEST PUSH1 0x40 MLOAD PUSH2 0x1E9 SWAP5 SWAP4 SWAP3 SWAP2 SWAP1 PUSH2 0x1A46 JUMP JUMPDEST PUSH2 0x205 PUSH2 0x391 CALLDATASIZE PUSH1 0x4 PUSH2 0x191F JUMP JUMPDEST PUSH2 0x728 JUMP JUMPDEST PUSH2 0x263 PUSH2 0x3A4 CALLDATASIZE PUSH1 0x4 PUSH2 0x1A2B JUMP JUMPDEST PUSH1 0x8 PUSH1 0x20 MSTORE PUSH1 0x0 SWAP1 DUP2 MSTORE PUSH1 0x40 SWAP1 KECCAK256 SLOAD PUSH1 0x1 PUSH1 0x1 PUSH1 0xA0 SHL SUB AND DUP2 JUMP JUMPDEST PUSH2 0x205 PUSH2 0x3CD CALLDATASIZE PUSH1 0x4 PUSH2 0x191F JUMP JUMPDEST PUSH2 0x7A8 JUMP JUMPDEST PUSH2 0x205 PUSH2 0x3E0 CALLDATASIZE PUSH1 0x4 PUSH2 0x1A75 JUMP JUMPDEST PUSH1 0x6 PUSH1 0x20 SWAP1 DUP2 MSTORE PUSH1 0x0 SWAP3 DUP4 MSTORE PUSH1 0x40 DUP1 DUP5 KECCAK256 SWAP1 SWAP2 MSTORE SWAP1 DUP3 MSTORE SWAP1 KECCAK256 SLOAD PUSH1 0xFF AND DUP2 JUMP JUMPDEST PUSH2 0x205 PUSH2 0x40E CALLDATASIZE PUSH1 0x4 PUSH2 0x1C09 JUMP JUMPDEST PUSH2 0x7B6 JUMP JUMPDEST PUSH2 0x426 PUSH2 0x421 CALLDATASIZE PUSH1 0x4 PUSH2 0x1A2B JUMP JUMPDEST PUSH2 0xA14 JUMP JUMPDEST PUSH1 0x40 MLOAD PUSH2 0x1E9 SWAP2 SWAP1 PUSH2 0x1D0E JUMP JUMPDEST PUSH2 0x219 PUSH2 0x441 CALLDATASIZE PUSH1 0x4 PUSH2 0x19F2 JUMP JUMPDEST PUSH1 0xC PUSH1 0x20 MSTORE PUSH1 0x0 SWAP1 DUP2 MSTORE PUSH1 0x40 SWAP1 KECCAK256 SLOAD DUP2 JUMP JUMPDEST PUSH2 0x219 PUSH2 0x461 CALLDATASIZE PUSH1 0x4 PUSH2 0x1D6E JUMP JUMPDEST PUSH2 0xB71 JUMP JUMPDEST PUSH2 0x2E2 PUSH2 0x474 CALLDATASIZE PUSH1 0x4 PUSH2 0x198C JUMP JUMPDEST PUSH2 0xB9C JUMP JUMPDEST PUSH2 0x2C5 PUSH2 0x487 CALLDATASIZE PUSH1 0x4 PUSH2 0x19F2 JUMP JUMPDEST PUSH2 0xBD9 JUMP JUMPDEST PUSH2 0x205 PUSH2 0x49A CALLDATASIZE PUSH1 0x4 PUSH2 0x1DA7 JUMP JUMPDEST PUSH2 0xC4F JUMP JUMPDEST PUSH1 0x60 PUSH1 0x3 DUP1 SLOAD PUSH2 0x4AE SWAP1 PUSH2 0x1ECE JUMP JUMPDEST DUP1 PUSH1 0x1F ADD PUSH1 0x20 DUP1 SWAP2 DIV MUL PUSH1 0x20 ADD PUSH1 0x40 MLOAD SWAP1 DUP2 ADD PUSH1 0x40 MSTORE DUP1 SWAP3 SWAP2 SWAP1 DUP2 DUP2 MSTORE PUSH1 0x20 ADD DUP3 DUP1 SLOAD PUSH2 0x4DA SWAP1 PUSH2 0x1ECE JUMP JUMPDEST DUP1 ISZERO PUSH2 0x527 JUMPI DUP1 PUSH1 0x1F LT PUSH2 0x4FC JUMPI PUSH2 0x100 DUP1 DUP4 SLOAD DIV MUL DUP4 MSTORE SWAP2 PUSH1 0x20 ADD SWAP2 PUSH2 0x527 JUMP JUMPDEST DUP3 ADD SWAP2 SWAP1 PUSH1 0x0 MSTORE PUSH1 0x20 PUSH1 0x0 KECCAK256 SWAP1 JUMPDEST DUP2 SLOAD DUP2 MSTORE SWAP1 PUSH1 0x1 ADD SWAP1 PUSH1 0x20 ADD DUP1 DUP4 GT PUSH2 0x50A JUMPI DUP3 SWAP1 SUB PUSH1 0x1F AND DUP3 ADD SWAP2 JUMPDEST POP POP POP POP POP SWAP1 POP SWAP1 JUMP JUMPDEST PUSH1 0x0 CALLER PUSH2 0x53F DUP2 DUP6 DUP6 PUSH2 0xDCD JUMP JUMPDEST PUSH1 0x1 SWAP2 POP POP JUMPDEST SWAP3 SWAP2 POP POP JUMP JUMPDEST PUSH1 0x0 CALLER PUSH2 0x559 DUP6 DUP3 DUP6 PUSH2 0xEF2 JUMP JUMPDEST PUSH2 0x564 DUP6 DUP6 DUP6 PUSH2 0xF6C JUMP JUMPDEST POP PUSH1 0x1 SWAP5 SWAP4 POP POP POP POP JUMP JUMPDEST PUSH1 0x60 PUSH1 0x9 DUP1 SLOAD DUP1 PUSH1 0x20 MUL PUSH1 0x20 ADD PUSH1 0x40 MLOAD SWAP1 DUP2 ADD PUSH1 0x40 MSTORE DUP1 SWAP3 SWAP2 SWAP1 DUP2 DUP2 MSTORE PUSH1 0x20 ADD DUP3 DUP1 SLOAD DUP1 ISZERO PUSH2 0x527 JUMPI PUSH1 0x20 MUL DUP3 ADD SWAP2 SWAP1 PUSH1 0x0 MSTORE PUSH1 0x20 PUSH1 0x0 KECCAK256 SWAP1 PUSH1 0x0 SWAP1 JUMPDEST DUP3 DUP3 SWAP1 SLOAD SWAP1 PUSH2 0x100 EXP SWAP1 DIV PUSH1 0x1 PUSH1 0x1 PUSH1 0x40 SHL SUB AND PUSH1 0x1 PUSH1 0x1 PUSH1 0x40 SHL SUB AND DUP2 MSTORE PUSH1 0x20 ADD SWAP1 PUSH1 0x8 ADD SWAP1 PUSH1 0x20 DUP3 PUSH1 0x7 ADD DIV SWAP3 DUP4 ADD SWAP3 PUSH1 0x1 SUB DUP3 MUL SWAP2 POP DUP1 DUP5 GT PUSH2 0x5AC JUMPI SWAP1 POP POP POP POP POP POP SWAP1 POP SWAP1 JUMP JUMPDEST PUSH1 0x0 CALLER PUSH2 0x53F DUP2 DUP6 DUP6 PUSH2 0x60B DUP4 DUP4 PUSH2 0xB71 JUMP JUMPDEST PUSH2 0x615 SWAP2 SWAP1 PUSH2 0x1F08 JUMP JUMPDEST PUSH2 0xDCD JUMP JUMPDEST PUSH2 0x622 PUSH2 0x111B JUMP JUMPDEST PUSH2 0x62C DUP3 DUP3 PUSH2 0x1175 JUMP JUMPDEST POP POP JUMP JUMPDEST PUSH2 0x63A CALLER DUP3 PUSH2 0x1240 JUMP JUMPDEST POP JUMP JUMPDEST PUSH2 0x645 PUSH2 0x111B JUMP JUMPDEST PUSH2 0x64F PUSH1 0x0 PUSH2 0x137B JUMP JUMPDEST JUMP JUMPDEST PUSH2 0x65C DUP3 CALLER DUP4 PUSH2 0xEF2 JUMP JUMPDEST PUSH2 0x62C DUP3 DUP3 PUSH2 0x1240 JUMP JUMPDEST PUSH1 0x60 PUSH1 0x4 DUP1 SLOAD PUSH2 0x4AE SWAP1 PUSH2 0x1ECE JUMP JUMPDEST PUSH1 0x7 PUSH1 0x20 MSTORE PUSH1 0x0 SWAP1 DUP2 MSTORE PUSH1 0x40 SWAP1 KECCAK256 DUP1 SLOAD PUSH1 0x1 DUP3 ADD SLOAD PUSH1 0x2 DUP4 ADD SLOAD PUSH1 0x4 DUP5 ADD DUP1 SLOAD SWAP4 SWAP5 SWAP3 SWAP4 SWAP2 SWAP3 SWAP2 PUSH2 0x6A5 SWAP1 PUSH2 0x1ECE JUMP JUMPDEST DUP1 PUSH1 0x1F ADD PUSH1 0x20 DUP1 SWAP2 DIV MUL PUSH1 0x20 ADD PUSH1 0x40 MLOAD SWAP1 DUP2 ADD PUSH1 0x40 MSTORE DUP1 SWAP3 SWAP2 SWAP1 DUP2 DUP2 MSTORE PUSH1 0x20 ADD DUP3 DUP1 SLOAD PUSH2 0x6D1 SWAP1 PUSH2 0x1ECE JUMP JUMPDEST DUP1 ISZERO PUSH2 0x71E JUMPI DUP1 PUSH1 0x1F LT PUSH2 0x6F3 JUMPI PUSH2 0x100 DUP1 DUP4 SLOAD DIV MUL DUP4 MSTORE SWAP2 PUSH1 0x20 ADD SWAP2 PUSH2 0x71E JUMP JUMPDEST DUP3 ADD SWAP2 SWAP1 PUSH1 0x0 MSTORE PUSH1 0x20 PUSH1 0x0 KECCAK256 SWAP1 JUMPDEST DUP2 SLOAD DUP2 MSTORE SWAP1 PUSH1 0x1 ADD SWAP1 PUSH1 0x20 ADD DUP1 DUP4 GT PUSH2 0x701 JUMPI DUP3 SWAP1 SUB PUSH1 0x1F AND DUP3 ADD SWAP2 JUMPDEST POP POP POP POP POP SWAP1 POP DUP5 JUMP JUMPDEST PUSH1 0x0 CALLER DUP2 PUSH2 0x736 DUP3 DUP7 PUSH2 0xB71 JUMP JUMPDEST SWAP1 POP DUP4 DUP2 LT ISZERO PUSH2 0x79B JUMPI PUSH1 0x40 MLOAD PUSH3 0x461BCD PUSH1 0xE5 SHL DUP2 MSTORE PUSH1 0x20 PUSH1 0x4 DUP3 ADD MSTORE PUSH1 0x25 PUSH1 0x24 DUP3 ADD MSTORE PUSH32 0x45524332303A2064656372656173656420616C6C6F77616E63652062656C6F77 PUSH1 0x44 DUP3 ADD MSTORE PUSH5 0x207A65726F PUSH1 0xD8 SHL PUSH1 0x64 DUP3 ADD MSTORE PUSH1 0x84 ADD JUMPDEST PUSH1 0x40 MLOAD DUP1 SWAP2 SUB SWAP1 REVERT JUMPDEST PUSH2 0x564 DUP3 DUP7 DUP7 DUP5 SUB PUSH2 0xDCD JUMP JUMPDEST PUSH1 0x0 CALLER PUSH2 0x53F DUP2 DUP6 DUP6 PUSH2 0xF6C JUMP JUMPDEST PUSH1 0x1 PUSH1 0x1 PUSH1 0x40 SHL SUB DUP6 AND PUSH1 0x0 SWAP1 DUP2 MSTORE PUSH1 0x8 PUSH1 0x20 MSTORE PUSH1 0x40 DUP2 KECCAK256 SLOAD PUSH1 0x1 PUSH1 0x1 PUSH1 0xA0 SHL SUB AND PUSH2 0x835 JUMPI PUSH1 0x40 MLOAD PUSH3 0x461BCD PUSH1 0xE5 SHL DUP2 MSTORE PUSH1 0x20 PUSH1 0x4 DUP3 ADD MSTORE PUSH1 0x28 PUSH1 0x24 DUP3 ADD MSTORE PUSH32 0x76616C696461746F72206973206E6F742073657420666F722074686973207265 PUSH1 0x44 DUP3 ADD MSTORE PUSH8 0x1C5D595CDD081A59 PUSH1 0xC2 SHL PUSH1 0x64 DUP3 ADD MSTORE PUSH1 0x84 ADD PUSH2 0x792 JUMP JUMPDEST PUSH1 0x1 PUSH1 0x1 PUSH1 0x40 SHL SUB DUP7 AND PUSH1 0x0 SWAP1 DUP2 MSTORE PUSH1 0x7 PUSH1 0x20 MSTORE PUSH1 0x40 DUP2 KECCAK256 SLOAD SWAP1 SUB PUSH2 0x8A8 JUMPI PUSH1 0x40 MLOAD PUSH3 0x461BCD PUSH1 0xE5 SHL DUP2 MSTORE PUSH1 0x20 PUSH1 0x4 DUP3 ADD MSTORE PUSH1 0x24 DUP1 DUP3 ADD MSTORE PUSH32 0x7175657279206973206E6F742073657420666F72207468697320726571756573 PUSH1 0x44 DUP3 ADD MSTORE PUSH4 0x1D081A59 PUSH1 0xE2 SHL PUSH1 0x64 DUP3 ADD MSTORE PUSH1 0x84 ADD PUSH2 0x792 JUMP JUMPDEST PUSH1 0x1 PUSH1 0x1 PUSH1 0x40 SHL SUB DUP7 AND PUSH1 0x0 SWAP1 DUP2 MSTORE PUSH1 0x8 PUSH1 0x20 MSTORE PUSH1 0x40 SWAP1 KECCAK256 SLOAD PUSH2 0x8D7 SWAP1 DUP8 SWAP1 DUP8 SWAP1 PUSH1 0x1 PUSH1 0x1 PUSH1 0xA0 SHL SUB AND PUSH2 0x13CD JUMP JUMPDEST PUSH1 0x1 PUSH1 0x1 PUSH1 0x40 SHL SUB DUP7 AND PUSH1 0x0 SWAP1 DUP2 MSTORE PUSH1 0x8 PUSH1 0x20 SWAP1 DUP2 MSTORE PUSH1 0x40 DUP1 DUP4 KECCAK256 SLOAD PUSH1 0x7 SWAP1 SWAP3 MSTORE SWAP2 DUP3 SWAP1 KECCAK256 SWAP2 MLOAD PUSH4 0x19F87541 PUSH1 0xE2 SHL DUP2 MSTORE PUSH1 0x1 PUSH1 0x1 PUSH1 0xA0 SHL SUB SWAP1 SWAP2 AND SWAP2 PUSH4 0x67E1D504 SWAP2 PUSH2 0x92F SWAP2 DUP10 SWAP2 DUP10 SWAP2 DUP10 SWAP2 DUP10 SWAP2 SWAP1 PUSH1 0x4 ADD PUSH2 0x1FC9 JUMP JUMPDEST PUSH1 0x20 PUSH1 0x40 MLOAD DUP1 DUP4 SUB DUP2 DUP7 GAS STATICCALL ISZERO DUP1 ISZERO PUSH2 0x94C JUMPI RETURNDATASIZE PUSH1 0x0 DUP1 RETURNDATACOPY RETURNDATASIZE PUSH1 0x0 REVERT JUMPDEST POP POP POP POP PUSH1 0x40 MLOAD RETURNDATASIZE PUSH1 0x1F NOT PUSH1 0x1F DUP3 ADD AND DUP3 ADD DUP1 PUSH1 0x40 MSTORE POP DUP2 ADD SWAP1 PUSH2 0x970 SWAP2 SWAP1 PUSH2 0x20B6 JUMP JUMPDEST PUSH2 0x9BC JUMPI PUSH1 0x40 MLOAD PUSH3 0x461BCD PUSH1 0xE5 SHL DUP2 MSTORE PUSH1 0x20 PUSH1 0x4 DUP3 ADD MSTORE PUSH1 0x1B PUSH1 0x24 DUP3 ADD MSTORE PUSH32 0x70726F6F6620726573706F6E7365206973206E6F742076616C69640000000000 PUSH1 0x44 DUP3 ADD MSTORE PUSH1 0x64 ADD PUSH2 0x792 JUMP JUMPDEST CALLER PUSH1 0x0 SWAP1 DUP2 MSTORE PUSH1 0x6 PUSH1 0x20 SWAP1 DUP2 MSTORE PUSH1 0x40 DUP1 DUP4 KECCAK256 PUSH1 0x1 PUSH1 0x1 PUSH1 0x40 SHL SUB DUP11 AND DUP5 MSTORE DUP3 MSTORE DUP1 DUP4 KECCAK256 DUP1 SLOAD PUSH1 0xFF NOT AND PUSH1 0x1 OR SWAP1 SSTORE PUSH1 0x8 SWAP1 SWAP2 MSTORE SWAP1 KECCAK256 SLOAD PUSH2 0xA08 SWAP1 DUP8 SWAP1 DUP8 SWAP1 PUSH1 0x1 PUSH1 0x1 PUSH1 0xA0 SHL SUB AND PUSH2 0x14BD JUMP JUMPDEST POP PUSH1 0x1 SWAP6 SWAP5 POP POP POP POP POP JUMP JUMPDEST PUSH2 0xA46 PUSH1 0x40 MLOAD DUP1 PUSH1 0xA0 ADD PUSH1 0x40 MSTORE DUP1 PUSH1 0x0 DUP2 MSTORE PUSH1 0x20 ADD PUSH1 0x0 DUP2 MSTORE PUSH1 0x20 ADD PUSH1 0x0 DUP2 MSTORE PUSH1 0x20 ADD PUSH1 0x60 DUP2 MSTORE PUSH1 0x20 ADD PUSH1 0x60 DUP2 MSTORE POP SWAP1 JUMP JUMPDEST PUSH1 0x1 PUSH1 0x1 PUSH1 0x40 SHL SUB DUP3 AND PUSH1 0x0 SWAP1 DUP2 MSTORE PUSH1 0x7 PUSH1 0x20 SWAP1 DUP2 MSTORE PUSH1 0x40 SWAP2 DUP3 SWAP1 KECCAK256 DUP3 MLOAD PUSH1 0xA0 DUP2 ADD DUP5 MSTORE DUP2 SLOAD DUP2 MSTORE PUSH1 0x1 DUP3 ADD SLOAD DUP2 DUP5 ADD MSTORE PUSH1 0x2 DUP3 ADD SLOAD DUP2 DUP6 ADD MSTORE PUSH1 0x3 DUP3 ADD DUP1 SLOAD DUP6 MLOAD DUP2 DUP7 MUL DUP2 ADD DUP7 ADD SWAP1 SWAP7 MSTORE DUP1 DUP7 MSTORE SWAP2 SWAP5 SWAP3 SWAP4 PUSH1 0x60 DUP7 ADD SWAP4 SWAP3 SWAP1 DUP4 ADD DUP3 DUP3 DUP1 ISZERO PUSH2 0xACF JUMPI PUSH1 0x20 MUL DUP3 ADD SWAP2 SWAP1 PUSH1 0x0 MSTORE PUSH1 0x20 PUSH1 0x0 KECCAK256 SWAP1 JUMPDEST DUP2 SLOAD DUP2 MSTORE PUSH1 0x20 ADD SWAP1 PUSH1 0x1 ADD SWAP1 DUP1 DUP4 GT PUSH2 0xABB JUMPI JUMPDEST POP POP POP POP POP DUP2 MSTORE PUSH1 0x20 ADD PUSH1 0x4 DUP3 ADD DUP1 SLOAD PUSH2 0xAE8 SWAP1 PUSH2 0x1ECE JUMP JUMPDEST DUP1 PUSH1 0x1F ADD PUSH1 0x20 DUP1 SWAP2 DIV MUL PUSH1 0x20 ADD PUSH1 0x40 MLOAD SWAP1 DUP2 ADD PUSH1 0x40 MSTORE DUP1 SWAP3 SWAP2 SWAP1 DUP2 DUP2 MSTORE PUSH1 0x20 ADD DUP3 DUP1 SLOAD PUSH2 0xB14 SWAP1 PUSH2 0x1ECE JUMP JUMPDEST DUP1 ISZERO PUSH2 0xB61 JUMPI DUP1 PUSH1 0x1F LT PUSH2 0xB36 JUMPI PUSH2 0x100 DUP1 DUP4 SLOAD DIV MUL DUP4 MSTORE SWAP2 PUSH1 0x20 ADD SWAP2 PUSH2 0xB61 JUMP JUMPDEST DUP3 ADD SWAP2 SWAP1 PUSH1 0x0 MSTORE PUSH1 0x20 PUSH1 0x0 KECCAK256 SWAP1 JUMPDEST DUP2 SLOAD DUP2 MSTORE SWAP1 PUSH1 0x1 ADD SWAP1 PUSH1 0x20 ADD DUP1 DUP4 GT PUSH2 0xB44 JUMPI DUP3 SWAP1 SUB PUSH1 0x1F AND DUP3 ADD SWAP2 JUMPDEST POP POP POP POP POP DUP2 MSTORE POP POP SWAP1 POP SWAP2 SWAP1 POP JUMP JUMPDEST PUSH1 0x1 PUSH1 0x1 PUSH1 0xA0 SHL SUB SWAP2 DUP3 AND PUSH1 0x0 SWAP1 DUP2 MSTORE PUSH1 0x1 PUSH1 0x20 SWAP1 DUP2 MSTORE PUSH1 0x40 DUP1 DUP4 KECCAK256 SWAP4 SWAP1 SWAP5 AND DUP3 MSTORE SWAP2 SWAP1 SWAP2 MSTORE KECCAK256 SLOAD SWAP1 JUMP JUMPDEST PUSH1 0x9 DUP2 DUP2 SLOAD DUP2 LT PUSH2 0xBAC JUMPI PUSH1 0x0 DUP1 REVERT JUMPDEST SWAP1 PUSH1 0x0 MSTORE PUSH1 0x20 PUSH1 0x0 KECCAK256 SWAP1 PUSH1 0x4 SWAP2 DUP3 DUP3 DIV ADD SWAP2 SWAP1 MOD PUSH1 0x8 MUL SWAP2 POP SLOAD SWAP1 PUSH2 0x100 EXP SWAP1 DIV PUSH1 0x1 PUSH1 0x1 PUSH1 0x40 SHL SUB AND DUP2 JUMP JUMPDEST PUSH2 0xBE1 PUSH2 0x111B JUMP JUMPDEST PUSH1 0x1 PUSH1 0x1 PUSH1 0xA0 SHL SUB DUP2 AND PUSH2 0xC46 JUMPI PUSH1 0x40 MLOAD PUSH3 0x461BCD PUSH1 0xE5 SHL DUP2 MSTORE PUSH1 0x20 PUSH1 0x4 DUP3 ADD MSTORE PUSH1 0x26 PUSH1 0x24 DUP3 ADD MSTORE PUSH32 0x4F776E61626C653A206E6577206F776E657220697320746865207A65726F2061 PUSH1 0x44 DUP3 ADD MSTORE PUSH6 0x646472657373 PUSH1 0xD0 SHL PUSH1 0x64 DUP3 ADD MSTORE PUSH1 0x84 ADD PUSH2 0x792 JUMP JUMPDEST PUSH2 0x63A DUP2 PUSH2 0x137B JUMP JUMPDEST PUSH1 0x0 PUSH2 0xC59 PUSH2 0x111B JUMP JUMPDEST PUSH1 0x1 PUSH1 0x1 PUSH1 0x40 SHL SUB DUP5 AND PUSH1 0x0 SWAP1 DUP2 MSTORE PUSH1 0x8 PUSH1 0x20 MSTORE PUSH1 0x40 SWAP1 KECCAK256 SLOAD PUSH1 0x1 PUSH1 0x1 PUSH1 0xA0 SHL SUB AND PUSH2 0xCDD JUMPI PUSH1 0x9 DUP1 SLOAD PUSH1 0x1 DUP2 ADD DUP3 SSTORE PUSH1 0x0 SWAP2 SWAP1 SWAP2 MSTORE PUSH32 0x6E1540171B6C0C960B71A7020D9F60077F6AF931A8BBF590DA0223DACF75C7AF PUSH1 0x4 DUP3 DIV ADD DUP1 SLOAD PUSH1 0x3 SWAP1 SWAP3 AND PUSH1 0x8 MUL PUSH2 0x100 EXP PUSH1 0x1 PUSH1 0x1 PUSH1 0x40 SHL SUB DUP2 DUP2 MUL NOT SWAP1 SWAP4 AND SWAP3 DUP8 AND MUL SWAP2 SWAP1 SWAP2 OR SWAP1 SSTORE JUMPDEST PUSH1 0x60 DUP3 ADD MLOAD PUSH1 0x1 PUSH1 0x1 PUSH1 0x40 SHL SUB DUP6 AND PUSH1 0x0 SWAP1 DUP2 MSTORE PUSH1 0x7 PUSH1 0x20 SWAP1 DUP2 MSTORE PUSH1 0x40 SWAP1 SWAP2 KECCAK256 DUP3 MLOAD PUSH2 0xD12 SWAP4 PUSH1 0x3 SWAP1 SWAP3 ADD SWAP3 SWAP1 SWAP2 ADD SWAP1 PUSH2 0x184B JUMP JUMPDEST POP PUSH1 0x40 DUP1 DUP4 ADD MLOAD PUSH1 0x1 PUSH1 0x1 PUSH1 0x40 SHL SUB DUP7 AND PUSH1 0x0 SWAP1 DUP2 MSTORE PUSH1 0x7 PUSH1 0x20 MSTORE SWAP2 SWAP1 SWAP2 KECCAK256 PUSH1 0x2 DUP2 ADD SWAP2 SWAP1 SWAP2 SSTORE PUSH1 0x80 DUP4 ADD MLOAD PUSH1 0x4 SWAP1 SWAP2 ADD SWAP1 PUSH2 0xD4E SWAP1 DUP3 PUSH2 0x2126 JUMP JUMPDEST POP PUSH1 0x20 DUP1 DUP4 ADD MLOAD PUSH1 0x1 PUSH1 0x1 PUSH1 0x40 SHL SUB DUP7 AND PUSH1 0x0 SWAP1 DUP2 MSTORE PUSH1 0x7 SWAP1 SWAP3 MSTORE PUSH1 0x40 SWAP1 SWAP2 KECCAK256 PUSH1 0x1 DUP2 ADD SWAP2 SWAP1 SWAP2 SSTORE DUP3 MLOAD DUP2 SSTORE PUSH1 0x80 DUP4 ADD MLOAD PUSH1 0x4 SWAP1 SWAP2 ADD SWAP1 PUSH2 0xD8F SWAP1 DUP3 PUSH2 0x2126 JUMP JUMPDEST POP POP PUSH1 0x1 PUSH1 0x1 PUSH1 0x40 SHL SUB DUP4 AND PUSH1 0x0 SWAP1 DUP2 MSTORE PUSH1 0x8 PUSH1 0x20 MSTORE PUSH1 0x40 SWAP1 KECCAK256 DUP1 SLOAD PUSH1 0x1 PUSH1 0x1 PUSH1 0xA0 SHL SUB DUP5 AND PUSH1 0x1 PUSH1 0x1 PUSH1 0xA0 SHL SUB NOT SWAP1 SWAP2 AND OR SWAP1 SSTORE PUSH1 0x1 SWAP4 SWAP3 POP POP POP JUMP JUMPDEST PUSH1 0x1 PUSH1 0x1 PUSH1 0xA0 SHL SUB DUP4 AND PUSH2 0xE2F JUMPI PUSH1 0x40 MLOAD PUSH3 0x461BCD PUSH1 0xE5 SHL DUP2 MSTORE PUSH1 0x20 PUSH1 0x4 DUP3 ADD MSTORE PUSH1 0x24 DUP1 DUP3 ADD MSTORE PUSH32 0x45524332303A20617070726F76652066726F6D20746865207A65726F20616464 PUSH1 0x44 DUP3 ADD MSTORE PUSH4 0x72657373 PUSH1 0xE0 SHL PUSH1 0x64 DUP3 ADD MSTORE PUSH1 0x84 ADD PUSH2 0x792 JUMP JUMPDEST PUSH1 0x1 PUSH1 0x1 PUSH1 0xA0 SHL SUB DUP3 AND PUSH2 0xE90 JUMPI PUSH1 0x40 MLOAD PUSH3 0x461BCD PUSH1 0xE5 SHL DUP2 MSTORE PUSH1 0x20 PUSH1 0x4 DUP3 ADD MSTORE PUSH1 0x22 PUSH1 0x24 DUP3 ADD MSTORE PUSH32 0x45524332303A20617070726F766520746F20746865207A65726F206164647265 PUSH1 0x44 DUP3 ADD MSTORE PUSH2 0x7373 PUSH1 0xF0 SHL PUSH1 0x64 DUP3 ADD MSTORE PUSH1 0x84 ADD PUSH2 0x792 JUMP JUMPDEST PUSH1 0x1 PUSH1 0x1 PUSH1 0xA0 SHL SUB DUP4 DUP2 AND PUSH1 0x0 DUP2 DUP2 MSTORE PUSH1 0x1 PUSH1 0x20 SWAP1 DUP2 MSTORE PUSH1 0x40 DUP1 DUP4 KECCAK256 SWAP5 DUP8 AND DUP1 DUP5 MSTORE SWAP5 DUP3 MSTORE SWAP2 DUP3 SWAP1 KECCAK256 DUP6 SWAP1 SSTORE SWAP1 MLOAD DUP5 DUP2 MSTORE PUSH32 0x8C5BE1E5EBEC7D5BD14F71427D1E84F3DD0314C0F7B2291E5B200AC8C7C3B925 SWAP2 ADD JUMPDEST PUSH1 0x40 MLOAD DUP1 SWAP2 SUB SWAP1 LOG3 POP POP POP JUMP JUMPDEST PUSH1 0x0 PUSH2 0xEFE DUP5 DUP5 PUSH2 0xB71 JUMP JUMPDEST SWAP1 POP PUSH1 0x0 NOT DUP2 EQ PUSH2 0xF66 JUMPI DUP2 DUP2 LT ISZERO PUSH2 0xF59 JUMPI PUSH1 0x40 MLOAD PUSH3 0x461BCD PUSH1 0xE5 SHL DUP2 MSTORE PUSH1 0x20 PUSH1 0x4 DUP3 ADD MSTORE PUSH1 0x1D PUSH1 0x24 DUP3 ADD MSTORE PUSH32 0x45524332303A20696E73756666696369656E7420616C6C6F77616E6365000000 PUSH1 0x44 DUP3 ADD MSTORE PUSH1 0x64 ADD PUSH2 0x792 JUMP JUMPDEST PUSH2 0xF66 DUP5 DUP5 DUP5 DUP5 SUB PUSH2 0xDCD JUMP JUMPDEST POP POP POP POP JUMP JUMPDEST PUSH1 0x1 PUSH1 0x1 PUSH1 0xA0 SHL SUB DUP4 AND PUSH2 0xFD0 JUMPI PUSH1 0x40 MLOAD PUSH3 0x461BCD PUSH1 0xE5 SHL DUP2 MSTORE PUSH1 0x20 PUSH1 0x4 DUP3 ADD MSTORE PUSH1 0x25 PUSH1 0x24 DUP3 ADD MSTORE PUSH32 0x45524332303A207472616E736665722066726F6D20746865207A65726F206164 PUSH1 0x44 DUP3 ADD MSTORE PUSH5 0x6472657373 PUSH1 0xD8 SHL PUSH1 0x64 DUP3 ADD MSTORE PUSH1 0x84 ADD PUSH2 0x792 JUMP JUMPDEST PUSH1 0x1 PUSH1 0x1 PUSH1 0xA0 SHL SUB DUP3 AND PUSH2 0x1032 JUMPI PUSH1 0x40 MLOAD PUSH3 0x461BCD PUSH1 0xE5 SHL DUP2 MSTORE PUSH1 0x20 PUSH1 0x4 DUP3 ADD MSTORE PUSH1 0x23 PUSH1 0x24 DUP3 ADD MSTORE PUSH32 0x45524332303A207472616E7366657220746F20746865207A65726F2061646472 PUSH1 0x44 DUP3 ADD MSTORE PUSH3 0x657373 PUSH1 0xE8 SHL PUSH1 0x64 DUP3 ADD MSTORE PUSH1 0x84 ADD PUSH2 0x792 JUMP JUMPDEST PUSH2 0x103D DUP4 DUP4 DUP4 PUSH2 0x1624 JUMP JUMPDEST PUSH1 0x1 PUSH1 0x1 PUSH1 0xA0 SHL SUB DUP4 AND PUSH1 0x0 SWAP1 DUP2 MSTORE PUSH1 0x20 DUP2 SWAP1 MSTORE PUSH1 0x40 SWAP1 KECCAK256 SLOAD DUP2 DUP2 LT ISZERO PUSH2 0x10B5 JUMPI PUSH1 0x40 MLOAD PUSH3 0x461BCD PUSH1 0xE5 SHL DUP2 MSTORE PUSH1 0x20 PUSH1 0x4 DUP3 ADD MSTORE PUSH1 0x26 PUSH1 0x24 DUP3 ADD MSTORE PUSH32 0x45524332303A207472616E7366657220616D6F756E7420657863656564732062 PUSH1 0x44 DUP3 ADD MSTORE PUSH6 0x616C616E6365 PUSH1 0xD0 SHL PUSH1 0x64 DUP3 ADD MSTORE PUSH1 0x84 ADD PUSH2 0x792 JUMP JUMPDEST PUSH1 0x1 PUSH1 0x1 PUSH1 0xA0 SHL SUB DUP5 DUP2 AND PUSH1 0x0 DUP2 DUP2 MSTORE PUSH1 0x20 DUP2 DUP2 MSTORE PUSH1 0x40 DUP1 DUP4 KECCAK256 DUP8 DUP8 SUB SWAP1 SSTORE SWAP4 DUP8 AND DUP1 DUP4 MSTORE SWAP2 DUP5 SWAP1 KECCAK256 DUP1 SLOAD DUP8 ADD SWAP1 SSTORE SWAP3 MLOAD DUP6 DUP2 MSTORE SWAP1 SWAP3 PUSH32 0xDDF252AD1BE2C89B69C2B068FC378DAA952BA7F163C4A11628F55A4DF523B3EF SWAP2 ADD PUSH1 0x40 MLOAD DUP1 SWAP2 SUB SWAP1 LOG3 PUSH2 0xF66 JUMP JUMPDEST PUSH1 0x5 SLOAD PUSH1 0x1 PUSH1 0x1 PUSH1 0xA0 SHL SUB AND CALLER EQ PUSH2 0x64F JUMPI PUSH1 0x40 MLOAD PUSH3 0x461BCD PUSH1 0xE5 SHL DUP2 MSTORE PUSH1 0x20 PUSH1 0x4 DUP3 ADD DUP2 SWAP1 MSTORE PUSH1 0x24 DUP3 ADD MSTORE PUSH32 0x4F776E61626C653A2063616C6C6572206973206E6F7420746865206F776E6572 PUSH1 0x44 DUP3 ADD MSTORE PUSH1 0x64 ADD PUSH2 0x792 JUMP JUMPDEST PUSH1 0x1 PUSH1 0x1 PUSH1 0xA0 SHL SUB DUP3 AND PUSH2 0x11CB JUMPI PUSH1 0x40 MLOAD PUSH3 0x461BCD PUSH1 0xE5 SHL DUP2 MSTORE PUSH1 0x20 PUSH1 0x4 DUP3 ADD MSTORE PUSH1 0x1F PUSH1 0x24 DUP3 ADD MSTORE PUSH32 0x45524332303A206D696E7420746F20746865207A65726F206164647265737300 PUSH1 0x44 DUP3 ADD MSTORE PUSH1 0x64 ADD PUSH2 0x792 JUMP JUMPDEST PUSH2 0x11D7 PUSH1 0x0 DUP4 DUP4 PUSH2 0x1624 JUMP JUMPDEST DUP1 PUSH1 0x2 PUSH1 0x0 DUP3 DUP3 SLOAD PUSH2 0x11E9 SWAP2 SWAP1 PUSH2 0x1F08 JUMP JUMPDEST SWAP1 SWAP2 SSTORE POP POP PUSH1 0x1 PUSH1 0x1 PUSH1 0xA0 SHL SUB DUP3 AND PUSH1 0x0 DUP2 DUP2 MSTORE PUSH1 0x20 DUP2 DUP2 MSTORE PUSH1 0x40 DUP1 DUP4 KECCAK256 DUP1 SLOAD DUP7 ADD SWAP1 SSTORE MLOAD DUP5 DUP2 MSTORE PUSH32 0xDDF252AD1BE2C89B69C2B068FC378DAA952BA7F163C4A11628F55A4DF523B3EF SWAP2 ADD PUSH1 0x40 MLOAD DUP1 SWAP2 SUB SWAP1 LOG3 POP POP JUMP JUMPDEST PUSH1 0x1 PUSH1 0x1 PUSH1 0xA0 SHL SUB DUP3 AND PUSH2 0x12A0 JUMPI PUSH1 0x40 MLOAD PUSH3 0x461BCD PUSH1 0xE5 SHL DUP2 MSTORE PUSH1 0x20 PUSH1 0x4 DUP3 ADD MSTORE PUSH1 0x21 PUSH1 0x24 DUP3 ADD MSTORE PUSH32 0x45524332303A206275726E2066726F6D20746865207A65726F20616464726573 PUSH1 0x44 DUP3 ADD MSTORE PUSH1 0x73 PUSH1 0xF8 SHL PUSH1 0x64 DUP3 ADD MSTORE PUSH1 0x84 ADD PUSH2 0x792 JUMP JUMPDEST PUSH2 0x12AC DUP3 PUSH1 0x0 DUP4 PUSH2 0x1624 JUMP JUMPDEST PUSH1 0x1 PUSH1 0x1 PUSH1 0xA0 SHL SUB DUP3 AND PUSH1 0x0 SWAP1 DUP2 MSTORE PUSH1 0x20 DUP2 SWAP1 MSTORE PUSH1 0x40 SWAP1 KECCAK256 SLOAD DUP2 DUP2 LT ISZERO PUSH2 0x1320 JUMPI PUSH1 0x40 MLOAD PUSH3 0x461BCD PUSH1 0xE5 SHL DUP2 MSTORE PUSH1 0x20 PUSH1 0x4 DUP3 ADD MSTORE PUSH1 0x22 PUSH1 0x24 DUP3 ADD MSTORE PUSH32 0x45524332303A206275726E20616D6F756E7420657863656564732062616C616E PUSH1 0x44 DUP3 ADD MSTORE PUSH2 0x6365 PUSH1 0xF0 SHL PUSH1 0x64 DUP3 ADD MSTORE PUSH1 0x84 ADD PUSH2 0x792 JUMP JUMPDEST PUSH1 0x1 PUSH1 0x1 PUSH1 0xA0 SHL SUB DUP4 AND PUSH1 0x0 DUP2 DUP2 MSTORE PUSH1 0x20 DUP2 DUP2 MSTORE PUSH1 0x40 DUP1 DUP4 KECCAK256 DUP7 DUP7 SUB SWAP1 SSTORE PUSH1 0x2 DUP1 SLOAD DUP8 SWAP1 SUB SWAP1 SSTORE MLOAD DUP6 DUP2 MSTORE SWAP2 SWAP3 SWAP2 PUSH32 0xDDF252AD1BE2C89B69C2B068FC378DAA952BA7F163C4A11628F55A4DF523B3EF SWAP2 ADD PUSH2 0xEE5 JUMP JUMPDEST POP POP POP JUMP JUMPDEST PUSH1 0x5 DUP1 SLOAD PUSH1 0x1 PUSH1 0x1 PUSH1 0xA0 SHL SUB DUP4 DUP2 AND PUSH1 0x1 PUSH1 0x1 PUSH1 0xA0 SHL SUB NOT DUP4 AND DUP2 OR SWAP1 SWAP4 SSTORE PUSH1 0x40 MLOAD SWAP2 AND SWAP2 SWAP1 DUP3 SWAP1 PUSH32 0x8BE0079C531659141344CD1FD0A4F28419497F9722A3DAAFE3B4186F6B6457E0 SWAP1 PUSH1 0x0 SWAP1 LOG3 POP POP JUMP JUMPDEST PUSH1 0x0 PUSH2 0x1452 DUP4 DUP4 PUSH1 0x1 PUSH1 0x1 PUSH1 0xA0 SHL SUB AND PUSH4 0x9F442AFA PUSH1 0x40 MLOAD DUP2 PUSH4 0xFFFFFFFF AND PUSH1 0xE0 SHL DUP2 MSTORE PUSH1 0x4 ADD PUSH1 0x20 PUSH1 0x40 MLOAD DUP1 DUP4 SUB DUP2 DUP7 GAS STATICCALL ISZERO DUP1 ISZERO PUSH2 0x1411 JUMPI RETURNDATASIZE PUSH1 0x0 DUP1 RETURNDATACOPY RETURNDATASIZE PUSH1 0x0 REVERT JUMPDEST POP POP POP POP PUSH1 0x40 MLOAD RETURNDATASIZE PUSH1 0x1F NOT PUSH1 0x1F DUP3 ADD AND DUP3 ADD DUP1 PUSH1 0x40 MSTORE POP DUP2 ADD SWAP1 PUSH2 0x1435 SWAP2 SWAP1 PUSH2 0x21E5 JUMP JUMPDEST DUP2 MLOAD DUP2 LT PUSH2 0x1445 JUMPI PUSH2 0x1445 PUSH2 0x21FE JUMP JUMPDEST PUSH1 0x20 MUL PUSH1 0x20 ADD ADD MLOAD PUSH2 0x16C4 JUMP JUMPDEST SWAP1 POP CALLER PUSH1 0x1 PUSH1 0x1 PUSH1 0xA0 SHL SUB DUP3 AND EQ PUSH2 0xF66 JUMPI PUSH1 0x40 MLOAD PUSH3 0x461BCD PUSH1 0xE5 SHL DUP2 MSTORE PUSH1 0x20 PUSH1 0x4 DUP3 ADD MSTORE PUSH1 0x28 PUSH1 0x24 DUP3 ADD MSTORE PUSH32 0x6164647265737320696E2070726F6F66206973206E6F7420612073656E646572 PUSH1 0x44 DUP3 ADD MSTORE PUSH8 0x2061646472657373 PUSH1 0xC0 SHL PUSH1 0x64 DUP3 ADD MSTORE PUSH1 0x84 ADD PUSH2 0x792 JUMP JUMPDEST PUSH1 0x1 PUSH1 0x1 PUSH1 0x40 SHL SUB DUP4 AND PUSH1 0x1 EQ DUP1 ISZERO PUSH2 0x14E3 JUMPI POP CALLER PUSH1 0x0 SWAP1 DUP2 MSTORE PUSH1 0xC PUSH1 0x20 MSTORE PUSH1 0x40 SWAP1 KECCAK256 SLOAD ISZERO JUMPDEST PUSH2 0x1541 JUMPI PUSH1 0x40 MLOAD PUSH3 0x461BCD PUSH1 0xE5 SHL DUP2 MSTORE PUSH1 0x20 PUSH1 0x4 DUP3 ADD MSTORE PUSH1 0x29 PUSH1 0x24 DUP3 ADD MSTORE PUSH32 0x70726F6F662063616E206E6F74206265207375626D6974746564206D6F726520 PUSH1 0x44 DUP3 ADD MSTORE PUSH9 0x7468616E206F6E6365 PUSH1 0xB8 SHL PUSH1 0x64 DUP3 ADD MSTORE PUSH1 0x84 ADD PUSH2 0x792 JUMP JUMPDEST PUSH1 0x0 DUP3 DUP3 PUSH1 0x1 PUSH1 0x1 PUSH1 0xA0 SHL SUB AND PUSH4 0x9F442AFA PUSH1 0x40 MLOAD DUP2 PUSH4 0xFFFFFFFF AND PUSH1 0xE0 SHL DUP2 MSTORE PUSH1 0x4 ADD PUSH1 0x20 PUSH1 0x40 MLOAD DUP1 DUP4 SUB DUP2 DUP7 GAS STATICCALL ISZERO DUP1 ISZERO PUSH2 0x1582 JUMPI RETURNDATASIZE PUSH1 0x0 DUP1 RETURNDATACOPY RETURNDATASIZE PUSH1 0x0 REVERT JUMPDEST POP POP POP POP PUSH1 0x40 MLOAD RETURNDATASIZE PUSH1 0x1F NOT PUSH1 0x1F DUP3 ADD AND DUP3 ADD DUP1 PUSH1 0x40 MSTORE POP DUP2 ADD SWAP1 PUSH2 0x15A6 SWAP2 SWAP1 PUSH2 0x21E5 JUMP JUMPDEST DUP2 MLOAD DUP2 LT PUSH2 0x15B6 JUMPI PUSH2 0x15B6 PUSH2 0x21FE JUMP JUMPDEST PUSH1 0x20 SWAP1 DUP2 MUL SWAP2 SWAP1 SWAP2 ADD DUP2 ADD MLOAD PUSH1 0x0 DUP2 DUP2 MSTORE PUSH1 0xB SWAP1 SWAP3 MSTORE PUSH1 0x40 SWAP1 SWAP2 KECCAK256 SLOAD SWAP1 SWAP2 POP PUSH1 0x1 PUSH1 0x1 PUSH1 0xA0 SHL SUB AND PUSH2 0xF66 JUMPI PUSH2 0x15EE CALLER PUSH1 0xA SLOAD PUSH2 0x1175 JUMP JUMPDEST CALLER PUSH1 0x0 DUP2 DUP2 MSTORE PUSH1 0xC PUSH1 0x20 SWAP1 DUP2 MSTORE PUSH1 0x40 DUP1 DUP4 KECCAK256 DUP6 SWAP1 SSTORE SWAP4 DUP3 MSTORE PUSH1 0xB SWAP1 MSTORE SWAP2 SWAP1 SWAP2 KECCAK256 DUP1 SLOAD PUSH1 0x1 PUSH1 0x1 PUSH1 0xA0 SHL SUB NOT AND SWAP1 SWAP2 OR SWAP1 SSTORE POP POP POP JUMP JUMPDEST PUSH1 0x1 PUSH1 0x1 PUSH1 0xA0 SHL SUB DUP3 AND PUSH1 0x0 SWAP1 DUP2 MSTORE PUSH1 0x6 PUSH1 0x20 SWAP1 DUP2 MSTORE PUSH1 0x40 DUP1 DUP4 KECCAK256 PUSH1 0x1 DUP1 DUP6 MSTORE SWAP3 MSTORE SWAP1 SWAP2 KECCAK256 SLOAD PUSH1 0xFF AND ISZERO ISZERO EQ PUSH2 0x1376 JUMPI PUSH1 0x40 DUP1 MLOAD PUSH3 0x461BCD PUSH1 0xE5 SHL DUP2 MSTORE PUSH1 0x20 PUSH1 0x4 DUP3 ADD MSTORE PUSH1 0x24 DUP2 ADD SWAP2 SWAP1 SWAP2 MSTORE PUSH32 0x6F6E6C79206964656E7469746965732077686F2070726F76696465642070726F PUSH1 0x44 DUP3 ADD MSTORE PUSH32 0x6F662061726520616C6C6F77656420746F207265636569766520746F6B656E73 PUSH1 0x64 DUP3 ADD MSTORE PUSH1 0x84 ADD PUSH2 0x792 JUMP JUMPDEST PUSH1 0x0 PUSH2 0x545 PUSH2 0x181A PUSH2 0x1815 DUP5 PUSH1 0x0 DUP2 SWAP1 POP PUSH1 0x8 DUP2 PUSH31 0xFF00FF00FF00FF00FF00FF00FF00FF00FF00FF00FF00FF00FF00FF00FF00FF AND SWAP1 SHL PUSH1 0x8 DUP3 PUSH32 0xFF00FF00FF00FF00FF00FF00FF00FF00FF00FF00FF00FF00FF00FF00FF00FF00 AND SWAP1 SHR OR SWAP1 POP PUSH1 0x10 DUP2 PUSH30 0xFFFF0000FFFF0000FFFF0000FFFF0000FFFF0000FFFF0000FFFF0000FFFF AND SWAP1 SHL PUSH1 0x10 DUP3 PUSH32 0xFFFF0000FFFF0000FFFF0000FFFF0000FFFF0000FFFF0000FFFF0000FFFF0000 AND SWAP1 SHR OR SWAP1 POP PUSH1 0x20 DUP2 PUSH28 0xFFFFFFFF00000000FFFFFFFF00000000FFFFFFFF00000000FFFFFFFF AND SWAP1 SHL PUSH1 0x20 DUP3 PUSH32 0xFFFFFFFF00000000FFFFFFFF00000000FFFFFFFF00000000FFFFFFFF00000000 AND SWAP1 SHR OR SWAP1 POP PUSH1 0x40 DUP2 PUSH24 0xFFFFFFFFFFFFFFFF0000000000000000FFFFFFFFFFFFFFFF AND SWAP1 SHL PUSH1 0x40 DUP3 PUSH24 0xFFFFFFFFFFFFFFFF0000000000000000FFFFFFFFFFFFFFFF NOT AND SWAP1 SHR OR SWAP1 POP PUSH1 0x80 DUP2 SWAP1 SHL PUSH1 0x80 DUP3 SWAP1 SHR OR SWAP1 POP SWAP2 SWAP1 POP JUMP JUMPDEST PUSH2 0x1821 JUMP JUMPDEST PUSH1 0x14 ADD MLOAD SWAP1 JUMP JUMPDEST PUSH1 0x40 DUP1 MLOAD PUSH1 0x20 DUP1 DUP3 MSTORE DUP2 DUP4 ADD SWAP1 SWAP3 MSTORE PUSH1 0x60 SWAP2 PUSH1 0x20 DUP3 ADD DUP2 DUP1 CALLDATASIZE DUP4 CALLDATACOPY POP POP POP PUSH1 0x20 DUP2 ADD SWAP3 SWAP1 SWAP3 MSTORE POP SWAP1 JUMP JUMPDEST DUP3 DUP1 SLOAD DUP3 DUP3 SSTORE SWAP1 PUSH1 0x0 MSTORE PUSH1 0x20 PUSH1 0x0 KECCAK256 SWAP1 DUP2 ADD SWAP3 DUP3 ISZERO PUSH2 0x1886 JUMPI SWAP2 PUSH1 0x20 MUL DUP3 ADD JUMPDEST DUP3 DUP2 GT ISZERO PUSH2 0x1886 JUMPI DUP3 MLOAD DUP3 SSTORE SWAP2 PUSH1 0x20 ADD SWAP2 SWAP1 PUSH1 0x1 ADD SWAP1 PUSH2 0x186B JUMP JUMPDEST POP PUSH2 0x1892 SWAP3 SWAP2 POP PUSH2 0x1896 JUMP JUMPDEST POP SWAP1 JUMP JUMPDEST JUMPDEST DUP1 DUP3 GT ISZERO PUSH2 0x1892 JUMPI PUSH1 0x0 DUP2 SSTORE PUSH1 0x1 ADD PUSH2 0x1897 JUMP JUMPDEST PUSH1 0x0 DUP2 MLOAD DUP1 DUP5 MSTORE PUSH1 0x20 PUSH1 0x0 JUMPDEST DUP3 DUP2 LT ISZERO PUSH2 0x18D2 JUMPI DUP5 DUP2 ADD DUP3 ADD MLOAD DUP7 DUP3 ADD DUP4 ADD MSTORE DUP2 ADD PUSH2 0x18B7 JUMP JUMPDEST POP PUSH1 0x0 DUP6 DUP4 ADD DUP3 ADD MSTORE PUSH1 0x1F SWAP1 SWAP2 ADD PUSH1 0x1F NOT AND SWAP1 SWAP4 ADD SWAP1 SWAP3 ADD SWAP3 SWAP2 POP POP JUMP JUMPDEST PUSH1 0x20 DUP2 MSTORE PUSH1 0x0 PUSH2 0x1903 PUSH1 0x20 DUP4 ADD DUP5 PUSH2 0x18AB JUMP JUMPDEST SWAP4 SWAP3 POP POP POP JUMP JUMPDEST PUSH1 0x1 PUSH1 0x1 PUSH1 0xA0 SHL SUB DUP2 AND DUP2 EQ PUSH2 0x63A JUMPI PUSH1 0x0 DUP1 REVERT JUMPDEST PUSH1 0x0 DUP1 PUSH1 0x40 DUP4 DUP6 SUB SLT ISZERO PUSH2 0x1932 JUMPI PUSH1 0x0 DUP1 REVERT JUMPDEST DUP3 CALLDATALOAD PUSH2 0x193D DUP2 PUSH2 0x190A JUMP JUMPDEST SWAP5 PUSH1 0x20 SWAP4 SWAP1 SWAP4 ADD CALLDATALOAD SWAP4 POP POP POP JUMP JUMPDEST PUSH1 0x0 DUP1 PUSH1 0x0 PUSH1 0x60 DUP5 DUP7 SUB SLT ISZERO PUSH2 0x1960 JUMPI PUSH1 0x0 DUP1 REVERT JUMPDEST DUP4 CALLDATALOAD PUSH2 0x196B DUP2 PUSH2 0x190A JUMP JUMPDEST SWAP3 POP PUSH1 0x20 DUP5 ADD CALLDATALOAD PUSH2 0x197B DUP2 PUSH2 0x190A JUMP JUMPDEST SWAP3 SWAP6 SWAP3 SWAP5 POP POP POP PUSH1 0x40 SWAP2 SWAP1 SWAP2 ADD CALLDATALOAD SWAP1 JUMP JUMPDEST PUSH1 0x0 PUSH1 0x20 DUP3 DUP5 SUB SLT ISZERO PUSH2 0x199E JUMPI PUSH1 0x0 DUP1 REVERT JUMPDEST POP CALLDATALOAD SWAP2 SWAP1 POP JUMP JUMPDEST PUSH1 0x20 DUP1 DUP3 MSTORE DUP3 MLOAD DUP3 DUP3 ADD DUP2 SWAP1 MSTORE PUSH1 0x0 SWAP2 SWAP1 DUP5 DUP3 ADD SWAP1 PUSH1 0x40 DUP6 ADD SWAP1 DUP5 JUMPDEST DUP2 DUP2 LT ISZERO PUSH2 0x19E6 JUMPI DUP4 MLOAD PUSH1 0x1 PUSH1 0x1 PUSH1 0x40 SHL SUB AND DUP4 MSTORE SWAP3 DUP5 ADD SWAP3 SWAP2 DUP5 ADD SWAP2 PUSH1 0x1 ADD PUSH2 0x19C1 JUMP JUMPDEST POP SWAP1 SWAP7 SWAP6 POP POP POP POP POP POP JUMP JUMPDEST PUSH1 0x0 PUSH1 0x20 DUP3 DUP5 SUB SLT ISZERO PUSH2 0x1A04 JUMPI PUSH1 0x0 DUP1 REVERT JUMPDEST DUP2 CALLDATALOAD PUSH2 0x1903 DUP2 PUSH2 0x190A JUMP JUMPDEST DUP1 CALLDATALOAD PUSH1 0x1 PUSH1 0x1 PUSH1 0x40 SHL SUB DUP2 AND DUP2 EQ PUSH2 0x1A26 JUMPI PUSH1 0x0 DUP1 REVERT JUMPDEST SWAP2 SWAP1 POP JUMP JUMPDEST PUSH1 0x0 PUSH1 0x20 DUP3 DUP5 SUB SLT ISZERO PUSH2 0x1A3D JUMPI PUSH1 0x0 DUP1 REVERT JUMPDEST PUSH2 0x1903 DUP3 PUSH2 0x1A0F JUMP JUMPDEST DUP5 DUP2 MSTORE DUP4 PUSH1 0x20 DUP3 ADD MSTORE DUP3 PUSH1 0x40 DUP3 ADD MSTORE PUSH1 0x80 PUSH1 0x60 DUP3 ADD MSTORE PUSH1 0x0 PUSH2 0x1A6B PUSH1 0x80 DUP4 ADD DUP5 PUSH2 0x18AB JUMP JUMPDEST SWAP7 SWAP6 POP POP POP POP POP POP JUMP JUMPDEST PUSH1 0x0 DUP1 PUSH1 0x40 DUP4 DUP6 SUB SLT ISZERO PUSH2 0x1A88 JUMPI PUSH1 0x0 DUP1 REVERT JUMPDEST DUP3 CALLDATALOAD PUSH2 0x1A93 DUP2 PUSH2 0x190A JUMP JUMPDEST SWAP2 POP PUSH2 0x1AA1 PUSH1 0x20 DUP5 ADD PUSH2 0x1A0F JUMP JUMPDEST SWAP1 POP SWAP3 POP SWAP3 SWAP1 POP JUMP JUMPDEST PUSH4 0x4E487B71 PUSH1 0xE0 SHL PUSH1 0x0 MSTORE PUSH1 0x41 PUSH1 0x4 MSTORE PUSH1 0x24 PUSH1 0x0 REVERT JUMPDEST PUSH1 0x40 MLOAD PUSH1 0xA0 DUP2 ADD PUSH1 0x1 PUSH1 0x1 PUSH1 0x40 SHL SUB DUP2 GT DUP3 DUP3 LT OR ISZERO PUSH2 0x1AE2 JUMPI PUSH2 0x1AE2 PUSH2 0x1AAA JUMP JUMPDEST PUSH1 0x40 MSTORE SWAP1 JUMP JUMPDEST PUSH1 0x40 DUP1 MLOAD SWAP1 DUP2 ADD PUSH1 0x1 PUSH1 0x1 PUSH1 0x40 SHL SUB DUP2 GT DUP3 DUP3 LT OR ISZERO PUSH2 0x1AE2 JUMPI PUSH2 0x1AE2 PUSH2 0x1AAA JUMP JUMPDEST PUSH1 0x40 MLOAD PUSH1 0x1F DUP3 ADD PUSH1 0x1F NOT AND DUP2 ADD PUSH1 0x1 PUSH1 0x1 PUSH1 0x40 SHL SUB DUP2 GT DUP3 DUP3 LT OR ISZERO PUSH2 0x1B32 JUMPI PUSH2 0x1B32 PUSH2 0x1AAA JUMP JUMPDEST PUSH1 0x40 MSTORE SWAP2 SWAP1 POP JUMP JUMPDEST PUSH1 0x0 DUP3 PUSH1 0x1F DUP4 ADD SLT PUSH2 0x1B4B JUMPI PUSH1 0x0 DUP1 REVERT JUMPDEST DUP2 CALLDATALOAD PUSH1 0x20 PUSH1 0x1 PUSH1 0x1 PUSH1 0x40 SHL SUB DUP3 GT ISZERO PUSH2 0x1B66 JUMPI PUSH2 0x1B66 PUSH2 0x1AAA JUMP JUMPDEST DUP2 PUSH1 0x5 SHL PUSH2 0x1B75 DUP3 DUP3 ADD PUSH2 0x1B0A JUMP JUMPDEST SWAP3 DUP4 MSTORE DUP5 DUP2 ADD DUP3 ADD SWAP3 DUP3 DUP2 ADD SWAP1 DUP8 DUP6 GT ISZERO PUSH2 0x1B8F JUMPI PUSH1 0x0 DUP1 REVERT JUMPDEST DUP4 DUP8 ADD SWAP3 POP JUMPDEST DUP5 DUP4 LT ISZERO PUSH2 0x1BAE JUMPI DUP3 CALLDATALOAD DUP3 MSTORE SWAP2 DUP4 ADD SWAP2 SWAP1 DUP4 ADD SWAP1 PUSH2 0x1B95 JUMP JUMPDEST SWAP8 SWAP7 POP POP POP POP POP POP POP JUMP JUMPDEST PUSH1 0x0 DUP3 PUSH1 0x1F DUP4 ADD SLT PUSH2 0x1BCA JUMPI PUSH1 0x0 DUP1 REVERT JUMPDEST PUSH2 0x1BD2 PUSH2 0x1AE8 JUMP JUMPDEST DUP1 PUSH1 0x40 DUP5 ADD DUP6 DUP2 GT ISZERO PUSH2 0x1BE4 JUMPI PUSH1 0x0 DUP1 REVERT JUMPDEST DUP5 JUMPDEST DUP2 DUP2 LT ISZERO PUSH2 0x1BFE JUMPI DUP1 CALLDATALOAD DUP5 MSTORE PUSH1 0x20 SWAP4 DUP5 ADD SWAP4 ADD PUSH2 0x1BE6 JUMP JUMPDEST POP SWAP1 SWAP6 SWAP5 POP POP POP POP POP JUMP JUMPDEST PUSH1 0x0 DUP1 PUSH1 0x0 DUP1 PUSH1 0x0 PUSH2 0x140 DUP7 DUP9 SUB SLT ISZERO PUSH2 0x1C22 JUMPI PUSH1 0x0 DUP1 REVERT JUMPDEST PUSH2 0x1C2B DUP7 PUSH2 0x1A0F JUMP JUMPDEST SWAP5 POP PUSH1 0x20 DUP1 DUP8 ADD CALLDATALOAD PUSH1 0x1 PUSH1 0x1 PUSH1 0x40 SHL SUB DUP2 GT ISZERO PUSH2 0x1C47 JUMPI PUSH1 0x0 DUP1 REVERT JUMPDEST PUSH2 0x1C53 DUP10 DUP3 DUP11 ADD PUSH2 0x1B3A JUMP JUMPDEST SWAP6 POP POP PUSH1 0x40 PUSH2 0x1C64 DUP10 DUP3 DUP11 ADD PUSH2 0x1BB9 JUMP JUMPDEST SWAP5 POP DUP9 PUSH1 0x9F DUP10 ADD SLT PUSH2 0x1C75 JUMPI PUSH1 0x0 DUP1 REVERT JUMPDEST PUSH2 0x1C7D PUSH2 0x1AE8 JUMP JUMPDEST DUP1 PUSH2 0x100 DUP11 ADD DUP12 DUP2 GT ISZERO PUSH2 0x1C90 JUMPI PUSH1 0x0 DUP1 REVERT JUMPDEST PUSH1 0x80 DUP12 ADD JUMPDEST DUP2 DUP2 LT ISZERO PUSH2 0x1CB4 JUMPI PUSH2 0x1CA7 DUP14 DUP3 PUSH2 0x1BB9 JUMP JUMPDEST DUP5 MSTORE SWAP3 DUP6 ADD SWAP3 DUP5 ADD PUSH2 0x1C95 JUMP JUMPDEST POP DUP2 SWAP7 POP PUSH2 0x1CC2 DUP13 DUP3 PUSH2 0x1BB9 JUMP JUMPDEST SWAP6 POP POP POP POP POP POP SWAP3 SWAP6 POP SWAP3 SWAP6 SWAP1 SWAP4 POP JUMP JUMPDEST PUSH1 0x0 DUP2 MLOAD DUP1 DUP5 MSTORE PUSH1 0x20 DUP1 DUP6 ADD SWAP5 POP DUP1 DUP5 ADD PUSH1 0x0 JUMPDEST DUP4 DUP2 LT ISZERO PUSH2 0x1D03 JUMPI DUP2 MLOAD DUP8 MSTORE SWAP6 DUP3 ADD SWAP6 SWAP1 DUP3 ADD SWAP1 PUSH1 0x1 ADD PUSH2 0x1CE7 JUMP JUMPDEST POP SWAP5 SWAP6 SWAP5 POP POP POP POP POP JUMP JUMPDEST PUSH1 0x20 DUP2 MSTORE DUP2 MLOAD PUSH1 0x20 DUP3 ADD MSTORE PUSH1 0x20 DUP3 ADD MLOAD PUSH1 0x40 DUP3 ADD MSTORE PUSH1 0x40 DUP3 ADD MLOAD PUSH1 0x60 DUP3 ADD MSTORE PUSH1 0x0 PUSH1 0x60 DUP4 ADD MLOAD PUSH1 0xA0 PUSH1 0x80 DUP5 ADD MSTORE PUSH2 0x1D48 PUSH1 0xC0 DUP5 ADD DUP3 PUSH2 0x1CD3 JUMP JUMPDEST SWAP1 POP PUSH1 0x80 DUP5 ADD MLOAD PUSH1 0x1F NOT DUP5 DUP4 SUB ADD PUSH1 0xA0 DUP6 ADD MSTORE PUSH2 0x1D65 DUP3 DUP3 PUSH2 0x18AB JUMP JUMPDEST SWAP6 SWAP5 POP POP POP POP POP JUMP JUMPDEST PUSH1 0x0 DUP1 PUSH1 0x40 DUP4 DUP6 SUB SLT ISZERO PUSH2 0x1D81 JUMPI PUSH1 0x0 DUP1 REVERT JUMPDEST DUP3 CALLDATALOAD PUSH2 0x1D8C DUP2 PUSH2 0x190A JUMP JUMPDEST SWAP2 POP PUSH1 0x20 DUP4 ADD CALLDATALOAD PUSH2 0x1D9C DUP2 PUSH2 0x190A JUMP JUMPDEST DUP1 SWAP2 POP POP SWAP3 POP SWAP3 SWAP1 POP JUMP JUMPDEST PUSH1 0x0 DUP1 PUSH1 0x0 PUSH1 0x60 DUP5 DUP7 SUB SLT ISZERO PUSH2 0x1DBC JUMPI PUSH1 0x0 DUP1 REVERT JUMPDEST PUSH2 0x1DC5 DUP5 PUSH2 0x1A0F JUMP JUMPDEST SWAP3 POP PUSH1 0x20 DUP1 DUP6 ADD CALLDATALOAD PUSH2 0x1DD6 DUP2 PUSH2 0x190A JUMP JUMPDEST SWAP3 POP PUSH1 0x40 DUP6 ADD CALLDATALOAD PUSH1 0x1 PUSH1 0x1 PUSH1 0x40 SHL SUB DUP1 DUP3 GT ISZERO PUSH2 0x1DF2 JUMPI PUSH1 0x0 DUP1 REVERT JUMPDEST SWAP1 DUP7 ADD SWAP1 PUSH1 0xA0 DUP3 DUP10 SUB SLT ISZERO PUSH2 0x1E06 JUMPI PUSH1 0x0 DUP1 REVERT JUMPDEST PUSH2 0x1E0E PUSH2 0x1AC0 JUMP JUMPDEST DUP3 CALLDATALOAD DUP2 MSTORE DUP4 DUP4 ADD CALLDATALOAD DUP5 DUP3 ADD MSTORE PUSH1 0x40 DUP4 ADD CALLDATALOAD PUSH1 0x40 DUP3 ADD MSTORE PUSH1 0x60 DUP4 ADD CALLDATALOAD DUP3 DUP2 GT ISZERO PUSH2 0x1E36 JUMPI PUSH1 0x0 DUP1 REVERT JUMPDEST PUSH2 0x1E42 DUP11 DUP3 DUP7 ADD PUSH2 0x1B3A JUMP JUMPDEST PUSH1 0x60 DUP4 ADD MSTORE POP PUSH1 0x80 DUP4 ADD CALLDATALOAD DUP3 DUP2 GT ISZERO PUSH2 0x1E5A JUMPI PUSH1 0x0 DUP1 REVERT JUMPDEST DUP1 DUP5 ADD SWAP4 POP POP DUP9 PUSH1 0x1F DUP5 ADD SLT PUSH2 0x1E6F JUMPI PUSH1 0x0 DUP1 REVERT JUMPDEST DUP3 CALLDATALOAD DUP3 DUP2 GT ISZERO PUSH2 0x1E81 JUMPI PUSH2 0x1E81 PUSH2 0x1AAA JUMP JUMPDEST PUSH2 0x1E93 PUSH1 0x1F DUP3 ADD PUSH1 0x1F NOT AND DUP7 ADD PUSH2 0x1B0A JUMP JUMPDEST SWAP3 POP DUP1 DUP4 MSTORE DUP10 DUP6 DUP3 DUP7 ADD ADD GT ISZERO PUSH2 0x1EA9 JUMPI PUSH1 0x0 DUP1 REVERT JUMPDEST DUP1 DUP6 DUP6 ADD DUP7 DUP6 ADD CALLDATACOPY PUSH1 0x0 DUP6 DUP3 DUP6 ADD ADD MSTORE POP DUP2 PUSH1 0x80 DUP3 ADD MSTORE DUP1 SWAP5 POP POP POP POP POP SWAP3 POP SWAP3 POP SWAP3 JUMP JUMPDEST PUSH1 0x1 DUP2 DUP2 SHR SWAP1 DUP3 AND DUP1 PUSH2 0x1EE2 JUMPI PUSH1 0x7F DUP3 AND SWAP2 POP JUMPDEST PUSH1 0x20 DUP3 LT DUP2 SUB PUSH2 0x1F02 JUMPI PUSH4 0x4E487B71 PUSH1 0xE0 SHL PUSH1 0x0 MSTORE PUSH1 0x22 PUSH1 0x4 MSTORE PUSH1 0x24 PUSH1 0x0 REVERT JUMPDEST POP SWAP2 SWAP1 POP JUMP JUMPDEST DUP1 DUP3 ADD DUP1 DUP3 GT ISZERO PUSH2 0x545 JUMPI PUSH4 0x4E487B71 PUSH1 0xE0 SHL PUSH1 0x0 MSTORE PUSH1 0x11 PUSH1 0x4 MSTORE PUSH1 0x24 PUSH1 0x0 REVERT JUMPDEST DUP1 PUSH1 0x0 JUMPDEST PUSH1 0x2 DUP2 LT ISZERO PUSH2 0xF66 JUMPI DUP2 MLOAD DUP5 MSTORE PUSH1 0x20 SWAP4 DUP5 ADD SWAP4 SWAP1 SWAP2 ADD SWAP1 PUSH1 0x1 ADD PUSH2 0x1F2D JUMP JUMPDEST PUSH1 0x0 DUP2 SLOAD PUSH2 0x1F59 DUP2 PUSH2 0x1ECE JUMP JUMPDEST DUP1 DUP6 MSTORE PUSH1 0x20 PUSH1 0x1 DUP4 DUP2 AND DUP1 ISZERO PUSH2 0x1F76 JUMPI PUSH1 0x1 DUP2 EQ PUSH2 0x1F90 JUMPI PUSH2 0x1FBE JUMP JUMPDEST PUSH1 0xFF NOT DUP6 AND DUP9 DUP5 ADD MSTORE DUP4 ISZERO ISZERO PUSH1 0x5 SHL DUP9 ADD DUP4 ADD SWAP6 POP PUSH2 0x1FBE JUMP JUMPDEST DUP7 PUSH1 0x0 MSTORE DUP3 PUSH1 0x0 KECCAK256 PUSH1 0x0 JUMPDEST DUP6 DUP2 LT ISZERO PUSH2 0x1FB6 JUMPI DUP2 SLOAD DUP11 DUP3 ADD DUP7 ADD MSTORE SWAP1 DUP4 ADD SWAP1 DUP5 ADD PUSH2 0x1F9B JUMP JUMPDEST DUP10 ADD DUP5 ADD SWAP7 POP POP JUMPDEST POP POP POP POP POP SWAP3 SWAP2 POP POP JUMP JUMPDEST PUSH1 0x0 PUSH2 0x140 DUP1 DUP4 MSTORE PUSH2 0x1FDD DUP2 DUP5 ADD DUP10 PUSH2 0x1CD3 JUMP JUMPDEST SWAP1 POP PUSH1 0x20 PUSH2 0x1FED DUP2 DUP6 ADD DUP10 PUSH2 0x1F29 JUMP JUMPDEST PUSH1 0x60 DUP5 ADD DUP8 PUSH1 0x0 JUMPDEST PUSH1 0x2 DUP2 LT ISZERO PUSH2 0x201C JUMPI PUSH2 0x2009 DUP4 DUP4 MLOAD PUSH2 0x1F29 JUMP JUMPDEST PUSH1 0x40 SWAP3 SWAP1 SWAP3 ADD SWAP2 SWAP1 DUP4 ADD SWAP1 PUSH1 0x1 ADD PUSH2 0x1FF5 JUMP JUMPDEST POP POP POP PUSH2 0x202C PUSH1 0xE0 DUP6 ADD DUP8 PUSH2 0x1F29 JUMP JUMPDEST DUP4 DUP3 SUB PUSH2 0x120 DUP6 ADD MSTORE DUP5 SLOAD DUP3 MSTORE PUSH1 0x1 DUP1 DUP7 ADD SLOAD DUP3 DUP5 ADD MSTORE PUSH1 0x2 DUP7 ADD SLOAD PUSH1 0x40 DUP5 ADD MSTORE PUSH1 0xA0 PUSH1 0x60 DUP5 ADD DUP2 SWAP1 MSTORE PUSH1 0x3 DUP8 ADD DUP1 SLOAD SWAP2 DUP6 ADD DUP3 SWAP1 MSTORE PUSH1 0x0 SWAP1 DUP2 MSTORE DUP4 DUP2 KECCAK256 SWAP3 SWAP2 PUSH1 0xC0 DUP7 ADD SWAP1 JUMPDEST DUP1 DUP4 LT ISZERO PUSH2 0x208F JUMPI DUP5 SLOAD DUP3 MSTORE SWAP4 DUP4 ADD SWAP4 SWAP2 DUP4 ADD SWAP2 SWAP1 DUP6 ADD SWAP1 PUSH2 0x2072 JUMP JUMPDEST POP DUP6 DUP2 SUB PUSH1 0x80 DUP8 ADD MSTORE PUSH2 0x20A5 DUP2 PUSH1 0x4 DUP12 ADD PUSH2 0x1F4C JUMP JUMPDEST SWAP14 SWAP13 POP POP POP POP POP POP POP POP POP POP POP POP POP JUMP JUMPDEST PUSH1 0x0 PUSH1 0x20 DUP3 DUP5 SUB SLT ISZERO PUSH2 0x20C8 JUMPI PUSH1 0x0 DUP1 REVERT JUMPDEST DUP2 MLOAD DUP1 ISZERO ISZERO DUP2 EQ PUSH2 0x1903 JUMPI PUSH1 0x0 DUP1 REVERT JUMPDEST PUSH1 0x1F DUP3 GT ISZERO PUSH2 0x1376 JUMPI PUSH1 0x0 DUP2 DUP2 MSTORE PUSH1 0x20 DUP2 KECCAK256 PUSH1 0x1F DUP6 ADD PUSH1 0x5 SHR DUP2 ADD PUSH1 0x20 DUP7 LT ISZERO PUSH2 0x20FF JUMPI POP DUP1 JUMPDEST PUSH1 0x1F DUP6 ADD PUSH1 0x5 SHR DUP3 ADD SWAP2 POP JUMPDEST DUP2 DUP2 LT ISZERO PUSH2 0x211E JUMPI DUP3 DUP2 SSTORE PUSH1 0x1 ADD PUSH2 0x210B JUMP JUMPDEST POP POP POP POP POP POP JUMP JUMPDEST DUP2 MLOAD PUSH1 0x1 PUSH1 0x1 PUSH1 0x40 SHL SUB DUP2 GT ISZERO PUSH2 0x213F JUMPI PUSH2 0x213F PUSH2 0x1AAA JUMP JUMPDEST PUSH2 0x2153 DUP2 PUSH2 0x214D DUP5 SLOAD PUSH2 0x1ECE JUMP JUMPDEST DUP5 PUSH2 0x20D8 JUMP JUMPDEST PUSH1 0x20 DUP1 PUSH1 0x1F DUP4 GT PUSH1 0x1 DUP2 EQ PUSH2 0x2188 JUMPI PUSH1 0x0 DUP5 ISZERO PUSH2 0x2170 JUMPI POP DUP6 DUP4 ADD MLOAD JUMPDEST PUSH1 0x0 NOT PUSH1 0x3 DUP7 SWAP1 SHL SHR NOT AND PUSH1 0x1 DUP6 SWAP1 SHL OR DUP6 SSTORE PUSH2 0x211E JUMP JUMPDEST PUSH1 0x0 DUP6 DUP2 MSTORE PUSH1 0x20 DUP2 KECCAK256 PUSH1 0x1F NOT DUP7 AND SWAP2 JUMPDEST DUP3 DUP2 LT ISZERO PUSH2 0x21B7 JUMPI DUP9 DUP7 ADD MLOAD DUP3 SSTORE SWAP5 DUP5 ADD SWAP5 PUSH1 0x1 SWAP1 SWAP2 ADD SWAP1 DUP5 ADD PUSH2 0x2198 JUMP JUMPDEST POP DUP6 DUP3 LT ISZERO PUSH2 0x21D5 JUMPI DUP8 DUP6 ADD MLOAD PUSH1 0x0 NOT PUSH1 0x3 DUP9 SWAP1 SHL PUSH1 0xF8 AND SHR NOT AND DUP2 SSTORE JUMPDEST POP POP POP POP POP PUSH1 0x1 SWAP1 DUP2 SHL ADD SWAP1 SSTORE POP JUMP JUMPDEST PUSH1 0x0 PUSH1 0x20 DUP3 DUP5 SUB SLT ISZERO PUSH2 0x21F7 JUMPI PUSH1 0x0 DUP1 REVERT JUMPDEST POP MLOAD SWAP2 SWAP1 POP JUMP JUMPDEST PUSH4 0x4E487B71 PUSH1 0xE0 SHL PUSH1 0x0 MSTORE PUSH1 0x32 PUSH1 0x4 MSTORE PUSH1 0x24 PUSH1 0x0 REVERT INVALID LOG2 PUSH5 0x6970667358 0x22 SLT KECCAK256 0xE3 0xED DUP15 CREATE2 CALLCODE 0xDF 0x2E EXTCODESIZE CALLER 0xC2 AND SWAP2 BALANCE 0x21 DIV 0xE8 SWAP8 PUSH23 0x8FFD11FE260DE6E373732334751E64736F6C6343000811 STOP CALLER "},"methodIdentifiers":{"TOKEN_AMOUNT_FOR_AIRDROP_PER_ID()":"7042f36b","TRANSFER_REQUEST_ID()":"63ec508f","addressToId(address)":"cb0e0d7d","allowance(address,address)":"dd62ed3e","approve(address,uint256)":"095ea7b3","balanceOf(address)":"70a08231","burn(uint256)":"42966c68","burnFrom(address,uint256)":"79cc6790","decimals()":"313ce567","decreaseAllowance(address,uint256)":"a457c2d7","getSupportedRequests()":"37ba9523","getZKPRequest(uint64)":"c76d0845","idToAddress(uint256)":"2a2d0c47","increaseAllowance(address,uint256)":"39509351","mint(address,uint256)":"40c10f19","name()":"06fdde03","owner()":"8da5cb5b","proofs(address,uint64)":"b45c0fdf","renounceOwnership()":"715018a6","requestQueries(uint64)":"96bf4741","requestValidators(uint64)":"a8723114","setZKPRequest(uint64,address,(uint256,uint256,uint256,uint256[],string))":"fee207e6","submitZKPResponse(uint64,uint256[],uint256[2],uint256[2][2],uint256[2])":"b68967e2","supportedRequests(uint256)":"f1435326","symbol()":"95d89b41","totalSupply()":"18160ddd","transfer(address,uint256)":"a9059cbb","transferFrom(address,address,uint256)":"23b872dd","transferOwnership(address)":"f2fde38b"}}}}}