{"contracts/ERC20Verifier.sol":{"PrimeToadToken":{"abi":[{"inputs":[],"stateMutability":"nonpayable","type":"constructor"},{"anonymous":false,"inputs":[{"indexed":true,"internalType":"address","name":"owner","type":"address"},{"indexed":true,"internalType":"address","name":"spender","type":"address"},{"indexed":false,"internalType":"uint256","name":"value","type":"uint256"}],"name":"Approval","type":"event"},{"anonymous":false,"inputs":[{"indexed":true,"internalType":"address","name":"previousOwner","type":"address"},{"indexed":true,"internalType":"address","name":"newOwner","type":"address"}],"name":"OwnershipTransferred","type":"event"},{"anonymous":false,"inputs":[{"indexed":true,"internalType":"address","name":"from","type":"address"},{"indexed":true,"internalType":"address","name":"to","type":"address"},{"indexed":false,"internalType":"uint256","name":"value","type":"uint256"}],"name":"Transfer","type":"event"},{"inputs":[],"name":"TOKEN_AMOUNT_FOR_AIRDROP_PER_ID","outputs":[{"internalType":"uint256","name":"","type":"uint256"}],"stateMutability":"view","type":"function"},{"inputs":[],"name":"TRANSFER_REQUEST_ID","outputs":[{"internalType":"uint64","name":"","type":"uint64"}],"stateMutability":"view","type":"function"},{"inputs":[{"internalType":"address","name":"","type":"address"}],"name":"addressToId","outputs":[{"internalType":"uint256","name":"","type":"uint256"}],"stateMutability":"view","type":"function"},{"inputs":[{"internalType":"address","name":"owner","type":"address"},{"internalType":"address","name":"spender","type":"address"}],"name":"allowance","outputs":[{"internalType":"uint256","name":"","type":"uint256"}],"stateMutability":"view","type":"function"},{"inputs":[{"internalType":"address","name":"spender","type":"address"},{"internalType":"uint256","name":"amount","type":"uint256"}],"name":"approve","outputs":[{"internalType":"bool","name":"","type":"bool"}],"stateMutability":"nonpayable","type":"function"},{"inputs":[{"internalType":"address","name":"account","type":"address"}],"name":"balanceOf","outputs":[{"internalType":"uint256","name":"","type":"uint256"}],"stateMutability":"view","type":"function"},{"inputs":[{"internalType":"uint256","name":"amount","type":"uint256"}],"name":"burn","outputs":[],"stateMutability":"nonpayable","type":"function"},{"inputs":[{"internalType":"address","name":"account","type":"address"},{"internalType":"uint256","name":"amount","type":"uint256"}],"name":"burnFrom","outputs":[],"stateMutability":"nonpayable","type":"function"},{"inputs":[],"name":"decimals","outputs":[{"internalType":"uint8","name":"","type":"uint8"}],"stateMutability":"view","type":"function"},{"inputs":[{"internalType":"address","name":"spender","type":"address"},{"internalType":"uint256","name":"subtractedValue","type":"uint256"}],"name":"decreaseAllowance","outputs":[{"internalType":"bool","name":"","type":"bool"}],"stateMutability":"nonpayable","type":"function"},{"inputs":[],"name":"getSupportedRequests","outputs":[{"internalType":"uint64[]","name":"arr","type":"uint64[]"}],"stateMutability":"view","type":"function"},{"inputs":[{"internalType":"uint64","name":"requestId","type":"uint64"}],"name":"getZKPRequest","outputs":[{"components":[{"internalType":"uint256","name":"schema","type":"uint256"},{"internalType":"uint256","name":"slotIndex","type":"uint256"},{"internalType":"uint256","name":"operator","type":"uint256"},{"internalType":"uint256[]","name":"value","type":"uint256[]"},{"internalType":"string","name":"circuitId","type":"string"}],"internalType":"struct ICircuitValidator.CircuitQuery","name":"","type":"tuple"}],"stateMutability":"view","type":"function"},{"inputs":[{"internalType":"uint256","name":"","type":"uint256"}],"name":"idToAddress","outputs":[{"internalType":"address","name":"","type":"address"}],"stateMutability":"view","type":"function"},{"inputs":[{"internalType":"address","name":"spender","type":"address"},{"internalType":"uint256","name":"addedValue","type":"uint256"}],"name":"increaseAllowance","outputs":[{"internalType":"bool","name":"","type":"bool"}],"stateMutability":"nonpayable","type":"function"},{"inputs":[{"internalType":"address","name":"to","type":"address"},{"internalType":"uint256","name":"amount","type":"uint256"}],"name":"mint","outputs":[],"stateMutability":"nonpayable","type":"function"},{"inputs":[],"name":"name","outputs":[{"internalType":"string","name":"","type":"string"}],"stateMutability":"view","type":"function"},{"inputs":[],"name":"owner","outputs":[{"internalType":"address","name":"","type":"address"}],"stateMutability":"view","type":"function"},{"inputs":[{"internalType":"address","name":"","type":"address"},{"internalType":"uint64","name":"","type":"uint64"}],"name":"proofs","outputs":[{"internalType":"bool","name":"","type":"bool"}],"stateMutability":"view","type":"function"},{"inputs":[],"name":"renounceOwnership","outputs":[],"stateMutability":"nonpayable","type":"function"},{"inputs":[{"internalType":"uint64","name":"","type":"uint64"}],"name":"requestQueries","outputs":[{"internalType":"uint256","name":"schema","type":"uint256"},{"internalType":"uint256","name":"slotIndex","type":"uint256"},{"internalType":"uint256","name":"operator","type":"uint256"},{"internalType":"string","name":"circuitId","type":"string"}],"stateMutability":"view","type":"function"},{"inputs":[{"internalType":"uint64","name":"","type":"uint64"}],"name":"requestValidators","outputs":[{"internalType":"contract ICircuitValidator","name":"","type":"address"}],"stateMutability":"view","type":"function"},{"inputs":[{"internalType":"uint64","name":"requestId","type":"uint64"},{"internalType":"contract ICircuitValidator","name":"validator","type":"address"},{"components":[{"internalType":"uint256","name":"schema","type":"uint256"},{"internalType":"uint256","name":"slotIndex","type":"uint256"},{"internalType":"uint256","name":"operator","type":"uint256"},{"internalType":"uint256[]","name":"value","type":"uint256[]"},{"internalType":"string","name":"circuitId","type":"string"}],"internalType":"struct ICircuitValidator.CircuitQuery","name":"query","type":"tuple"}],"name":"setZKPRequest","outputs":[{"internalType":"bool","name":"","type":"bool"}],"stateMutability":"nonpayable","type":"function"},{"inputs":[{"internalType":"uint64","name":"requestId","type":"uint64"},{"internalType":"uint256[]","name":"inputs","type":"uint256[]"},{"internalType":"uint256[2]","name":"a","type":"uint256[2]"},{"internalType":"uint256[2][2]","name":"b","type":"uint256[2][2]"},{"internalType":"uint256[2]","name":"c","type":"uint256[2]"}],"name":"submitZKPResponse","outputs":[{"internalType":"bool","name":"","type":"bool"}],"stateMutability":"nonpayable","type":"function"},{"inputs":[{"internalType":"uint256","name":"","type":"uint256"}],"name":"supportedRequests","outputs":[{"internalType":"uint64","name":"","type":"uint64"}],"stateMutability":"view","type":"function"},{"inputs":[],"name":"symbol","outputs":[{"internalType":"string","name":"","type":"string"}],"stateMutability":"view","type":"function"},{"inputs":[],"name":"totalSupply","outputs":[{"internalType":"uint256","name":"","type":"uint256"}],"stateMutability":"view","type":"function"},{"inputs":[{"internalType":"address","name":"to","type":"address"},{"internalType":"uint256","name":"amount","type":"uint256"}],"name":"transfer","outputs":[{"internalType":"bool","name":"","type":"bool"}],"stateMutability":"nonpayable","type":"function"},{"inputs":[{"internalType":"address","name":"from","type":"address"},{"internalType":"address","name":"to","type":"address"},{"internalType":"uint256","name":"amount","type":"uint256"}],"name":"transferFrom","outputs":[{"internalType":"bool","name":"","type":"bool"}],"stateMutability":"nonpayable","type":"function"},{"inputs":[{"internalType":"address","name":"newOwner","type":"address"}],"name":"transferOwnership","outputs":[],"stateMutability":"nonpayable","type":"function"}],"evm":{"bytecode":{"linkReferences":{},"object":"60806040526200000e62000103565b6200001e9060ff16600a6200041c565b6200002b90600562000520565b600a553480156200003b57600080fd5b506040518060400160405280601081526020016f283934b6b2902a37b0b2102a37b5b2b760811b8152506040518060400160405280600381526020016214151560ea1b81525081600390805190602001906200009992919062000270565b508051620000af90600490602084019062000270565b505050620000cc620000c66200010860201b60201c565b6200010c565b620000fd33620000db62000103565b620000e890600a62000434565b620000f790620f424062000520565b6200015e565b62000595565b601290565b3390565b600580546001600160a01b038381166001600160a01b0319831681179093556040519116919082907f8be0079c531659141344cd1fd0a4f28419497f9722a3daafe3b4186f6b6457e090600090a35050565b6001600160a01b038216620001905760405162461bcd60e51b8152600401620001879062000374565b60405180910390fd5b6200019e6000838362000220565b8060026000828254620001b29190620003b4565b90915550506001600160a01b038216600081815260208190526040808220805485019055517fddf252ad1be2c89b69c2b068fc378daa952ba7f163c4a11628f55a4df523b3ef9062000206908590620003ab565b60405180910390a36200021c600083836200026b565b5050565b6001600160a01b0382166000908152600660209081526040808320600180855292529091205460ff161515146200026b5760405162461bcd60e51b8152600401620001879062000316565b505050565b8280546200027e9062000542565b90600052602060002090601f016020900481019282620002a25760008555620002ed565b82601f10620002bd57805160ff1916838001178555620002ed565b82800160010185558215620002ed579182015b82811115620002ed578251825591602001919060010190620002d0565b50620002fb929150620002ff565b5090565b5b80821115620002fb576000815560010162000300565b602080825260409082018190527f6f6e6c79206964656e7469746965732077686f2070726f76696465642070726f908201527f6f662061726520616c6c6f77656420746f207265636569766520746f6b656e73606082015260800190565b6020808252601f908201527f45524332303a206d696e7420746f20746865207a65726f206164647265737300604082015260600190565b90815260200190565b60008219821115620003ca57620003ca6200057f565b500190565b80825b6001808611620003e3575062000413565b818704821115620003f857620003f86200057f565b808616156200040657918102915b9490941c938002620003d2565b94509492505050565b60006200042d600019848462000443565b9392505050565b60006200042d60001960ff8516845b60008262000454575060016200042d565b8162000463575060006200042d565b81600181146200047c57600281146200048757620004bb565b60019150506200042d565b60ff8411156200049b576200049b6200057f565b6001841b915084821115620004b457620004b46200057f565b506200042d565b5060208310610133831016604e8410600b8410161715620004f3575081810a83811115620004ed57620004ed6200057f565b6200042d565b620005028484846001620003cf565b8086048211156200051757620005176200057f565b02949350505050565b60008160001904831182151516156200053d576200053d6200057f565b500290565b6002810460018216806200055757607f821691505b602082108114156200057957634e487b7160e01b600052602260045260246000fd5b50919050565b634e487b7160e01b600052601160045260246000fd5b61242080620005a56000396000f3fe608060405234801561001057600080fd5b50600436106101cf5760003560e01c806379cc679011610104578063b45c0fdf116100a2578063dd62ed3e11610071578063dd62ed3e146103cf578063f1435326146103e2578063f2fde38b146103f5578063fee207e614610408576101cf565b8063b45c0fdf14610376578063b68967e214610389578063c76d08451461039c578063cb0e0d7d146103bc576101cf565b806396bf4741116100de57806396bf47411461031a578063a457c2d71461033d578063a872311414610350578063a9059cbb14610363576101cf565b806379cc6790146102f75780638da5cb5b1461030a57806395d89b4114610312576101cf565b8063395093511161017157806363ec508f1161014b57806363ec508f146102bf5780637042f36b146102d457806370a08231146102dc578063715018a6146102ef576101cf565b8063395093511461028457806340c10f191461029757806342966c68146102ac576101cf565b806323b872dd116101ad57806323b872dd146102275780632a2d0c471461023a578063313ce5671461025a57806337ba95231461026f576101cf565b806306fdde03146101d4578063095ea7b3146101f257806318160ddd14610212575b600080fd5b6101dc61041b565b6040516101e99190611d87565b60405180910390f35b61020561020036600461185f565b6104ad565b6040516101e99190611d7c565b61021a6104cf565b6040516101e991906122b1565b61020561023536600461181f565b6104d5565b61024d6102483660046118de565b610503565b6040516101e99190611c30565b61026261051e565b6040516101e991906122fd565b610277610523565b6040516101e99190611d2f565b61020561029236600461185f565b6105ac565b6102aa6102a536600461185f565b6105d8565b005b6102aa6102ba3660046118de565b6105ee565b6102c7610602565b6040516101e991906122e9565b61021a610607565b61021a6102ea3660046117c4565b61060d565b6102aa61062c565b6102aa61030536600461185f565b610640565b61024d61065c565b6101dc61066b565b61032d61032836600461190e565b61067a565b6040516101e994939291906122ba565b61020561034b36600461185f565b61072d565b61024d61035e36600461190e565b61077e565b61020561037136600461185f565b610799565b61020561038436600461188a565b6107b1565b610205610397366004611928565b6107d1565b6103af6103aa36600461190e565b61098f565b6040516101e99190612251565b61021a6103ca3660046117c4565b610ac2565b61021a6103dd3660046117e7565b610ad4565b6102c76103f03660046118de565b610aff565b6102aa6104033660046117c4565b610b3c565b610205610416366004611a01565b610b73565b60606003805461042a90612384565b80601f016020809104026020016040519081016040528092919081815260200182805461045690612384565b80156104a35780601f10610478576101008083540402835291602001916104a3565b820191906000526020600020905b81548152906001019060200180831161048657829003601f168201915b5050505050905090565b6000806104b8610cfc565b90506104c5818585610d00565b5060019392505050565b60025490565b6000806104e0610cfc565b90506104ed858285610db4565b6104f8858585610dfe565b506001949350505050565b600b602052600090815260409020546001600160a01b031681565b601290565b606060098054806020026020016040519081016040528092919081815260200182805480156104a357602002820191906000526020600020906000905b82829054906101000a90046001600160401b03166001600160401b0316815260200190600801906020826007010492830192600103820291508084116105605790505050505050905090565b6000806105b7610cfc565b90506104c58185856105c98589610ad4565b6105d39190612360565b610d00565b6105e0610eff565b6105ea8282610f3e565b5050565b6105ff6105f9610cfc565b82610fe8565b50565b600181565b600a5481565b6001600160a01b0381166000908152602081905260409020545b919050565b610634610eff565b61063e60006110c0565b565b6106528261064c610cfc565b83610db4565b6105ea8282610fe8565b6005546001600160a01b031690565b60606004805461042a90612384565b6007602052600090815260409020805460018201546002830154600484018054939492939192916106aa90612384565b80601f01602080910402602001604051908101604052809291908181526020018280546106d690612384565b80156107235780601f106106f857610100808354040283529160200191610723565b820191906000526020600020905b81548152906001019060200180831161070657829003601f168201915b5050505050905084565b600080610738610cfc565b905060006107468286610ad4565b9050838110156107715760405162461bcd60e51b8152600401610768906121d5565b60405180910390fd5b6104f88286868403610d00565b6008602052600090815260409020546001600160a01b031681565b6000806107a4610cfc565b90506104c5818585610dfe565b600660209081526000928352604080842090915290825290205460ff1681565b6001600160401b0385166000908152600860205260408120546001600160a01b031661080f5760405162461bcd60e51b81526004016107689061207f565b6001600160401b0386166000908152600760205260409020546108445760405162461bcd60e51b8152600401610768906120c7565b6001600160401b03861660009081526008602052604090205461087390879087906001600160a01b0316611112565b6001600160401b03861660009081526008602090815260408083205460079092529182902091516319f8754160e21b81526001600160a01b03909116916367e1d504916108cb91899189918991899190600401611c44565b60206040518083038186803b1580156108e357600080fd5b505afa1580156108f7573d6000803e3d6000fd5b505050506040513d601f19601f8201168201806040525081019061091b91906118be565b6109375760405162461bcd60e51b815260040161076890611fca565b3360009081526006602090815260408083206001600160401b038a1684528252808320805460ff19166001179055600890915290205461098390879087906001600160a01b03166111ee565b50600195945050505050565b61099761154c565b6001600160401b038216600090815260076020908152604091829020825160a081018452815481526001820154818401526002820154818501526003820180548551818602810186019096528086529194929360608601939290830182828015610a2057602002820191906000526020600020905b815481526020019060010190808311610a0c575b50505050508152602001600482018054610a3990612384565b80601f0160208091040260200160405190810160405280929190818152602001828054610a6590612384565b8015610ab25780601f10610a8757610100808354040283529160200191610ab2565b820191906000526020600020905b815481529060010190602001808311610a9557829003601f168201915b5050505050815250509050919050565b600c6020526000908152604090205481565b6001600160a01b03918216600090815260016020908152604080832093909416825291909152205490565b60098181548110610b0f57600080fd5b9060005260206000209060049182820401919006600802915054906101000a90046001600160401b031681565b610b44610eff565b6001600160a01b038116610b6a5760405162461bcd60e51b815260040161076890611e1f565b6105ff816110c0565b6000610b7d610eff565b6001600160401b0384166000908152600860205260409020546001600160a01b0316610c0157600980546001810182556000919091527f6e1540171b6c0c960b71a7020d9f60077f6af931a8bbf590da0223dacf75c7af6004820401805460039092166008026101000a6001600160401b0381810219909316928716029190911790555b60608201516001600160401b03851660009081526007602090815260409091208251610c36936003909201929091019061157b565b506040808301516001600160401b038616600090815260076020908152929020600281019190915560808401518051610c799360049093019291909101906115c6565b506020808301516001600160401b0386166000908152600783526040902060018101919091558351815560808401518051610cbe9360049093019291909101906115c6565b50506001600160401b038316600090815260086020526040902080546001600160a01b0384166001600160a01b031990911617905560019392505050565b3390565b6001600160a01b038316610d265760405162461bcd60e51b815260040161076890612191565b6001600160a01b038216610d4c5760405162461bcd60e51b815260040161076890611e65565b6001600160a01b0380841660008181526001602090815260408083209487168084529490915290819020849055517f8c5be1e5ebec7d5bd14f71427d1e84f3dd0314c0f7b2291e5b200ac8c7c3b92590610da79085906122b1565b60405180910390a3505050565b6000610dc08484610ad4565b90506000198114610df85781811015610deb5760405162461bcd60e51b815260040161076890611eef565b610df88484848403610d00565b50505050565b6001600160a01b038316610e245760405162461bcd60e51b81526004016107689061214c565b6001600160a01b038216610e4a5760405162461bcd60e51b815260040161076890611d9a565b610e55838383611378565b6001600160a01b03831660009081526020819052604090205481811015610e8e5760405162461bcd60e51b815260040161076890611f26565b6001600160a01b0380851660008181526020819052604080822086860390559286168082529083902080548601905591517fddf252ad1be2c89b69c2b068fc378daa952ba7f163c4a11628f55a4df523b3ef90610eec9086906122b1565b60405180910390a3610df88484846110bb565b610f07610cfc565b6001600160a01b0316610f1861065c565b6001600160a01b03161461063e5760405162461bcd60e51b815260040161076890612001565b6001600160a01b038216610f645760405162461bcd60e51b81526004016107689061221a565b610f7060008383611378565b8060026000828254610f829190612360565b90915550506001600160a01b038216600081815260208190526040808220805485019055517fddf252ad1be2c89b69c2b068fc378daa952ba7f163c4a11628f55a4df523b3ef90610fd49085906122b1565b60405180910390a36105ea600083836110bb565b6001600160a01b03821661100e5760405162461bcd60e51b81526004016107689061210b565b61101a82600083611378565b6001600160a01b038216600090815260208190526040902054818110156110535760405162461bcd60e51b815260040161076890611ddd565b6001600160a01b0383166000818152602081905260408082208585039055600280548690039055519091907fddf252ad1be2c89b69c2b068fc378daa952ba7f163c4a11628f55a4df523b3ef906110ab9086906122b1565b60405180910390a36110bb836000845b505050565b600580546001600160a01b038381166001600160a01b0319831681179093556040519116919082907f8be0079c531659141344cd1fd0a4f28419497f9722a3daafe3b4186f6b6457e090600090a35050565b60006111b483836001600160a01b0316639f442afa6040518163ffffffff1660e01b815260040160206040518083038186803b15801561115157600080fd5b505afa158015611165573d6000803e3d6000fd5b505050506040513d601f19601f8201168201806040525081019061118991906118f6565b815181106111a757634e487b7160e01b600052603260045260246000fd5b60200260200101516113c0565b9050806001600160a01b03166111c8610cfc565b6001600160a01b031614610df85760405162461bcd60e51b815260040161076890611ea7565b6001600160401b038316600114801561122a5750600c600061120e610cfc565b6001600160a01b03168152602081019190915260400160002054155b6112465760405162461bcd60e51b815260040161076890612036565b600082826001600160a01b0316639f442afa6040518163ffffffff1660e01b815260040160206040518083038186803b15801561128257600080fd5b505afa158015611296573d6000803e3d6000fd5b505050506040513d601f19601f820116820180604052508101906112ba91906118f6565b815181106112d857634e487b7160e01b600052603260045260246000fd5b6020908102919091018101516000818152600b9092526040909120549091506001600160a01b0316610df85761131761130f610cfc565b600a54610f3e565b80600c6000611324610cfc565b6001600160a01b03168152602081019190915260400160002055611346610cfc565b6000918252600b602052604090912080546001600160a01b0319166001600160a01b0392909216919091179055505050565b6001600160a01b0382166000908152600660209081526040808320600180855292529091205460ff161515146110bb5760405162461bcd60e51b815260040161076890611f6c565b60006113db6113d66113d1846113e1565b61151b565b611545565b92915050565b600881811c7eff00ff00ff00ff00ff00ff00ff00ff00ff00ff00ff00ff00ff00ff00ff00ff167fff00ff00ff00ff00ff00ff00ff00ff00ff00ff00ff00ff00ff00ff00ff00ff009290911b9190911617601081811c7dffff0000ffff0000ffff0000ffff0000ffff0000ffff0000ffff0000ffff167fffff0000ffff0000ffff0000ffff0000ffff0000ffff0000ffff0000ffff00009290911b9190911617602081811c7bffffffff00000000ffffffff00000000ffffffff00000000ffffffff167fffffffff00000000ffffffff00000000ffffffff00000000ffffffff000000009290911b9190911617604081811c77ffffffffffffffff0000000000000000ffffffffffffffff1677ffffffffffffffff0000000000000000ffffffffffffffff199290911b9190911617608081811c91901b1790565b60408051602080825281830190925260609160208201818036833750505060208101929092525090565b6014015190565b6040518060a0016040528060008152602001600081526020016000815260200160608152602001606081525090565b8280548282559060005260206000209081019282156115b6579160200282015b828111156115b657825182559160200191906001019061159b565b506115c2929150611639565b5090565b8280546115d290612384565b90600052602060002090601f0160209004810192826115f457600085556115b6565b82601f1061160d57805160ff19168380011785556115b6565b828001600101855582156115b657918201828111156115b657825182559160200191906001019061159b565b5b808211156115c2576000815560010161163a565b600082601f83011261165e578081fd5b604051604081018181106001600160401b0382111715611680576116806123bf565b8060405250808385604086011115611696578384fd5b835b60028110156116b7578135835260209283019290910190600101611698565b509195945050505050565b600082601f8301126116d2578081fd5b813560206001600160401b038211156116ed576116ed6123bf565b8082026116fb82820161230b565b838152828101908684018388018501891015611715578687fd5b8693505b85841015611737578035835260019390930192918401918401611719565b50979650505050505050565b600082601f830112611753578081fd5b81356001600160401b0381111561176c5761176c6123bf565b61177f601f8201601f191660200161230b565b818152846020838601011115611793578283fd5b816020850160208301379081016020019190915292915050565b80356001600160401b038116811461062757600080fd5b6000602082840312156117d5578081fd5b81356117e0816123d5565b9392505050565b600080604083850312156117f9578081fd5b8235611804816123d5565b91506020830135611814816123d5565b809150509250929050565b600080600060608486031215611833578081fd5b833561183e816123d5565b9250602084013561184e816123d5565b929592945050506040919091013590565b60008060408385031215611871578182fd5b823561187c816123d5565b946020939093013593505050565b6000806040838503121561189c578182fd5b82356118a7816123d5565b91506118b5602084016117ad565b90509250929050565b6000602082840312156118cf578081fd5b815180151581146117e0578182fd5b6000602082840312156118ef578081fd5b5035919050565b600060208284031215611907578081fd5b5051919050565b60006020828403121561191f578081fd5b6117e0826117ad565b60008060008060006101408688031215611940578283fd5b611949866117ad565b94506020808701356001600160401b03811115611964578485fd5b61197089828a016116c2565b955050604061198189828a0161164e565b945088609f890112611991578283fd5b60026119a461199f82612334565b61230b565b8060808b016101008c018d8111156119ba578788fd5b875b858110156119e0576119ce8f8461164e565b855293870193918601916001016119bc565b508298506119ee8e8261164e565b9750505050505050509295509295909350565b600080600060608486031215611a15578081fd5b611a1e846117ad565b92506020840135611a2e816123d5565b915060408401356001600160401b0380821115611a49578283fd5b9085019060a08288031215611a5c578283fd5b60405160a081018181108382111715611a7757611a776123bf565b8060405250823581526020830135602082015260408301356040820152606083013582811115611aa5578485fd5b611ab1898286016116c2565b606083015250608083013582811115611ac8578485fd5b611ad489828601611743565b6080830152508093505050509250925092565b8060005b6002811015610df8578151845260209384019390910190600101611aeb565b6000815180845260208085019450808401835b83811015611b3957815187529582019590820190600101611b1d565b509495945050505050565b60008151808452815b81811015611b6957602081850181015186830182015201611b4d565b81811115611b7a5782602083870101525b50601f01601f19169290920160200192915050565b805460009060028104600180831680611ba957607f831692505b6020808410821415611bc957634e487b7160e01b86526022600452602486fd5b611bd384896122b1565b828015611be75760018114611bf857611c23565b60ff19871682528282019750611c23565b611c0189612354565b60005b87811015611c1d57815484820152908601908401611c04565b83019850505b5050505050505092915050565b6001600160a01b0391909116815260200190565b6000610140808352611c5881840189611b0a565b90506020611c6881850189611ae7565b6060840187845b6002811015611c9657611c83838351611ae7565b6040929092019190830190600101611c6f565b505050611ca660e0850187611ae7565b83820361012085015284548252600180860154828401526002860154604084015260a06060840181905260038701805491850182905285528285209190859060c08601905b80831015611d085784548252938301939183019190850190611ceb565b508581036080870152611d1e8160048b01611b8f565b9d9c50505050505050505050505050565b6020808252825182820181905260009190848201906040850190845b81811015611d705783516001600160401b031683529284019291840191600101611d4b565b50909695505050505050565b901515815260200190565b6000602082526117e06020830184611b44565b60208082526023908201527f45524332303a207472616e7366657220746f20746865207a65726f206164647260408201526265737360e81b606082015260800190565b60208082526022908201527f45524332303a206275726e20616d6f756e7420657863656564732062616c616e604082015261636560f01b606082015260800190565b60208082526026908201527f4f776e61626c653a206e6577206f776e657220697320746865207a65726f206160408201526564647265737360d01b606082015260800190565b60208082526022908201527f45524332303a20617070726f766520746f20746865207a65726f206164647265604082015261737360f01b606082015260800190565b60208082526028908201527f6164647265737320696e2070726f6f66206973206e6f7420612073656e646572604082015267206164647265737360c01b606082015260800190565b6020808252601d908201527f45524332303a20696e73756666696369656e7420616c6c6f77616e6365000000604082015260600190565b60208082526026908201527f45524332303a207472616e7366657220616d6f756e7420657863656564732062604082015265616c616e636560d01b606082015260800190565b602080825260409082018190527f6f6e6c79206964656e7469746965732077686f2070726f76696465642070726f908201527f6f662061726520616c6c6f77656420746f207265636569766520746f6b656e73606082015260800190565b6020808252601b908201527f70726f6f6620726573706f6e7365206973206e6f742076616c69640000000000604082015260600190565b6020808252818101527f4f776e61626c653a2063616c6c6572206973206e6f7420746865206f776e6572604082015260600190565b60208082526029908201527f70726f6f662063616e206e6f74206265207375626d6974746564206d6f7265206040820152687468616e206f6e636560b81b606082015260800190565b60208082526028908201527f76616c696461746f72206973206e6f742073657420666f7220746869732072656040820152671c5d595cdd081a5960c21b606082015260800190565b60208082526024908201527f7175657279206973206e6f742073657420666f722074686973207265717565736040820152631d081a5960e21b606082015260800190565b60208082526021908201527f45524332303a206275726e2066726f6d20746865207a65726f206164647265736040820152607360f81b606082015260800190565b60208082526025908201527f45524332303a207472616e736665722066726f6d20746865207a65726f206164604082015264647265737360d81b606082015260800190565b60208082526024908201527f45524332303a20617070726f76652066726f6d20746865207a65726f206164646040820152637265737360e01b606082015260800190565b60208082526025908201527f45524332303a2064656372656173656420616c6c6f77616e63652062656c6f77604082015264207a65726f60d81b606082015260800190565b6020808252601f908201527f45524332303a206d696e7420746f20746865207a65726f206164647265737300604082015260600190565b600060208252825160208301526020830151604083015260408301516060830152606083015160a0608084015261228b60c0840182611b0a565b90506080840151601f198483030160a08501526122a88282611b44565b95945050505050565b90815260200190565b6000858252846020830152836040830152608060608301526122df6080830184611b44565b9695505050505050565b6001600160401b0391909116815260200190565b60ff91909116815260200190565b6040518181016001600160401b038111828210171561232c5761232c6123bf565b604052919050565b60006001600160401b0382111561234d5761234d6123bf565b5060200290565b60009081526020902090565b6000821982111561237f57634e487b7160e01b81526011600452602481fd5b500190565b60028104600182168061239857607f821691505b602082108114156123b957634e487b7160e01b600052602260045260246000fd5b50919050565b634e487b7160e01b600052604160045260246000fd5b6001600160a01b03811681146105ff57600080fdfea2646970667358221220a831ef82dd81f49db60ec54832eb05addd730f1700267349015ac4d7ed1b0cb164736f6c63430008000033","opcodes":"PUSH1 0x80 PUSH1 0x40 MSTORE PUSH3 0xE PUSH3 0x103 JUMP JUMPDEST PUSH3 0x1E SWAP1 PUSH1 0xFF AND PUSH1 0xA PUSH3 0x41C JUMP JUMPDEST PUSH3 0x2B SWAP1 PUSH1 0x5 PUSH3 0x520 JUMP JUMPDEST PUSH1 0xA SSTORE CALLVALUE DUP1 ISZERO PUSH3 0x3B JUMPI PUSH1 0x0 DUP1 REVERT JUMPDEST POP PUSH1 0x40 MLOAD DUP1 PUSH1 0x40 ADD PUSH1 0x40 MSTORE DUP1 PUSH1 0x10 DUP2 MSTORE PUSH1 0x20 ADD PUSH16 0x283934B6B2902A37B0B2102A37B5B2B7 PUSH1 0x81 SHL DUP2 MSTORE POP PUSH1 0x40 MLOAD DUP1 PUSH1 0x40 ADD PUSH1 0x40 MSTORE DUP1 PUSH1 0x3 DUP2 MSTORE PUSH1 0x20 ADD PUSH3 0x141515 PUSH1 0xEA SHL DUP2 MSTORE POP DUP2 PUSH1 0x3 SWAP1 DUP1 MLOAD SWAP1 PUSH1 0x20 ADD SWAP1 PUSH3 0x99 SWAP3 SWAP2 SWAP1 PUSH3 0x270 JUMP JUMPDEST POP DUP1 MLOAD PUSH3 0xAF SWAP1 PUSH1 0x4 SWAP1 PUSH1 0x20 DUP5 ADD SWAP1 PUSH3 0x270 JUMP JUMPDEST POP POP POP PUSH3 0xCC PUSH3 0xC6 PUSH3 0x108 PUSH1 0x20 SHL PUSH1 0x20 SHR JUMP JUMPDEST PUSH3 0x10C JUMP JUMPDEST PUSH3 0xFD CALLER PUSH3 0xDB PUSH3 0x103 JUMP JUMPDEST PUSH3 0xE8 SWAP1 PUSH1 0xA PUSH3 0x434 JUMP JUMPDEST PUSH3 0xF7 SWAP1 PUSH3 0xF4240 PUSH3 0x520 JUMP JUMPDEST PUSH3 0x15E JUMP JUMPDEST PUSH3 0x595 JUMP JUMPDEST PUSH1 0x12 SWAP1 JUMP JUMPDEST CALLER SWAP1 JUMP JUMPDEST PUSH1 0x5 DUP1 SLOAD PUSH1 0x1 PUSH1 0x1 PUSH1 0xA0 SHL SUB DUP4 DUP2 AND PUSH1 0x1 PUSH1 0x1 PUSH1 0xA0 SHL SUB NOT DUP4 AND DUP2 OR SWAP1 SWAP4 SSTORE PUSH1 0x40 MLOAD SWAP2 AND SWAP2 SWAP1 DUP3 SWAP1 PUSH32 0x8BE0079C531659141344CD1FD0A4F28419497F9722A3DAAFE3B4186F6B6457E0 SWAP1 PUSH1 0x0 SWAP1 LOG3 POP POP JUMP JUMPDEST PUSH1 0x1 PUSH1 0x1 PUSH1 0xA0 SHL SUB DUP3 AND PUSH3 0x190 JUMPI PUSH1 0x40 MLOAD PUSH3 0x461BCD PUSH1 0xE5 SHL DUP2 MSTORE PUSH1 0x4 ADD PUSH3 0x187 SWAP1 PUSH3 0x374 JUMP JUMPDEST PUSH1 0x40 MLOAD DUP1 SWAP2 SUB SWAP1 REVERT JUMPDEST PUSH3 0x19E PUSH1 0x0 DUP4 DUP4 PUSH3 0x220 JUMP JUMPDEST DUP1 PUSH1 0x2 PUSH1 0x0 DUP3 DUP3 SLOAD PUSH3 0x1B2 SWAP2 SWAP1 PUSH3 0x3B4 JUMP JUMPDEST SWAP1 SWAP2 SSTORE POP POP PUSH1 0x1 PUSH1 0x1 PUSH1 0xA0 SHL SUB DUP3 AND PUSH1 0x0 DUP2 DUP2 MSTORE PUSH1 0x20 DUP2 SWAP1 MSTORE PUSH1 0x40 DUP1 DUP3 KECCAK256 DUP1 SLOAD DUP6 ADD SWAP1 SSTORE MLOAD PUSH32 0xDDF252AD1BE2C89B69C2B068FC378DAA952BA7F163C4A11628F55A4DF523B3EF SWAP1 PUSH3 0x206 SWAP1 DUP6 SWAP1 PUSH3 0x3AB JUMP JUMPDEST PUSH1 0x40 MLOAD DUP1 SWAP2 SUB SWAP1 LOG3 PUSH3 0x21C PUSH1 0x0 DUP4 DUP4 PUSH3 0x26B JUMP JUMPDEST POP POP JUMP JUMPDEST PUSH1 0x1 PUSH1 0x1 PUSH1 0xA0 SHL SUB DUP3 AND PUSH1 0x0 SWAP1 DUP2 MSTORE PUSH1 0x6 PUSH1 0x20 SWAP1 DUP2 MSTORE PUSH1 0x40 DUP1 DUP4 KECCAK256 PUSH1 0x1 DUP1 DUP6 MSTORE SWAP3 MSTORE SWAP1 SWAP2 KECCAK256 SLOAD PUSH1 0xFF AND ISZERO ISZERO EQ PUSH3 0x26B JUMPI PUSH1 0x40 MLOAD PUSH3 0x461BCD PUSH1 0xE5 SHL DUP2 MSTORE PUSH1 0x4 ADD PUSH3 0x187 SWAP1 PUSH3 0x316 JUMP JUMPDEST POP POP POP JUMP JUMPDEST DUP3 DUP1 SLOAD PUSH3 0x27E SWAP1 PUSH3 0x542 JUMP JUMPDEST SWAP1 PUSH1 0x0 MSTORE PUSH1 0x20 PUSH1 0x0 KECCAK256 SWAP1 PUSH1 0x1F ADD PUSH1 0x20 SWAP1 DIV DUP2 ADD SWAP3 DUP3 PUSH3 0x2A2 JUMPI PUSH1 0x0 DUP6 SSTORE PUSH3 0x2ED JUMP JUMPDEST DUP3 PUSH1 0x1F LT PUSH3 0x2BD JUMPI DUP1 MLOAD PUSH1 0xFF NOT AND DUP4 DUP1 ADD OR DUP6 SSTORE PUSH3 0x2ED JUMP JUMPDEST DUP3 DUP1 ADD PUSH1 0x1 ADD DUP6 SSTORE DUP3 ISZERO PUSH3 0x2ED JUMPI SWAP2 DUP3 ADD JUMPDEST DUP3 DUP2 GT ISZERO PUSH3 0x2ED JUMPI DUP3 MLOAD DUP3 SSTORE SWAP2 PUSH1 0x20 ADD SWAP2 SWAP1 PUSH1 0x1 ADD SWAP1 PUSH3 0x2D0 JUMP JUMPDEST POP PUSH3 0x2FB SWAP3 SWAP2 POP PUSH3 0x2FF JUMP JUMPDEST POP SWAP1 JUMP JUMPDEST JUMPDEST DUP1 DUP3 GT ISZERO PUSH3 0x2FB JUMPI PUSH1 0x0 DUP2 SSTORE PUSH1 0x1 ADD PUSH3 0x300 JUMP JUMPDEST PUSH1 0x20 DUP1 DUP3 MSTORE PUSH1 0x40 SWAP1 DUP3 ADD DUP2 SWAP1 MSTORE PUSH32 0x6F6E6C79206964656E7469746965732077686F2070726F76696465642070726F SWAP1 DUP3 ADD MSTORE PUSH32 0x6F662061726520616C6C6F77656420746F207265636569766520746F6B656E73 PUSH1 0x60 DUP3 ADD MSTORE PUSH1 0x80 ADD SWAP1 JUMP JUMPDEST PUSH1 0x20 DUP1 DUP3 MSTORE PUSH1 0x1F SWAP1 DUP3 ADD MSTORE PUSH32 0x45524332303A206D696E7420746F20746865207A65726F206164647265737300 PUSH1 0x40 DUP3 ADD MSTORE PUSH1 0x60 ADD SWAP1 JUMP JUMPDEST SWAP1 DUP2 MSTORE PUSH1 0x20 ADD SWAP1 JUMP JUMPDEST PUSH1 0x0 DUP3 NOT DUP3 GT ISZERO PUSH3 0x3CA JUMPI PUSH3 0x3CA PUSH3 0x57F JUMP JUMPDEST POP ADD SWAP1 JUMP JUMPDEST DUP1 DUP3 JUMPDEST PUSH1 0x1 DUP1 DUP7 GT PUSH3 0x3E3 JUMPI POP PUSH3 0x413 JUMP JUMPDEST DUP2 DUP8 DIV DUP3 GT ISZERO PUSH3 0x3F8 JUMPI PUSH3 0x3F8 PUSH3 0x57F JUMP JUMPDEST DUP1 DUP7 AND ISZERO PUSH3 0x406 JUMPI SWAP2 DUP2 MUL SWAP2 JUMPDEST SWAP5 SWAP1 SWAP5 SHR SWAP4 DUP1 MUL PUSH3 0x3D2 JUMP JUMPDEST SWAP5 POP SWAP5 SWAP3 POP POP POP JUMP JUMPDEST PUSH1 0x0 PUSH3 0x42D PUSH1 0x0 NOT DUP5 DUP5 PUSH3 0x443 JUMP JUMPDEST SWAP4 SWAP3 POP POP POP JUMP JUMPDEST PUSH1 0x0 PUSH3 0x42D PUSH1 0x0 NOT PUSH1 0xFF DUP6 AND DUP5 JUMPDEST PUSH1 0x0 DUP3 PUSH3 0x454 JUMPI POP PUSH1 0x1 PUSH3 0x42D JUMP JUMPDEST DUP2 PUSH3 0x463 JUMPI POP PUSH1 0x0 PUSH3 0x42D JUMP JUMPDEST DUP2 PUSH1 0x1 DUP2 EQ PUSH3 0x47C JUMPI PUSH1 0x2 DUP2 EQ PUSH3 0x487 JUMPI PUSH3 0x4BB JUMP JUMPDEST PUSH1 0x1 SWAP2 POP POP PUSH3 0x42D JUMP JUMPDEST PUSH1 0xFF DUP5 GT ISZERO PUSH3 0x49B JUMPI PUSH3 0x49B PUSH3 0x57F JUMP JUMPDEST PUSH1 0x1 DUP5 SHL SWAP2 POP DUP5 DUP3 GT ISZERO PUSH3 0x4B4 JUMPI PUSH3 0x4B4 PUSH3 0x57F JUMP JUMPDEST POP PUSH3 0x42D JUMP JUMPDEST POP PUSH1 0x20 DUP4 LT PUSH2 0x133 DUP4 LT AND PUSH1 0x4E DUP5 LT PUSH1 0xB DUP5 LT AND OR ISZERO PUSH3 0x4F3 JUMPI POP DUP2 DUP2 EXP DUP4 DUP2 GT ISZERO PUSH3 0x4ED JUMPI PUSH3 0x4ED PUSH3 0x57F JUMP JUMPDEST PUSH3 0x42D JUMP JUMPDEST PUSH3 0x502 DUP5 DUP5 DUP5 PUSH1 0x1 PUSH3 0x3CF JUMP JUMPDEST DUP1 DUP7 DIV DUP3 GT ISZERO PUSH3 0x517 JUMPI PUSH3 0x517 PUSH3 0x57F JUMP JUMPDEST MUL SWAP5 SWAP4 POP POP POP POP JUMP JUMPDEST PUSH1 0x0 DUP2 PUSH1 0x0 NOT DIV DUP4 GT DUP3 ISZERO ISZERO AND ISZERO PUSH3 0x53D JUMPI PUSH3 0x53D PUSH3 0x57F JUMP JUMPDEST POP MUL SWAP1 JUMP JUMPDEST PUSH1 0x2 DUP2 DIV PUSH1 0x1 DUP3 AND DUP1 PUSH3 0x557 JUMPI PUSH1 0x7F DUP3 AND SWAP2 POP JUMPDEST PUSH1 0x20 DUP3 LT DUP2 EQ ISZERO PUSH3 0x579 JUMPI PUSH4 0x4E487B71 PUSH1 0xE0 SHL PUSH1 0x0 MSTORE PUSH1 0x22 PUSH1 0x4 MSTORE PUSH1 0x24 PUSH1 0x0 REVERT JUMPDEST POP SWAP2 SWAP1 POP JUMP JUMPDEST PUSH4 0x4E487B71 PUSH1 0xE0 SHL PUSH1 0x0 MSTORE PUSH1 0x11 PUSH1 0x4 MSTORE PUSH1 0x24 PUSH1 0x0 REVERT JUMPDEST PUSH2 0x2420 DUP1 PUSH3 0x5A5 PUSH1 0x0 CODECOPY PUSH1 0x0 RETURN INVALID PUSH1 0x80 PUSH1 0x40 MSTORE CALLVALUE DUP1 ISZERO PUSH2 0x10 JUMPI PUSH1 0x0 DUP1 REVERT JUMPDEST POP PUSH1 0x4 CALLDATASIZE LT PUSH2 0x1CF JUMPI PUSH1 0x0 CALLDATALOAD PUSH1 0xE0 SHR DUP1 PUSH4 0x79CC6790 GT PUSH2 0x104 JUMPI DUP1 PUSH4 0xB45C0FDF GT PUSH2 0xA2 JUMPI DUP1 PUSH4 0xDD62ED3E GT PUSH2 0x71 JUMPI DUP1 PUSH4 0xDD62ED3E EQ PUSH2 0x3CF JUMPI DUP1 PUSH4 0xF1435326 EQ PUSH2 0x3E2 JUMPI DUP1 PUSH4 0xF2FDE38B EQ PUSH2 0x3F5 JUMPI DUP1 PUSH4 0xFEE207E6 EQ PUSH2 0x408 JUMPI PUSH2 0x1CF JUMP JUMPDEST DUP1 PUSH4 0xB45C0FDF EQ PUSH2 0x376 JUMPI DUP1 PUSH4 0xB68967E2 EQ PUSH2 0x389 JUMPI DUP1 PUSH4 0xC76D0845 EQ PUSH2 0x39C JUMPI DUP1 PUSH4 0xCB0E0D7D EQ PUSH2 0x3BC JUMPI PUSH2 0x1CF JUMP JUMPDEST DUP1 PUSH4 0x96BF4741 GT PUSH2 0xDE JUMPI DUP1 PUSH4 0x96BF4741 EQ PUSH2 0x31A JUMPI DUP1 PUSH4 0xA457C2D7 EQ PUSH2 0x33D JUMPI DUP1 PUSH4 0xA8723114 EQ PUSH2 0x350 JUMPI DUP1 PUSH4 0xA9059CBB EQ PUSH2 0x363 JUMPI PUSH2 0x1CF JUMP JUMPDEST DUP1 PUSH4 0x79CC6790 EQ PUSH2 0x2F7 JUMPI DUP1 PUSH4 0x8DA5CB5B EQ PUSH2 0x30A JUMPI DUP1 PUSH4 0x95D89B41 EQ PUSH2 0x312 JUMPI PUSH2 0x1CF JUMP JUMPDEST DUP1 PUSH4 0x39509351 GT PUSH2 0x171 JUMPI DUP1 PUSH4 0x63EC508F GT PUSH2 0x14B JUMPI DUP1 PUSH4 0x63EC508F EQ PUSH2 0x2BF JUMPI DUP1 PUSH4 0x7042F36B EQ PUSH2 0x2D4 JUMPI DUP1 PUSH4 0x70A08231 EQ PUSH2 0x2DC JUMPI DUP1 PUSH4 0x715018A6 EQ PUSH2 0x2EF JUMPI PUSH2 0x1CF JUMP JUMPDEST DUP1 PUSH4 0x39509351 EQ PUSH2 0x284 JUMPI DUP1 PUSH4 0x40C10F19 EQ PUSH2 0x297 JUMPI DUP1 PUSH4 0x42966C68 EQ PUSH2 0x2AC JUMPI PUSH2 0x1CF JUMP JUMPDEST DUP1 PUSH4 0x23B872DD GT PUSH2 0x1AD JUMPI DUP1 PUSH4 0x23B872DD EQ PUSH2 0x227 JUMPI DUP1 PUSH4 0x2A2D0C47 EQ PUSH2 0x23A JUMPI DUP1 PUSH4 0x313CE567 EQ PUSH2 0x25A JUMPI DUP1 PUSH4 0x37BA9523 EQ PUSH2 0x26F JUMPI PUSH2 0x1CF JUMP JUMPDEST DUP1 PUSH4 0x6FDDE03 EQ PUSH2 0x1D4 JUMPI DUP1 PUSH4 0x95EA7B3 EQ PUSH2 0x1F2 JUMPI DUP1 PUSH4 0x18160DDD EQ PUSH2 0x212 JUMPI JUMPDEST PUSH1 0x0 DUP1 REVERT JUMPDEST PUSH2 0x1DC PUSH2 0x41B JUMP JUMPDEST PUSH1 0x40 MLOAD PUSH2 0x1E9 SWAP2 SWAP1 PUSH2 0x1D87 JUMP JUMPDEST PUSH1 0x40 MLOAD DUP1 SWAP2 SUB SWAP1 RETURN JUMPDEST PUSH2 0x205 PUSH2 0x200 CALLDATASIZE PUSH1 0x4 PUSH2 0x185F JUMP JUMPDEST PUSH2 0x4AD JUMP JUMPDEST PUSH1 0x40 MLOAD PUSH2 0x1E9 SWAP2 SWAP1 PUSH2 0x1D7C JUMP JUMPDEST PUSH2 0x21A PUSH2 0x4CF JUMP JUMPDEST PUSH1 0x40 MLOAD PUSH2 0x1E9 SWAP2 SWAP1 PUSH2 0x22B1 JUMP JUMPDEST PUSH2 0x205 PUSH2 0x235 CALLDATASIZE PUSH1 0x4 PUSH2 0x181F JUMP JUMPDEST PUSH2 0x4D5 JUMP JUMPDEST PUSH2 0x24D PUSH2 0x248 CALLDATASIZE PUSH1 0x4 PUSH2 0x18DE JUMP JUMPDEST PUSH2 0x503 JUMP JUMPDEST PUSH1 0x40 MLOAD PUSH2 0x1E9 SWAP2 SWAP1 PUSH2 0x1C30 JUMP JUMPDEST PUSH2 0x262 PUSH2 0x51E JUMP JUMPDEST PUSH1 0x40 MLOAD PUSH2 0x1E9 SWAP2 SWAP1 PUSH2 0x22FD JUMP JUMPDEST PUSH2 0x277 PUSH2 0x523 JUMP JUMPDEST PUSH1 0x40 MLOAD PUSH2 0x1E9 SWAP2 SWAP1 PUSH2 0x1D2F JUMP JUMPDEST PUSH2 0x205 PUSH2 0x292 CALLDATASIZE PUSH1 0x4 PUSH2 0x185F JUMP JUMPDEST PUSH2 0x5AC JUMP JUMPDEST PUSH2 0x2AA PUSH2 0x2A5 CALLDATASIZE PUSH1 0x4 PUSH2 0x185F JUMP JUMPDEST PUSH2 0x5D8 JUMP JUMPDEST STOP JUMPDEST PUSH2 0x2AA PUSH2 0x2BA CALLDATASIZE PUSH1 0x4 PUSH2 0x18DE JUMP JUMPDEST PUSH2 0x5EE JUMP JUMPDEST PUSH2 0x2C7 PUSH2 0x602 JUMP JUMPDEST PUSH1 0x40 MLOAD PUSH2 0x1E9 SWAP2 SWAP1 PUSH2 0x22E9 JUMP JUMPDEST PUSH2 0x21A PUSH2 0x607 JUMP JUMPDEST PUSH2 0x21A PUSH2 0x2EA CALLDATASIZE PUSH1 0x4 PUSH2 0x17C4 JUMP JUMPDEST PUSH2 0x60D JUMP JUMPDEST PUSH2 0x2AA PUSH2 0x62C JUMP JUMPDEST PUSH2 0x2AA PUSH2 0x305 CALLDATASIZE PUSH1 0x4 PUSH2 0x185F JUMP JUMPDEST PUSH2 0x640 JUMP JUMPDEST PUSH2 0x24D PUSH2 0x65C JUMP JUMPDEST PUSH2 0x1DC PUSH2 0x66B JUMP JUMPDEST PUSH2 0x32D PUSH2 0x328 CALLDATASIZE PUSH1 0x4 PUSH2 0x190E JUMP JUMPDEST PUSH2 0x67A JUMP JUMPDEST PUSH1 0x40 MLOAD PUSH2 0x1E9 SWAP5 SWAP4 SWAP3 SWAP2 SWAP1 PUSH2 0x22BA JUMP JUMPDEST PUSH2 0x205 PUSH2 0x34B CALLDATASIZE PUSH1 0x4 PUSH2 0x185F JUMP JUMPDEST PUSH2 0x72D JUMP JUMPDEST PUSH2 0x24D PUSH2 0x35E CALLDATASIZE PUSH1 0x4 PUSH2 0x190E JUMP JUMPDEST PUSH2 0x77E JUMP JUMPDEST PUSH2 0x205 PUSH2 0x371 CALLDATASIZE PUSH1 0x4 PUSH2 0x185F JUMP JUMPDEST PUSH2 0x799 JUMP JUMPDEST PUSH2 0x205 PUSH2 0x384 CALLDATASIZE PUSH1 0x4 PUSH2 0x188A JUMP JUMPDEST PUSH2 0x7B1 JUMP JUMPDEST PUSH2 0x205 PUSH2 0x397 CALLDATASIZE PUSH1 0x4 PUSH2 0x1928 JUMP JUMPDEST PUSH2 0x7D1 JUMP JUMPDEST PUSH2 0x3AF PUSH2 0x3AA CALLDATASIZE PUSH1 0x4 PUSH2 0x190E JUMP JUMPDEST PUSH2 0x98F JUMP JUMPDEST PUSH1 0x40 MLOAD PUSH2 0x1E9 SWAP2 SWAP1 PUSH2 0x2251 JUMP JUMPDEST PUSH2 0x21A PUSH2 0x3CA CALLDATASIZE PUSH1 0x4 PUSH2 0x17C4 JUMP JUMPDEST PUSH2 0xAC2 JUMP JUMPDEST PUSH2 0x21A PUSH2 0x3DD CALLDATASIZE PUSH1 0x4 PUSH2 0x17E7 JUMP JUMPDEST PUSH2 0xAD4 JUMP JUMPDEST PUSH2 0x2C7 PUSH2 0x3F0 CALLDATASIZE PUSH1 0x4 PUSH2 0x18DE JUMP JUMPDEST PUSH2 0xAFF JUMP JUMPDEST PUSH2 0x2AA PUSH2 0x403 CALLDATASIZE PUSH1 0x4 PUSH2 0x17C4 JUMP JUMPDEST PUSH2 0xB3C JUMP JUMPDEST PUSH2 0x205 PUSH2 0x416 CALLDATASIZE PUSH1 0x4 PUSH2 0x1A01 JUMP JUMPDEST PUSH2 0xB73 JUMP JUMPDEST PUSH1 0x60 PUSH1 0x3 DUP1 SLOAD PUSH2 0x42A SWAP1 PUSH2 0x2384 JUMP JUMPDEST DUP1 PUSH1 0x1F ADD PUSH1 0x20 DUP1 SWAP2 DIV MUL PUSH1 0x20 ADD PUSH1 0x40 MLOAD SWAP1 DUP2 ADD PUSH1 0x40 MSTORE DUP1 SWAP3 SWAP2 SWAP1 DUP2 DUP2 MSTORE PUSH1 0x20 ADD DUP3 DUP1 SLOAD PUSH2 0x456 SWAP1 PUSH2 0x2384 JUMP JUMPDEST DUP1 ISZERO PUSH2 0x4A3 JUMPI DUP1 PUSH1 0x1F LT PUSH2 0x478 JUMPI PUSH2 0x100 DUP1 DUP4 SLOAD DIV MUL DUP4 MSTORE SWAP2 PUSH1 0x20 ADD SWAP2 PUSH2 0x4A3 JUMP JUMPDEST DUP3 ADD SWAP2 SWAP1 PUSH1 0x0 MSTORE PUSH1 0x20 PUSH1 0x0 KECCAK256 SWAP1 JUMPDEST DUP2 SLOAD DUP2 MSTORE SWAP1 PUSH1 0x1 ADD SWAP1 PUSH1 0x20 ADD DUP1 DUP4 GT PUSH2 0x486 JUMPI DUP3 SWAP1 SUB PUSH1 0x1F AND DUP3 ADD SWAP2 JUMPDEST POP POP POP POP POP SWAP1 POP SWAP1 JUMP JUMPDEST PUSH1 0x0 DUP1 PUSH2 0x4B8 PUSH2 0xCFC JUMP JUMPDEST SWAP1 POP PUSH2 0x4C5 DUP2 DUP6 DUP6 PUSH2 0xD00 JUMP JUMPDEST POP PUSH1 0x1 SWAP4 SWAP3 POP POP POP JUMP JUMPDEST PUSH1 0x2 SLOAD SWAP1 JUMP JUMPDEST PUSH1 0x0 DUP1 PUSH2 0x4E0 PUSH2 0xCFC JUMP JUMPDEST SWAP1 POP PUSH2 0x4ED DUP6 DUP3 DUP6 PUSH2 0xDB4 JUMP JUMPDEST PUSH2 0x4F8 DUP6 DUP6 DUP6 PUSH2 0xDFE JUMP JUMPDEST POP PUSH1 0x1 SWAP5 SWAP4 POP POP POP POP JUMP JUMPDEST PUSH1 0xB PUSH1 0x20 MSTORE PUSH1 0x0 SWAP1 DUP2 MSTORE PUSH1 0x40 SWAP1 KECCAK256 SLOAD PUSH1 0x1 PUSH1 0x1 PUSH1 0xA0 SHL SUB AND DUP2 JUMP JUMPDEST PUSH1 0x12 SWAP1 JUMP JUMPDEST PUSH1 0x60 PUSH1 0x9 DUP1 SLOAD DUP1 PUSH1 0x20 MUL PUSH1 0x20 ADD PUSH1 0x40 MLOAD SWAP1 DUP2 ADD PUSH1 0x40 MSTORE DUP1 SWAP3 SWAP2 SWAP1 DUP2 DUP2 MSTORE PUSH1 0x20 ADD DUP3 DUP1 SLOAD DUP1 ISZERO PUSH2 0x4A3 JUMPI PUSH1 0x20 MUL DUP3 ADD SWAP2 SWAP1 PUSH1 0x0 MSTORE PUSH1 0x20 PUSH1 0x0 KECCAK256 SWAP1 PUSH1 0x0 SWAP1 JUMPDEST DUP3 DUP3 SWAP1 SLOAD SWAP1 PUSH2 0x100 EXP SWAP1 DIV PUSH1 0x1 PUSH1 0x1 PUSH1 0x40 SHL SUB AND PUSH1 0x1 PUSH1 0x1 PUSH1 0x40 SHL SUB AND DUP2 MSTORE PUSH1 0x20 ADD SWAP1 PUSH1 0x8 ADD SWAP1 PUSH1 0x20 DUP3 PUSH1 0x7 ADD DIV SWAP3 DUP4 ADD SWAP3 PUSH1 0x1 SUB DUP3 MUL SWAP2 POP DUP1 DUP5 GT PUSH2 0x560 JUMPI SWAP1 POP POP POP POP POP POP SWAP1 POP SWAP1 JUMP JUMPDEST PUSH1 0x0 DUP1 PUSH2 0x5B7 PUSH2 0xCFC JUMP JUMPDEST SWAP1 POP PUSH2 0x4C5 DUP2 DUP6 DUP6 PUSH2 0x5C9 DUP6 DUP10 PUSH2 0xAD4 JUMP JUMPDEST PUSH2 0x5D3 SWAP2 SWAP1 PUSH2 0x2360 JUMP JUMPDEST PUSH2 0xD00 JUMP JUMPDEST PUSH2 0x5E0 PUSH2 0xEFF JUMP JUMPDEST PUSH2 0x5EA DUP3 DUP3 PUSH2 0xF3E JUMP JUMPDEST POP POP JUMP JUMPDEST PUSH2 0x5FF PUSH2 0x5F9 PUSH2 0xCFC JUMP JUMPDEST DUP3 PUSH2 0xFE8 JUMP JUMPDEST POP JUMP JUMPDEST PUSH1 0x1 DUP2 JUMP JUMPDEST PUSH1 0xA SLOAD DUP2 JUMP JUMPDEST PUSH1 0x1 PUSH1 0x1 PUSH1 0xA0 SHL SUB DUP2 AND PUSH1 0x0 SWAP1 DUP2 MSTORE PUSH1 0x20 DUP2 SWAP1 MSTORE PUSH1 0x40 SWAP1 KECCAK256 SLOAD JUMPDEST SWAP2 SWAP1 POP JUMP JUMPDEST PUSH2 0x634 PUSH2 0xEFF JUMP JUMPDEST PUSH2 0x63E PUSH1 0x0 PUSH2 0x10C0 JUMP JUMPDEST JUMP JUMPDEST PUSH2 0x652 DUP3 PUSH2 0x64C PUSH2 0xCFC JUMP JUMPDEST DUP4 PUSH2 0xDB4 JUMP JUMPDEST PUSH2 0x5EA DUP3 DUP3 PUSH2 0xFE8 JUMP JUMPDEST PUSH1 0x5 SLOAD PUSH1 0x1 PUSH1 0x1 PUSH1 0xA0 SHL SUB AND SWAP1 JUMP JUMPDEST PUSH1 0x60 PUSH1 0x4 DUP1 SLOAD PUSH2 0x42A SWAP1 PUSH2 0x2384 JUMP JUMPDEST PUSH1 0x7 PUSH1 0x20 MSTORE PUSH1 0x0 SWAP1 DUP2 MSTORE PUSH1 0x40 SWAP1 KECCAK256 DUP1 SLOAD PUSH1 0x1 DUP3 ADD SLOAD PUSH1 0x2 DUP4 ADD SLOAD PUSH1 0x4 DUP5 ADD DUP1 SLOAD SWAP4 SWAP5 SWAP3 SWAP4 SWAP2 SWAP3 SWAP2 PUSH2 0x6AA SWAP1 PUSH2 0x2384 JUMP JUMPDEST DUP1 PUSH1 0x1F ADD PUSH1 0x20 DUP1 SWAP2 DIV MUL PUSH1 0x20 ADD PUSH1 0x40 MLOAD SWAP1 DUP2 ADD PUSH1 0x40 MSTORE DUP1 SWAP3 SWAP2 SWAP1 DUP2 DUP2 MSTORE PUSH1 0x20 ADD DUP3 DUP1 SLOAD PUSH2 0x6D6 SWAP1 PUSH2 0x2384 JUMP JUMPDEST DUP1 ISZERO PUSH2 0x723 JUMPI DUP1 PUSH1 0x1F LT PUSH2 0x6F8 JUMPI PUSH2 0x100 DUP1 DUP4 SLOAD DIV MUL DUP4 MSTORE SWAP2 PUSH1 0x20 ADD SWAP2 PUSH2 0x723 JUMP JUMPDEST DUP3 ADD SWAP2 SWAP1 PUSH1 0x0 MSTORE PUSH1 0x20 PUSH1 0x0 KECCAK256 SWAP1 JUMPDEST DUP2 SLOAD DUP2 MSTORE SWAP1 PUSH1 0x1 ADD SWAP1 PUSH1 0x20 ADD DUP1 DUP4 GT PUSH2 0x706 JUMPI DUP3 SWAP1 SUB PUSH1 0x1F AND DUP3 ADD SWAP2 JUMPDEST POP POP POP POP POP SWAP1 POP DUP5 JUMP JUMPDEST PUSH1 0x0 DUP1 PUSH2 0x738 PUSH2 0xCFC JUMP JUMPDEST SWAP1 POP PUSH1 0x0 PUSH2 0x746 DUP3 DUP7 PUSH2 0xAD4 JUMP JUMPDEST SWAP1 POP DUP4 DUP2 LT ISZERO PUSH2 0x771 JUMPI PUSH1 0x40 MLOAD PUSH3 0x461BCD PUSH1 0xE5 SHL DUP2 MSTORE PUSH1 0x4 ADD PUSH2 0x768 SWAP1 PUSH2 0x21D5 JUMP JUMPDEST PUSH1 0x40 MLOAD DUP1 SWAP2 SUB SWAP1 REVERT JUMPDEST PUSH2 0x4F8 DUP3 DUP7 DUP7 DUP5 SUB PUSH2 0xD00 JUMP JUMPDEST PUSH1 0x8 PUSH1 0x20 MSTORE PUSH1 0x0 SWAP1 DUP2 MSTORE PUSH1 0x40 SWAP1 KECCAK256 SLOAD PUSH1 0x1 PUSH1 0x1 PUSH1 0xA0 SHL SUB AND DUP2 JUMP JUMPDEST PUSH1 0x0 DUP1 PUSH2 0x7A4 PUSH2 0xCFC JUMP JUMPDEST SWAP1 POP PUSH2 0x4C5 DUP2 DUP6 DUP6 PUSH2 0xDFE JUMP JUMPDEST PUSH1 0x6 PUSH1 0x20 SWAP1 DUP2 MSTORE PUSH1 0x0 SWAP3 DUP4 MSTORE PUSH1 0x40 DUP1 DUP5 KECCAK256 SWAP1 SWAP2 MSTORE SWAP1 DUP3 MSTORE SWAP1 KECCAK256 SLOAD PUSH1 0xFF AND DUP2 JUMP JUMPDEST PUSH1 0x1 PUSH1 0x1 PUSH1 0x40 SHL SUB DUP6 AND PUSH1 0x0 SWAP1 DUP2 MSTORE PUSH1 0x8 PUSH1 0x20 MSTORE PUSH1 0x40 DUP2 KECCAK256 SLOAD PUSH1 0x1 PUSH1 0x1 PUSH1 0xA0 SHL SUB AND PUSH2 0x80F JUMPI PUSH1 0x40 MLOAD PUSH3 0x461BCD PUSH1 0xE5 SHL DUP2 MSTORE PUSH1 0x4 ADD PUSH2 0x768 SWAP1 PUSH2 0x207F JUMP JUMPDEST PUSH1 0x1 PUSH1 0x1 PUSH1 0x40 SHL SUB DUP7 AND PUSH1 0x0 SWAP1 DUP2 MSTORE PUSH1 0x7 PUSH1 0x20 MSTORE PUSH1 0x40 SWAP1 KECCAK256 SLOAD PUSH2 0x844 JUMPI PUSH1 0x40 MLOAD PUSH3 0x461BCD PUSH1 0xE5 SHL DUP2 MSTORE PUSH1 0x4 ADD PUSH2 0x768 SWAP1 PUSH2 0x20C7 JUMP JUMPDEST PUSH1 0x1 PUSH1 0x1 PUSH1 0x40 SHL SUB DUP7 AND PUSH1 0x0 SWAP1 DUP2 MSTORE PUSH1 0x8 PUSH1 0x20 MSTORE PUSH1 0x40 SWAP1 KECCAK256 SLOAD PUSH2 0x873 SWAP1 DUP8 SWAP1 DUP8 SWAP1 PUSH1 0x1 PUSH1 0x1 PUSH1 0xA0 SHL SUB AND PUSH2 0x1112 JUMP JUMPDEST PUSH1 0x1 PUSH1 0x1 PUSH1 0x40 SHL SUB DUP7 AND PUSH1 0x0 SWAP1 DUP2 MSTORE PUSH1 0x8 PUSH1 0x20 SWAP1 DUP2 MSTORE PUSH1 0x40 DUP1 DUP4 KECCAK256 SLOAD PUSH1 0x7 SWAP1 SWAP3 MSTORE SWAP2 DUP3 SWAP1 KECCAK256 SWAP2 MLOAD PUSH4 0x19F87541 PUSH1 0xE2 SHL DUP2 MSTORE PUSH1 0x1 PUSH1 0x1 PUSH1 0xA0 SHL SUB SWAP1 SWAP2 AND SWAP2 PUSH4 0x67E1D504 SWAP2 PUSH2 0x8CB SWAP2 DUP10 SWAP2 DUP10 SWAP2 DUP10 SWAP2 DUP10 SWAP2 SWAP1 PUSH1 0x4 ADD PUSH2 0x1C44 JUMP JUMPDEST PUSH1 0x20 PUSH1 0x40 MLOAD DUP1 DUP4 SUB DUP2 DUP7 DUP1 EXTCODESIZE ISZERO DUP1 ISZERO PUSH2 0x8E3 JUMPI PUSH1 0x0 DUP1 REVERT JUMPDEST POP GAS STATICCALL ISZERO DUP1 ISZERO PUSH2 0x8F7 JUMPI RETURNDATASIZE PUSH1 0x0 DUP1 RETURNDATACOPY RETURNDATASIZE PUSH1 0x0 REVERT JUMPDEST POP POP POP POP PUSH1 0x40 MLOAD RETURNDATASIZE PUSH1 0x1F NOT PUSH1 0x1F DUP3 ADD AND DUP3 ADD DUP1 PUSH1 0x40 MSTORE POP DUP2 ADD SWAP1 PUSH2 0x91B SWAP2 SWAP1 PUSH2 0x18BE JUMP JUMPDEST PUSH2 0x937 JUMPI PUSH1 0x40 MLOAD PUSH3 0x461BCD PUSH1 0xE5 SHL DUP2 MSTORE PUSH1 0x4 ADD PUSH2 0x768 SWAP1 PUSH2 0x1FCA JUMP JUMPDEST CALLER PUSH1 0x0 SWAP1 DUP2 MSTORE PUSH1 0x6 PUSH1 0x20 SWAP1 DUP2 MSTORE PUSH1 0x40 DUP1 DUP4 KECCAK256 PUSH1 0x1 PUSH1 0x1 PUSH1 0x40 SHL SUB DUP11 AND DUP5 MSTORE DUP3 MSTORE DUP1 DUP4 KECCAK256 DUP1 SLOAD PUSH1 0xFF NOT AND PUSH1 0x1 OR SWAP1 SSTORE PUSH1 0x8 SWAP1 SWAP2 MSTORE SWAP1 KECCAK256 SLOAD PUSH2 0x983 SWAP1 DUP8 SWAP1 DUP8 SWAP1 PUSH1 0x1 PUSH1 0x1 PUSH1 0xA0 SHL SUB AND PUSH2 0x11EE JUMP JUMPDEST POP PUSH1 0x1 SWAP6 SWAP5 POP POP POP POP POP JUMP JUMPDEST PUSH2 0x997 PUSH2 0x154C JUMP JUMPDEST PUSH1 0x1 PUSH1 0x1 PUSH1 0x40 SHL SUB DUP3 AND PUSH1 0x0 SWAP1 DUP2 MSTORE PUSH1 0x7 PUSH1 0x20 SWAP1 DUP2 MSTORE PUSH1 0x40 SWAP2 DUP3 SWAP1 KECCAK256 DUP3 MLOAD PUSH1 0xA0 DUP2 ADD DUP5 MSTORE DUP2 SLOAD DUP2 MSTORE PUSH1 0x1 DUP3 ADD SLOAD DUP2 DUP5 ADD MSTORE PUSH1 0x2 DUP3 ADD SLOAD DUP2 DUP6 ADD MSTORE PUSH1 0x3 DUP3 ADD DUP1 SLOAD DUP6 MLOAD DUP2 DUP7 MUL DUP2 ADD DUP7 ADD SWAP1 SWAP7 MSTORE DUP1 DUP7 MSTORE SWAP2 SWAP5 SWAP3 SWAP4 PUSH1 0x60 DUP7 ADD SWAP4 SWAP3 SWAP1 DUP4 ADD DUP3 DUP3 DUP1 ISZERO PUSH2 0xA20 JUMPI PUSH1 0x20 MUL DUP3 ADD SWAP2 SWAP1 PUSH1 0x0 MSTORE PUSH1 0x20 PUSH1 0x0 KECCAK256 SWAP1 JUMPDEST DUP2 SLOAD DUP2 MSTORE PUSH1 0x20 ADD SWAP1 PUSH1 0x1 ADD SWAP1 DUP1 DUP4 GT PUSH2 0xA0C JUMPI JUMPDEST POP POP POP POP POP DUP2 MSTORE PUSH1 0x20 ADD PUSH1 0x4 DUP3 ADD DUP1 SLOAD PUSH2 0xA39 SWAP1 PUSH2 0x2384 JUMP JUMPDEST DUP1 PUSH1 0x1F ADD PUSH1 0x20 DUP1 SWAP2 DIV MUL PUSH1 0x20 ADD PUSH1 0x40 MLOAD SWAP1 DUP2 ADD PUSH1 0x40 MSTORE DUP1 SWAP3 SWAP2 SWAP1 DUP2 DUP2 MSTORE PUSH1 0x20 ADD DUP3 DUP1 SLOAD PUSH2 0xA65 SWAP1 PUSH2 0x2384 JUMP JUMPDEST DUP1 ISZERO PUSH2 0xAB2 JUMPI DUP1 PUSH1 0x1F LT PUSH2 0xA87 JUMPI PUSH2 0x100 DUP1 DUP4 SLOAD DIV MUL DUP4 MSTORE SWAP2 PUSH1 0x20 ADD SWAP2 PUSH2 0xAB2 JUMP JUMPDEST DUP3 ADD SWAP2 SWAP1 PUSH1 0x0 MSTORE PUSH1 0x20 PUSH1 0x0 KECCAK256 SWAP1 JUMPDEST DUP2 SLOAD DUP2 MSTORE SWAP1 PUSH1 0x1 ADD SWAP1 PUSH1 0x20 ADD DUP1 DUP4 GT PUSH2 0xA95 JUMPI DUP3 SWAP1 SUB PUSH1 0x1F AND DUP3 ADD SWAP2 JUMPDEST POP POP POP POP POP DUP2 MSTORE POP POP SWAP1 POP SWAP2 SWAP1 POP JUMP JUMPDEST PUSH1 0xC PUSH1 0x20 MSTORE PUSH1 0x0 SWAP1 DUP2 MSTORE PUSH1 0x40 SWAP1 KECCAK256 SLOAD DUP2 JUMP JUMPDEST PUSH1 0x1 PUSH1 0x1 PUSH1 0xA0 SHL SUB SWAP2 DUP3 AND PUSH1 0x0 SWAP1 DUP2 MSTORE PUSH1 0x1 PUSH1 0x20 SWAP1 DUP2 MSTORE PUSH1 0x40 DUP1 DUP4 KECCAK256 SWAP4 SWAP1 SWAP5 AND DUP3 MSTORE SWAP2 SWAP1 SWAP2 MSTORE KECCAK256 SLOAD SWAP1 JUMP JUMPDEST PUSH1 0x9 DUP2 DUP2 SLOAD DUP2 LT PUSH2 0xB0F JUMPI PUSH1 0x0 DUP1 REVERT JUMPDEST SWAP1 PUSH1 0x0 MSTORE PUSH1 0x20 PUSH1 0x0 KECCAK256 SWAP1 PUSH1 0x4 SWAP2 DUP3 DUP3 DIV ADD SWAP2 SWAP1 MOD PUSH1 0x8 MUL SWAP2 POP SLOAD SWAP1 PUSH2 0x100 EXP SWAP1 DIV PUSH1 0x1 PUSH1 0x1 PUSH1 0x40 SHL SUB AND DUP2 JUMP JUMPDEST PUSH2 0xB44 PUSH2 0xEFF JUMP JUMPDEST PUSH1 0x1 PUSH1 0x1 PUSH1 0xA0 SHL SUB DUP2 AND PUSH2 0xB6A JUMPI PUSH1 0x40 MLOAD PUSH3 0x461BCD PUSH1 0xE5 SHL DUP2 MSTORE PUSH1 0x4 ADD PUSH2 0x768 SWAP1 PUSH2 0x1E1F JUMP JUMPDEST PUSH2 0x5FF DUP2 PUSH2 0x10C0 JUMP JUMPDEST PUSH1 0x0 PUSH2 0xB7D PUSH2 0xEFF JUMP JUMPDEST PUSH1 0x1 PUSH1 0x1 PUSH1 0x40 SHL SUB DUP5 AND PUSH1 0x0 SWAP1 DUP2 MSTORE PUSH1 0x8 PUSH1 0x20 MSTORE PUSH1 0x40 SWAP1 KECCAK256 SLOAD PUSH1 0x1 PUSH1 0x1 PUSH1 0xA0 SHL SUB AND PUSH2 0xC01 JUMPI PUSH1 0x9 DUP1 SLOAD PUSH1 0x1 DUP2 ADD DUP3 SSTORE PUSH1 0x0 SWAP2 SWAP1 SWAP2 MSTORE PUSH32 0x6E1540171B6C0C960B71A7020D9F60077F6AF931A8BBF590DA0223DACF75C7AF PUSH1 0x4 DUP3 DIV ADD DUP1 SLOAD PUSH1 0x3 SWAP1 SWAP3 AND PUSH1 0x8 MUL PUSH2 0x100 EXP PUSH1 0x1 PUSH1 0x1 PUSH1 0x40 SHL SUB DUP2 DUP2 MUL NOT SWAP1 SWAP4 AND SWAP3 DUP8 AND MUL SWAP2 SWAP1 SWAP2 OR SWAP1 SSTORE JUMPDEST PUSH1 0x60 DUP3 ADD MLOAD PUSH1 0x1 PUSH1 0x1 PUSH1 0x40 SHL SUB DUP6 AND PUSH1 0x0 SWAP1 DUP2 MSTORE PUSH1 0x7 PUSH1 0x20 SWAP1 DUP2 MSTORE PUSH1 0x40 SWAP1 SWAP2 KECCAK256 DUP3 MLOAD PUSH2 0xC36 SWAP4 PUSH1 0x3 SWAP1 SWAP3 ADD SWAP3 SWAP1 SWAP2 ADD SWAP1 PUSH2 0x157B JUMP JUMPDEST POP PUSH1 0x40 DUP1 DUP4 ADD MLOAD PUSH1 0x1 PUSH1 0x1 PUSH1 0x40 SHL SUB DUP7 AND PUSH1 0x0 SWAP1 DUP2 MSTORE PUSH1 0x7 PUSH1 0x20 SWAP1 DUP2 MSTORE SWAP3 SWAP1 KECCAK256 PUSH1 0x2 DUP2 ADD SWAP2 SWAP1 SWAP2 SSTORE PUSH1 0x80 DUP5 ADD MLOAD DUP1 MLOAD PUSH2 0xC79 SWAP4 PUSH1 0x4 SWAP1 SWAP4 ADD SWAP3 SWAP2 SWAP1 SWAP2 ADD SWAP1 PUSH2 0x15C6 JUMP JUMPDEST POP PUSH1 0x20 DUP1 DUP4 ADD MLOAD PUSH1 0x1 PUSH1 0x1 PUSH1 0x40 SHL SUB DUP7 AND PUSH1 0x0 SWAP1 DUP2 MSTORE PUSH1 0x7 DUP4 MSTORE PUSH1 0x40 SWAP1 KECCAK256 PUSH1 0x1 DUP2 ADD SWAP2 SWAP1 SWAP2 SSTORE DUP4 MLOAD DUP2 SSTORE PUSH1 0x80 DUP5 ADD MLOAD DUP1 MLOAD PUSH2 0xCBE SWAP4 PUSH1 0x4 SWAP1 SWAP4 ADD SWAP3 SWAP2 SWAP1 SWAP2 ADD SWAP1 PUSH2 0x15C6 JUMP JUMPDEST POP POP PUSH1 0x1 PUSH1 0x1 PUSH1 0x40 SHL SUB DUP4 AND PUSH1 0x0 SWAP1 DUP2 MSTORE PUSH1 0x8 PUSH1 0x20 MSTORE PUSH1 0x40 SWAP1 KECCAK256 DUP1 SLOAD PUSH1 0x1 PUSH1 0x1 PUSH1 0xA0 SHL SUB DUP5 AND PUSH1 0x1 PUSH1 0x1 PUSH1 0xA0 SHL SUB NOT SWAP1 SWAP2 AND OR SWAP1 SSTORE PUSH1 0x1 SWAP4 SWAP3 POP POP POP JUMP JUMPDEST CALLER SWAP1 JUMP JUMPDEST PUSH1 0x1 PUSH1 0x1 PUSH1 0xA0 SHL SUB DUP4 AND PUSH2 0xD26 JUMPI PUSH1 0x40 MLOAD PUSH3 0x461BCD PUSH1 0xE5 SHL DUP2 MSTORE PUSH1 0x4 ADD PUSH2 0x768 SWAP1 PUSH2 0x2191 JUMP JUMPDEST PUSH1 0x1 PUSH1 0x1 PUSH1 0xA0 SHL SUB DUP3 AND PUSH2 0xD4C JUMPI PUSH1 0x40 MLOAD PUSH3 0x461BCD PUSH1 0xE5 SHL DUP2 MSTORE PUSH1 0x4 ADD PUSH2 0x768 SWAP1 PUSH2 0x1E65 JUMP JUMPDEST PUSH1 0x1 PUSH1 0x1 PUSH1 0xA0 SHL SUB DUP1 DUP5 AND PUSH1 0x0 DUP2 DUP2 MSTORE PUSH1 0x1 PUSH1 0x20 SWAP1 DUP2 MSTORE PUSH1 0x40 DUP1 DUP4 KECCAK256 SWAP5 DUP8 AND DUP1 DUP5 MSTORE SWAP5 SWAP1 SWAP2 MSTORE SWAP1 DUP2 SWAP1 KECCAK256 DUP5 SWAP1 SSTORE MLOAD PUSH32 0x8C5BE1E5EBEC7D5BD14F71427D1E84F3DD0314C0F7B2291E5B200AC8C7C3B925 SWAP1 PUSH2 0xDA7 SWAP1 DUP6 SWAP1 PUSH2 0x22B1 JUMP JUMPDEST PUSH1 0x40 MLOAD DUP1 SWAP2 SUB SWAP1 LOG3 POP POP POP JUMP JUMPDEST PUSH1 0x0 PUSH2 0xDC0 DUP5 DUP5 PUSH2 0xAD4 JUMP JUMPDEST SWAP1 POP PUSH1 0x0 NOT DUP2 EQ PUSH2 0xDF8 JUMPI DUP2 DUP2 LT ISZERO PUSH2 0xDEB JUMPI PUSH1 0x40 MLOAD PUSH3 0x461BCD PUSH1 0xE5 SHL DUP2 MSTORE PUSH1 0x4 ADD PUSH2 0x768 SWAP1 PUSH2 0x1EEF JUMP JUMPDEST PUSH2 0xDF8 DUP5 DUP5 DUP5 DUP5 SUB PUSH2 0xD00 JUMP JUMPDEST POP POP POP POP JUMP JUMPDEST PUSH1 0x1 PUSH1 0x1 PUSH1 0xA0 SHL SUB DUP4 AND PUSH2 0xE24 JUMPI PUSH1 0x40 MLOAD PUSH3 0x461BCD PUSH1 0xE5 SHL DUP2 MSTORE PUSH1 0x4 ADD PUSH2 0x768 SWAP1 PUSH2 0x214C JUMP JUMPDEST PUSH1 0x1 PUSH1 0x1 PUSH1 0xA0 SHL SUB DUP3 AND PUSH2 0xE4A JUMPI PUSH1 0x40 MLOAD PUSH3 0x461BCD PUSH1 0xE5 SHL DUP2 MSTORE PUSH1 0x4 ADD PUSH2 0x768 SWAP1 PUSH2 0x1D9A JUMP JUMPDEST PUSH2 0xE55 DUP4 DUP4 DUP4 PUSH2 0x1378 JUMP JUMPDEST PUSH1 0x1 PUSH1 0x1 PUSH1 0xA0 SHL SUB DUP4 AND PUSH1 0x0 SWAP1 DUP2 MSTORE PUSH1 0x20 DUP2 SWAP1 MSTORE PUSH1 0x40 SWAP1 KECCAK256 SLOAD DUP2 DUP2 LT ISZERO PUSH2 0xE8E JUMPI PUSH1 0x40 MLOAD PUSH3 0x461BCD PUSH1 0xE5 SHL DUP2 MSTORE PUSH1 0x4 ADD PUSH2 0x768 SWAP1 PUSH2 0x1F26 JUMP JUMPDEST PUSH1 0x1 PUSH1 0x1 PUSH1 0xA0 SHL SUB DUP1 DUP6 AND PUSH1 0x0 DUP2 DUP2 MSTORE PUSH1 0x20 DUP2 SWAP1 MSTORE PUSH1 0x40 DUP1 DUP3 KECCAK256 DUP7 DUP7 SUB SWAP1 SSTORE SWAP3 DUP7 AND DUP1 DUP3 MSTORE SWAP1 DUP4 SWAP1 KECCAK256 DUP1 SLOAD DUP7 ADD SWAP1 SSTORE SWAP2 MLOAD PUSH32 0xDDF252AD1BE2C89B69C2B068FC378DAA952BA7F163C4A11628F55A4DF523B3EF SWAP1 PUSH2 0xEEC SWAP1 DUP7 SWAP1 PUSH2 0x22B1 JUMP JUMPDEST PUSH1 0x40 MLOAD DUP1 SWAP2 SUB SWAP1 LOG3 PUSH2 0xDF8 DUP5 DUP5 DUP5 PUSH2 0x10BB JUMP JUMPDEST PUSH2 0xF07 PUSH2 0xCFC JUMP JUMPDEST PUSH1 0x1 PUSH1 0x1 PUSH1 0xA0 SHL SUB AND PUSH2 0xF18 PUSH2 0x65C JUMP JUMPDEST PUSH1 0x1 PUSH1 0x1 PUSH1 0xA0 SHL SUB AND EQ PUSH2 0x63E JUMPI PUSH1 0x40 MLOAD PUSH3 0x461BCD PUSH1 0xE5 SHL DUP2 MSTORE PUSH1 0x4 ADD PUSH2 0x768 SWAP1 PUSH2 0x2001 JUMP JUMPDEST PUSH1 0x1 PUSH1 0x1 PUSH1 0xA0 SHL SUB DUP3 AND PUSH2 0xF64 JUMPI PUSH1 0x40 MLOAD PUSH3 0x461BCD PUSH1 0xE5 SHL DUP2 MSTORE PUSH1 0x4 ADD PUSH2 0x768 SWAP1 PUSH2 0x221A JUMP JUMPDEST PUSH2 0xF70 PUSH1 0x0 DUP4 DUP4 PUSH2 0x1378 JUMP JUMPDEST DUP1 PUSH1 0x2 PUSH1 0x0 DUP3 DUP3 SLOAD PUSH2 0xF82 SWAP2 SWAP1 PUSH2 0x2360 JUMP JUMPDEST SWAP1 SWAP2 SSTORE POP POP PUSH1 0x1 PUSH1 0x1 PUSH1 0xA0 SHL SUB DUP3 AND PUSH1 0x0 DUP2 DUP2 MSTORE PUSH1 0x20 DUP2 SWAP1 MSTORE PUSH1 0x40 DUP1 DUP3 KECCAK256 DUP1 SLOAD DUP6 ADD SWAP1 SSTORE MLOAD PUSH32 0xDDF252AD1BE2C89B69C2B068FC378DAA952BA7F163C4A11628F55A4DF523B3EF SWAP1 PUSH2 0xFD4 SWAP1 DUP6 SWAP1 PUSH2 0x22B1 JUMP JUMPDEST PUSH1 0x40 MLOAD DUP1 SWAP2 SUB SWAP1 LOG3 PUSH2 0x5EA PUSH1 0x0 DUP4 DUP4 PUSH2 0x10BB JUMP JUMPDEST PUSH1 0x1 PUSH1 0x1 PUSH1 0xA0 SHL SUB DUP3 AND PUSH2 0x100E JUMPI PUSH1 0x40 MLOAD PUSH3 0x461BCD PUSH1 0xE5 SHL DUP2 MSTORE PUSH1 0x4 ADD PUSH2 0x768 SWAP1 PUSH2 0x210B JUMP JUMPDEST PUSH2 0x101A DUP3 PUSH1 0x0 DUP4 PUSH2 0x1378 JUMP JUMPDEST PUSH1 0x1 PUSH1 0x1 PUSH1 0xA0 SHL SUB DUP3 AND PUSH1 0x0 SWAP1 DUP2 MSTORE PUSH1 0x20 DUP2 SWAP1 MSTORE PUSH1 0x40 SWAP1 KECCAK256 SLOAD DUP2 DUP2 LT ISZERO PUSH2 0x1053 JUMPI PUSH1 0x40 MLOAD PUSH3 0x461BCD PUSH1 0xE5 SHL DUP2 MSTORE PUSH1 0x4 ADD PUSH2 0x768 SWAP1 PUSH2 0x1DDD JUMP JUMPDEST PUSH1 0x1 PUSH1 0x1 PUSH1 0xA0 SHL SUB DUP4 AND PUSH1 0x0 DUP2 DUP2 MSTORE PUSH1 0x20 DUP2 SWAP1 MSTORE PUSH1 0x40 DUP1 DUP3 KECCAK256 DUP6 DUP6 SUB SWAP1 SSTORE PUSH1 0x2 DUP1 SLOAD DUP7 SWAP1 SUB SWAP1 SSTORE MLOAD SWAP1 SWAP2 SWAP1 PUSH32 0xDDF252AD1BE2C89B69C2B068FC378DAA952BA7F163C4A11628F55A4DF523B3EF SWAP1 PUSH2 0x10AB SWAP1 DUP7 SWAP1 PUSH2 0x22B1 JUMP JUMPDEST PUSH1 0x40 MLOAD DUP1 SWAP2 SUB SWAP1 LOG3 PUSH2 0x10BB DUP4 PUSH1 0x0 DUP5 JUMPDEST POP POP POP JUMP JUMPDEST PUSH1 0x5 DUP1 SLOAD PUSH1 0x1 PUSH1 0x1 PUSH1 0xA0 SHL SUB DUP4 DUP2 AND PUSH1 0x1 PUSH1 0x1 PUSH1 0xA0 SHL SUB NOT DUP4 AND DUP2 OR SWAP1 SWAP4 SSTORE PUSH1 0x40 MLOAD SWAP2 AND SWAP2 SWAP1 DUP3 SWAP1 PUSH32 0x8BE0079C531659141344CD1FD0A4F28419497F9722A3DAAFE3B4186F6B6457E0 SWAP1 PUSH1 0x0 SWAP1 LOG3 POP POP JUMP JUMPDEST PUSH1 0x0 PUSH2 0x11B4 DUP4 DUP4 PUSH1 0x1 PUSH1 0x1 PUSH1 0xA0 SHL SUB AND PUSH4 0x9F442AFA PUSH1 0x40 MLOAD DUP2 PUSH4 0xFFFFFFFF AND PUSH1 0xE0 SHL DUP2 MSTORE PUSH1 0x4 ADD PUSH1 0x20 PUSH1 0x40 MLOAD DUP1 DUP4 SUB DUP2 DUP7 DUP1 EXTCODESIZE ISZERO DUP1 ISZERO PUSH2 0x1151 JUMPI PUSH1 0x0 DUP1 REVERT JUMPDEST POP GAS STATICCALL ISZERO DUP1 ISZERO PUSH2 0x1165 JUMPI RETURNDATASIZE PUSH1 0x0 DUP1 RETURNDATACOPY RETURNDATASIZE PUSH1 0x0 REVERT JUMPDEST POP POP POP POP PUSH1 0x40 MLOAD RETURNDATASIZE PUSH1 0x1F NOT PUSH1 0x1F DUP3 ADD AND DUP3 ADD DUP1 PUSH1 0x40 MSTORE POP DUP2 ADD SWAP1 PUSH2 0x1189 SWAP2 SWAP1 PUSH2 0x18F6 JUMP JUMPDEST DUP2 MLOAD DUP2 LT PUSH2 0x11A7 JUMPI PUSH4 0x4E487B71 PUSH1 0xE0 SHL PUSH1 0x0 MSTORE PUSH1 0x32 PUSH1 0x4 MSTORE PUSH1 0x24 PUSH1 0x0 REVERT JUMPDEST PUSH1 0x20 MUL PUSH1 0x20 ADD ADD MLOAD PUSH2 0x13C0 JUMP JUMPDEST SWAP1 POP DUP1 PUSH1 0x1 PUSH1 0x1 PUSH1 0xA0 SHL SUB AND PUSH2 0x11C8 PUSH2 0xCFC JUMP JUMPDEST PUSH1 0x1 PUSH1 0x1 PUSH1 0xA0 SHL SUB AND EQ PUSH2 0xDF8 JUMPI PUSH1 0x40 MLOAD PUSH3 0x461BCD PUSH1 0xE5 SHL DUP2 MSTORE PUSH1 0x4 ADD PUSH2 0x768 SWAP1 PUSH2 0x1EA7 JUMP JUMPDEST PUSH1 0x1 PUSH1 0x1 PUSH1 0x40 SHL SUB DUP4 AND PUSH1 0x1 EQ DUP1 ISZERO PUSH2 0x122A JUMPI POP PUSH1 0xC PUSH1 0x0 PUSH2 0x120E PUSH2 0xCFC JUMP JUMPDEST PUSH1 0x1 PUSH1 0x1 PUSH1 0xA0 SHL SUB AND DUP2 MSTORE PUSH1 0x20 DUP2 ADD SWAP2 SWAP1 SWAP2 MSTORE PUSH1 0x40 ADD PUSH1 0x0 KECCAK256 SLOAD ISZERO JUMPDEST PUSH2 0x1246 JUMPI PUSH1 0x40 MLOAD PUSH3 0x461BCD PUSH1 0xE5 SHL DUP2 MSTORE PUSH1 0x4 ADD PUSH2 0x768 SWAP1 PUSH2 0x2036 JUMP JUMPDEST PUSH1 0x0 DUP3 DUP3 PUSH1 0x1 PUSH1 0x1 PUSH1 0xA0 SHL SUB AND PUSH4 0x9F442AFA PUSH1 0x40 MLOAD DUP2 PUSH4 0xFFFFFFFF AND PUSH1 0xE0 SHL DUP2 MSTORE PUSH1 0x4 ADD PUSH1 0x20 PUSH1 0x40 MLOAD DUP1 DUP4 SUB DUP2 DUP7 DUP1 EXTCODESIZE ISZERO DUP1 ISZERO PUSH2 0x1282 JUMPI PUSH1 0x0 DUP1 REVERT JUMPDEST POP GAS STATICCALL ISZERO DUP1 ISZERO PUSH2 0x1296 JUMPI RETURNDATASIZE PUSH1 0x0 DUP1 RETURNDATACOPY RETURNDATASIZE PUSH1 0x0 REVERT JUMPDEST POP POP POP POP PUSH1 0x40 MLOAD RETURNDATASIZE PUSH1 0x1F NOT PUSH1 0x1F DUP3 ADD AND DUP3 ADD DUP1 PUSH1 0x40 MSTORE POP DUP2 ADD SWAP1 PUSH2 0x12BA SWAP2 SWAP1 PUSH2 0x18F6 JUMP JUMPDEST DUP2 MLOAD DUP2 LT PUSH2 0x12D8 JUMPI PUSH4 0x4E487B71 PUSH1 0xE0 SHL PUSH1 0x0 MSTORE PUSH1 0x32 PUSH1 0x4 MSTORE PUSH1 0x24 PUSH1 0x0 REVERT JUMPDEST PUSH1 0x20 SWAP1 DUP2 MUL SWAP2 SWAP1 SWAP2 ADD DUP2 ADD MLOAD PUSH1 0x0 DUP2 DUP2 MSTORE PUSH1 0xB SWAP1 SWAP3 MSTORE PUSH1 0x40 SWAP1 SWAP2 KECCAK256 SLOAD SWAP1 SWAP2 POP PUSH1 0x1 PUSH1 0x1 PUSH1 0xA0 SHL SUB AND PUSH2 0xDF8 JUMPI PUSH2 0x1317 PUSH2 0x130F PUSH2 0xCFC JUMP JUMPDEST PUSH1 0xA SLOAD PUSH2 0xF3E JUMP JUMPDEST DUP1 PUSH1 0xC PUSH1 0x0 PUSH2 0x1324 PUSH2 0xCFC JUMP JUMPDEST PUSH1 0x1 PUSH1 0x1 PUSH1 0xA0 SHL SUB AND DUP2 MSTORE PUSH1 0x20 DUP2 ADD SWAP2 SWAP1 SWAP2 MSTORE PUSH1 0x40 ADD PUSH1 0x0 KECCAK256 SSTORE PUSH2 0x1346 PUSH2 0xCFC JUMP JUMPDEST PUSH1 0x0 SWAP2 DUP3 MSTORE PUSH1 0xB PUSH1 0x20 MSTORE PUSH1 0x40 SWAP1 SWAP2 KECCAK256 DUP1 SLOAD PUSH1 0x1 PUSH1 0x1 PUSH1 0xA0 SHL SUB NOT AND PUSH1 0x1 PUSH1 0x1 PUSH1 0xA0 SHL SUB SWAP3 SWAP1 SWAP3 AND SWAP2 SWAP1 SWAP2 OR SWAP1 SSTORE POP POP POP JUMP JUMPDEST PUSH1 0x1 PUSH1 0x1 PUSH1 0xA0 SHL SUB DUP3 AND PUSH1 0x0 SWAP1 DUP2 MSTORE PUSH1 0x6 PUSH1 0x20 SWAP1 DUP2 MSTORE PUSH1 0x40 DUP1 DUP4 KECCAK256 PUSH1 0x1 DUP1 DUP6 MSTORE SWAP3 MSTORE SWAP1 SWAP2 KECCAK256 SLOAD PUSH1 0xFF AND ISZERO ISZERO EQ PUSH2 0x10BB JUMPI PUSH1 0x40 MLOAD PUSH3 0x461BCD PUSH1 0xE5 SHL DUP2 MSTORE PUSH1 0x4 ADD PUSH2 0x768 SWAP1 PUSH2 0x1F6C JUMP JUMPDEST PUSH1 0x0 PUSH2 0x13DB PUSH2 0x13D6 PUSH2 0x13D1 DUP5 PUSH2 0x13E1 JUMP JUMPDEST PUSH2 0x151B JUMP JUMPDEST PUSH2 0x1545 JUMP JUMPDEST SWAP3 SWAP2 POP POP JUMP JUMPDEST PUSH1 0x8 DUP2 DUP2 SHR PUSH31 0xFF00FF00FF00FF00FF00FF00FF00FF00FF00FF00FF00FF00FF00FF00FF00FF AND PUSH32 0xFF00FF00FF00FF00FF00FF00FF00FF00FF00FF00FF00FF00FF00FF00FF00FF00 SWAP3 SWAP1 SWAP2 SHL SWAP2 SWAP1 SWAP2 AND OR PUSH1 0x10 DUP2 DUP2 SHR PUSH30 0xFFFF0000FFFF0000FFFF0000FFFF0000FFFF0000FFFF0000FFFF0000FFFF AND PUSH32 0xFFFF0000FFFF0000FFFF0000FFFF0000FFFF0000FFFF0000FFFF0000FFFF0000 SWAP3 SWAP1 SWAP2 SHL SWAP2 SWAP1 SWAP2 AND OR PUSH1 0x20 DUP2 DUP2 SHR PUSH28 0xFFFFFFFF00000000FFFFFFFF00000000FFFFFFFF00000000FFFFFFFF AND PUSH32 0xFFFFFFFF00000000FFFFFFFF00000000FFFFFFFF00000000FFFFFFFF00000000 SWAP3 SWAP1 SWAP2 SHL SWAP2 SWAP1 SWAP2 AND OR PUSH1 0x40 DUP2 DUP2 SHR PUSH24 0xFFFFFFFFFFFFFFFF0000000000000000FFFFFFFFFFFFFFFF AND PUSH24 0xFFFFFFFFFFFFFFFF0000000000000000FFFFFFFFFFFFFFFF NOT SWAP3 SWAP1 SWAP2 SHL SWAP2 SWAP1 SWAP2 AND OR PUSH1 0x80 DUP2 DUP2 SHR SWAP2 SWAP1 SHL OR SWAP1 JUMP JUMPDEST PUSH1 0x40 DUP1 MLOAD PUSH1 0x20 DUP1 DUP3 MSTORE DUP2 DUP4 ADD SWAP1 SWAP3 MSTORE PUSH1 0x60 SWAP2 PUSH1 0x20 DUP3 ADD DUP2 DUP1 CALLDATASIZE DUP4 CALLDATACOPY POP POP POP PUSH1 0x20 DUP2 ADD SWAP3 SWAP1 SWAP3 MSTORE POP SWAP1 JUMP JUMPDEST PUSH1 0x14 ADD MLOAD SWAP1 JUMP JUMPDEST PUSH1 0x40 MLOAD DUP1 PUSH1 0xA0 ADD PUSH1 0x40 MSTORE DUP1 PUSH1 0x0 DUP2 MSTORE PUSH1 0x20 ADD PUSH1 0x0 DUP2 MSTORE PUSH1 0x20 ADD PUSH1 0x0 DUP2 MSTORE PUSH1 0x20 ADD PUSH1 0x60 DUP2 MSTORE PUSH1 0x20 ADD PUSH1 0x60 DUP2 MSTORE POP SWAP1 JUMP JUMPDEST DUP3 DUP1 SLOAD DUP3 DUP3 SSTORE SWAP1 PUSH1 0x0 MSTORE PUSH1 0x20 PUSH1 0x0 KECCAK256 SWAP1 DUP2 ADD SWAP3 DUP3 ISZERO PUSH2 0x15B6 JUMPI SWAP2 PUSH1 0x20 MUL DUP3 ADD JUMPDEST DUP3 DUP2 GT ISZERO PUSH2 0x15B6 JUMPI DUP3 MLOAD DUP3 SSTORE SWAP2 PUSH1 0x20 ADD SWAP2 SWAP1 PUSH1 0x1 ADD SWAP1 PUSH2 0x159B JUMP JUMPDEST POP PUSH2 0x15C2 SWAP3 SWAP2 POP PUSH2 0x1639 JUMP JUMPDEST POP SWAP1 JUMP JUMPDEST DUP3 DUP1 SLOAD PUSH2 0x15D2 SWAP1 PUSH2 0x2384 JUMP JUMPDEST SWAP1 PUSH1 0x0 MSTORE PUSH1 0x20 PUSH1 0x0 KECCAK256 SWAP1 PUSH1 0x1F ADD PUSH1 0x20 SWAP1 DIV DUP2 ADD SWAP3 DUP3 PUSH2 0x15F4 JUMPI PUSH1 0x0 DUP6 SSTORE PUSH2 0x15B6 JUMP JUMPDEST DUP3 PUSH1 0x1F LT PUSH2 0x160D JUMPI DUP1 MLOAD PUSH1 0xFF NOT AND DUP4 DUP1 ADD OR DUP6 SSTORE PUSH2 0x15B6 JUMP JUMPDEST DUP3 DUP1 ADD PUSH1 0x1 ADD DUP6 SSTORE DUP3 ISZERO PUSH2 0x15B6 JUMPI SWAP2 DUP3 ADD DUP3 DUP2 GT ISZERO PUSH2 0x15B6 JUMPI DUP3 MLOAD DUP3 SSTORE SWAP2 PUSH1 0x20 ADD SWAP2 SWAP1 PUSH1 0x1 ADD SWAP1 PUSH2 0x159B JUMP JUMPDEST JUMPDEST DUP1 DUP3 GT ISZERO PUSH2 0x15C2 JUMPI PUSH1 0x0 DUP2 SSTORE PUSH1 0x1 ADD PUSH2 0x163A JUMP JUMPDEST PUSH1 0x0 DUP3 PUSH1 0x1F DUP4 ADD SLT PUSH2 0x165E JUMPI DUP1 DUP2 REVERT JUMPDEST PUSH1 0x40 MLOAD PUSH1 0x40 DUP2 ADD DUP2 DUP2 LT PUSH1 0x1 PUSH1 0x1 PUSH1 0x40 SHL SUB DUP3 GT OR ISZERO PUSH2 0x1680 JUMPI PUSH2 0x1680 PUSH2 0x23BF JUMP JUMPDEST DUP1 PUSH1 0x40 MSTORE POP DUP1 DUP4 DUP6 PUSH1 0x40 DUP7 ADD GT ISZERO PUSH2 0x1696 JUMPI DUP4 DUP5 REVERT JUMPDEST DUP4 JUMPDEST PUSH1 0x2 DUP2 LT ISZERO PUSH2 0x16B7 JUMPI DUP2 CALLDATALOAD DUP4 MSTORE PUSH1 0x20 SWAP3 DUP4 ADD SWAP3 SWAP1 SWAP2 ADD SWAP1 PUSH1 0x1 ADD PUSH2 0x1698 JUMP JUMPDEST POP SWAP2 SWAP6 SWAP5 POP POP POP POP POP JUMP JUMPDEST PUSH1 0x0 DUP3 PUSH1 0x1F DUP4 ADD SLT PUSH2 0x16D2 JUMPI DUP1 DUP2 REVERT JUMPDEST DUP2 CALLDATALOAD PUSH1 0x20 PUSH1 0x1 PUSH1 0x1 PUSH1 0x40 SHL SUB DUP3 GT ISZERO PUSH2 0x16ED JUMPI PUSH2 0x16ED PUSH2 0x23BF JUMP JUMPDEST DUP1 DUP3 MUL PUSH2 0x16FB DUP3 DUP3 ADD PUSH2 0x230B JUMP JUMPDEST DUP4 DUP2 MSTORE DUP3 DUP2 ADD SWAP1 DUP7 DUP5 ADD DUP4 DUP9 ADD DUP6 ADD DUP10 LT ISZERO PUSH2 0x1715 JUMPI DUP7 DUP8 REVERT JUMPDEST DUP7 SWAP4 POP JUMPDEST DUP6 DUP5 LT ISZERO PUSH2 0x1737 JUMPI DUP1 CALLDATALOAD DUP4 MSTORE PUSH1 0x1 SWAP4 SWAP1 SWAP4 ADD SWAP3 SWAP2 DUP5 ADD SWAP2 DUP5 ADD PUSH2 0x1719 JUMP JUMPDEST POP SWAP8 SWAP7 POP POP POP POP POP POP POP JUMP JUMPDEST PUSH1 0x0 DUP3 PUSH1 0x1F DUP4 ADD SLT PUSH2 0x1753 JUMPI DUP1 DUP2 REVERT JUMPDEST DUP2 CALLDATALOAD PUSH1 0x1 PUSH1 0x1 PUSH1 0x40 SHL SUB DUP2 GT ISZERO PUSH2 0x176C JUMPI PUSH2 0x176C PUSH2 0x23BF JUMP JUMPDEST PUSH2 0x177F PUSH1 0x1F DUP3 ADD PUSH1 0x1F NOT AND PUSH1 0x20 ADD PUSH2 0x230B JUMP JUMPDEST DUP2 DUP2 MSTORE DUP5 PUSH1 0x20 DUP4 DUP7 ADD ADD GT ISZERO PUSH2 0x1793 JUMPI DUP3 DUP4 REVERT JUMPDEST DUP2 PUSH1 0x20 DUP6 ADD PUSH1 0x20 DUP4 ADD CALLDATACOPY SWAP1 DUP2 ADD PUSH1 0x20 ADD SWAP2 SWAP1 SWAP2 MSTORE SWAP3 SWAP2 POP POP JUMP JUMPDEST DUP1 CALLDATALOAD PUSH1 0x1 PUSH1 0x1 PUSH1 0x40 SHL SUB DUP2 AND DUP2 EQ PUSH2 0x627 JUMPI PUSH1 0x0 DUP1 REVERT JUMPDEST PUSH1 0x0 PUSH1 0x20 DUP3 DUP5 SUB SLT ISZERO PUSH2 0x17D5 JUMPI DUP1 DUP2 REVERT JUMPDEST DUP2 CALLDATALOAD PUSH2 0x17E0 DUP2 PUSH2 0x23D5 JUMP JUMPDEST SWAP4 SWAP3 POP POP POP JUMP JUMPDEST PUSH1 0x0 DUP1 PUSH1 0x40 DUP4 DUP6 SUB SLT ISZERO PUSH2 0x17F9 JUMPI DUP1 DUP2 REVERT JUMPDEST DUP3 CALLDATALOAD PUSH2 0x1804 DUP2 PUSH2 0x23D5 JUMP JUMPDEST SWAP2 POP PUSH1 0x20 DUP4 ADD CALLDATALOAD PUSH2 0x1814 DUP2 PUSH2 0x23D5 JUMP JUMPDEST DUP1 SWAP2 POP POP SWAP3 POP SWAP3 SWAP1 POP JUMP JUMPDEST PUSH1 0x0 DUP1 PUSH1 0x0 PUSH1 0x60 DUP5 DUP7 SUB SLT ISZERO PUSH2 0x1833 JUMPI DUP1 DUP2 REVERT JUMPDEST DUP4 CALLDATALOAD PUSH2 0x183E DUP2 PUSH2 0x23D5 JUMP JUMPDEST SWAP3 POP PUSH1 0x20 DUP5 ADD CALLDATALOAD PUSH2 0x184E DUP2 PUSH2 0x23D5 JUMP JUMPDEST SWAP3 SWAP6 SWAP3 SWAP5 POP POP POP PUSH1 0x40 SWAP2 SWAP1 SWAP2 ADD CALLDATALOAD SWAP1 JUMP JUMPDEST PUSH1 0x0 DUP1 PUSH1 0x40 DUP4 DUP6 SUB SLT ISZERO PUSH2 0x1871 JUMPI DUP2 DUP3 REVERT JUMPDEST DUP3 CALLDATALOAD PUSH2 0x187C DUP2 PUSH2 0x23D5 JUMP JUMPDEST SWAP5 PUSH1 0x20 SWAP4 SWAP1 SWAP4 ADD CALLDATALOAD SWAP4 POP POP POP JUMP JUMPDEST PUSH1 0x0 DUP1 PUSH1 0x40 DUP4 DUP6 SUB SLT ISZERO PUSH2 0x189C JUMPI DUP2 DUP3 REVERT JUMPDEST DUP3 CALLDATALOAD PUSH2 0x18A7 DUP2 PUSH2 0x23D5 JUMP JUMPDEST SWAP2 POP PUSH2 0x18B5 PUSH1 0x20 DUP5 ADD PUSH2 0x17AD JUMP JUMPDEST SWAP1 POP SWAP3 POP SWAP3 SWAP1 POP JUMP JUMPDEST PUSH1 0x0 PUSH1 0x20 DUP3 DUP5 SUB SLT ISZERO PUSH2 0x18CF JUMPI DUP1 DUP2 REVERT JUMPDEST DUP2 MLOAD DUP1 ISZERO ISZERO DUP2 EQ PUSH2 0x17E0 JUMPI DUP2 DUP3 REVERT JUMPDEST PUSH1 0x0 PUSH1 0x20 DUP3 DUP5 SUB SLT ISZERO PUSH2 0x18EF JUMPI DUP1 DUP2 REVERT JUMPDEST POP CALLDATALOAD SWAP2 SWAP1 POP JUMP JUMPDEST PUSH1 0x0 PUSH1 0x20 DUP3 DUP5 SUB SLT ISZERO PUSH2 0x1907 JUMPI DUP1 DUP2 REVERT JUMPDEST POP MLOAD SWAP2 SWAP1 POP JUMP JUMPDEST PUSH1 0x0 PUSH1 0x20 DUP3 DUP5 SUB SLT ISZERO PUSH2 0x191F JUMPI DUP1 DUP2 REVERT JUMPDEST PUSH2 0x17E0 DUP3 PUSH2 0x17AD JUMP JUMPDEST PUSH1 0x0 DUP1 PUSH1 0x0 DUP1 PUSH1 0x0 PUSH2 0x140 DUP7 DUP9 SUB SLT ISZERO PUSH2 0x1940 JUMPI DUP3 DUP4 REVERT JUMPDEST PUSH2 0x1949 DUP7 PUSH2 0x17AD JUMP JUMPDEST SWAP5 POP PUSH1 0x20 DUP1 DUP8 ADD CALLDATALOAD PUSH1 0x1 PUSH1 0x1 PUSH1 0x40 SHL SUB DUP2 GT ISZERO PUSH2 0x1964 JUMPI DUP5 DUP6 REVERT JUMPDEST PUSH2 0x1970 DUP10 DUP3 DUP11 ADD PUSH2 0x16C2 JUMP JUMPDEST SWAP6 POP POP PUSH1 0x40 PUSH2 0x1981 DUP10 DUP3 DUP11 ADD PUSH2 0x164E JUMP JUMPDEST SWAP5 POP DUP9 PUSH1 0x9F DUP10 ADD SLT PUSH2 0x1991 JUMPI DUP3 DUP4 REVERT JUMPDEST PUSH1 0x2 PUSH2 0x19A4 PUSH2 0x199F DUP3 PUSH2 0x2334 JUMP JUMPDEST PUSH2 0x230B JUMP JUMPDEST DUP1 PUSH1 0x80 DUP12 ADD PUSH2 0x100 DUP13 ADD DUP14 DUP2 GT ISZERO PUSH2 0x19BA JUMPI DUP8 DUP9 REVERT JUMPDEST DUP8 JUMPDEST DUP6 DUP2 LT ISZERO PUSH2 0x19E0 JUMPI PUSH2 0x19CE DUP16 DUP5 PUSH2 0x164E JUMP JUMPDEST DUP6 MSTORE SWAP4 DUP8 ADD SWAP4 SWAP2 DUP7 ADD SWAP2 PUSH1 0x1 ADD PUSH2 0x19BC JUMP JUMPDEST POP DUP3 SWAP9 POP PUSH2 0x19EE DUP15 DUP3 PUSH2 0x164E JUMP JUMPDEST SWAP8 POP POP POP POP POP POP POP POP SWAP3 SWAP6 POP SWAP3 SWAP6 SWAP1 SWAP4 POP JUMP JUMPDEST PUSH1 0x0 DUP1 PUSH1 0x0 PUSH1 0x60 DUP5 DUP7 SUB SLT ISZERO PUSH2 0x1A15 JUMPI DUP1 DUP2 REVERT JUMPDEST PUSH2 0x1A1E DUP5 PUSH2 0x17AD JUMP JUMPDEST SWAP3 POP PUSH1 0x20 DUP5 ADD CALLDATALOAD PUSH2 0x1A2E DUP2 PUSH2 0x23D5 JUMP JUMPDEST SWAP2 POP PUSH1 0x40 DUP5 ADD CALLDATALOAD PUSH1 0x1 PUSH1 0x1 PUSH1 0x40 SHL SUB DUP1 DUP3 GT ISZERO PUSH2 0x1A49 JUMPI DUP3 DUP4 REVERT JUMPDEST SWAP1 DUP6 ADD SWAP1 PUSH1 0xA0 DUP3 DUP9 SUB SLT ISZERO PUSH2 0x1A5C JUMPI DUP3 DUP4 REVERT JUMPDEST PUSH1 0x40 MLOAD PUSH1 0xA0 DUP2 ADD DUP2 DUP2 LT DUP4 DUP3 GT OR ISZERO PUSH2 0x1A77 JUMPI PUSH2 0x1A77 PUSH2 0x23BF JUMP JUMPDEST DUP1 PUSH1 0x40 MSTORE POP DUP3 CALLDATALOAD DUP2 MSTORE PUSH1 0x20 DUP4 ADD CALLDATALOAD PUSH1 0x20 DUP3 ADD MSTORE PUSH1 0x40 DUP4 ADD CALLDATALOAD PUSH1 0x40 DUP3 ADD MSTORE PUSH1 0x60 DUP4 ADD CALLDATALOAD DUP3 DUP2 GT ISZERO PUSH2 0x1AA5 JUMPI DUP5 DUP6 REVERT JUMPDEST PUSH2 0x1AB1 DUP10 DUP3 DUP7 ADD PUSH2 0x16C2 JUMP JUMPDEST PUSH1 0x60 DUP4 ADD MSTORE POP PUSH1 0x80 DUP4 ADD CALLDATALOAD DUP3 DUP2 GT ISZERO PUSH2 0x1AC8 JUMPI DUP5 DUP6 REVERT JUMPDEST PUSH2 0x1AD4 DUP10 DUP3 DUP7 ADD PUSH2 0x1743 JUMP JUMPDEST PUSH1 0x80 DUP4 ADD MSTORE POP DUP1 SWAP4 POP POP POP POP SWAP3 POP SWAP3 POP SWAP3 JUMP JUMPDEST DUP1 PUSH1 0x0 JUMPDEST PUSH1 0x2 DUP2 LT ISZERO PUSH2 0xDF8 JUMPI DUP2 MLOAD DUP5 MSTORE PUSH1 0x20 SWAP4 DUP5 ADD SWAP4 SWAP1 SWAP2 ADD SWAP1 PUSH1 0x1 ADD PUSH2 0x1AEB JUMP JUMPDEST PUSH1 0x0 DUP2 MLOAD DUP1 DUP5 MSTORE PUSH1 0x20 DUP1 DUP6 ADD SWAP5 POP DUP1 DUP5 ADD DUP4 JUMPDEST DUP4 DUP2 LT ISZERO PUSH2 0x1B39 JUMPI DUP2 MLOAD DUP8 MSTORE SWAP6 DUP3 ADD SWAP6 SWAP1 DUP3 ADD SWAP1 PUSH1 0x1 ADD PUSH2 0x1B1D JUMP JUMPDEST POP SWAP5 SWAP6 SWAP5 POP POP POP POP POP JUMP JUMPDEST PUSH1 0x0 DUP2 MLOAD DUP1 DUP5 MSTORE DUP2 JUMPDEST DUP2 DUP2 LT ISZERO PUSH2 0x1B69 JUMPI PUSH1 0x20 DUP2 DUP6 ADD DUP2 ADD MLOAD DUP7 DUP4 ADD DUP3 ADD MSTORE ADD PUSH2 0x1B4D JUMP JUMPDEST DUP2 DUP2 GT ISZERO PUSH2 0x1B7A JUMPI DUP3 PUSH1 0x20 DUP4 DUP8 ADD ADD MSTORE JUMPDEST POP PUSH1 0x1F ADD PUSH1 0x1F NOT AND SWAP3 SWAP1 SWAP3 ADD PUSH1 0x20 ADD SWAP3 SWAP2 POP POP JUMP JUMPDEST DUP1 SLOAD PUSH1 0x0 SWAP1 PUSH1 0x2 DUP2 DIV PUSH1 0x1 DUP1 DUP4 AND DUP1 PUSH2 0x1BA9 JUMPI PUSH1 0x7F DUP4 AND SWAP3 POP JUMPDEST PUSH1 0x20 DUP1 DUP5 LT DUP3 EQ ISZERO PUSH2 0x1BC9 JUMPI PUSH4 0x4E487B71 PUSH1 0xE0 SHL DUP7 MSTORE PUSH1 0x22 PUSH1 0x4 MSTORE PUSH1 0x24 DUP7 REVERT JUMPDEST PUSH2 0x1BD3 DUP5 DUP10 PUSH2 0x22B1 JUMP JUMPDEST DUP3 DUP1 ISZERO PUSH2 0x1BE7 JUMPI PUSH1 0x1 DUP2 EQ PUSH2 0x1BF8 JUMPI PUSH2 0x1C23 JUMP JUMPDEST PUSH1 0xFF NOT DUP8 AND DUP3 MSTORE DUP3 DUP3 ADD SWAP8 POP PUSH2 0x1C23 JUMP JUMPDEST PUSH2 0x1C01 DUP10 PUSH2 0x2354 JUMP JUMPDEST PUSH1 0x0 JUMPDEST DUP8 DUP2 LT ISZERO PUSH2 0x1C1D JUMPI DUP2 SLOAD DUP5 DUP3 ADD MSTORE SWAP1 DUP7 ADD SWAP1 DUP5 ADD PUSH2 0x1C04 JUMP JUMPDEST DUP4 ADD SWAP9 POP POP JUMPDEST POP POP POP POP POP POP POP SWAP3 SWAP2 POP POP JUMP JUMPDEST PUSH1 0x1 PUSH1 0x1 PUSH1 0xA0 SHL SUB SWAP2 SWAP1 SWAP2 AND DUP2 MSTORE PUSH1 0x20 ADD SWAP1 JUMP JUMPDEST PUSH1 0x0 PUSH2 0x140 DUP1 DUP4 MSTORE PUSH2 0x1C58 DUP2 DUP5 ADD DUP10 PUSH2 0x1B0A JUMP JUMPDEST SWAP1 POP PUSH1 0x20 PUSH2 0x1C68 DUP2 DUP6 ADD DUP10 PUSH2 0x1AE7 JUMP JUMPDEST PUSH1 0x60 DUP5 ADD DUP8 DUP5 JUMPDEST PUSH1 0x2 DUP2 LT ISZERO PUSH2 0x1C96 JUMPI PUSH2 0x1C83 DUP4 DUP4 MLOAD PUSH2 0x1AE7 JUMP JUMPDEST PUSH1 0x40 SWAP3 SWAP1 SWAP3 ADD SWAP2 SWAP1 DUP4 ADD SWAP1 PUSH1 0x1 ADD PUSH2 0x1C6F JUMP JUMPDEST POP POP POP PUSH2 0x1CA6 PUSH1 0xE0 DUP6 ADD DUP8 PUSH2 0x1AE7 JUMP JUMPDEST DUP4 DUP3 SUB PUSH2 0x120 DUP6 ADD MSTORE DUP5 SLOAD DUP3 MSTORE PUSH1 0x1 DUP1 DUP7 ADD SLOAD DUP3 DUP5 ADD MSTORE PUSH1 0x2 DUP7 ADD SLOAD PUSH1 0x40 DUP5 ADD MSTORE PUSH1 0xA0 PUSH1 0x60 DUP5 ADD DUP2 SWAP1 MSTORE PUSH1 0x3 DUP8 ADD DUP1 SLOAD SWAP2 DUP6 ADD DUP3 SWAP1 MSTORE DUP6 MSTORE DUP3 DUP6 KECCAK256 SWAP2 SWAP1 DUP6 SWAP1 PUSH1 0xC0 DUP7 ADD SWAP1 JUMPDEST DUP1 DUP4 LT ISZERO PUSH2 0x1D08 JUMPI DUP5 SLOAD DUP3 MSTORE SWAP4 DUP4 ADD SWAP4 SWAP2 DUP4 ADD SWAP2 SWAP1 DUP6 ADD SWAP1 PUSH2 0x1CEB JUMP JUMPDEST POP DUP6 DUP2 SUB PUSH1 0x80 DUP8 ADD MSTORE PUSH2 0x1D1E DUP2 PUSH1 0x4 DUP12 ADD PUSH2 0x1B8F JUMP JUMPDEST SWAP14 SWAP13 POP POP POP POP POP POP POP POP POP POP POP POP POP JUMP JUMPDEST PUSH1 0x20 DUP1 DUP3 MSTORE DUP3 MLOAD DUP3 DUP3 ADD DUP2 SWAP1 MSTORE PUSH1 0x0 SWAP2 SWAP1 DUP5 DUP3 ADD SWAP1 PUSH1 0x40 DUP6 ADD SWAP1 DUP5 JUMPDEST DUP2 DUP2 LT ISZERO PUSH2 0x1D70 JUMPI DUP4 MLOAD PUSH1 0x1 PUSH1 0x1 PUSH1 0x40 SHL SUB AND DUP4 MSTORE SWAP3 DUP5 ADD SWAP3 SWAP2 DUP5 ADD SWAP2 PUSH1 0x1 ADD PUSH2 0x1D4B JUMP JUMPDEST POP SWAP1 SWAP7 SWAP6 POP POP POP POP POP POP JUMP JUMPDEST SWAP1 ISZERO ISZERO DUP2 MSTORE PUSH1 0x20 ADD SWAP1 JUMP JUMPDEST PUSH1 0x0 PUSH1 0x20 DUP3 MSTORE PUSH2 0x17E0 PUSH1 0x20 DUP4 ADD DUP5 PUSH2 0x1B44 JUMP JUMPDEST PUSH1 0x20 DUP1 DUP3 MSTORE PUSH1 0x23 SWAP1 DUP3 ADD MSTORE PUSH32 0x45524332303A207472616E7366657220746F20746865207A65726F2061646472 PUSH1 0x40 DUP3 ADD MSTORE PUSH3 0x657373 PUSH1 0xE8 SHL PUSH1 0x60 DUP3 ADD MSTORE PUSH1 0x80 ADD SWAP1 JUMP JUMPDEST PUSH1 0x20 DUP1 DUP3 MSTORE PUSH1 0x22 SWAP1 DUP3 ADD MSTORE PUSH32 0x45524332303A206275726E20616D6F756E7420657863656564732062616C616E PUSH1 0x40 DUP3 ADD MSTORE PUSH2 0x6365 PUSH1 0xF0 SHL PUSH1 0x60 DUP3 ADD MSTORE PUSH1 0x80 ADD SWAP1 JUMP JUMPDEST PUSH1 0x20 DUP1 DUP3 MSTORE PUSH1 0x26 SWAP1 DUP3 ADD MSTORE PUSH32 0x4F776E61626C653A206E6577206F776E657220697320746865207A65726F2061 PUSH1 0x40 DUP3 ADD MSTORE PUSH6 0x646472657373 PUSH1 0xD0 SHL PUSH1 0x60 DUP3 ADD MSTORE PUSH1 0x80 ADD SWAP1 JUMP JUMPDEST PUSH1 0x20 DUP1 DUP3 MSTORE PUSH1 0x22 SWAP1 DUP3 ADD MSTORE PUSH32 0x45524332303A20617070726F766520746F20746865207A65726F206164647265 PUSH1 0x40 DUP3 ADD MSTORE PUSH2 0x7373 PUSH1 0xF0 SHL PUSH1 0x60 DUP3 ADD MSTORE PUSH1 0x80 ADD SWAP1 JUMP JUMPDEST PUSH1 0x20 DUP1 DUP3 MSTORE PUSH1 0x28 SWAP1 DUP3 ADD MSTORE PUSH32 0x6164647265737320696E2070726F6F66206973206E6F7420612073656E646572 PUSH1 0x40 DUP3 ADD MSTORE PUSH8 0x2061646472657373 PUSH1 0xC0 SHL PUSH1 0x60 DUP3 ADD MSTORE PUSH1 0x80 ADD SWAP1 JUMP JUMPDEST PUSH1 0x20 DUP1 DUP3 MSTORE PUSH1 0x1D SWAP1 DUP3 ADD MSTORE PUSH32 0x45524332303A20696E73756666696369656E7420616C6C6F77616E6365000000 PUSH1 0x40 DUP3 ADD MSTORE PUSH1 0x60 ADD SWAP1 JUMP JUMPDEST PUSH1 0x20 DUP1 DUP3 MSTORE PUSH1 0x26 SWAP1 DUP3 ADD MSTORE PUSH32 0x45524332303A207472616E7366657220616D6F756E7420657863656564732062 PUSH1 0x40 DUP3 ADD MSTORE PUSH6 0x616C616E6365 PUSH1 0xD0 SHL PUSH1 0x60 DUP3 ADD MSTORE PUSH1 0x80 ADD SWAP1 JUMP JUMPDEST PUSH1 0x20 DUP1 DUP3 MSTORE PUSH1 0x40 SWAP1 DUP3 ADD DUP2 SWAP1 MSTORE PUSH32 0x6F6E6C79206964656E7469746965732077686F2070726F76696465642070726F SWAP1 DUP3 ADD MSTORE PUSH32 0x6F662061726520616C6C6F77656420746F207265636569766520746F6B656E73 PUSH1 0x60 DUP3 ADD MSTORE PUSH1 0x80 ADD SWAP1 JUMP JUMPDEST PUSH1 0x20 DUP1 DUP3 MSTORE PUSH1 0x1B SWAP1 DUP3 ADD MSTORE PUSH32 0x70726F6F6620726573706F6E7365206973206E6F742076616C69640000000000 PUSH1 0x40 DUP3 ADD MSTORE PUSH1 0x60 ADD SWAP1 JUMP JUMPDEST PUSH1 0x20 DUP1 DUP3 MSTORE DUP2 DUP2 ADD MSTORE PUSH32 0x4F776E61626C653A2063616C6C6572206973206E6F7420746865206F776E6572 PUSH1 0x40 DUP3 ADD MSTORE PUSH1 0x60 ADD SWAP1 JUMP JUMPDEST PUSH1 0x20 DUP1 DUP3 MSTORE PUSH1 0x29 SWAP1 DUP3 ADD MSTORE PUSH32 0x70726F6F662063616E206E6F74206265207375626D6974746564206D6F726520 PUSH1 0x40 DUP3 ADD MSTORE PUSH9 0x7468616E206F6E6365 PUSH1 0xB8 SHL PUSH1 0x60 DUP3 ADD MSTORE PUSH1 0x80 ADD SWAP1 JUMP JUMPDEST PUSH1 0x20 DUP1 DUP3 MSTORE PUSH1 0x28 SWAP1 DUP3 ADD MSTORE PUSH32 0x76616C696461746F72206973206E6F742073657420666F722074686973207265 PUSH1 0x40 DUP3 ADD MSTORE PUSH8 0x1C5D595CDD081A59 PUSH1 0xC2 SHL PUSH1 0x60 DUP3 ADD MSTORE PUSH1 0x80 ADD SWAP1 JUMP JUMPDEST PUSH1 0x20 DUP1 DUP3 MSTORE PUSH1 0x24 SWAP1 DUP3 ADD MSTORE PUSH32 0x7175657279206973206E6F742073657420666F72207468697320726571756573 PUSH1 0x40 DUP3 ADD MSTORE PUSH4 0x1D081A59 PUSH1 0xE2 SHL PUSH1 0x60 DUP3 ADD MSTORE PUSH1 0x80 ADD SWAP1 JUMP JUMPDEST PUSH1 0x20 DUP1 DUP3 MSTORE PUSH1 0x21 SWAP1 DUP3 ADD MSTORE PUSH32 0x45524332303A206275726E2066726F6D20746865207A65726F20616464726573 PUSH1 0x40 DUP3 ADD MSTORE PUSH1 0x73 PUSH1 0xF8 SHL PUSH1 0x60 DUP3 ADD MSTORE PUSH1 0x80 ADD SWAP1 JUMP JUMPDEST PUSH1 0x20 DUP1 DUP3 MSTORE PUSH1 0x25 SWAP1 DUP3 ADD MSTORE PUSH32 0x45524332303A207472616E736665722066726F6D20746865207A65726F206164 PUSH1 0x40 DUP3 ADD MSTORE PUSH5 0x6472657373 PUSH1 0xD8 SHL PUSH1 0x60 DUP3 ADD MSTORE PUSH1 0x80 ADD SWAP1 JUMP JUMPDEST PUSH1 0x20 DUP1 DUP3 MSTORE PUSH1 0x24 SWAP1 DUP3 ADD MSTORE PUSH32 0x45524332303A20617070726F76652066726F6D20746865207A65726F20616464 PUSH1 0x40 DUP3 ADD MSTORE PUSH4 0x72657373 PUSH1 0xE0 SHL PUSH1 0x60 DUP3 ADD MSTORE PUSH1 0x80 ADD SWAP1 JUMP JUMPDEST PUSH1 0x20 DUP1 DUP3 MSTORE PUSH1 0x25 SWAP1 DUP3 ADD MSTORE PUSH32 0x45524332303A2064656372656173656420616C6C6F77616E63652062656C6F77 PUSH1 0x40 DUP3 ADD MSTORE PUSH5 0x207A65726F PUSH1 0xD8 SHL PUSH1 0x60 DUP3 ADD MSTORE PUSH1 0x80 ADD SWAP1 JUMP JUMPDEST PUSH1 0x20 DUP1 DUP3 MSTORE PUSH1 0x1F SWAP1 DUP3 ADD MSTORE PUSH32 0x45524332303A206D696E7420746F20746865207A65726F206164647265737300 PUSH1 0x40 DUP3 ADD MSTORE PUSH1 0x60 ADD SWAP1 JUMP JUMPDEST PUSH1 0x0 PUSH1 0x20 DUP3 MSTORE DUP3 MLOAD PUSH1 0x20 DUP4 ADD MSTORE PUSH1 0x20 DUP4 ADD MLOAD PUSH1 0x40 DUP4 ADD MSTORE PUSH1 0x40 DUP4 ADD MLOAD PUSH1 0x60 DUP4 ADD MSTORE PUSH1 0x60 DUP4 ADD MLOAD PUSH1 0xA0 PUSH1 0x80 DUP5 ADD MSTORE PUSH2 0x228B PUSH1 0xC0 DUP5 ADD DUP3 PUSH2 0x1B0A JUMP JUMPDEST SWAP1 POP PUSH1 0x80 DUP5 ADD MLOAD PUSH1 0x1F NOT DUP5 DUP4 SUB ADD PUSH1 0xA0 DUP6 ADD MSTORE PUSH2 0x22A8 DUP3 DUP3 PUSH2 0x1B44 JUMP JUMPDEST SWAP6 SWAP5 POP POP POP POP POP JUMP JUMPDEST SWAP1 DUP2 MSTORE PUSH1 0x20 ADD SWAP1 JUMP JUMPDEST PUSH1 0x0 DUP6 DUP3 MSTORE DUP5 PUSH1 0x20 DUP4 ADD MSTORE DUP4 PUSH1 0x40 DUP4 ADD MSTORE PUSH1 0x80 PUSH1 0x60 DUP4 ADD MSTORE PUSH2 0x22DF PUSH1 0x80 DUP4 ADD DUP5 PUSH2 0x1B44 JUMP JUMPDEST SWAP7 SWAP6 POP POP POP POP POP POP JUMP JUMPDEST PUSH1 0x1 PUSH1 0x1 PUSH1 0x40 SHL SUB SWAP2 SWAP1 SWAP2 AND DUP2 MSTORE PUSH1 0x20 ADD SWAP1 JUMP JUMPDEST PUSH1 0xFF SWAP2 SWAP1 SWAP2 AND DUP2 MSTORE PUSH1 0x20 ADD SWAP1 JUMP JUMPDEST PUSH1 0x40 MLOAD DUP2 DUP2 ADD PUSH1 0x1 PUSH1 0x1 PUSH1 0x40 SHL SUB DUP2 GT DUP3 DUP3 LT OR ISZERO PUSH2 0x232C JUMPI PUSH2 0x232C PUSH2 0x23BF JUMP JUMPDEST PUSH1 0x40 MSTORE SWAP2 SWAP1 POP JUMP JUMPDEST PUSH1 0x0 PUSH1 0x1 PUSH1 0x1 PUSH1 0x40 SHL SUB DUP3 GT ISZERO PUSH2 0x234D JUMPI PUSH2 0x234D PUSH2 0x23BF JUMP JUMPDEST POP PUSH1 0x20 MUL SWAP1 JUMP JUMPDEST PUSH1 0x0 SWAP1 DUP2 MSTORE PUSH1 0x20 SWAP1 KECCAK256 SWAP1 JUMP JUMPDEST PUSH1 0x0 DUP3 NOT DUP3 GT ISZERO PUSH2 0x237F JUMPI PUSH4 0x4E487B71 PUSH1 0xE0 SHL DUP2 MSTORE PUSH1 0x11 PUSH1 0x4 MSTORE PUSH1 0x24 DUP2 REVERT JUMPDEST POP ADD SWAP1 JUMP JUMPDEST PUSH1 0x2 DUP2 DIV PUSH1 0x1 DUP3 AND DUP1 PUSH2 0x2398 JUMPI PUSH1 0x7F DUP3 AND SWAP2 POP JUMPDEST PUSH1 0x20 DUP3 LT DUP2 EQ ISZERO PUSH2 0x23B9 JUMPI PUSH4 0x4E487B71 PUSH1 0xE0 SHL PUSH1 0x0 MSTORE PUSH1 0x22 PUSH1 0x4 MSTORE PUSH1 0x24 PUSH1 0x0 REVERT JUMPDEST POP SWAP2 SWAP1 POP JUMP JUMPDEST PUSH4 0x4E487B71 PUSH1 0xE0 SHL PUSH1 0x0 MSTORE PUSH1 0x41 PUSH1 0x4 MSTORE PUSH1 0x24 PUSH1 0x0 REVERT JUMPDEST PUSH1 0x1 PUSH1 0x1 PUSH1 0xA0 SHL SUB DUP2 AND DUP2 EQ PUSH2 0x5FF JUMPI PUSH1 0x0 DUP1 REVERT INVALID LOG2 PUSH5 0x6970667358 0x22 SLT KECCAK256 0xA8 BALANCE 0xEF DUP3 0xDD DUP2 DELEGATECALL SWAP14 0xB6 0xE 0xC5 0x48 ORIGIN 0xEB SDIV 0xAD 0xDD PUSH20 0xF1700267349015AC4D7ED1B0CB164736F6C6343 STOP ADDMOD STOP STOP CALLER "},"methodIdentifiers":{"TOKEN_AMOUNT_FOR_AIRDROP_PER_ID()":"7042f36b","TRANSFER_REQUEST_ID()":"63ec508f","addressToId(address)":"cb0e0d7d","allowance(address,address)":"dd62ed3e","approve(address,uint256)":"095ea7b3","balanceOf(address)":"70a08231","burn(uint256)":"42966c68","burnFrom(address,uint256)":"79cc6790","decimals()":"313ce567","decreaseAllowance(address,uint256)":"a457c2d7","getSupportedRequests()":"37ba9523","getZKPRequest(uint64)":"c76d0845","idToAddress(uint256)":"2a2d0c47","increaseAllowance(address,uint256)":"39509351","mint(address,uint256)":"40c10f19","name()":"06fdde03","owner()":"8da5cb5b","proofs(address,uint64)":"b45c0fdf","renounceOwnership()":"715018a6","requestQueries(uint64)":"96bf4741","requestValidators(uint64)":"a8723114","setZKPRequest(uint64,address,(uint256,uint256,uint256,uint256[],string))":"fee207e6","submitZKPResponse(uint64,uint256[],uint256[2],uint256[2][2],uint256[2])":"b68967e2","supportedRequests(uint256)":"f1435326","symbol()":"95d89b41","totalSupply()":"18160ddd","transfer(address,uint256)":"a9059cbb","transferFrom(address,address,uint256)":"23b872dd","transferOwnership(address)":"f2fde38b"}}}}}