{"contracts/verifiers/ZKPVerifier.sol":{"ZKPVerifier":{"abi":[{"anonymous":false,"inputs":[{"indexed":true,"internalType":"address","name":"previousOwner","type":"address"},{"indexed":true,"internalType":"address","name":"newOwner","type":"address"}],"name":"OwnershipTransferred","type":"event"},{"inputs":[],"name":"getSupportedRequests","outputs":[{"internalType":"uint64[]","name":"arr","type":"uint64[]"}],"stateMutability":"view","type":"function"},{"inputs":[{"internalType":"uint64","name":"requestId","type":"uint64"}],"name":"getZKPRequest","outputs":[{"components":[{"internalType":"uint256","name":"schema","type":"uint256"},{"internalType":"uint256","name":"slotIndex","type":"uint256"},{"internalType":"uint256","name":"operator","type":"uint256"},{"internalType":"uint256[]","name":"value","type":"uint256[]"},{"internalType":"string","name":"circuitId","type":"string"}],"internalType":"struct ICircuitValidator.CircuitQuery","name":"","type":"tuple"}],"stateMutability":"view","type":"function"},{"inputs":[],"name":"owner","outputs":[{"internalType":"address","name":"","type":"address"}],"stateMutability":"view","type":"function"},{"inputs":[{"internalType":"address","name":"","type":"address"},{"internalType":"uint64","name":"","type":"uint64"}],"name":"proofs","outputs":[{"internalType":"bool","name":"","type":"bool"}],"stateMutability":"view","type":"function"},{"inputs":[],"name":"renounceOwnership","outputs":[],"stateMutability":"nonpayable","type":"function"},{"inputs":[{"internalType":"uint64","name":"","type":"uint64"}],"name":"requestQueries","outputs":[{"internalType":"uint256","name":"schema","type":"uint256"},{"internalType":"uint256","name":"slotIndex","type":"uint256"},{"internalType":"uint256","name":"operator","type":"uint256"},{"internalType":"string","name":"circuitId","type":"string"}],"stateMutability":"view","type":"function"},{"inputs":[{"internalType":"uint64","name":"","type":"uint64"}],"name":"requestValidators","outputs":[{"internalType":"contract ICircuitValidator","name":"","type":"address"}],"stateMutability":"view","type":"function"},{"inputs":[{"internalType":"uint64","name":"requestId","type":"uint64"},{"internalType":"contract ICircuitValidator","name":"validator","type":"address"},{"components":[{"internalType":"uint256","name":"schema","type":"uint256"},{"internalType":"uint256","name":"slotIndex","type":"uint256"},{"internalType":"uint256","name":"operator","type":"uint256"},{"internalType":"uint256[]","name":"value","type":"uint256[]"},{"internalType":"string","name":"circuitId","type":"string"}],"internalType":"struct ICircuitValidator.CircuitQuery","name":"query","type":"tuple"}],"name":"setZKPRequest","outputs":[{"internalType":"bool","name":"","type":"bool"}],"stateMutability":"nonpayable","type":"function"},{"inputs":[{"internalType":"uint64","name":"requestId","type":"uint64"},{"internalType":"uint256[]","name":"inputs","type":"uint256[]"},{"internalType":"uint256[2]","name":"a","type":"uint256[2]"},{"internalType":"uint256[2][2]","name":"b","type":"uint256[2][2]"},{"internalType":"uint256[2]","name":"c","type":"uint256[2]"}],"name":"submitZKPResponse","outputs":[{"internalType":"bool","name":"","type":"bool"}],"stateMutability":"nonpayable","type":"function"},{"inputs":[{"internalType":"uint256","name":"","type":"uint256"}],"name":"supportedRequests","outputs":[{"internalType":"uint64","name":"","type":"uint64"}],"stateMutability":"view","type":"function"},{"inputs":[{"internalType":"address","name":"newOwner","type":"address"}],"name":"transferOwnership","outputs":[],"stateMutability":"nonpayable","type":"function"}],"evm":{"bytecode":{"linkReferences":{},"object":"608060405234801561001057600080fd5b5061002161001c610026565b61002a565b61007a565b3390565b600080546001600160a01b038381166001600160a01b0319831681178455604051919092169283917f8be0079c531659141344cd1fd0a4f28419497f9722a3daafe3b4186f6b6457e09190a35050565b611346806100896000396000f3fe608060405234801561001057600080fd5b50600436106100a95760003560e01c8063b45c0fdf11610071578063b45c0fdf14610121578063b68967e214610141578063c76d084514610154578063f143532614610174578063f2fde38b14610194578063fee207e6146101a7576100a9565b806337ba9523146100ae578063715018a6146100cc5780638da5cb5b146100d657806396bf4741146100eb578063a87231141461010e575b600080fd5b6100b66101ba565b6040516100c39190611013565b60405180910390f35b6100d4610244565b005b6100de610258565b6040516100c39190610f14565b6100fe6100f9366004610bec565b610267565b6040516100c39493929190611209565b6100de61011c366004610bec565b61031a565b61013461012f366004610b80565b610335565b6040516100c39190611060565b61013461014f366004610c06565b610355565b610167610162366004610bec565b61051c565b6040516100c391906111a9565b610187610182366004610bd4565b61064d565b6040516100c39190611238565b6100d46101a2366004610b5d565b61068a565b6101346101b5366004610cdf565b6106c4565b6060600480548060200260200160405190810160405280929190818152602001828054801561023a57602002820191906000526020600020906000905b82829054906101000a90046001600160401b03166001600160401b0316815260200190600801906020826007010492830192600103820291508084116101f75790505b5050505050905090565b61024c61084d565b610256600061088c565b565b6000546001600160a01b031690565b600260208190526000918252604090912080546001820154928201546004830180549294939192610297906112aa565b80601f01602080910402602001604051908101604052809291908181526020018280546102c3906112aa565b80156103105780601f106102e557610100808354040283529160200191610310565b820191906000526020600020905b8154815290600101906020018083116102f357829003601f168201915b5050505050905084565b6003602052600090815260409020546001600160a01b031681565b600160209081526000928352604080842090915290825290205460ff1681565b6001600160401b0385166000908152600360205260408120546001600160a01b031661039c5760405162461bcd60e51b81526004016103939061111d565b60405180910390fd5b6001600160401b0386166000908152600260205260409020546103d15760405162461bcd60e51b815260040161039390611165565b6001600160401b03861660009081526003602052604090205461040090879087906001600160a01b03166108dc565b6001600160401b03861660009081526003602090815260408083205460029092529182902091516319f8754160e21b81526001600160a01b03909116916367e1d5049161045891899189918991899190600401610f28565b60206040518083038186803b15801561047057600080fd5b505afa158015610484573d6000803e3d6000fd5b505050506040513d601f19601f820116820180604052508101906104a89190610bb4565b6104c45760405162461bcd60e51b8152600401610393906110b1565b3360009081526001602081815260408084206001600160401b038b1685528252808420805460ff19169093179092556003905290205461051090879087906001600160a01b03166108dc565b50600195945050505050565b6105246108e5565b6001600160401b038216600090815260026020818152604092839020835160a0810185528154815260018201548184015292810154838501526003810180548551818502810185019096528086529394919360608601938301828280156105aa57602002820191906000526020600020905b815481526020019060010190808311610596575b505050505081526020016004820180546105c3906112aa565b80601f01602080910402602001604051908101604052809291908181526020018280546105ef906112aa565b801561063c5780601f106106115761010080835404028352916020019161063c565b820191906000526020600020905b81548152906001019060200180831161061f57829003601f168201915b50505050508152505090505b919050565b6004818154811061065d57600080fd5b9060005260206000209060049182820401919006600802915054906101000a90046001600160401b031681565b61069261084d565b6001600160a01b0381166106b85760405162461bcd60e51b81526004016103939061106b565b6106c18161088c565b50565b60006106ce61084d565b6001600160401b0384166000908152600360205260409020546001600160a01b0316610752576004805460018101825560008290529081047f8a35acfbc15ff81a39ae7d344fd709f28e8600b4aa8c65c6b64bfe7fe36bd19b0180546001600160401b0380881660086003909516949094026101000a938402930219169190911790555b60608201516001600160401b038516600090815260026020908152604090912082516107879360039092019290910190610914565b506040808301516001600160401b0386166000908152600260208181529390912090810191909155608084015180516107ca93600490930192919091019061095f565b506020808301516001600160401b038616600090815260028352604090206001810191909155835181556080840151805161080f93600490930192919091019061095f565b50506001600160401b038316600090815260036020526040902080546001600160a01b0384166001600160a01b031990911617905560019392505050565b6108556108e1565b6001600160a01b0316610866610258565b6001600160a01b0316146102565760405162461bcd60e51b8152600401610393906110e8565b600080546001600160a01b038381166001600160a01b0319831681178455604051919092169283917f8be0079c531659141344cd1fd0a4f28419497f9722a3daafe3b4186f6b6457e09190a35050565b505050565b3390565b6040518060a0016040528060008152602001600081526020016000815260200160608152602001606081525090565b82805482825590600052602060002090810192821561094f579160200282015b8281111561094f578251825591602001919060010190610934565b5061095b9291506109d2565b5090565b82805461096b906112aa565b90600052602060002090601f01602090048101928261098d576000855561094f565b82601f106109a657805160ff191683800117855561094f565b8280016001018555821561094f579182018281111561094f578251825591602001919060010190610934565b5b8082111561095b57600081556001016109d3565b600082601f8301126109f7578081fd5b604051604081018181106001600160401b0382111715610a1957610a196112e5565b8060405250808385604086011115610a2f578384fd5b835b6002811015610a50578135835260209283019290910190600101610a31565b509195945050505050565b600082601f830112610a6b578081fd5b813560206001600160401b03821115610a8657610a866112e5565b808202610a9482820161124c565b838152828101908684018388018501891015610aae578687fd5b8693505b85841015610ad0578035835260019390930192918401918401610ab2565b50979650505050505050565b600082601f830112610aec578081fd5b81356001600160401b03811115610b0557610b056112e5565b610b18601f8201601f191660200161124c565b818152846020838601011115610b2c578283fd5b816020850160208301379081016020019190915292915050565b80356001600160401b038116811461064857600080fd5b600060208284031215610b6e578081fd5b8135610b79816112fb565b9392505050565b60008060408385031215610b92578081fd5b8235610b9d816112fb565b9150610bab60208401610b46565b90509250929050565b600060208284031215610bc5578081fd5b81518015158114610b79578182fd5b600060208284031215610be5578081fd5b5035919050565b600060208284031215610bfd578081fd5b610b7982610b46565b60008060008060006101408688031215610c1e578081fd5b610c2786610b46565b94506020808701356001600160401b03811115610c42578283fd5b610c4e89828a01610a5b565b9550506040610c5f89828a016109e7565b945088609f890112610c6f578283fd5b6002610c82610c7d82611275565b61124c565b8060808b016101008c018d811115610c98578788fd5b875b85811015610cbe57610cac8f846109e7565b85529387019391860191600101610c9a565b50829850610ccc8e826109e7565b9750505050505050509295509295909350565b600080600060608486031215610cf3578283fd5b610cfc84610b46565b92506020840135610d0c816112fb565b915060408401356001600160401b0380821115610d27578283fd5b9085019060a08288031215610d3a578283fd5b60405160a081018181108382111715610d5557610d556112e5565b8060405250823581526020830135602082015260408301356040820152606083013582811115610d83578485fd5b610d8f89828601610a5b565b606083015250608083013582811115610da6578485fd5b610db289828601610adc565b6080830152508093505050509250925092565b8060005b6002811015610de8578151845260209384019390910190600101610dc9565b50505050565b6000815180845260208085019450808401835b83811015610e1d57815187529582019590820190600101610e01565b509495945050505050565b60008151808452815b81811015610e4d57602081850181015186830182015201610e31565b81811115610e5e5782602083870101525b50601f01601f19169290920160200192915050565b805460009060028104600180831680610e8d57607f831692505b6020808410821415610ead57634e487b7160e01b86526022600452602486fd5b610eb784896112a1565b828015610ecb5760018114610edc57610f07565b60ff19871682528282019750610f07565b610ee589611295565b60005b87811015610f0157815484820152908601908401610ee8565b83019850505b5050505050505092915050565b6001600160a01b0391909116815260200190565b6000610140808352610f3c81840189610dee565b90506020610f4c81850189610dc5565b6060840187845b6002811015610f7a57610f67838351610dc5565b6040929092019190830190600101610f53565b505050610f8a60e0850187610dc5565b83820361012085015284548252600180860154828401526002860154604084015260a06060840181905260038701805491850182905285528285209190859060c08601905b80831015610fec5784548252938301939183019190850190610fcf565b5085810360808701526110028160048b01610e73565b9d9c50505050505050505050505050565b6020808252825182820181905260009190848201906040850190845b818110156110545783516001600160401b03168352928401929184019160010161102f565b50909695505050505050565b901515815260200190565b60208082526026908201527f4f776e61626c653a206e6577206f776e657220697320746865207a65726f206160408201526564647265737360d01b606082015260800190565b6020808252601b908201527f70726f6f6620726573706f6e7365206973206e6f742076616c69640000000000604082015260600190565b6020808252818101527f4f776e61626c653a2063616c6c6572206973206e6f7420746865206f776e6572604082015260600190565b60208082526028908201527f76616c696461746f72206973206e6f742073657420666f7220746869732072656040820152671c5d595cdd081a5960c21b606082015260800190565b60208082526024908201527f7175657279206973206e6f742073657420666f722074686973207265717565736040820152631d081a5960e21b606082015260800190565b600060208252825160208301526020830151604083015260408301516060830152606083015160a060808401526111e360c0840182610dee565b90506080840151601f198483030160a08501526112008282610e28565b95945050505050565b60008582528460208301528360408301526080606083015261122e6080830184610e28565b9695505050505050565b6001600160401b0391909116815260200190565b6040518181016001600160401b038111828210171561126d5761126d6112e5565b604052919050565b60006001600160401b0382111561128e5761128e6112e5565b5060200290565b60009081526020902090565b90815260200190565b6002810460018216806112be57607f821691505b602082108114156112df57634e487b7160e01b600052602260045260246000fd5b50919050565b634e487b7160e01b600052604160045260246000fd5b6001600160a01b03811681146106c157600080fdfea264697066735822122054ebe5e39627cd92e258bcdf01143688d1a5afe02dcb2c8fce5fd921bdaa662b64736f6c63430008000033","opcodes":"PUSH1 0x80 PUSH1 0x40 MSTORE CALLVALUE DUP1 ISZERO PUSH2 0x10 JUMPI PUSH1 0x0 DUP1 REVERT JUMPDEST POP PUSH2 0x21 PUSH2 0x1C PUSH2 0x26 JUMP JUMPDEST PUSH2 0x2A JUMP JUMPDEST PUSH2 0x7A JUMP JUMPDEST CALLER SWAP1 JUMP JUMPDEST PUSH1 0x0 DUP1 SLOAD PUSH1 0x1 PUSH1 0x1 PUSH1 0xA0 SHL SUB DUP4 DUP2 AND PUSH1 0x1 PUSH1 0x1 PUSH1 0xA0 SHL SUB NOT DUP4 AND DUP2 OR DUP5 SSTORE PUSH1 0x40 MLOAD SWAP2 SWAP1 SWAP3 AND SWAP3 DUP4 SWAP2 PUSH32 0x8BE0079C531659141344CD1FD0A4F28419497F9722A3DAAFE3B4186F6B6457E0 SWAP2 SWAP1 LOG3 POP POP JUMP JUMPDEST PUSH2 0x1346 DUP1 PUSH2 0x89 PUSH1 0x0 CODECOPY PUSH1 0x0 RETURN INVALID PUSH1 0x80 PUSH1 0x40 MSTORE CALLVALUE DUP1 ISZERO PUSH2 0x10 JUMPI PUSH1 0x0 DUP1 REVERT JUMPDEST POP PUSH1 0x4 CALLDATASIZE LT PUSH2 0xA9 JUMPI PUSH1 0x0 CALLDATALOAD PUSH1 0xE0 SHR DUP1 PUSH4 0xB45C0FDF GT PUSH2 0x71 JUMPI DUP1 PUSH4 0xB45C0FDF EQ PUSH2 0x121 JUMPI DUP1 PUSH4 0xB68967E2 EQ PUSH2 0x141 JUMPI DUP1 PUSH4 0xC76D0845 EQ PUSH2 0x154 JUMPI DUP1 PUSH4 0xF1435326 EQ PUSH2 0x174 JUMPI DUP1 PUSH4 0xF2FDE38B EQ PUSH2 0x194 JUMPI DUP1 PUSH4 0xFEE207E6 EQ PUSH2 0x1A7 JUMPI PUSH2 0xA9 JUMP JUMPDEST DUP1 PUSH4 0x37BA9523 EQ PUSH2 0xAE JUMPI DUP1 PUSH4 0x715018A6 EQ PUSH2 0xCC JUMPI DUP1 PUSH4 0x8DA5CB5B EQ PUSH2 0xD6 JUMPI DUP1 PUSH4 0x96BF4741 EQ PUSH2 0xEB JUMPI DUP1 PUSH4 0xA8723114 EQ PUSH2 0x10E JUMPI JUMPDEST PUSH1 0x0 DUP1 REVERT JUMPDEST PUSH2 0xB6 PUSH2 0x1BA JUMP JUMPDEST PUSH1 0x40 MLOAD PUSH2 0xC3 SWAP2 SWAP1 PUSH2 0x1013 JUMP JUMPDEST PUSH1 0x40 MLOAD DUP1 SWAP2 SUB SWAP1 RETURN JUMPDEST PUSH2 0xD4 PUSH2 0x244 JUMP JUMPDEST STOP JUMPDEST PUSH2 0xDE PUSH2 0x258 JUMP JUMPDEST PUSH1 0x40 MLOAD PUSH2 0xC3 SWAP2 SWAP1 PUSH2 0xF14 JUMP JUMPDEST PUSH2 0xFE PUSH2 0xF9 CALLDATASIZE PUSH1 0x4 PUSH2 0xBEC JUMP JUMPDEST PUSH2 0x267 JUMP JUMPDEST PUSH1 0x40 MLOAD PUSH2 0xC3 SWAP5 SWAP4 SWAP3 SWAP2 SWAP1 PUSH2 0x1209 JUMP JUMPDEST PUSH2 0xDE PUSH2 0x11C CALLDATASIZE PUSH1 0x4 PUSH2 0xBEC JUMP JUMPDEST PUSH2 0x31A JUMP JUMPDEST PUSH2 0x134 PUSH2 0x12F CALLDATASIZE PUSH1 0x4 PUSH2 0xB80 JUMP JUMPDEST PUSH2 0x335 JUMP JUMPDEST PUSH1 0x40 MLOAD PUSH2 0xC3 SWAP2 SWAP1 PUSH2 0x1060 JUMP JUMPDEST PUSH2 0x134 PUSH2 0x14F CALLDATASIZE PUSH1 0x4 PUSH2 0xC06 JUMP JUMPDEST PUSH2 0x355 JUMP JUMPDEST PUSH2 0x167 PUSH2 0x162 CALLDATASIZE PUSH1 0x4 PUSH2 0xBEC JUMP JUMPDEST PUSH2 0x51C JUMP JUMPDEST PUSH1 0x40 MLOAD PUSH2 0xC3 SWAP2 SWAP1 PUSH2 0x11A9 JUMP JUMPDEST PUSH2 0x187 PUSH2 0x182 CALLDATASIZE PUSH1 0x4 PUSH2 0xBD4 JUMP JUMPDEST PUSH2 0x64D JUMP JUMPDEST PUSH1 0x40 MLOAD PUSH2 0xC3 SWAP2 SWAP1 PUSH2 0x1238 JUMP JUMPDEST PUSH2 0xD4 PUSH2 0x1A2 CALLDATASIZE PUSH1 0x4 PUSH2 0xB5D JUMP JUMPDEST PUSH2 0x68A JUMP JUMPDEST PUSH2 0x134 PUSH2 0x1B5 CALLDATASIZE PUSH1 0x4 PUSH2 0xCDF JUMP JUMPDEST PUSH2 0x6C4 JUMP JUMPDEST PUSH1 0x60 PUSH1 0x4 DUP1 SLOAD DUP1 PUSH1 0x20 MUL PUSH1 0x20 ADD PUSH1 0x40 MLOAD SWAP1 DUP2 ADD PUSH1 0x40 MSTORE DUP1 SWAP3 SWAP2 SWAP1 DUP2 DUP2 MSTORE PUSH1 0x20 ADD DUP3 DUP1 SLOAD DUP1 ISZERO PUSH2 0x23A JUMPI PUSH1 0x20 MUL DUP3 ADD SWAP2 SWAP1 PUSH1 0x0 MSTORE PUSH1 0x20 PUSH1 0x0 KECCAK256 SWAP1 PUSH1 0x0 SWAP1 JUMPDEST DUP3 DUP3 SWAP1 SLOAD SWAP1 PUSH2 0x100 EXP SWAP1 DIV PUSH1 0x1 PUSH1 0x1 PUSH1 0x40 SHL SUB AND PUSH1 0x1 PUSH1 0x1 PUSH1 0x40 SHL SUB AND DUP2 MSTORE PUSH1 0x20 ADD SWAP1 PUSH1 0x8 ADD SWAP1 PUSH1 0x20 DUP3 PUSH1 0x7 ADD DIV SWAP3 DUP4 ADD SWAP3 PUSH1 0x1 SUB DUP3 MUL SWAP2 POP DUP1 DUP5 GT PUSH2 0x1F7 JUMPI SWAP1 POP JUMPDEST POP POP POP POP POP SWAP1 POP SWAP1 JUMP JUMPDEST PUSH2 0x24C PUSH2 0x84D JUMP JUMPDEST PUSH2 0x256 PUSH1 0x0 PUSH2 0x88C JUMP JUMPDEST JUMP JUMPDEST PUSH1 0x0 SLOAD PUSH1 0x1 PUSH1 0x1 PUSH1 0xA0 SHL SUB AND SWAP1 JUMP JUMPDEST PUSH1 0x2 PUSH1 0x20 DUP2 SWAP1 MSTORE PUSH1 0x0 SWAP2 DUP3 MSTORE PUSH1 0x40 SWAP1 SWAP2 KECCAK256 DUP1 SLOAD PUSH1 0x1 DUP3 ADD SLOAD SWAP3 DUP3 ADD SLOAD PUSH1 0x4 DUP4 ADD DUP1 SLOAD SWAP3 SWAP5 SWAP4 SWAP2 SWAP3 PUSH2 0x297 SWAP1 PUSH2 0x12AA JUMP JUMPDEST DUP1 PUSH1 0x1F ADD PUSH1 0x20 DUP1 SWAP2 DIV MUL PUSH1 0x20 ADD PUSH1 0x40 MLOAD SWAP1 DUP2 ADD PUSH1 0x40 MSTORE DUP1 SWAP3 SWAP2 SWAP1 DUP2 DUP2 MSTORE PUSH1 0x20 ADD DUP3 DUP1 SLOAD PUSH2 0x2C3 SWAP1 PUSH2 0x12AA JUMP JUMPDEST DUP1 ISZERO PUSH2 0x310 JUMPI DUP1 PUSH1 0x1F LT PUSH2 0x2E5 JUMPI PUSH2 0x100 DUP1 DUP4 SLOAD DIV MUL DUP4 MSTORE SWAP2 PUSH1 0x20 ADD SWAP2 PUSH2 0x310 JUMP JUMPDEST DUP3 ADD SWAP2 SWAP1 PUSH1 0x0 MSTORE PUSH1 0x20 PUSH1 0x0 KECCAK256 SWAP1 JUMPDEST DUP2 SLOAD DUP2 MSTORE SWAP1 PUSH1 0x1 ADD SWAP1 PUSH1 0x20 ADD DUP1 DUP4 GT PUSH2 0x2F3 JUMPI DUP3 SWAP1 SUB PUSH1 0x1F AND DUP3 ADD SWAP2 JUMPDEST POP POP POP POP POP SWAP1 POP DUP5 JUMP JUMPDEST PUSH1 0x3 PUSH1 0x20 MSTORE PUSH1 0x0 SWAP1 DUP2 MSTORE PUSH1 0x40 SWAP1 KECCAK256 SLOAD PUSH1 0x1 PUSH1 0x1 PUSH1 0xA0 SHL SUB AND DUP2 JUMP JUMPDEST PUSH1 0x1 PUSH1 0x20 SWAP1 DUP2 MSTORE PUSH1 0x0 SWAP3 DUP4 MSTORE PUSH1 0x40 DUP1 DUP5 KECCAK256 SWAP1 SWAP2 MSTORE SWAP1 DUP3 MSTORE SWAP1 KECCAK256 SLOAD PUSH1 0xFF AND DUP2 JUMP JUMPDEST PUSH1 0x1 PUSH1 0x1 PUSH1 0x40 SHL SUB DUP6 AND PUSH1 0x0 SWAP1 DUP2 MSTORE PUSH1 0x3 PUSH1 0x20 MSTORE PUSH1 0x40 DUP2 KECCAK256 SLOAD PUSH1 0x1 PUSH1 0x1 PUSH1 0xA0 SHL SUB AND PUSH2 0x39C JUMPI PUSH1 0x40 MLOAD PUSH3 0x461BCD PUSH1 0xE5 SHL DUP2 MSTORE PUSH1 0x4 ADD PUSH2 0x393 SWAP1 PUSH2 0x111D JUMP JUMPDEST PUSH1 0x40 MLOAD DUP1 SWAP2 SUB SWAP1 REVERT JUMPDEST PUSH1 0x1 PUSH1 0x1 PUSH1 0x40 SHL SUB DUP7 AND PUSH1 0x0 SWAP1 DUP2 MSTORE PUSH1 0x2 PUSH1 0x20 MSTORE PUSH1 0x40 SWAP1 KECCAK256 SLOAD PUSH2 0x3D1 JUMPI PUSH1 0x40 MLOAD PUSH3 0x461BCD PUSH1 0xE5 SHL DUP2 MSTORE PUSH1 0x4 ADD PUSH2 0x393 SWAP1 PUSH2 0x1165 JUMP JUMPDEST PUSH1 0x1 PUSH1 0x1 PUSH1 0x40 SHL SUB DUP7 AND PUSH1 0x0 SWAP1 DUP2 MSTORE PUSH1 0x3 PUSH1 0x20 MSTORE PUSH1 0x40 SWAP1 KECCAK256 SLOAD PUSH2 0x400 SWAP1 DUP8 SWAP1 DUP8 SWAP1 PUSH1 0x1 PUSH1 0x1 PUSH1 0xA0 SHL SUB AND PUSH2 0x8DC JUMP JUMPDEST PUSH1 0x1 PUSH1 0x1 PUSH1 0x40 SHL SUB DUP7 AND PUSH1 0x0 SWAP1 DUP2 MSTORE PUSH1 0x3 PUSH1 0x20 SWAP1 DUP2 MSTORE PUSH1 0x40 DUP1 DUP4 KECCAK256 SLOAD PUSH1 0x2 SWAP1 SWAP3 MSTORE SWAP2 DUP3 SWAP1 KECCAK256 SWAP2 MLOAD PUSH4 0x19F87541 PUSH1 0xE2 SHL DUP2 MSTORE PUSH1 0x1 PUSH1 0x1 PUSH1 0xA0 SHL SUB SWAP1 SWAP2 AND SWAP2 PUSH4 0x67E1D504 SWAP2 PUSH2 0x458 SWAP2 DUP10 SWAP2 DUP10 SWAP2 DUP10 SWAP2 DUP10 SWAP2 SWAP1 PUSH1 0x4 ADD PUSH2 0xF28 JUMP JUMPDEST PUSH1 0x20 PUSH1 0x40 MLOAD DUP1 DUP4 SUB DUP2 DUP7 DUP1 EXTCODESIZE ISZERO DUP1 ISZERO PUSH2 0x470 JUMPI PUSH1 0x0 DUP1 REVERT JUMPDEST POP GAS STATICCALL ISZERO DUP1 ISZERO PUSH2 0x484 JUMPI RETURNDATASIZE PUSH1 0x0 DUP1 RETURNDATACOPY RETURNDATASIZE PUSH1 0x0 REVERT JUMPDEST POP POP POP POP PUSH1 0x40 MLOAD RETURNDATASIZE PUSH1 0x1F NOT PUSH1 0x1F DUP3 ADD AND DUP3 ADD DUP1 PUSH1 0x40 MSTORE POP DUP2 ADD SWAP1 PUSH2 0x4A8 SWAP2 SWAP1 PUSH2 0xBB4 JUMP JUMPDEST PUSH2 0x4C4 JUMPI PUSH1 0x40 MLOAD PUSH3 0x461BCD PUSH1 0xE5 SHL DUP2 MSTORE PUSH1 0x4 ADD PUSH2 0x393 SWAP1 PUSH2 0x10B1 JUMP JUMPDEST CALLER PUSH1 0x0 SWAP1 DUP2 MSTORE PUSH1 0x1 PUSH1 0x20 DUP2 DUP2 MSTORE PUSH1 0x40 DUP1 DUP5 KECCAK256 PUSH1 0x1 PUSH1 0x1 PUSH1 0x40 SHL SUB DUP12 AND DUP6 MSTORE DUP3 MSTORE DUP1 DUP5 KECCAK256 DUP1 SLOAD PUSH1 0xFF NOT AND SWAP1 SWAP4 OR SWAP1 SWAP3 SSTORE PUSH1 0x3 SWAP1 MSTORE SWAP1 KECCAK256 SLOAD PUSH2 0x510 SWAP1 DUP8 SWAP1 DUP8 SWAP1 PUSH1 0x1 PUSH1 0x1 PUSH1 0xA0 SHL SUB AND PUSH2 0x8DC JUMP JUMPDEST POP PUSH1 0x1 SWAP6 SWAP5 POP POP POP POP POP JUMP JUMPDEST PUSH2 0x524 PUSH2 0x8E5 JUMP JUMPDEST PUSH1 0x1 PUSH1 0x1 PUSH1 0x40 SHL SUB DUP3 AND PUSH1 0x0 SWAP1 DUP2 MSTORE PUSH1 0x2 PUSH1 0x20 DUP2 DUP2 MSTORE PUSH1 0x40 SWAP3 DUP4 SWAP1 KECCAK256 DUP4 MLOAD PUSH1 0xA0 DUP2 ADD DUP6 MSTORE DUP2 SLOAD DUP2 MSTORE PUSH1 0x1 DUP3 ADD SLOAD DUP2 DUP5 ADD MSTORE SWAP3 DUP2 ADD SLOAD DUP4 DUP6 ADD MSTORE PUSH1 0x3 DUP2 ADD DUP1 SLOAD DUP6 MLOAD DUP2 DUP6 MUL DUP2 ADD DUP6 ADD SWAP1 SWAP7 MSTORE DUP1 DUP7 MSTORE SWAP4 SWAP5 SWAP2 SWAP4 PUSH1 0x60 DUP7 ADD SWAP4 DUP4 ADD DUP3 DUP3 DUP1 ISZERO PUSH2 0x5AA JUMPI PUSH1 0x20 MUL DUP3 ADD SWAP2 SWAP1 PUSH1 0x0 MSTORE PUSH1 0x20 PUSH1 0x0 KECCAK256 SWAP1 JUMPDEST DUP2 SLOAD DUP2 MSTORE PUSH1 0x20 ADD SWAP1 PUSH1 0x1 ADD SWAP1 DUP1 DUP4 GT PUSH2 0x596 JUMPI JUMPDEST POP POP POP POP POP DUP2 MSTORE PUSH1 0x20 ADD PUSH1 0x4 DUP3 ADD DUP1 SLOAD PUSH2 0x5C3 SWAP1 PUSH2 0x12AA JUMP JUMPDEST DUP1 PUSH1 0x1F ADD PUSH1 0x20 DUP1 SWAP2 DIV MUL PUSH1 0x20 ADD PUSH1 0x40 MLOAD SWAP1 DUP2 ADD PUSH1 0x40 MSTORE DUP1 SWAP3 SWAP2 SWAP1 DUP2 DUP2 MSTORE PUSH1 0x20 ADD DUP3 DUP1 SLOAD PUSH2 0x5EF SWAP1 PUSH2 0x12AA JUMP JUMPDEST DUP1 ISZERO PUSH2 0x63C JUMPI DUP1 PUSH1 0x1F LT PUSH2 0x611 JUMPI PUSH2 0x100 DUP1 DUP4 SLOAD DIV MUL DUP4 MSTORE SWAP2 PUSH1 0x20 ADD SWAP2 PUSH2 0x63C JUMP JUMPDEST DUP3 ADD SWAP2 SWAP1 PUSH1 0x0 MSTORE PUSH1 0x20 PUSH1 0x0 KECCAK256 SWAP1 JUMPDEST DUP2 SLOAD DUP2 MSTORE SWAP1 PUSH1 0x1 ADD SWAP1 PUSH1 0x20 ADD DUP1 DUP4 GT PUSH2 0x61F JUMPI DUP3 SWAP1 SUB PUSH1 0x1F AND DUP3 ADD SWAP2 JUMPDEST POP POP POP POP POP DUP2 MSTORE POP POP SWAP1 POP JUMPDEST SWAP2 SWAP1 POP JUMP JUMPDEST PUSH1 0x4 DUP2 DUP2 SLOAD DUP2 LT PUSH2 0x65D JUMPI PUSH1 0x0 DUP1 REVERT JUMPDEST SWAP1 PUSH1 0x0 MSTORE PUSH1 0x20 PUSH1 0x0 KECCAK256 SWAP1 PUSH1 0x4 SWAP2 DUP3 DUP3 DIV ADD SWAP2 SWAP1 MOD PUSH1 0x8 MUL SWAP2 POP SLOAD SWAP1 PUSH2 0x100 EXP SWAP1 DIV PUSH1 0x1 PUSH1 0x1 PUSH1 0x40 SHL SUB AND DUP2 JUMP JUMPDEST PUSH2 0x692 PUSH2 0x84D JUMP JUMPDEST PUSH1 0x1 PUSH1 0x1 PUSH1 0xA0 SHL SUB DUP2 AND PUSH2 0x6B8 JUMPI PUSH1 0x40 MLOAD PUSH3 0x461BCD PUSH1 0xE5 SHL DUP2 MSTORE PUSH1 0x4 ADD PUSH2 0x393 SWAP1 PUSH2 0x106B JUMP JUMPDEST PUSH2 0x6C1 DUP2 PUSH2 0x88C JUMP JUMPDEST POP JUMP JUMPDEST PUSH1 0x0 PUSH2 0x6CE PUSH2 0x84D JUMP JUMPDEST PUSH1 0x1 PUSH1 0x1 PUSH1 0x40 SHL SUB DUP5 AND PUSH1 0x0 SWAP1 DUP2 MSTORE PUSH1 0x3 PUSH1 0x20 MSTORE PUSH1 0x40 SWAP1 KECCAK256 SLOAD PUSH1 0x1 PUSH1 0x1 PUSH1 0xA0 SHL SUB AND PUSH2 0x752 JUMPI PUSH1 0x4 DUP1 SLOAD PUSH1 0x1 DUP2 ADD DUP3 SSTORE PUSH1 0x0 DUP3 SWAP1 MSTORE SWAP1 DUP2 DIV PUSH32 0x8A35ACFBC15FF81A39AE7D344FD709F28E8600B4AA8C65C6B64BFE7FE36BD19B ADD DUP1 SLOAD PUSH1 0x1 PUSH1 0x1 PUSH1 0x40 SHL SUB DUP1 DUP9 AND PUSH1 0x8 PUSH1 0x3 SWAP1 SWAP6 AND SWAP5 SWAP1 SWAP5 MUL PUSH2 0x100 EXP SWAP4 DUP5 MUL SWAP4 MUL NOT AND SWAP2 SWAP1 SWAP2 OR SWAP1 SSTORE JUMPDEST PUSH1 0x60 DUP3 ADD MLOAD PUSH1 0x1 PUSH1 0x1 PUSH1 0x40 SHL SUB DUP6 AND PUSH1 0x0 SWAP1 DUP2 MSTORE PUSH1 0x2 PUSH1 0x20 SWAP1 DUP2 MSTORE PUSH1 0x40 SWAP1 SWAP2 KECCAK256 DUP3 MLOAD PUSH2 0x787 SWAP4 PUSH1 0x3 SWAP1 SWAP3 ADD SWAP3 SWAP1 SWAP2 ADD SWAP1 PUSH2 0x914 JUMP JUMPDEST POP PUSH1 0x40 DUP1 DUP4 ADD MLOAD PUSH1 0x1 PUSH1 0x1 PUSH1 0x40 SHL SUB DUP7 AND PUSH1 0x0 SWAP1 DUP2 MSTORE PUSH1 0x2 PUSH1 0x20 DUP2 DUP2 MSTORE SWAP4 SWAP1 SWAP2 KECCAK256 SWAP1 DUP2 ADD SWAP2 SWAP1 SWAP2 SSTORE PUSH1 0x80 DUP5 ADD MLOAD DUP1 MLOAD PUSH2 0x7CA SWAP4 PUSH1 0x4 SWAP1 SWAP4 ADD SWAP3 SWAP2 SWAP1 SWAP2 ADD SWAP1 PUSH2 0x95F JUMP JUMPDEST POP PUSH1 0x20 DUP1 DUP4 ADD MLOAD PUSH1 0x1 PUSH1 0x1 PUSH1 0x40 SHL SUB DUP7 AND PUSH1 0x0 SWAP1 DUP2 MSTORE PUSH1 0x2 DUP4 MSTORE PUSH1 0x40 SWAP1 KECCAK256 PUSH1 0x1 DUP2 ADD SWAP2 SWAP1 SWAP2 SSTORE DUP4 MLOAD DUP2 SSTORE PUSH1 0x80 DUP5 ADD MLOAD DUP1 MLOAD PUSH2 0x80F SWAP4 PUSH1 0x4 SWAP1 SWAP4 ADD SWAP3 SWAP2 SWAP1 SWAP2 ADD SWAP1 PUSH2 0x95F JUMP JUMPDEST POP POP PUSH1 0x1 PUSH1 0x1 PUSH1 0x40 SHL SUB DUP4 AND PUSH1 0x0 SWAP1 DUP2 MSTORE PUSH1 0x3 PUSH1 0x20 MSTORE PUSH1 0x40 SWAP1 KECCAK256 DUP1 SLOAD PUSH1 0x1 PUSH1 0x1 PUSH1 0xA0 SHL SUB DUP5 AND PUSH1 0x1 PUSH1 0x1 PUSH1 0xA0 SHL SUB NOT SWAP1 SWAP2 AND OR SWAP1 SSTORE PUSH1 0x1 SWAP4 SWAP3 POP POP POP JUMP JUMPDEST PUSH2 0x855 PUSH2 0x8E1 JUMP JUMPDEST PUSH1 0x1 PUSH1 0x1 PUSH1 0xA0 SHL SUB AND PUSH2 0x866 PUSH2 0x258 JUMP JUMPDEST PUSH1 0x1 PUSH1 0x1 PUSH1 0xA0 SHL SUB AND EQ PUSH2 0x256 JUMPI PUSH1 0x40 MLOAD PUSH3 0x461BCD PUSH1 0xE5 SHL DUP2 MSTORE PUSH1 0x4 ADD PUSH2 0x393 SWAP1 PUSH2 0x10E8 JUMP JUMPDEST PUSH1 0x0 DUP1 SLOAD PUSH1 0x1 PUSH1 0x1 PUSH1 0xA0 SHL SUB DUP4 DUP2 AND PUSH1 0x1 PUSH1 0x1 PUSH1 0xA0 SHL SUB NOT DUP4 AND DUP2 OR DUP5 SSTORE PUSH1 0x40 MLOAD SWAP2 SWAP1 SWAP3 AND SWAP3 DUP4 SWAP2 PUSH32 0x8BE0079C531659141344CD1FD0A4F28419497F9722A3DAAFE3B4186F6B6457E0 SWAP2 SWAP1 LOG3 POP POP JUMP JUMPDEST POP POP POP JUMP JUMPDEST CALLER SWAP1 JUMP JUMPDEST PUSH1 0x40 MLOAD DUP1 PUSH1 0xA0 ADD PUSH1 0x40 MSTORE DUP1 PUSH1 0x0 DUP2 MSTORE PUSH1 0x20 ADD PUSH1 0x0 DUP2 MSTORE PUSH1 0x20 ADD PUSH1 0x0 DUP2 MSTORE PUSH1 0x20 ADD PUSH1 0x60 DUP2 MSTORE PUSH1 0x20 ADD PUSH1 0x60 DUP2 MSTORE POP SWAP1 JUMP JUMPDEST DUP3 DUP1 SLOAD DUP3 DUP3 SSTORE SWAP1 PUSH1 0x0 MSTORE PUSH1 0x20 PUSH1 0x0 KECCAK256 SWAP1 DUP2 ADD SWAP3 DUP3 ISZERO PUSH2 0x94F JUMPI SWAP2 PUSH1 0x20 MUL DUP3 ADD JUMPDEST DUP3 DUP2 GT ISZERO PUSH2 0x94F JUMPI DUP3 MLOAD DUP3 SSTORE SWAP2 PUSH1 0x20 ADD SWAP2 SWAP1 PUSH1 0x1 ADD SWAP1 PUSH2 0x934 JUMP JUMPDEST POP PUSH2 0x95B SWAP3 SWAP2 POP PUSH2 0x9D2 JUMP JUMPDEST POP SWAP1 JUMP JUMPDEST DUP3 DUP1 SLOAD PUSH2 0x96B SWAP1 PUSH2 0x12AA JUMP JUMPDEST SWAP1 PUSH1 0x0 MSTORE PUSH1 0x20 PUSH1 0x0 KECCAK256 SWAP1 PUSH1 0x1F ADD PUSH1 0x20 SWAP1 DIV DUP2 ADD SWAP3 DUP3 PUSH2 0x98D JUMPI PUSH1 0x0 DUP6 SSTORE PUSH2 0x94F JUMP JUMPDEST DUP3 PUSH1 0x1F LT PUSH2 0x9A6 JUMPI DUP1 MLOAD PUSH1 0xFF NOT AND DUP4 DUP1 ADD OR DUP6 SSTORE PUSH2 0x94F JUMP JUMPDEST DUP3 DUP1 ADD PUSH1 0x1 ADD DUP6 SSTORE DUP3 ISZERO PUSH2 0x94F JUMPI SWAP2 DUP3 ADD DUP3 DUP2 GT ISZERO PUSH2 0x94F JUMPI DUP3 MLOAD DUP3 SSTORE SWAP2 PUSH1 0x20 ADD SWAP2 SWAP1 PUSH1 0x1 ADD SWAP1 PUSH2 0x934 JUMP JUMPDEST JUMPDEST DUP1 DUP3 GT ISZERO PUSH2 0x95B JUMPI PUSH1 0x0 DUP2 SSTORE PUSH1 0x1 ADD PUSH2 0x9D3 JUMP JUMPDEST PUSH1 0x0 DUP3 PUSH1 0x1F DUP4 ADD SLT PUSH2 0x9F7 JUMPI DUP1 DUP2 REVERT JUMPDEST PUSH1 0x40 MLOAD PUSH1 0x40 DUP2 ADD DUP2 DUP2 LT PUSH1 0x1 PUSH1 0x1 PUSH1 0x40 SHL SUB DUP3 GT OR ISZERO PUSH2 0xA19 JUMPI PUSH2 0xA19 PUSH2 0x12E5 JUMP JUMPDEST DUP1 PUSH1 0x40 MSTORE POP DUP1 DUP4 DUP6 PUSH1 0x40 DUP7 ADD GT ISZERO PUSH2 0xA2F JUMPI DUP4 DUP5 REVERT JUMPDEST DUP4 JUMPDEST PUSH1 0x2 DUP2 LT ISZERO PUSH2 0xA50 JUMPI DUP2 CALLDATALOAD DUP4 MSTORE PUSH1 0x20 SWAP3 DUP4 ADD SWAP3 SWAP1 SWAP2 ADD SWAP1 PUSH1 0x1 ADD PUSH2 0xA31 JUMP JUMPDEST POP SWAP2 SWAP6 SWAP5 POP POP POP POP POP JUMP JUMPDEST PUSH1 0x0 DUP3 PUSH1 0x1F DUP4 ADD SLT PUSH2 0xA6B JUMPI DUP1 DUP2 REVERT JUMPDEST DUP2 CALLDATALOAD PUSH1 0x20 PUSH1 0x1 PUSH1 0x1 PUSH1 0x40 SHL SUB DUP3 GT ISZERO PUSH2 0xA86 JUMPI PUSH2 0xA86 PUSH2 0x12E5 JUMP JUMPDEST DUP1 DUP3 MUL PUSH2 0xA94 DUP3 DUP3 ADD PUSH2 0x124C JUMP JUMPDEST DUP4 DUP2 MSTORE DUP3 DUP2 ADD SWAP1 DUP7 DUP5 ADD DUP4 DUP9 ADD DUP6 ADD DUP10 LT ISZERO PUSH2 0xAAE JUMPI DUP7 DUP8 REVERT JUMPDEST DUP7 SWAP4 POP JUMPDEST DUP6 DUP5 LT ISZERO PUSH2 0xAD0 JUMPI DUP1 CALLDATALOAD DUP4 MSTORE PUSH1 0x1 SWAP4 SWAP1 SWAP4 ADD SWAP3 SWAP2 DUP5 ADD SWAP2 DUP5 ADD PUSH2 0xAB2 JUMP JUMPDEST POP SWAP8 SWAP7 POP POP POP POP POP POP POP JUMP JUMPDEST PUSH1 0x0 DUP3 PUSH1 0x1F DUP4 ADD SLT PUSH2 0xAEC JUMPI DUP1 DUP2 REVERT JUMPDEST DUP2 CALLDATALOAD PUSH1 0x1 PUSH1 0x1 PUSH1 0x40 SHL SUB DUP2 GT ISZERO PUSH2 0xB05 JUMPI PUSH2 0xB05 PUSH2 0x12E5 JUMP JUMPDEST PUSH2 0xB18 PUSH1 0x1F DUP3 ADD PUSH1 0x1F NOT AND PUSH1 0x20 ADD PUSH2 0x124C JUMP JUMPDEST DUP2 DUP2 MSTORE DUP5 PUSH1 0x20 DUP4 DUP7 ADD ADD GT ISZERO PUSH2 0xB2C JUMPI DUP3 DUP4 REVERT JUMPDEST DUP2 PUSH1 0x20 DUP6 ADD PUSH1 0x20 DUP4 ADD CALLDATACOPY SWAP1 DUP2 ADD PUSH1 0x20 ADD SWAP2 SWAP1 SWAP2 MSTORE SWAP3 SWAP2 POP POP JUMP JUMPDEST DUP1 CALLDATALOAD PUSH1 0x1 PUSH1 0x1 PUSH1 0x40 SHL SUB DUP2 AND DUP2 EQ PUSH2 0x648 JUMPI PUSH1 0x0 DUP1 REVERT JUMPDEST PUSH1 0x0 PUSH1 0x20 DUP3 DUP5 SUB SLT ISZERO PUSH2 0xB6E JUMPI DUP1 DUP2 REVERT JUMPDEST DUP2 CALLDATALOAD PUSH2 0xB79 DUP2 PUSH2 0x12FB JUMP JUMPDEST SWAP4 SWAP3 POP POP POP JUMP JUMPDEST PUSH1 0x0 DUP1 PUSH1 0x40 DUP4 DUP6 SUB SLT ISZERO PUSH2 0xB92 JUMPI DUP1 DUP2 REVERT JUMPDEST DUP3 CALLDATALOAD PUSH2 0xB9D DUP2 PUSH2 0x12FB JUMP JUMPDEST SWAP2 POP PUSH2 0xBAB PUSH1 0x20 DUP5 ADD PUSH2 0xB46 JUMP JUMPDEST SWAP1 POP SWAP3 POP SWAP3 SWAP1 POP JUMP JUMPDEST PUSH1 0x0 PUSH1 0x20 DUP3 DUP5 SUB SLT ISZERO PUSH2 0xBC5 JUMPI DUP1 DUP2 REVERT JUMPDEST DUP2 MLOAD DUP1 ISZERO ISZERO DUP2 EQ PUSH2 0xB79 JUMPI DUP2 DUP3 REVERT JUMPDEST PUSH1 0x0 PUSH1 0x20 DUP3 DUP5 SUB SLT ISZERO PUSH2 0xBE5 JUMPI DUP1 DUP2 REVERT JUMPDEST POP CALLDATALOAD SWAP2 SWAP1 POP JUMP JUMPDEST PUSH1 0x0 PUSH1 0x20 DUP3 DUP5 SUB SLT ISZERO PUSH2 0xBFD JUMPI DUP1 DUP2 REVERT JUMPDEST PUSH2 0xB79 DUP3 PUSH2 0xB46 JUMP JUMPDEST PUSH1 0x0 DUP1 PUSH1 0x0 DUP1 PUSH1 0x0 PUSH2 0x140 DUP7 DUP9 SUB SLT ISZERO PUSH2 0xC1E JUMPI DUP1 DUP2 REVERT JUMPDEST PUSH2 0xC27 DUP7 PUSH2 0xB46 JUMP JUMPDEST SWAP5 POP PUSH1 0x20 DUP1 DUP8 ADD CALLDATALOAD PUSH1 0x1 PUSH1 0x1 PUSH1 0x40 SHL SUB DUP2 GT ISZERO PUSH2 0xC42 JUMPI DUP3 DUP4 REVERT JUMPDEST PUSH2 0xC4E DUP10 DUP3 DUP11 ADD PUSH2 0xA5B JUMP JUMPDEST SWAP6 POP POP PUSH1 0x40 PUSH2 0xC5F DUP10 DUP3 DUP11 ADD PUSH2 0x9E7 JUMP JUMPDEST SWAP5 POP DUP9 PUSH1 0x9F DUP10 ADD SLT PUSH2 0xC6F JUMPI DUP3 DUP4 REVERT JUMPDEST PUSH1 0x2 PUSH2 0xC82 PUSH2 0xC7D DUP3 PUSH2 0x1275 JUMP JUMPDEST PUSH2 0x124C JUMP JUMPDEST DUP1 PUSH1 0x80 DUP12 ADD PUSH2 0x100 DUP13 ADD DUP14 DUP2 GT ISZERO PUSH2 0xC98 JUMPI DUP8 DUP9 REVERT JUMPDEST DUP8 JUMPDEST DUP6 DUP2 LT ISZERO PUSH2 0xCBE JUMPI PUSH2 0xCAC DUP16 DUP5 PUSH2 0x9E7 JUMP JUMPDEST DUP6 MSTORE SWAP4 DUP8 ADD SWAP4 SWAP2 DUP7 ADD SWAP2 PUSH1 0x1 ADD PUSH2 0xC9A JUMP JUMPDEST POP DUP3 SWAP9 POP PUSH2 0xCCC DUP15 DUP3 PUSH2 0x9E7 JUMP JUMPDEST SWAP8 POP POP POP POP POP POP POP POP SWAP3 SWAP6 POP SWAP3 SWAP6 SWAP1 SWAP4 POP JUMP JUMPDEST PUSH1 0x0 DUP1 PUSH1 0x0 PUSH1 0x60 DUP5 DUP7 SUB SLT ISZERO PUSH2 0xCF3 JUMPI DUP3 DUP4 REVERT JUMPDEST PUSH2 0xCFC DUP5 PUSH2 0xB46 JUMP JUMPDEST SWAP3 POP PUSH1 0x20 DUP5 ADD CALLDATALOAD PUSH2 0xD0C DUP2 PUSH2 0x12FB JUMP JUMPDEST SWAP2 POP PUSH1 0x40 DUP5 ADD CALLDATALOAD PUSH1 0x1 PUSH1 0x1 PUSH1 0x40 SHL SUB DUP1 DUP3 GT ISZERO PUSH2 0xD27 JUMPI DUP3 DUP4 REVERT JUMPDEST SWAP1 DUP6 ADD SWAP1 PUSH1 0xA0 DUP3 DUP9 SUB SLT ISZERO PUSH2 0xD3A JUMPI DUP3 DUP4 REVERT JUMPDEST PUSH1 0x40 MLOAD PUSH1 0xA0 DUP2 ADD DUP2 DUP2 LT DUP4 DUP3 GT OR ISZERO PUSH2 0xD55 JUMPI PUSH2 0xD55 PUSH2 0x12E5 JUMP JUMPDEST DUP1 PUSH1 0x40 MSTORE POP DUP3 CALLDATALOAD DUP2 MSTORE PUSH1 0x20 DUP4 ADD CALLDATALOAD PUSH1 0x20 DUP3 ADD MSTORE PUSH1 0x40 DUP4 ADD CALLDATALOAD PUSH1 0x40 DUP3 ADD MSTORE PUSH1 0x60 DUP4 ADD CALLDATALOAD DUP3 DUP2 GT ISZERO PUSH2 0xD83 JUMPI DUP5 DUP6 REVERT JUMPDEST PUSH2 0xD8F DUP10 DUP3 DUP7 ADD PUSH2 0xA5B JUMP JUMPDEST PUSH1 0x60 DUP4 ADD MSTORE POP PUSH1 0x80 DUP4 ADD CALLDATALOAD DUP3 DUP2 GT ISZERO PUSH2 0xDA6 JUMPI DUP5 DUP6 REVERT JUMPDEST PUSH2 0xDB2 DUP10 DUP3 DUP7 ADD PUSH2 0xADC JUMP JUMPDEST PUSH1 0x80 DUP4 ADD MSTORE POP DUP1 SWAP4 POP POP POP POP SWAP3 POP SWAP3 POP SWAP3 JUMP JUMPDEST DUP1 PUSH1 0x0 JUMPDEST PUSH1 0x2 DUP2 LT ISZERO PUSH2 0xDE8 JUMPI DUP2 MLOAD DUP5 MSTORE PUSH1 0x20 SWAP4 DUP5 ADD SWAP4 SWAP1 SWAP2 ADD SWAP1 PUSH1 0x1 ADD PUSH2 0xDC9 JUMP JUMPDEST POP POP POP POP JUMP JUMPDEST PUSH1 0x0 DUP2 MLOAD DUP1 DUP5 MSTORE PUSH1 0x20 DUP1 DUP6 ADD SWAP5 POP DUP1 DUP5 ADD DUP4 JUMPDEST DUP4 DUP2 LT ISZERO PUSH2 0xE1D JUMPI DUP2 MLOAD DUP8 MSTORE SWAP6 DUP3 ADD SWAP6 SWAP1 DUP3 ADD SWAP1 PUSH1 0x1 ADD PUSH2 0xE01 JUMP JUMPDEST POP SWAP5 SWAP6 SWAP5 POP POP POP POP POP JUMP JUMPDEST PUSH1 0x0 DUP2 MLOAD DUP1 DUP5 MSTORE DUP2 JUMPDEST DUP2 DUP2 LT ISZERO PUSH2 0xE4D JUMPI PUSH1 0x20 DUP2 DUP6 ADD DUP2 ADD MLOAD DUP7 DUP4 ADD DUP3 ADD MSTORE ADD PUSH2 0xE31 JUMP JUMPDEST DUP2 DUP2 GT ISZERO PUSH2 0xE5E JUMPI DUP3 PUSH1 0x20 DUP4 DUP8 ADD ADD MSTORE JUMPDEST POP PUSH1 0x1F ADD PUSH1 0x1F NOT AND SWAP3 SWAP1 SWAP3 ADD PUSH1 0x20 ADD SWAP3 SWAP2 POP POP JUMP JUMPDEST DUP1 SLOAD PUSH1 0x0 SWAP1 PUSH1 0x2 DUP2 DIV PUSH1 0x1 DUP1 DUP4 AND DUP1 PUSH2 0xE8D JUMPI PUSH1 0x7F DUP4 AND SWAP3 POP JUMPDEST PUSH1 0x20 DUP1 DUP5 LT DUP3 EQ ISZERO PUSH2 0xEAD JUMPI PUSH4 0x4E487B71 PUSH1 0xE0 SHL DUP7 MSTORE PUSH1 0x22 PUSH1 0x4 MSTORE PUSH1 0x24 DUP7 REVERT JUMPDEST PUSH2 0xEB7 DUP5 DUP10 PUSH2 0x12A1 JUMP JUMPDEST DUP3 DUP1 ISZERO PUSH2 0xECB JUMPI PUSH1 0x1 DUP2 EQ PUSH2 0xEDC JUMPI PUSH2 0xF07 JUMP JUMPDEST PUSH1 0xFF NOT DUP8 AND DUP3 MSTORE DUP3 DUP3 ADD SWAP8 POP PUSH2 0xF07 JUMP JUMPDEST PUSH2 0xEE5 DUP10 PUSH2 0x1295 JUMP JUMPDEST PUSH1 0x0 JUMPDEST DUP8 DUP2 LT ISZERO PUSH2 0xF01 JUMPI DUP2 SLOAD DUP5 DUP3 ADD MSTORE SWAP1 DUP7 ADD SWAP1 DUP5 ADD PUSH2 0xEE8 JUMP JUMPDEST DUP4 ADD SWAP9 POP POP JUMPDEST POP POP POP POP POP POP POP SWAP3 SWAP2 POP POP JUMP JUMPDEST PUSH1 0x1 PUSH1 0x1 PUSH1 0xA0 SHL SUB SWAP2 SWAP1 SWAP2 AND DUP2 MSTORE PUSH1 0x20 ADD SWAP1 JUMP JUMPDEST PUSH1 0x0 PUSH2 0x140 DUP1 DUP4 MSTORE PUSH2 0xF3C DUP2 DUP5 ADD DUP10 PUSH2 0xDEE JUMP JUMPDEST SWAP1 POP PUSH1 0x20 PUSH2 0xF4C DUP2 DUP6 ADD DUP10 PUSH2 0xDC5 JUMP JUMPDEST PUSH1 0x60 DUP5 ADD DUP8 DUP5 JUMPDEST PUSH1 0x2 DUP2 LT ISZERO PUSH2 0xF7A JUMPI PUSH2 0xF67 DUP4 DUP4 MLOAD PUSH2 0xDC5 JUMP JUMPDEST PUSH1 0x40 SWAP3 SWAP1 SWAP3 ADD SWAP2 SWAP1 DUP4 ADD SWAP1 PUSH1 0x1 ADD PUSH2 0xF53 JUMP JUMPDEST POP POP POP PUSH2 0xF8A PUSH1 0xE0 DUP6 ADD DUP8 PUSH2 0xDC5 JUMP JUMPDEST DUP4 DUP3 SUB PUSH2 0x120 DUP6 ADD MSTORE DUP5 SLOAD DUP3 MSTORE PUSH1 0x1 DUP1 DUP7 ADD SLOAD DUP3 DUP5 ADD MSTORE PUSH1 0x2 DUP7 ADD SLOAD PUSH1 0x40 DUP5 ADD MSTORE PUSH1 0xA0 PUSH1 0x60 DUP5 ADD DUP2 SWAP1 MSTORE PUSH1 0x3 DUP8 ADD DUP1 SLOAD SWAP2 DUP6 ADD DUP3 SWAP1 MSTORE DUP6 MSTORE DUP3 DUP6 KECCAK256 SWAP2 SWAP1 DUP6 SWAP1 PUSH1 0xC0 DUP7 ADD SWAP1 JUMPDEST DUP1 DUP4 LT ISZERO PUSH2 0xFEC JUMPI DUP5 SLOAD DUP3 MSTORE SWAP4 DUP4 ADD SWAP4 SWAP2 DUP4 ADD SWAP2 SWAP1 DUP6 ADD SWAP1 PUSH2 0xFCF JUMP JUMPDEST POP DUP6 DUP2 SUB PUSH1 0x80 DUP8 ADD MSTORE PUSH2 0x1002 DUP2 PUSH1 0x4 DUP12 ADD PUSH2 0xE73 JUMP JUMPDEST SWAP14 SWAP13 POP POP POP POP POP POP POP POP POP POP POP POP POP JUMP JUMPDEST PUSH1 0x20 DUP1 DUP3 MSTORE DUP3 MLOAD DUP3 DUP3 ADD DUP2 SWAP1 MSTORE PUSH1 0x0 SWAP2 SWAP1 DUP5 DUP3 ADD SWAP1 PUSH1 0x40 DUP6 ADD SWAP1 DUP5 JUMPDEST DUP2 DUP2 LT ISZERO PUSH2 0x1054 JUMPI DUP4 MLOAD PUSH1 0x1 PUSH1 0x1 PUSH1 0x40 SHL SUB AND DUP4 MSTORE SWAP3 DUP5 ADD SWAP3 SWAP2 DUP5 ADD SWAP2 PUSH1 0x1 ADD PUSH2 0x102F JUMP JUMPDEST POP SWAP1 SWAP7 SWAP6 POP POP POP POP POP POP JUMP JUMPDEST SWAP1 ISZERO ISZERO DUP2 MSTORE PUSH1 0x20 ADD SWAP1 JUMP JUMPDEST PUSH1 0x20 DUP1 DUP3 MSTORE PUSH1 0x26 SWAP1 DUP3 ADD MSTORE PUSH32 0x4F776E61626C653A206E6577206F776E657220697320746865207A65726F2061 PUSH1 0x40 DUP3 ADD MSTORE PUSH6 0x646472657373 PUSH1 0xD0 SHL PUSH1 0x60 DUP3 ADD MSTORE PUSH1 0x80 ADD SWAP1 JUMP JUMPDEST PUSH1 0x20 DUP1 DUP3 MSTORE PUSH1 0x1B SWAP1 DUP3 ADD MSTORE PUSH32 0x70726F6F6620726573706F6E7365206973206E6F742076616C69640000000000 PUSH1 0x40 DUP3 ADD MSTORE PUSH1 0x60 ADD SWAP1 JUMP JUMPDEST PUSH1 0x20 DUP1 DUP3 MSTORE DUP2 DUP2 ADD MSTORE PUSH32 0x4F776E61626C653A2063616C6C6572206973206E6F7420746865206F776E6572 PUSH1 0x40 DUP3 ADD MSTORE PUSH1 0x60 ADD SWAP1 JUMP JUMPDEST PUSH1 0x20 DUP1 DUP3 MSTORE PUSH1 0x28 SWAP1 DUP3 ADD MSTORE PUSH32 0x76616C696461746F72206973206E6F742073657420666F722074686973207265 PUSH1 0x40 DUP3 ADD MSTORE PUSH8 0x1C5D595CDD081A59 PUSH1 0xC2 SHL PUSH1 0x60 DUP3 ADD MSTORE PUSH1 0x80 ADD SWAP1 JUMP JUMPDEST PUSH1 0x20 DUP1 DUP3 MSTORE PUSH1 0x24 SWAP1 DUP3 ADD MSTORE PUSH32 0x7175657279206973206E6F742073657420666F72207468697320726571756573 PUSH1 0x40 DUP3 ADD MSTORE PUSH4 0x1D081A59 PUSH1 0xE2 SHL PUSH1 0x60 DUP3 ADD MSTORE PUSH1 0x80 ADD SWAP1 JUMP JUMPDEST PUSH1 0x0 PUSH1 0x20 DUP3 MSTORE DUP3 MLOAD PUSH1 0x20 DUP4 ADD MSTORE PUSH1 0x20 DUP4 ADD MLOAD PUSH1 0x40 DUP4 ADD MSTORE PUSH1 0x40 DUP4 ADD MLOAD PUSH1 0x60 DUP4 ADD MSTORE PUSH1 0x60 DUP4 ADD MLOAD PUSH1 0xA0 PUSH1 0x80 DUP5 ADD MSTORE PUSH2 0x11E3 PUSH1 0xC0 DUP5 ADD DUP3 PUSH2 0xDEE JUMP JUMPDEST SWAP1 POP PUSH1 0x80 DUP5 ADD MLOAD PUSH1 0x1F NOT DUP5 DUP4 SUB ADD PUSH1 0xA0 DUP6 ADD MSTORE PUSH2 0x1200 DUP3 DUP3 PUSH2 0xE28 JUMP JUMPDEST SWAP6 SWAP5 POP POP POP POP POP JUMP JUMPDEST PUSH1 0x0 DUP6 DUP3 MSTORE DUP5 PUSH1 0x20 DUP4 ADD MSTORE DUP4 PUSH1 0x40 DUP4 ADD MSTORE PUSH1 0x80 PUSH1 0x60 DUP4 ADD MSTORE PUSH2 0x122E PUSH1 0x80 DUP4 ADD DUP5 PUSH2 0xE28 JUMP JUMPDEST SWAP7 SWAP6 POP POP POP POP POP POP JUMP JUMPDEST PUSH1 0x1 PUSH1 0x1 PUSH1 0x40 SHL SUB SWAP2 SWAP1 SWAP2 AND DUP2 MSTORE PUSH1 0x20 ADD SWAP1 JUMP JUMPDEST PUSH1 0x40 MLOAD DUP2 DUP2 ADD PUSH1 0x1 PUSH1 0x1 PUSH1 0x40 SHL SUB DUP2 GT DUP3 DUP3 LT OR ISZERO PUSH2 0x126D JUMPI PUSH2 0x126D PUSH2 0x12E5 JUMP JUMPDEST PUSH1 0x40 MSTORE SWAP2 SWAP1 POP JUMP JUMPDEST PUSH1 0x0 PUSH1 0x1 PUSH1 0x1 PUSH1 0x40 SHL SUB DUP3 GT ISZERO PUSH2 0x128E JUMPI PUSH2 0x128E PUSH2 0x12E5 JUMP JUMPDEST POP PUSH1 0x20 MUL SWAP1 JUMP JUMPDEST PUSH1 0x0 SWAP1 DUP2 MSTORE PUSH1 0x20 SWAP1 KECCAK256 SWAP1 JUMP JUMPDEST SWAP1 DUP2 MSTORE PUSH1 0x20 ADD SWAP1 JUMP JUMPDEST PUSH1 0x2 DUP2 DIV PUSH1 0x1 DUP3 AND DUP1 PUSH2 0x12BE JUMPI PUSH1 0x7F DUP3 AND SWAP2 POP JUMPDEST PUSH1 0x20 DUP3 LT DUP2 EQ ISZERO PUSH2 0x12DF JUMPI PUSH4 0x4E487B71 PUSH1 0xE0 SHL PUSH1 0x0 MSTORE PUSH1 0x22 PUSH1 0x4 MSTORE PUSH1 0x24 PUSH1 0x0 REVERT JUMPDEST POP SWAP2 SWAP1 POP JUMP JUMPDEST PUSH4 0x4E487B71 PUSH1 0xE0 SHL PUSH1 0x0 MSTORE PUSH1 0x41 PUSH1 0x4 MSTORE PUSH1 0x24 PUSH1 0x0 REVERT JUMPDEST PUSH1 0x1 PUSH1 0x1 PUSH1 0xA0 SHL SUB DUP2 AND DUP2 EQ PUSH2 0x6C1 JUMPI PUSH1 0x0 DUP1 REVERT INVALID LOG2 PUSH5 0x6970667358 0x22 SLT KECCAK256 SLOAD 0xEB 0xE5 0xE3 SWAP7 0x27 0xCD SWAP3 0xE2 PC 0xBC 0xDF ADD EQ CALLDATASIZE DUP9 0xD1 0xA5 0xAF 0xE0 0x2D 0xCB 0x2C DUP16 0xCE 0x5F 0xD9 0x21 0xBD 0xAA PUSH7 0x2B64736F6C6343 STOP ADDMOD STOP STOP CALLER "},"methodIdentifiers":{"getSupportedRequests()":"37ba9523","getZKPRequest(uint64)":"c76d0845","owner()":"8da5cb5b","proofs(address,uint64)":"b45c0fdf","renounceOwnership()":"715018a6","requestQueries(uint64)":"96bf4741","requestValidators(uint64)":"a8723114","setZKPRequest(uint64,address,(uint256,uint256,uint256,uint256[],string))":"fee207e6","submitZKPResponse(uint64,uint256[],uint256[2],uint256[2][2],uint256[2])":"b68967e2","supportedRequests(uint256)":"f1435326","transferOwnership(address)":"f2fde38b"}}}}}