{
  "_format": "hh-sol-artifact-1",
  "contractName": "PrimeToadIDVerifier",
  "sourceName": "contracts/PTTVerifier.sol",
  "abi": [
    {
      "inputs": [
        {
          "internalType": "string",
          "name": "name_",
          "type": "string"
        },
        {
          "internalType": "string",
          "name": "symbol_",
          "type": "string"
        }
      ],
      "stateMutability": "nonpayable",
      "type": "constructor"
    },
    {
      "anonymous": false,
      "inputs": [
        {
          "indexed": true,
          "internalType": "address",
          "name": "owner",
          "type": "address"
        },
        {
          "indexed": true,
          "internalType": "address",
          "name": "spender",
          "type": "address"
        },
        {
          "indexed": false,
          "internalType": "uint256",
          "name": "value",
          "type": "uint256"
        }
      ],
      "name": "Approval",
      "type": "event"
    },
    {
      "anonymous": false,
      "inputs": [
        {
          "indexed": true,
          "internalType": "address",
          "name": "previousOwner",
          "type": "address"
        },
        {
          "indexed": true,
          "internalType": "address",
          "name": "newOwner",
          "type": "address"
        }
      ],
      "name": "OwnershipTransferred",
      "type": "event"
    },
    {
      "anonymous": false,
      "inputs": [
        {
          "indexed": true,
          "internalType": "address",
          "name": "from",
          "type": "address"
        },
        {
          "indexed": true,
          "internalType": "address",
          "name": "to",
          "type": "address"
        },
        {
          "indexed": false,
          "internalType": "uint256",
          "name": "value",
          "type": "uint256"
        }
      ],
      "name": "Transfer",
      "type": "event"
    },
    {
      "inputs": [],
      "name": "TOKEN_AMOUNT_FOR_AIRDROP_PER_ID",
      "outputs": [
        {
          "internalType": "uint256",
          "name": "",
          "type": "uint256"
        }
      ],
      "stateMutability": "view",
      "type": "function"
    },
    {
      "inputs": [],
      "name": "TRANSFER_REQUEST_ID",
      "outputs": [
        {
          "internalType": "uint64",
          "name": "",
          "type": "uint64"
        }
      ],
      "stateMutability": "view",
      "type": "function"
    },
    {
      "inputs": [
        {
          "internalType": "address",
          "name": "",
          "type": "address"
        }
      ],
      "name": "addressToId",
      "outputs": [
        {
          "internalType": "uint256",
          "name": "",
          "type": "uint256"
        }
      ],
      "stateMutability": "view",
      "type": "function"
    },
    {
      "inputs": [
        {
          "internalType": "address",
          "name": "owner",
          "type": "address"
        },
        {
          "internalType": "address",
          "name": "spender",
          "type": "address"
        }
      ],
      "name": "allowance",
      "outputs": [
        {
          "internalType": "uint256",
          "name": "",
          "type": "uint256"
        }
      ],
      "stateMutability": "view",
      "type": "function"
    },
    {
      "inputs": [
        {
          "internalType": "address",
          "name": "spender",
          "type": "address"
        },
        {
          "internalType": "uint256",
          "name": "amount",
          "type": "uint256"
        }
      ],
      "name": "approve",
      "outputs": [
        {
          "internalType": "bool",
          "name": "",
          "type": "bool"
        }
      ],
      "stateMutability": "nonpayable",
      "type": "function"
    },
    {
      "inputs": [
        {
          "internalType": "address",
          "name": "account",
          "type": "address"
        }
      ],
      "name": "balanceOf",
      "outputs": [
        {
          "internalType": "uint256",
          "name": "",
          "type": "uint256"
        }
      ],
      "stateMutability": "view",
      "type": "function"
    },
    {
      "inputs": [],
      "name": "decimals",
      "outputs": [
        {
          "internalType": "uint8",
          "name": "",
          "type": "uint8"
        }
      ],
      "stateMutability": "view",
      "type": "function"
    },
    {
      "inputs": [
        {
          "internalType": "address",
          "name": "spender",
          "type": "address"
        },
        {
          "internalType": "uint256",
          "name": "subtractedValue",
          "type": "uint256"
        }
      ],
      "name": "decreaseAllowance",
      "outputs": [
        {
          "internalType": "bool",
          "name": "",
          "type": "bool"
        }
      ],
      "stateMutability": "nonpayable",
      "type": "function"
    },
    {
      "inputs": [],
      "name": "getSupportedRequests",
      "outputs": [
        {
          "internalType": "uint64[]",
          "name": "arr",
          "type": "uint64[]"
        }
      ],
      "stateMutability": "view",
      "type": "function"
    },
    {
      "inputs": [
        {
          "internalType": "uint64",
          "name": "requestId",
          "type": "uint64"
        }
      ],
      "name": "getZKPRequest",
      "outputs": [
        {
          "components": [
            {
              "internalType": "uint256",
              "name": "schema",
              "type": "uint256"
            },
            {
              "internalType": "uint256",
              "name": "slotIndex",
              "type": "uint256"
            },
            {
              "internalType": "uint256",
              "name": "operator",
              "type": "uint256"
            },
            {
              "internalType": "uint256[]",
              "name": "value",
              "type": "uint256[]"
            },
            {
              "internalType": "string",
              "name": "circuitId",
              "type": "string"
            }
          ],
          "internalType": "struct ICircuitValidator.CircuitQuery",
          "name": "",
          "type": "tuple"
        }
      ],
      "stateMutability": "view",
      "type": "function"
    },
    {
      "inputs": [
        {
          "internalType": "uint256",
          "name": "",
          "type": "uint256"
        }
      ],
      "name": "idToAddress",
      "outputs": [
        {
          "internalType": "address",
          "name": "",
          "type": "address"
        }
      ],
      "stateMutability": "view",
      "type": "function"
    },
    {
      "inputs": [
        {
          "internalType": "address",
          "name": "spender",
          "type": "address"
        },
        {
          "internalType": "uint256",
          "name": "addedValue",
          "type": "uint256"
        }
      ],
      "name": "increaseAllowance",
      "outputs": [
        {
          "internalType": "bool",
          "name": "",
          "type": "bool"
        }
      ],
      "stateMutability": "nonpayable",
      "type": "function"
    },
    {
      "inputs": [],
      "name": "name",
      "outputs": [
        {
          "internalType": "string",
          "name": "",
          "type": "string"
        }
      ],
      "stateMutability": "view",
      "type": "function"
    },
    {
      "inputs": [],
      "name": "owner",
      "outputs": [
        {
          "internalType": "address",
          "name": "",
          "type": "address"
        }
      ],
      "stateMutability": "view",
      "type": "function"
    },
    {
      "inputs": [
        {
          "internalType": "address",
          "name": "",
          "type": "address"
        },
        {
          "internalType": "uint64",
          "name": "",
          "type": "uint64"
        }
      ],
      "name": "proofs",
      "outputs": [
        {
          "internalType": "bool",
          "name": "",
          "type": "bool"
        }
      ],
      "stateMutability": "view",
      "type": "function"
    },
    {
      "inputs": [],
      "name": "renounceOwnership",
      "outputs": [],
      "stateMutability": "nonpayable",
      "type": "function"
    },
    {
      "inputs": [
        {
          "internalType": "uint64",
          "name": "",
          "type": "uint64"
        }
      ],
      "name": "requestQueries",
      "outputs": [
        {
          "internalType": "uint256",
          "name": "schema",
          "type": "uint256"
        },
        {
          "internalType": "uint256",
          "name": "slotIndex",
          "type": "uint256"
        },
        {
          "internalType": "uint256",
          "name": "operator",
          "type": "uint256"
        },
        {
          "internalType": "string",
          "name": "circuitId",
          "type": "string"
        }
      ],
      "stateMutability": "view",
      "type": "function"
    },
    {
      "inputs": [
        {
          "internalType": "uint64",
          "name": "",
          "type": "uint64"
        }
      ],
      "name": "requestValidators",
      "outputs": [
        {
          "internalType": "contract ICircuitValidator",
          "name": "",
          "type": "address"
        }
      ],
      "stateMutability": "view",
      "type": "function"
    },
    {
      "inputs": [
        {
          "internalType": "uint64",
          "name": "requestId",
          "type": "uint64"
        },
        {
          "internalType": "contract ICircuitValidator",
          "name": "validator",
          "type": "address"
        },
        {
          "components": [
            {
              "internalType": "uint256",
              "name": "schema",
              "type": "uint256"
            },
            {
              "internalType": "uint256",
              "name": "slotIndex",
              "type": "uint256"
            },
            {
              "internalType": "uint256",
              "name": "operator",
              "type": "uint256"
            },
            {
              "internalType": "uint256[]",
              "name": "value",
              "type": "uint256[]"
            },
            {
              "internalType": "string",
              "name": "circuitId",
              "type": "string"
            }
          ],
          "internalType": "struct ICircuitValidator.CircuitQuery",
          "name": "query",
          "type": "tuple"
        }
      ],
      "name": "setZKPRequest",
      "outputs": [
        {
          "internalType": "bool",
          "name": "",
          "type": "bool"
        }
      ],
      "stateMutability": "nonpayable",
      "type": "function"
    },
    {
      "inputs": [
        {
          "internalType": "uint64",
          "name": "requestId",
          "type": "uint64"
        },
        {
          "internalType": "uint256[]",
          "name": "inputs",
          "type": "uint256[]"
        },
        {
          "internalType": "uint256[2]",
          "name": "a",
          "type": "uint256[2]"
        },
        {
          "internalType": "uint256[2][2]",
          "name": "b",
          "type": "uint256[2][2]"
        },
        {
          "internalType": "uint256[2]",
          "name": "c",
          "type": "uint256[2]"
        }
      ],
      "name": "submitZKPResponse",
      "outputs": [
        {
          "internalType": "bool",
          "name": "",
          "type": "bool"
        }
      ],
      "stateMutability": "nonpayable",
      "type": "function"
    },
    {
      "inputs": [
        {
          "internalType": "uint256",
          "name": "",
          "type": "uint256"
        }
      ],
      "name": "supportedRequests",
      "outputs": [
        {
          "internalType": "uint64",
          "name": "",
          "type": "uint64"
        }
      ],
      "stateMutability": "view",
      "type": "function"
    },
    {
      "inputs": [],
      "name": "symbol",
      "outputs": [
        {
          "internalType": "string",
          "name": "",
          "type": "string"
        }
      ],
      "stateMutability": "view",
      "type": "function"
    },
    {
      "inputs": [],
      "name": "totalSupply",
      "outputs": [
        {
          "internalType": "uint256",
          "name": "",
          "type": "uint256"
        }
      ],
      "stateMutability": "view",
      "type": "function"
    },
    {
      "inputs": [
        {
          "internalType": "address",
          "name": "to",
          "type": "address"
        },
        {
          "internalType": "uint256",
          "name": "amount",
          "type": "uint256"
        }
      ],
      "name": "transfer",
      "outputs": [
        {
          "internalType": "bool",
          "name": "",
          "type": "bool"
        }
      ],
      "stateMutability": "nonpayable",
      "type": "function"
    },
    {
      "inputs": [
        {
          "internalType": "address",
          "name": "from",
          "type": "address"
        },
        {
          "internalType": "address",
          "name": "to",
          "type": "address"
        },
        {
          "internalType": "uint256",
          "name": "amount",
          "type": "uint256"
        }
      ],
      "name": "transferFrom",
      "outputs": [
        {
          "internalType": "bool",
          "name": "",
          "type": "bool"
        }
      ],
      "stateMutability": "nonpayable",
      "type": "function"
    },
    {
      "inputs": [
        {
          "internalType": "address",
          "name": "newOwner",
          "type": "address"
        }
      ],
      "name": "transferOwnership",
      "outputs": [],
      "stateMutability": "nonpayable",
      "type": "function"
    }
  ],
  "bytecode": "0x60806040526200000e620000b2565b6200001e9060ff16600a62000312565b6200002b90600562000407565b600a553480156200003b57600080fd5b50604051620026b3380380620026b38339810160408190526200005e916200025e565b815182908290620000779060039060208501906200010d565b5080516200008d9060049060208401906200010d565b505050620000aa620000a4620000b760201b60201c565b620000bb565b505062000492565b601290565b3390565b600580546001600160a01b038381166001600160a01b0319831681179093556040519116919082907f8be0079c531659141344cd1fd0a4f28419497f9722a3daafe3b4186f6b6457e090600090a35050565b8280546200011b9062000429565b90600052602060002090601f0160209004810192826200013f57600085556200018a565b82601f106200015a57805160ff19168380011785556200018a565b828001600101855582156200018a579182015b828111156200018a5782518255916020019190600101906200016d565b50620001989291506200019c565b5090565b5b808211156200019857600081556001016200019d565b600082601f830112620001c4578081fd5b81516001600160401b0380821115620001e157620001e16200047c565b6040516020601f8401601f19168201810183811183821017156200020957620002096200047c565b604052838252858401810187101562000220578485fd5b8492505b8383101562000243578583018101518284018201529182019162000224565b838311156200025457848185840101525b5095945050505050565b6000806040838503121562000271578182fd5b82516001600160401b038082111562000288578384fd5b6200029686838701620001b3565b93506020850151915080821115620002ac578283fd5b50620002bb85828601620001b3565b9150509250929050565b80825b6001808611620002d9575062000309565b818704821115620002ee57620002ee62000466565b80861615620002fc57918102915b9490941c938002620002c8565b94509492505050565b60006200032360001984846200032a565b9392505050565b6000826200033b5750600162000323565b816200034a5750600062000323565b81600181146200036357600281146200036e57620003a2565b600191505062000323565b60ff84111562000382576200038262000466565b6001841b9150848211156200039b576200039b62000466565b5062000323565b5060208310610133831016604e8410600b8410161715620003da575081810a83811115620003d457620003d462000466565b62000323565b620003e98484846001620002c5565b808604821115620003fe57620003fe62000466565b02949350505050565b600081600019048311821515161562000424576200042462000466565b500290565b6002810460018216806200043e57607f821691505b602082108114156200046057634e487b7160e01b600052602260045260246000fd5b50919050565b634e487b7160e01b600052601160045260246000fd5b634e487b7160e01b600052604160045260246000fd5b61221180620004a26000396000f3fe608060405234801561001057600080fd5b506004361061018e5760003560e01c806395d89b41116100de578063b68967e211610097578063dd62ed3e11610071578063dd62ed3e14610355578063f143532614610368578063f2fde38b1461037b578063fee207e61461038e5761018e565b8063b68967e21461030f578063c76d084514610322578063cb0e0d7d146103425761018e565b806395d89b411461029857806396bf4741146102a0578063a457c2d7146102c3578063a8723114146102d6578063a9059cbb146102e9578063b45c0fdf146102fc5761018e565b806337ba95231161014b5780637042f36b116101255780637042f36b1461026b57806370a0823114610273578063715018a6146102865780638da5cb5b146102905761018e565b806337ba95231461022e578063395093511461024357806363ec508f146102565761018e565b806306fdde0314610193578063095ea7b3146101b157806318160ddd146101d157806323b872dd146101e65780632a2d0c47146101f9578063313ce56714610219575b600080fd5b61019b6103a1565b6040516101a89190611bfb565b60405180910390f35b6101c46101bf3660046116d3565b610433565b6040516101a89190611bf0565b6101d9610455565b6040516101a891906120a2565b6101c46101f4366004611693565b61045b565b61020c610207366004611752565b610489565b6040516101a89190611aa4565b6102216104a4565b6040516101a891906120ee565b6102366104a9565b6040516101a89190611ba3565b6101c46102513660046116d3565b610532565b61025e61055e565b6040516101a891906120da565b6101d9610563565b6101d9610281366004611638565b610569565b61028e610588565b005b61020c61059c565b61019b6105ab565b6102b36102ae366004611782565b6105ba565b6040516101a894939291906120ab565b6101c46102d13660046116d3565b61066d565b61020c6102e4366004611782565b6106be565b6101c46102f73660046116d3565b6106d9565b6101c461030a3660046116fe565b6106f1565b6101c461031d36600461179c565b610711565b610335610330366004611782565b6108cf565b6040516101a89190612042565b6101d9610350366004611638565b610a02565b6101d961036336600461165b565b610a14565b61025e610376366004611752565b610a3f565b61028e610389366004611638565b610a7c565b6101c461039c366004611875565b610ab6565b6060600380546103b090612175565b80601f01602080910402602001604051908101604052809291908181526020018280546103dc90612175565b80156104295780601f106103fe57610100808354040283529160200191610429565b820191906000526020600020905b81548152906001019060200180831161040c57829003601f168201915b5050505050905090565b60008061043e610c3f565b905061044b818585610c43565b5060019392505050565b60025490565b600080610466610c3f565b9050610473858285610cf7565b61047e858585610d41565b506001949350505050565b600b602052600090815260409020546001600160a01b031681565b601290565b6060600980548060200260200160405190810160405280929190818152602001828054801561042957602002820191906000526020600020906000905b82829054906101000a90046001600160401b03166001600160401b0316815260200190600801906020826007010492830192600103820291508084116104e65790505050505050905090565b60008061053d610c3f565b905061044b81858561054f8589610a14565b6105599190612151565b610c43565b600181565b600a5481565b6001600160a01b0381166000908152602081905260409020545b919050565b610590610e42565b61059a6000610e81565b565b6005546001600160a01b031690565b6060600480546103b090612175565b6007602052600090815260409020805460018201546002830154600484018054939492939192916105ea90612175565b80601f016020809104026020016040519081016040528092919081815260200182805461061690612175565b80156106635780601f1061063857610100808354040283529160200191610663565b820191906000526020600020905b81548152906001019060200180831161064657829003601f168201915b5050505050905084565b600080610678610c3f565b905060006106868286610a14565b9050838110156106b15760405162461bcd60e51b81526004016106a890611fc6565b60405180910390fd5b61047e8286868403610c43565b6008602052600090815260409020546001600160a01b031681565b6000806106e4610c3f565b905061044b818585610d41565b600660209081526000928352604080842090915290825290205460ff1681565b6001600160401b0385166000908152600860205260408120546001600160a01b031661074f5760405162461bcd60e51b81526004016106a890611eb1565b6001600160401b0386166000908152600760205260409020546107845760405162461bcd60e51b81526004016106a890611ef9565b6001600160401b0386166000908152600860205260409020546107b390879087906001600160a01b0316610ed3565b6001600160401b03861660009081526008602090815260408083205460079092529182902091516319f8754160e21b81526001600160a01b03909116916367e1d5049161080b91899189918991899190600401611ab8565b60206040518083038186803b15801561082357600080fd5b505afa158015610837573d6000803e3d6000fd5b505050506040513d601f19601f8201168201806040525081019061085b9190611732565b6108775760405162461bcd60e51b81526004016106a890611dfc565b3360009081526006602090815260408083206001600160401b038a1684528252808320805460ff1916600117905560089091529020546108c390879087906001600160a01b0316610faf565b50600195945050505050565b6108d76113c0565b6001600160401b038216600090815260076020908152604091829020825160a08101845281548152600182015481840152600282015481850152600382018054855181860281018601909652808652919492936060860193929083018282801561096057602002820191906000526020600020905b81548152602001906001019080831161094c575b5050505050815260200160048201805461097990612175565b80601f01602080910402602001604051908101604052809291908181526020018280546109a590612175565b80156109f25780601f106109c7576101008083540402835291602001916109f2565b820191906000526020600020905b8154815290600101906020018083116109d557829003601f168201915b5050505050815250509050919050565b600c6020526000908152604090205481565b6001600160a01b03918216600090815260016020908152604080832093909416825291909152205490565b60098181548110610a4f57600080fd5b9060005260206000209060049182820401919006600802915054906101000a90046001600160401b031681565b610a84610e42565b6001600160a01b038116610aaa5760405162461bcd60e51b81526004016106a890611c51565b610ab381610e81565b50565b6000610ac0610e42565b6001600160401b0384166000908152600860205260409020546001600160a01b0316610b4457600980546001810182556000919091527f6e1540171b6c0c960b71a7020d9f60077f6af931a8bbf590da0223dacf75c7af6004820401805460039092166008026101000a6001600160401b0381810219909316928716029190911790555b60608201516001600160401b03851660009081526007602090815260409091208251610b7993600390920192909101906113ef565b506040808301516001600160401b038616600090815260076020908152929020600281019190915560808401518051610bbc93600490930192919091019061143a565b506020808301516001600160401b0386166000908152600783526040902060018101919091558351815560808401518051610c0193600490930192919091019061143a565b50506001600160401b038316600090815260086020526040902080546001600160a01b0384166001600160a01b031990911617905560019392505050565b3390565b6001600160a01b038316610c695760405162461bcd60e51b81526004016106a890611f82565b6001600160a01b038216610c8f5760405162461bcd60e51b81526004016106a890611c97565b6001600160a01b0380841660008181526001602090815260408083209487168084529490915290819020849055517f8c5be1e5ebec7d5bd14f71427d1e84f3dd0314c0f7b2291e5b200ac8c7c3b92590610cea9085906120a2565b60405180910390a3505050565b6000610d038484610a14565b90506000198114610d3b5781811015610d2e5760405162461bcd60e51b81526004016106a890611d21565b610d3b8484848403610c43565b50505050565b6001600160a01b038316610d675760405162461bcd60e51b81526004016106a890611f3d565b6001600160a01b038216610d8d5760405162461bcd60e51b81526004016106a890611c0e565b610d98838383611139565b6001600160a01b03831660009081526020819052604090205481811015610dd15760405162461bcd60e51b81526004016106a890611d58565b6001600160a01b0380851660008181526020819052604080822086860390559286168082529083902080548601905591517fddf252ad1be2c89b69c2b068fc378daa952ba7f163c4a11628f55a4df523b3ef90610e2f9086906120a2565b60405180910390a3610d3b848484611181565b610e4a610c3f565b6001600160a01b0316610e5b61059c565b6001600160a01b03161461059a5760405162461bcd60e51b81526004016106a890611e33565b600580546001600160a01b038381166001600160a01b0319831681179093556040519116919082907f8be0079c531659141344cd1fd0a4f28419497f9722a3daafe3b4186f6b6457e090600090a35050565b6000610f7583836001600160a01b0316639f442afa6040518163ffffffff1660e01b815260040160206040518083038186803b158015610f1257600080fd5b505afa158015610f26573d6000803e3d6000fd5b505050506040513d601f19601f82011682018060405250810190610f4a919061176a565b81518110610f6857634e487b7160e01b600052603260045260246000fd5b6020026020010151611186565b9050806001600160a01b0316610f89610c3f565b6001600160a01b031614610d3b5760405162461bcd60e51b81526004016106a890611cd9565b6001600160401b0383166001148015610feb5750600c6000610fcf610c3f565b6001600160a01b03168152602081019190915260400160002054155b6110075760405162461bcd60e51b81526004016106a890611e68565b600082826001600160a01b0316639f442afa6040518163ffffffff1660e01b815260040160206040518083038186803b15801561104357600080fd5b505afa158015611057573d6000803e3d6000fd5b505050506040513d601f19601f8201168201806040525081019061107b919061176a565b8151811061109957634e487b7160e01b600052603260045260246000fd5b6020908102919091018101516000818152600b9092526040909120549091506001600160a01b0316610d3b576110d86110d0610c3f565b600a546111a7565b80600c60006110e5610c3f565b6001600160a01b03168152602081019190915260400160002055611107610c3f565b6000918252600b602052604090912080546001600160a01b0319166001600160a01b0392909216919091179055505050565b6001600160a01b0382166000908152600660209081526040808320600180855292529091205460ff161515146111815760405162461bcd60e51b81526004016106a890611d9e565b505050565b60006111a161119c61119784611255565b61138f565b6113b9565b92915050565b6001600160a01b0382166111cd5760405162461bcd60e51b81526004016106a89061200b565b6111d960008383611139565b80600260008282546111eb9190612151565b90915550506001600160a01b038216600081815260208190526040808220805485019055517fddf252ad1be2c89b69c2b068fc378daa952ba7f163c4a11628f55a4df523b3ef9061123d9085906120a2565b60405180910390a361125160008383611181565b5050565b600881811c7eff00ff00ff00ff00ff00ff00ff00ff00ff00ff00ff00ff00ff00ff00ff00ff167fff00ff00ff00ff00ff00ff00ff00ff00ff00ff00ff00ff00ff00ff00ff00ff009290911b9190911617601081811c7dffff0000ffff0000ffff0000ffff0000ffff0000ffff0000ffff0000ffff167fffff0000ffff0000ffff0000ffff0000ffff0000ffff0000ffff0000ffff00009290911b9190911617602081811c7bffffffff00000000ffffffff00000000ffffffff00000000ffffffff167fffffffff00000000ffffffff00000000ffffffff00000000ffffffff000000009290911b9190911617604081811c77ffffffffffffffff0000000000000000ffffffffffffffff1677ffffffffffffffff0000000000000000ffffffffffffffff199290911b9190911617608081811c91901b1790565b60408051602080825281830190925260609160208201818036833750505060208101929092525090565b6014015190565b6040518060a0016040528060008152602001600081526020016000815260200160608152602001606081525090565b82805482825590600052602060002090810192821561142a579160200282015b8281111561142a57825182559160200191906001019061140f565b506114369291506114ad565b5090565b82805461144690612175565b90600052602060002090601f016020900481019282611468576000855561142a565b82601f1061148157805160ff191683800117855561142a565b8280016001018555821561142a579182018281111561142a57825182559160200191906001019061140f565b5b8082111561143657600081556001016114ae565b600082601f8301126114d2578081fd5b604051604081018181106001600160401b03821117156114f4576114f46121b0565b806040525080838560408601111561150a578384fd5b835b600281101561152b57813583526020928301929091019060010161150c565b509195945050505050565b600082601f830112611546578081fd5b813560206001600160401b03821115611561576115616121b0565b80820261156f8282016120fc565b838152828101908684018388018501891015611589578687fd5b8693505b858410156115ab57803583526001939093019291840191840161158d565b50979650505050505050565b600082601f8301126115c7578081fd5b81356001600160401b038111156115e0576115e06121b0565b6115f3601f8201601f19166020016120fc565b818152846020838601011115611607578283fd5b816020850160208301379081016020019190915292915050565b80356001600160401b038116811461058357600080fd5b600060208284031215611649578081fd5b8135611654816121c6565b9392505050565b6000806040838503121561166d578081fd5b8235611678816121c6565b91506020830135611688816121c6565b809150509250929050565b6000806000606084860312156116a7578081fd5b83356116b2816121c6565b925060208401356116c2816121c6565b929592945050506040919091013590565b600080604083850312156116e5578182fd5b82356116f0816121c6565b946020939093013593505050565b60008060408385031215611710578182fd5b823561171b816121c6565b915061172960208401611621565b90509250929050565b600060208284031215611743578081fd5b81518015158114611654578182fd5b600060208284031215611763578081fd5b5035919050565b60006020828403121561177b578081fd5b5051919050565b600060208284031215611793578081fd5b61165482611621565b600080600080600061014086880312156117b4578283fd5b6117bd86611621565b94506020808701356001600160401b038111156117d8578485fd5b6117e489828a01611536565b95505060406117f589828a016114c2565b945088609f890112611805578283fd5b600261181861181382612125565b6120fc565b8060808b016101008c018d81111561182e578788fd5b875b85811015611854576118428f846114c2565b85529387019391860191600101611830565b508298506118628e826114c2565b9750505050505050509295509295909350565b600080600060608486031215611889578081fd5b61189284611621565b925060208401356118a2816121c6565b915060408401356001600160401b03808211156118bd578283fd5b9085019060a082880312156118d0578283fd5b60405160a0810181811083821117156118eb576118eb6121b0565b8060405250823581526020830135602082015260408301356040820152606083013582811115611919578485fd5b61192589828601611536565b60608301525060808301358281111561193c578485fd5b611948898286016115b7565b6080830152508093505050509250925092565b8060005b6002811015610d3b57815184526020938401939091019060010161195f565b6000815180845260208085019450808401835b838110156119ad57815187529582019590820190600101611991565b509495945050505050565b60008151808452815b818110156119dd576020818501810151868301820152016119c1565b818111156119ee5782602083870101525b50601f01601f19169290920160200192915050565b805460009060028104600180831680611a1d57607f831692505b6020808410821415611a3d57634e487b7160e01b86526022600452602486fd5b611a4784896120a2565b828015611a5b5760018114611a6c57611a97565b60ff19871682528282019750611a97565b611a7589612145565b60005b87811015611a9157815484820152908601908401611a78565b83019850505b5050505050505092915050565b6001600160a01b0391909116815260200190565b6000610140808352611acc8184018961197e565b90506020611adc8185018961195b565b6060840187845b6002811015611b0a57611af783835161195b565b6040929092019190830190600101611ae3565b505050611b1a60e085018761195b565b83820361012085015284548252600180860154828401526002860154604084015260a06060840181905260038701805491850182905285528285209190859060c08601905b80831015611b7c5784548252938301939183019190850190611b5f565b508581036080870152611b928160048b01611a03565b9d9c50505050505050505050505050565b6020808252825182820181905260009190848201906040850190845b81811015611be45783516001600160401b031683529284019291840191600101611bbf565b50909695505050505050565b901515815260200190565b60006020825261165460208301846119b8565b60208082526023908201527f45524332303a207472616e7366657220746f20746865207a65726f206164647260408201526265737360e81b606082015260800190565b60208082526026908201527f4f776e61626c653a206e6577206f776e657220697320746865207a65726f206160408201526564647265737360d01b606082015260800190565b60208082526022908201527f45524332303a20617070726f766520746f20746865207a65726f206164647265604082015261737360f01b606082015260800190565b60208082526028908201527f6164647265737320696e2070726f6f66206973206e6f7420612073656e646572604082015267206164647265737360c01b606082015260800190565b6020808252601d908201527f45524332303a20696e73756666696369656e7420616c6c6f77616e6365000000604082015260600190565b60208082526026908201527f45524332303a207472616e7366657220616d6f756e7420657863656564732062604082015265616c616e636560d01b606082015260800190565b602080825260409082018190527f6f6e6c79206964656e7469746965732077686f2070726f76696465642070726f908201527f6f662061726520616c6c6f77656420746f207265636569766520746f6b656e73606082015260800190565b6020808252601b908201527f70726f6f6620726573706f6e7365206973206e6f742076616c69640000000000604082015260600190565b6020808252818101527f4f776e61626c653a2063616c6c6572206973206e6f7420746865206f776e6572604082015260600190565b60208082526029908201527f70726f6f662063616e206e6f74206265207375626d6974746564206d6f7265206040820152687468616e206f6e636560b81b606082015260800190565b60208082526028908201527f76616c696461746f72206973206e6f742073657420666f7220746869732072656040820152671c5d595cdd081a5960c21b606082015260800190565b60208082526024908201527f7175657279206973206e6f742073657420666f722074686973207265717565736040820152631d081a5960e21b606082015260800190565b60208082526025908201527f45524332303a207472616e736665722066726f6d20746865207a65726f206164604082015264647265737360d81b606082015260800190565b60208082526024908201527f45524332303a20617070726f76652066726f6d20746865207a65726f206164646040820152637265737360e01b606082015260800190565b60208082526025908201527f45524332303a2064656372656173656420616c6c6f77616e63652062656c6f77604082015264207a65726f60d81b606082015260800190565b6020808252601f908201527f45524332303a206d696e7420746f20746865207a65726f206164647265737300604082015260600190565b600060208252825160208301526020830151604083015260408301516060830152606083015160a0608084015261207c60c084018261197e565b90506080840151601f198483030160a085015261209982826119b8565b95945050505050565b90815260200190565b6000858252846020830152836040830152608060608301526120d060808301846119b8565b9695505050505050565b6001600160401b0391909116815260200190565b60ff91909116815260200190565b6040518181016001600160401b038111828210171561211d5761211d6121b0565b604052919050565b60006001600160401b0382111561213e5761213e6121b0565b5060200290565b60009081526020902090565b6000821982111561217057634e487b7160e01b81526011600452602481fd5b500190565b60028104600182168061218957607f821691505b602082108114156121aa57634e487b7160e01b600052602260045260246000fd5b50919050565b634e487b7160e01b600052604160045260246000fd5b6001600160a01b0381168114610ab357600080fdfea2646970667358221220b9d33b3d9b54e50039cc8317ff25e8d947ff0d6ae84602f2fb17054870d585ee64736f6c63430008000033",
  "linkReferences": {},
  "deployedLinkReferences": {}
}