{
  "_format": "hh-sol-artifact-1",
  "contractName": "PrimeToadToken",
  "sourceName": "contracts/ERC20Verifier.sol",
  "abi": [
    {
      "inputs": [
        {
          "internalType": "uint256",
          "name": "amount",
          "type": "uint256"
        }
      ],
      "stateMutability": "nonpayable",
      "type": "constructor"
    },
    {
      "anonymous": false,
      "inputs": [
        {
          "indexed": true,
          "internalType": "address",
          "name": "owner",
          "type": "address"
        },
        {
          "indexed": true,
          "internalType": "address",
          "name": "spender",
          "type": "address"
        },
        {
          "indexed": false,
          "internalType": "uint256",
          "name": "value",
          "type": "uint256"
        }
      ],
      "name": "Approval",
      "type": "event"
    },
    {
      "anonymous": false,
      "inputs": [
        {
          "indexed": true,
          "internalType": "address",
          "name": "previousOwner",
          "type": "address"
        },
        {
          "indexed": true,
          "internalType": "address",
          "name": "newOwner",
          "type": "address"
        }
      ],
      "name": "OwnershipTransferred",
      "type": "event"
    },
    {
      "anonymous": false,
      "inputs": [
        {
          "indexed": true,
          "internalType": "address",
          "name": "from",
          "type": "address"
        },
        {
          "indexed": true,
          "internalType": "address",
          "name": "to",
          "type": "address"
        },
        {
          "indexed": false,
          "internalType": "uint256",
          "name": "value",
          "type": "uint256"
        }
      ],
      "name": "Transfer",
      "type": "event"
    },
    {
      "inputs": [],
      "name": "TOKEN_AMOUNT_FOR_AIRDROP_PER_ID",
      "outputs": [
        {
          "internalType": "uint256",
          "name": "",
          "type": "uint256"
        }
      ],
      "stateMutability": "view",
      "type": "function"
    },
    {
      "inputs": [],
      "name": "TRANSFER_REQUEST_ID",
      "outputs": [
        {
          "internalType": "uint64",
          "name": "",
          "type": "uint64"
        }
      ],
      "stateMutability": "view",
      "type": "function"
    },
    {
      "inputs": [
        {
          "internalType": "address",
          "name": "",
          "type": "address"
        }
      ],
      "name": "addressToId",
      "outputs": [
        {
          "internalType": "uint256",
          "name": "",
          "type": "uint256"
        }
      ],
      "stateMutability": "view",
      "type": "function"
    },
    {
      "inputs": [
        {
          "internalType": "address",
          "name": "owner",
          "type": "address"
        },
        {
          "internalType": "address",
          "name": "spender",
          "type": "address"
        }
      ],
      "name": "allowance",
      "outputs": [
        {
          "internalType": "uint256",
          "name": "",
          "type": "uint256"
        }
      ],
      "stateMutability": "view",
      "type": "function"
    },
    {
      "inputs": [
        {
          "internalType": "address",
          "name": "spender",
          "type": "address"
        },
        {
          "internalType": "uint256",
          "name": "amount",
          "type": "uint256"
        }
      ],
      "name": "approve",
      "outputs": [
        {
          "internalType": "bool",
          "name": "",
          "type": "bool"
        }
      ],
      "stateMutability": "nonpayable",
      "type": "function"
    },
    {
      "inputs": [
        {
          "internalType": "address",
          "name": "account",
          "type": "address"
        }
      ],
      "name": "balanceOf",
      "outputs": [
        {
          "internalType": "uint256",
          "name": "",
          "type": "uint256"
        }
      ],
      "stateMutability": "view",
      "type": "function"
    },
    {
      "inputs": [
        {
          "internalType": "uint256",
          "name": "amount",
          "type": "uint256"
        }
      ],
      "name": "burn",
      "outputs": [],
      "stateMutability": "nonpayable",
      "type": "function"
    },
    {
      "inputs": [
        {
          "internalType": "address",
          "name": "account",
          "type": "address"
        },
        {
          "internalType": "uint256",
          "name": "amount",
          "type": "uint256"
        }
      ],
      "name": "burnFrom",
      "outputs": [],
      "stateMutability": "nonpayable",
      "type": "function"
    },
    {
      "inputs": [],
      "name": "decimals",
      "outputs": [
        {
          "internalType": "uint8",
          "name": "",
          "type": "uint8"
        }
      ],
      "stateMutability": "view",
      "type": "function"
    },
    {
      "inputs": [
        {
          "internalType": "address",
          "name": "spender",
          "type": "address"
        },
        {
          "internalType": "uint256",
          "name": "subtractedValue",
          "type": "uint256"
        }
      ],
      "name": "decreaseAllowance",
      "outputs": [
        {
          "internalType": "bool",
          "name": "",
          "type": "bool"
        }
      ],
      "stateMutability": "nonpayable",
      "type": "function"
    },
    {
      "inputs": [],
      "name": "getSupportedRequests",
      "outputs": [
        {
          "internalType": "uint64[]",
          "name": "arr",
          "type": "uint64[]"
        }
      ],
      "stateMutability": "view",
      "type": "function"
    },
    {
      "inputs": [
        {
          "internalType": "uint64",
          "name": "requestId",
          "type": "uint64"
        }
      ],
      "name": "getZKPRequest",
      "outputs": [
        {
          "components": [
            {
              "internalType": "uint256",
              "name": "schema",
              "type": "uint256"
            },
            {
              "internalType": "uint256",
              "name": "slotIndex",
              "type": "uint256"
            },
            {
              "internalType": "uint256",
              "name": "operator",
              "type": "uint256"
            },
            {
              "internalType": "uint256[]",
              "name": "value",
              "type": "uint256[]"
            },
            {
              "internalType": "string",
              "name": "circuitId",
              "type": "string"
            }
          ],
          "internalType": "struct ICircuitValidator.CircuitQuery",
          "name": "",
          "type": "tuple"
        }
      ],
      "stateMutability": "view",
      "type": "function"
    },
    {
      "inputs": [
        {
          "internalType": "uint256",
          "name": "",
          "type": "uint256"
        }
      ],
      "name": "idToAddress",
      "outputs": [
        {
          "internalType": "address",
          "name": "",
          "type": "address"
        }
      ],
      "stateMutability": "view",
      "type": "function"
    },
    {
      "inputs": [
        {
          "internalType": "address",
          "name": "spender",
          "type": "address"
        },
        {
          "internalType": "uint256",
          "name": "addedValue",
          "type": "uint256"
        }
      ],
      "name": "increaseAllowance",
      "outputs": [
        {
          "internalType": "bool",
          "name": "",
          "type": "bool"
        }
      ],
      "stateMutability": "nonpayable",
      "type": "function"
    },
    {
      "inputs": [
        {
          "internalType": "address",
          "name": "to",
          "type": "address"
        },
        {
          "internalType": "uint256",
          "name": "amount",
          "type": "uint256"
        }
      ],
      "name": "mint",
      "outputs": [],
      "stateMutability": "nonpayable",
      "type": "function"
    },
    {
      "inputs": [],
      "name": "name",
      "outputs": [
        {
          "internalType": "string",
          "name": "",
          "type": "string"
        }
      ],
      "stateMutability": "view",
      "type": "function"
    },
    {
      "inputs": [],
      "name": "owner",
      "outputs": [
        {
          "internalType": "address",
          "name": "",
          "type": "address"
        }
      ],
      "stateMutability": "view",
      "type": "function"
    },
    {
      "inputs": [
        {
          "internalType": "address",
          "name": "",
          "type": "address"
        },
        {
          "internalType": "uint64",
          "name": "",
          "type": "uint64"
        }
      ],
      "name": "proofs",
      "outputs": [
        {
          "internalType": "bool",
          "name": "",
          "type": "bool"
        }
      ],
      "stateMutability": "view",
      "type": "function"
    },
    {
      "inputs": [],
      "name": "renounceOwnership",
      "outputs": [],
      "stateMutability": "nonpayable",
      "type": "function"
    },
    {
      "inputs": [
        {
          "internalType": "uint64",
          "name": "",
          "type": "uint64"
        }
      ],
      "name": "requestQueries",
      "outputs": [
        {
          "internalType": "uint256",
          "name": "schema",
          "type": "uint256"
        },
        {
          "internalType": "uint256",
          "name": "slotIndex",
          "type": "uint256"
        },
        {
          "internalType": "uint256",
          "name": "operator",
          "type": "uint256"
        },
        {
          "internalType": "string",
          "name": "circuitId",
          "type": "string"
        }
      ],
      "stateMutability": "view",
      "type": "function"
    },
    {
      "inputs": [
        {
          "internalType": "uint64",
          "name": "",
          "type": "uint64"
        }
      ],
      "name": "requestValidators",
      "outputs": [
        {
          "internalType": "contract ICircuitValidator",
          "name": "",
          "type": "address"
        }
      ],
      "stateMutability": "view",
      "type": "function"
    },
    {
      "inputs": [
        {
          "internalType": "uint64",
          "name": "requestId",
          "type": "uint64"
        },
        {
          "internalType": "contract ICircuitValidator",
          "name": "validator",
          "type": "address"
        },
        {
          "components": [
            {
              "internalType": "uint256",
              "name": "schema",
              "type": "uint256"
            },
            {
              "internalType": "uint256",
              "name": "slotIndex",
              "type": "uint256"
            },
            {
              "internalType": "uint256",
              "name": "operator",
              "type": "uint256"
            },
            {
              "internalType": "uint256[]",
              "name": "value",
              "type": "uint256[]"
            },
            {
              "internalType": "string",
              "name": "circuitId",
              "type": "string"
            }
          ],
          "internalType": "struct ICircuitValidator.CircuitQuery",
          "name": "query",
          "type": "tuple"
        }
      ],
      "name": "setZKPRequest",
      "outputs": [
        {
          "internalType": "bool",
          "name": "",
          "type": "bool"
        }
      ],
      "stateMutability": "nonpayable",
      "type": "function"
    },
    {
      "inputs": [
        {
          "internalType": "uint64",
          "name": "requestId",
          "type": "uint64"
        },
        {
          "internalType": "uint256[]",
          "name": "inputs",
          "type": "uint256[]"
        },
        {
          "internalType": "uint256[2]",
          "name": "a",
          "type": "uint256[2]"
        },
        {
          "internalType": "uint256[2][2]",
          "name": "b",
          "type": "uint256[2][2]"
        },
        {
          "internalType": "uint256[2]",
          "name": "c",
          "type": "uint256[2]"
        }
      ],
      "name": "submitZKPResponse",
      "outputs": [
        {
          "internalType": "bool",
          "name": "",
          "type": "bool"
        }
      ],
      "stateMutability": "nonpayable",
      "type": "function"
    },
    {
      "inputs": [
        {
          "internalType": "uint256",
          "name": "",
          "type": "uint256"
        }
      ],
      "name": "supportedRequests",
      "outputs": [
        {
          "internalType": "uint64",
          "name": "",
          "type": "uint64"
        }
      ],
      "stateMutability": "view",
      "type": "function"
    },
    {
      "inputs": [],
      "name": "symbol",
      "outputs": [
        {
          "internalType": "string",
          "name": "",
          "type": "string"
        }
      ],
      "stateMutability": "view",
      "type": "function"
    },
    {
      "inputs": [],
      "name": "totalSupply",
      "outputs": [
        {
          "internalType": "uint256",
          "name": "",
          "type": "uint256"
        }
      ],
      "stateMutability": "view",
      "type": "function"
    },
    {
      "inputs": [
        {
          "internalType": "address",
          "name": "to",
          "type": "address"
        },
        {
          "internalType": "uint256",
          "name": "amount",
          "type": "uint256"
        }
      ],
      "name": "transfer",
      "outputs": [
        {
          "internalType": "bool",
          "name": "",
          "type": "bool"
        }
      ],
      "stateMutability": "nonpayable",
      "type": "function"
    },
    {
      "inputs": [
        {
          "internalType": "address",
          "name": "from",
          "type": "address"
        },
        {
          "internalType": "address",
          "name": "to",
          "type": "address"
        },
        {
          "internalType": "uint256",
          "name": "amount",
          "type": "uint256"
        }
      ],
      "name": "transferFrom",
      "outputs": [
        {
          "internalType": "bool",
          "name": "",
          "type": "bool"
        }
      ],
      "stateMutability": "nonpayable",
      "type": "function"
    },
    {
      "inputs": [
        {
          "internalType": "address",
          "name": "newOwner",
          "type": "address"
        }
      ],
      "name": "transferOwnership",
      "outputs": [],
      "stateMutability": "nonpayable",
      "type": "function"
    }
  ],
  "bytecode": "0x60806040526200000e62000123565b6200001e9060ff16600a62000455565b6200002b90600562000559565b600a553480156200003b57600080fd5b50604051620029fe380380620029fe8339810160408190526200005e9162000336565b6040518060400160405280601081526020016f283934b6b2902a37b0b2102a37b5b2b760811b8152506040518060400160405280600381526020016214151560ea1b8152508160039080519060200190620000bb92919062000290565b508051620000d190600490602084019062000290565b505050620000ee620000e86200012860201b60201c565b6200012c565b6200011c33620000fd62000123565b6200010a90600a6200046d565b62000116908462000559565b6200017e565b50620005ce565b601290565b3390565b600580546001600160a01b038381166001600160a01b0319831681179093556040519116919082907f8be0079c531659141344cd1fd0a4f28419497f9722a3daafe3b4186f6b6457e090600090a35050565b6001600160a01b038216620001b05760405162461bcd60e51b8152600401620001a790620003ad565b60405180910390fd5b620001be6000838362000240565b8060026000828254620001d29190620003ed565b90915550506001600160a01b038216600081815260208190526040808220805485019055517fddf252ad1be2c89b69c2b068fc378daa952ba7f163c4a11628f55a4df523b3ef9062000226908590620003e4565b60405180910390a36200023c600083836200028b565b5050565b6001600160a01b0382166000908152600660209081526040808320600180855292529091205460ff161515146200028b5760405162461bcd60e51b8152600401620001a7906200034f565b505050565b8280546200029e906200057b565b90600052602060002090601f016020900481019282620002c257600085556200030d565b82601f10620002dd57805160ff19168380011785556200030d565b828001600101855582156200030d579182015b828111156200030d578251825591602001919060010190620002f0565b506200031b9291506200031f565b5090565b5b808211156200031b576000815560010162000320565b60006020828403121562000348578081fd5b5051919050565b602080825260409082018190527f6f6e6c79206964656e7469746965732077686f2070726f76696465642070726f908201527f6f662061726520616c6c6f77656420746f207265636569766520746f6b656e73606082015260800190565b6020808252601f908201527f45524332303a206d696e7420746f20746865207a65726f206164647265737300604082015260600190565b90815260200190565b60008219821115620004035762000403620005b8565b500190565b80825b60018086116200041c57506200044c565b818704821115620004315762000431620005b8565b808616156200043f57918102915b9490941c9380026200040b565b94509492505050565b60006200046660001984846200047c565b9392505050565b60006200046660001960ff8516845b6000826200048d5750600162000466565b816200049c5750600062000466565b8160018114620004b55760028114620004c057620004f4565b600191505062000466565b60ff841115620004d457620004d4620005b8565b6001841b915084821115620004ed57620004ed620005b8565b5062000466565b5060208310610133831016604e8410600b84101617156200052c575081810a83811115620005265762000526620005b8565b62000466565b6200053b848484600162000408565b808604821115620005505762000550620005b8565b02949350505050565b6000816000190483118215151615620005765762000576620005b8565b500290565b6002810460018216806200059057607f821691505b60208210811415620005b257634e487b7160e01b600052602260045260246000fd5b50919050565b634e487b7160e01b600052601160045260246000fd5b61242080620005de6000396000f3fe608060405234801561001057600080fd5b50600436106101cf5760003560e01c806379cc679011610104578063b45c0fdf116100a2578063dd62ed3e11610071578063dd62ed3e146103cf578063f1435326146103e2578063f2fde38b146103f5578063fee207e614610408576101cf565b8063b45c0fdf14610376578063b68967e214610389578063c76d08451461039c578063cb0e0d7d146103bc576101cf565b806396bf4741116100de57806396bf47411461031a578063a457c2d71461033d578063a872311414610350578063a9059cbb14610363576101cf565b806379cc6790146102f75780638da5cb5b1461030a57806395d89b4114610312576101cf565b8063395093511161017157806363ec508f1161014b57806363ec508f146102bf5780637042f36b146102d457806370a08231146102dc578063715018a6146102ef576101cf565b8063395093511461028457806340c10f191461029757806342966c68146102ac576101cf565b806323b872dd116101ad57806323b872dd146102275780632a2d0c471461023a578063313ce5671461025a57806337ba95231461026f576101cf565b806306fdde03146101d4578063095ea7b3146101f257806318160ddd14610212575b600080fd5b6101dc61041b565b6040516101e99190611d87565b60405180910390f35b61020561020036600461185f565b6104ad565b6040516101e99190611d7c565b61021a6104cf565b6040516101e991906122b1565b61020561023536600461181f565b6104d5565b61024d6102483660046118de565b610503565b6040516101e99190611c30565b61026261051e565b6040516101e991906122fd565b610277610523565b6040516101e99190611d2f565b61020561029236600461185f565b6105ac565b6102aa6102a536600461185f565b6105d8565b005b6102aa6102ba3660046118de565b6105ee565b6102c7610602565b6040516101e991906122e9565b61021a610607565b61021a6102ea3660046117c4565b61060d565b6102aa61062c565b6102aa61030536600461185f565b610640565b61024d61065c565b6101dc61066b565b61032d61032836600461190e565b61067a565b6040516101e994939291906122ba565b61020561034b36600461185f565b61072d565b61024d61035e36600461190e565b61077e565b61020561037136600461185f565b610799565b61020561038436600461188a565b6107b1565b610205610397366004611928565b6107d1565b6103af6103aa36600461190e565b61098f565b6040516101e99190612251565b61021a6103ca3660046117c4565b610ac2565b61021a6103dd3660046117e7565b610ad4565b6102c76103f03660046118de565b610aff565b6102aa6104033660046117c4565b610b3c565b610205610416366004611a01565b610b73565b60606003805461042a90612384565b80601f016020809104026020016040519081016040528092919081815260200182805461045690612384565b80156104a35780601f10610478576101008083540402835291602001916104a3565b820191906000526020600020905b81548152906001019060200180831161048657829003601f168201915b5050505050905090565b6000806104b8610cfc565b90506104c5818585610d00565b5060019392505050565b60025490565b6000806104e0610cfc565b90506104ed858285610db4565b6104f8858585610dfe565b506001949350505050565b600b602052600090815260409020546001600160a01b031681565b601290565b606060098054806020026020016040519081016040528092919081815260200182805480156104a357602002820191906000526020600020906000905b82829054906101000a90046001600160401b03166001600160401b0316815260200190600801906020826007010492830192600103820291508084116105605790505050505050905090565b6000806105b7610cfc565b90506104c58185856105c98589610ad4565b6105d39190612360565b610d00565b6105e0610eff565b6105ea8282610f3e565b5050565b6105ff6105f9610cfc565b82610fe8565b50565b600181565b600a5481565b6001600160a01b0381166000908152602081905260409020545b919050565b610634610eff565b61063e60006110c0565b565b6106528261064c610cfc565b83610db4565b6105ea8282610fe8565b6005546001600160a01b031690565b60606004805461042a90612384565b6007602052600090815260409020805460018201546002830154600484018054939492939192916106aa90612384565b80601f01602080910402602001604051908101604052809291908181526020018280546106d690612384565b80156107235780601f106106f857610100808354040283529160200191610723565b820191906000526020600020905b81548152906001019060200180831161070657829003601f168201915b5050505050905084565b600080610738610cfc565b905060006107468286610ad4565b9050838110156107715760405162461bcd60e51b8152600401610768906121d5565b60405180910390fd5b6104f88286868403610d00565b6008602052600090815260409020546001600160a01b031681565b6000806107a4610cfc565b90506104c5818585610dfe565b600660209081526000928352604080842090915290825290205460ff1681565b6001600160401b0385166000908152600860205260408120546001600160a01b031661080f5760405162461bcd60e51b81526004016107689061207f565b6001600160401b0386166000908152600760205260409020546108445760405162461bcd60e51b8152600401610768906120c7565b6001600160401b03861660009081526008602052604090205461087390879087906001600160a01b0316611112565b6001600160401b03861660009081526008602090815260408083205460079092529182902091516319f8754160e21b81526001600160a01b03909116916367e1d504916108cb91899189918991899190600401611c44565b60206040518083038186803b1580156108e357600080fd5b505afa1580156108f7573d6000803e3d6000fd5b505050506040513d601f19601f8201168201806040525081019061091b91906118be565b6109375760405162461bcd60e51b815260040161076890611fca565b3360009081526006602090815260408083206001600160401b038a1684528252808320805460ff19166001179055600890915290205461098390879087906001600160a01b03166111ee565b50600195945050505050565b61099761154c565b6001600160401b038216600090815260076020908152604091829020825160a081018452815481526001820154818401526002820154818501526003820180548551818602810186019096528086529194929360608601939290830182828015610a2057602002820191906000526020600020905b815481526020019060010190808311610a0c575b50505050508152602001600482018054610a3990612384565b80601f0160208091040260200160405190810160405280929190818152602001828054610a6590612384565b8015610ab25780601f10610a8757610100808354040283529160200191610ab2565b820191906000526020600020905b815481529060010190602001808311610a9557829003601f168201915b5050505050815250509050919050565b600c6020526000908152604090205481565b6001600160a01b03918216600090815260016020908152604080832093909416825291909152205490565b60098181548110610b0f57600080fd5b9060005260206000209060049182820401919006600802915054906101000a90046001600160401b031681565b610b44610eff565b6001600160a01b038116610b6a5760405162461bcd60e51b815260040161076890611e1f565b6105ff816110c0565b6000610b7d610eff565b6001600160401b0384166000908152600860205260409020546001600160a01b0316610c0157600980546001810182556000919091527f6e1540171b6c0c960b71a7020d9f60077f6af931a8bbf590da0223dacf75c7af6004820401805460039092166008026101000a6001600160401b0381810219909316928716029190911790555b60608201516001600160401b03851660009081526007602090815260409091208251610c36936003909201929091019061157b565b506040808301516001600160401b038616600090815260076020908152929020600281019190915560808401518051610c799360049093019291909101906115c6565b506020808301516001600160401b0386166000908152600783526040902060018101919091558351815560808401518051610cbe9360049093019291909101906115c6565b50506001600160401b038316600090815260086020526040902080546001600160a01b0384166001600160a01b031990911617905560019392505050565b3390565b6001600160a01b038316610d265760405162461bcd60e51b815260040161076890612191565b6001600160a01b038216610d4c5760405162461bcd60e51b815260040161076890611e65565b6001600160a01b0380841660008181526001602090815260408083209487168084529490915290819020849055517f8c5be1e5ebec7d5bd14f71427d1e84f3dd0314c0f7b2291e5b200ac8c7c3b92590610da79085906122b1565b60405180910390a3505050565b6000610dc08484610ad4565b90506000198114610df85781811015610deb5760405162461bcd60e51b815260040161076890611eef565b610df88484848403610d00565b50505050565b6001600160a01b038316610e245760405162461bcd60e51b81526004016107689061214c565b6001600160a01b038216610e4a5760405162461bcd60e51b815260040161076890611d9a565b610e55838383611378565b6001600160a01b03831660009081526020819052604090205481811015610e8e5760405162461bcd60e51b815260040161076890611f26565b6001600160a01b0380851660008181526020819052604080822086860390559286168082529083902080548601905591517fddf252ad1be2c89b69c2b068fc378daa952ba7f163c4a11628f55a4df523b3ef90610eec9086906122b1565b60405180910390a3610df88484846110bb565b610f07610cfc565b6001600160a01b0316610f1861065c565b6001600160a01b03161461063e5760405162461bcd60e51b815260040161076890612001565b6001600160a01b038216610f645760405162461bcd60e51b81526004016107689061221a565b610f7060008383611378565b8060026000828254610f829190612360565b90915550506001600160a01b038216600081815260208190526040808220805485019055517fddf252ad1be2c89b69c2b068fc378daa952ba7f163c4a11628f55a4df523b3ef90610fd49085906122b1565b60405180910390a36105ea600083836110bb565b6001600160a01b03821661100e5760405162461bcd60e51b81526004016107689061210b565b61101a82600083611378565b6001600160a01b038216600090815260208190526040902054818110156110535760405162461bcd60e51b815260040161076890611ddd565b6001600160a01b0383166000818152602081905260408082208585039055600280548690039055519091907fddf252ad1be2c89b69c2b068fc378daa952ba7f163c4a11628f55a4df523b3ef906110ab9086906122b1565b60405180910390a36110bb836000845b505050565b600580546001600160a01b038381166001600160a01b0319831681179093556040519116919082907f8be0079c531659141344cd1fd0a4f28419497f9722a3daafe3b4186f6b6457e090600090a35050565b60006111b483836001600160a01b0316639f442afa6040518163ffffffff1660e01b815260040160206040518083038186803b15801561115157600080fd5b505afa158015611165573d6000803e3d6000fd5b505050506040513d601f19601f8201168201806040525081019061118991906118f6565b815181106111a757634e487b7160e01b600052603260045260246000fd5b60200260200101516113c0565b9050806001600160a01b03166111c8610cfc565b6001600160a01b031614610df85760405162461bcd60e51b815260040161076890611ea7565b6001600160401b038316600114801561122a5750600c600061120e610cfc565b6001600160a01b03168152602081019190915260400160002054155b6112465760405162461bcd60e51b815260040161076890612036565b600082826001600160a01b0316639f442afa6040518163ffffffff1660e01b815260040160206040518083038186803b15801561128257600080fd5b505afa158015611296573d6000803e3d6000fd5b505050506040513d601f19601f820116820180604052508101906112ba91906118f6565b815181106112d857634e487b7160e01b600052603260045260246000fd5b6020908102919091018101516000818152600b9092526040909120549091506001600160a01b0316610df85761131761130f610cfc565b600a54610f3e565b80600c6000611324610cfc565b6001600160a01b03168152602081019190915260400160002055611346610cfc565b6000918252600b602052604090912080546001600160a01b0319166001600160a01b0392909216919091179055505050565b6001600160a01b0382166000908152600660209081526040808320600180855292529091205460ff161515146110bb5760405162461bcd60e51b815260040161076890611f6c565b60006113db6113d66113d1846113e1565b61151b565b611545565b92915050565b600881811c7eff00ff00ff00ff00ff00ff00ff00ff00ff00ff00ff00ff00ff00ff00ff00ff167fff00ff00ff00ff00ff00ff00ff00ff00ff00ff00ff00ff00ff00ff00ff00ff009290911b9190911617601081811c7dffff0000ffff0000ffff0000ffff0000ffff0000ffff0000ffff0000ffff167fffff0000ffff0000ffff0000ffff0000ffff0000ffff0000ffff0000ffff00009290911b9190911617602081811c7bffffffff00000000ffffffff00000000ffffffff00000000ffffffff167fffffffff00000000ffffffff00000000ffffffff00000000ffffffff000000009290911b9190911617604081811c77ffffffffffffffff0000000000000000ffffffffffffffff1677ffffffffffffffff0000000000000000ffffffffffffffff199290911b9190911617608081811c91901b1790565b60408051602080825281830190925260609160208201818036833750505060208101929092525090565b6014015190565b6040518060a0016040528060008152602001600081526020016000815260200160608152602001606081525090565b8280548282559060005260206000209081019282156115b6579160200282015b828111156115b657825182559160200191906001019061159b565b506115c2929150611639565b5090565b8280546115d290612384565b90600052602060002090601f0160209004810192826115f457600085556115b6565b82601f1061160d57805160ff19168380011785556115b6565b828001600101855582156115b657918201828111156115b657825182559160200191906001019061159b565b5b808211156115c2576000815560010161163a565b600082601f83011261165e578081fd5b604051604081018181106001600160401b0382111715611680576116806123bf565b8060405250808385604086011115611696578384fd5b835b60028110156116b7578135835260209283019290910190600101611698565b509195945050505050565b600082601f8301126116d2578081fd5b813560206001600160401b038211156116ed576116ed6123bf565b8082026116fb82820161230b565b838152828101908684018388018501891015611715578687fd5b8693505b85841015611737578035835260019390930192918401918401611719565b50979650505050505050565b600082601f830112611753578081fd5b81356001600160401b0381111561176c5761176c6123bf565b61177f601f8201601f191660200161230b565b818152846020838601011115611793578283fd5b816020850160208301379081016020019190915292915050565b80356001600160401b038116811461062757600080fd5b6000602082840312156117d5578081fd5b81356117e0816123d5565b9392505050565b600080604083850312156117f9578081fd5b8235611804816123d5565b91506020830135611814816123d5565b809150509250929050565b600080600060608486031215611833578081fd5b833561183e816123d5565b9250602084013561184e816123d5565b929592945050506040919091013590565b60008060408385031215611871578182fd5b823561187c816123d5565b946020939093013593505050565b6000806040838503121561189c578182fd5b82356118a7816123d5565b91506118b5602084016117ad565b90509250929050565b6000602082840312156118cf578081fd5b815180151581146117e0578182fd5b6000602082840312156118ef578081fd5b5035919050565b600060208284031215611907578081fd5b5051919050565b60006020828403121561191f578081fd5b6117e0826117ad565b60008060008060006101408688031215611940578283fd5b611949866117ad565b94506020808701356001600160401b03811115611964578485fd5b61197089828a016116c2565b955050604061198189828a0161164e565b945088609f890112611991578283fd5b60026119a461199f82612334565b61230b565b8060808b016101008c018d8111156119ba578788fd5b875b858110156119e0576119ce8f8461164e565b855293870193918601916001016119bc565b508298506119ee8e8261164e565b9750505050505050509295509295909350565b600080600060608486031215611a15578081fd5b611a1e846117ad565b92506020840135611a2e816123d5565b915060408401356001600160401b0380821115611a49578283fd5b9085019060a08288031215611a5c578283fd5b60405160a081018181108382111715611a7757611a776123bf565b8060405250823581526020830135602082015260408301356040820152606083013582811115611aa5578485fd5b611ab1898286016116c2565b606083015250608083013582811115611ac8578485fd5b611ad489828601611743565b6080830152508093505050509250925092565b8060005b6002811015610df8578151845260209384019390910190600101611aeb565b6000815180845260208085019450808401835b83811015611b3957815187529582019590820190600101611b1d565b509495945050505050565b60008151808452815b81811015611b6957602081850181015186830182015201611b4d565b81811115611b7a5782602083870101525b50601f01601f19169290920160200192915050565b805460009060028104600180831680611ba957607f831692505b6020808410821415611bc957634e487b7160e01b86526022600452602486fd5b611bd384896122b1565b828015611be75760018114611bf857611c23565b60ff19871682528282019750611c23565b611c0189612354565b60005b87811015611c1d57815484820152908601908401611c04565b83019850505b5050505050505092915050565b6001600160a01b0391909116815260200190565b6000610140808352611c5881840189611b0a565b90506020611c6881850189611ae7565b6060840187845b6002811015611c9657611c83838351611ae7565b6040929092019190830190600101611c6f565b505050611ca660e0850187611ae7565b83820361012085015284548252600180860154828401526002860154604084015260a06060840181905260038701805491850182905285528285209190859060c08601905b80831015611d085784548252938301939183019190850190611ceb565b508581036080870152611d1e8160048b01611b8f565b9d9c50505050505050505050505050565b6020808252825182820181905260009190848201906040850190845b81811015611d705783516001600160401b031683529284019291840191600101611d4b565b50909695505050505050565b901515815260200190565b6000602082526117e06020830184611b44565b60208082526023908201527f45524332303a207472616e7366657220746f20746865207a65726f206164647260408201526265737360e81b606082015260800190565b60208082526022908201527f45524332303a206275726e20616d6f756e7420657863656564732062616c616e604082015261636560f01b606082015260800190565b60208082526026908201527f4f776e61626c653a206e6577206f776e657220697320746865207a65726f206160408201526564647265737360d01b606082015260800190565b60208082526022908201527f45524332303a20617070726f766520746f20746865207a65726f206164647265604082015261737360f01b606082015260800190565b60208082526028908201527f6164647265737320696e2070726f6f66206973206e6f7420612073656e646572604082015267206164647265737360c01b606082015260800190565b6020808252601d908201527f45524332303a20696e73756666696369656e7420616c6c6f77616e6365000000604082015260600190565b60208082526026908201527f45524332303a207472616e7366657220616d6f756e7420657863656564732062604082015265616c616e636560d01b606082015260800190565b602080825260409082018190527f6f6e6c79206964656e7469746965732077686f2070726f76696465642070726f908201527f6f662061726520616c6c6f77656420746f207265636569766520746f6b656e73606082015260800190565b6020808252601b908201527f70726f6f6620726573706f6e7365206973206e6f742076616c69640000000000604082015260600190565b6020808252818101527f4f776e61626c653a2063616c6c6572206973206e6f7420746865206f776e6572604082015260600190565b60208082526029908201527f70726f6f662063616e206e6f74206265207375626d6974746564206d6f7265206040820152687468616e206f6e636560b81b606082015260800190565b60208082526028908201527f76616c696461746f72206973206e6f742073657420666f7220746869732072656040820152671c5d595cdd081a5960c21b606082015260800190565b60208082526024908201527f7175657279206973206e6f742073657420666f722074686973207265717565736040820152631d081a5960e21b606082015260800190565b60208082526021908201527f45524332303a206275726e2066726f6d20746865207a65726f206164647265736040820152607360f81b606082015260800190565b60208082526025908201527f45524332303a207472616e736665722066726f6d20746865207a65726f206164604082015264647265737360d81b606082015260800190565b60208082526024908201527f45524332303a20617070726f76652066726f6d20746865207a65726f206164646040820152637265737360e01b606082015260800190565b60208082526025908201527f45524332303a2064656372656173656420616c6c6f77616e63652062656c6f77604082015264207a65726f60d81b606082015260800190565b6020808252601f908201527f45524332303a206d696e7420746f20746865207a65726f206164647265737300604082015260600190565b600060208252825160208301526020830151604083015260408301516060830152606083015160a0608084015261228b60c0840182611b0a565b90506080840151601f198483030160a08501526122a88282611b44565b95945050505050565b90815260200190565b6000858252846020830152836040830152608060608301526122df6080830184611b44565b9695505050505050565b6001600160401b0391909116815260200190565b60ff91909116815260200190565b6040518181016001600160401b038111828210171561232c5761232c6123bf565b604052919050565b60006001600160401b0382111561234d5761234d6123bf565b5060200290565b60009081526020902090565b6000821982111561237f57634e487b7160e01b81526011600452602481fd5b500190565b60028104600182168061239857607f821691505b602082108114156123b957634e487b7160e01b600052602260045260246000fd5b50919050565b634e487b7160e01b600052604160045260246000fd5b6001600160a01b03811681146105ff57600080fdfea26469706673582212203944c07a04dfef2b38e6e24a1c16e430a7d68f916f38e832047ddfe2cf370e3964736f6c63430008000033",
  "linkReferences": {},
  "deployedLinkReferences": {}
}