{
  "_format": "hh-sol-artifact-1",
  "contractName": "PrimeToadToken",
  "sourceName": "contracts/ERC20Verifier.sol",
  "abi": [
    {
      "inputs": [
        {
          "internalType": "address",
          "name": "owner",
          "type": "address"
        }
      ],
      "stateMutability": "nonpayable",
      "type": "constructor"
    },
    {
      "anonymous": false,
      "inputs": [
        {
          "indexed": true,
          "internalType": "address",
          "name": "owner",
          "type": "address"
        },
        {
          "indexed": true,
          "internalType": "address",
          "name": "spender",
          "type": "address"
        },
        {
          "indexed": false,
          "internalType": "uint256",
          "name": "value",
          "type": "uint256"
        }
      ],
      "name": "Approval",
      "type": "event"
    },
    {
      "anonymous": false,
      "inputs": [
        {
          "indexed": true,
          "internalType": "address",
          "name": "previousOwner",
          "type": "address"
        },
        {
          "indexed": true,
          "internalType": "address",
          "name": "newOwner",
          "type": "address"
        }
      ],
      "name": "OwnershipTransferred",
      "type": "event"
    },
    {
      "anonymous": false,
      "inputs": [
        {
          "indexed": true,
          "internalType": "address",
          "name": "from",
          "type": "address"
        },
        {
          "indexed": true,
          "internalType": "address",
          "name": "to",
          "type": "address"
        },
        {
          "indexed": false,
          "internalType": "uint256",
          "name": "value",
          "type": "uint256"
        }
      ],
      "name": "Transfer",
      "type": "event"
    },
    {
      "inputs": [],
      "name": "TOKEN_AMOUNT_FOR_AIRDROP_PER_ID",
      "outputs": [
        {
          "internalType": "uint256",
          "name": "",
          "type": "uint256"
        }
      ],
      "stateMutability": "view",
      "type": "function"
    },
    {
      "inputs": [],
      "name": "TRANSFER_REQUEST_ID",
      "outputs": [
        {
          "internalType": "uint64",
          "name": "",
          "type": "uint64"
        }
      ],
      "stateMutability": "view",
      "type": "function"
    },
    {
      "inputs": [
        {
          "internalType": "address",
          "name": "",
          "type": "address"
        }
      ],
      "name": "addressToId",
      "outputs": [
        {
          "internalType": "uint256",
          "name": "",
          "type": "uint256"
        }
      ],
      "stateMutability": "view",
      "type": "function"
    },
    {
      "inputs": [
        {
          "internalType": "address",
          "name": "owner",
          "type": "address"
        },
        {
          "internalType": "address",
          "name": "spender",
          "type": "address"
        }
      ],
      "name": "allowance",
      "outputs": [
        {
          "internalType": "uint256",
          "name": "",
          "type": "uint256"
        }
      ],
      "stateMutability": "view",
      "type": "function"
    },
    {
      "inputs": [
        {
          "internalType": "address",
          "name": "spender",
          "type": "address"
        },
        {
          "internalType": "uint256",
          "name": "amount",
          "type": "uint256"
        }
      ],
      "name": "approve",
      "outputs": [
        {
          "internalType": "bool",
          "name": "",
          "type": "bool"
        }
      ],
      "stateMutability": "nonpayable",
      "type": "function"
    },
    {
      "inputs": [
        {
          "internalType": "address",
          "name": "account",
          "type": "address"
        }
      ],
      "name": "balanceOf",
      "outputs": [
        {
          "internalType": "uint256",
          "name": "",
          "type": "uint256"
        }
      ],
      "stateMutability": "view",
      "type": "function"
    },
    {
      "inputs": [
        {
          "internalType": "uint256",
          "name": "amount",
          "type": "uint256"
        }
      ],
      "name": "burn",
      "outputs": [],
      "stateMutability": "nonpayable",
      "type": "function"
    },
    {
      "inputs": [
        {
          "internalType": "address",
          "name": "account",
          "type": "address"
        },
        {
          "internalType": "uint256",
          "name": "amount",
          "type": "uint256"
        }
      ],
      "name": "burnFrom",
      "outputs": [],
      "stateMutability": "nonpayable",
      "type": "function"
    },
    {
      "inputs": [],
      "name": "decimals",
      "outputs": [
        {
          "internalType": "uint8",
          "name": "",
          "type": "uint8"
        }
      ],
      "stateMutability": "view",
      "type": "function"
    },
    {
      "inputs": [
        {
          "internalType": "address",
          "name": "spender",
          "type": "address"
        },
        {
          "internalType": "uint256",
          "name": "subtractedValue",
          "type": "uint256"
        }
      ],
      "name": "decreaseAllowance",
      "outputs": [
        {
          "internalType": "bool",
          "name": "",
          "type": "bool"
        }
      ],
      "stateMutability": "nonpayable",
      "type": "function"
    },
    {
      "inputs": [],
      "name": "getSupportedRequests",
      "outputs": [
        {
          "internalType": "uint64[]",
          "name": "arr",
          "type": "uint64[]"
        }
      ],
      "stateMutability": "view",
      "type": "function"
    },
    {
      "inputs": [
        {
          "internalType": "uint64",
          "name": "requestId",
          "type": "uint64"
        }
      ],
      "name": "getZKPRequest",
      "outputs": [
        {
          "components": [
            {
              "internalType": "uint256",
              "name": "schema",
              "type": "uint256"
            },
            {
              "internalType": "uint256",
              "name": "slotIndex",
              "type": "uint256"
            },
            {
              "internalType": "uint256",
              "name": "operator",
              "type": "uint256"
            },
            {
              "internalType": "uint256[]",
              "name": "value",
              "type": "uint256[]"
            },
            {
              "internalType": "string",
              "name": "circuitId",
              "type": "string"
            }
          ],
          "internalType": "struct ICircuitValidator.CircuitQuery",
          "name": "",
          "type": "tuple"
        }
      ],
      "stateMutability": "view",
      "type": "function"
    },
    {
      "inputs": [
        {
          "internalType": "uint256",
          "name": "",
          "type": "uint256"
        }
      ],
      "name": "idToAddress",
      "outputs": [
        {
          "internalType": "address",
          "name": "",
          "type": "address"
        }
      ],
      "stateMutability": "view",
      "type": "function"
    },
    {
      "inputs": [
        {
          "internalType": "address",
          "name": "spender",
          "type": "address"
        },
        {
          "internalType": "uint256",
          "name": "addedValue",
          "type": "uint256"
        }
      ],
      "name": "increaseAllowance",
      "outputs": [
        {
          "internalType": "bool",
          "name": "",
          "type": "bool"
        }
      ],
      "stateMutability": "nonpayable",
      "type": "function"
    },
    {
      "inputs": [],
      "name": "name",
      "outputs": [
        {
          "internalType": "string",
          "name": "",
          "type": "string"
        }
      ],
      "stateMutability": "view",
      "type": "function"
    },
    {
      "inputs": [],
      "name": "owner",
      "outputs": [
        {
          "internalType": "address",
          "name": "",
          "type": "address"
        }
      ],
      "stateMutability": "view",
      "type": "function"
    },
    {
      "inputs": [
        {
          "internalType": "address",
          "name": "",
          "type": "address"
        },
        {
          "internalType": "uint64",
          "name": "",
          "type": "uint64"
        }
      ],
      "name": "proofs",
      "outputs": [
        {
          "internalType": "bool",
          "name": "",
          "type": "bool"
        }
      ],
      "stateMutability": "view",
      "type": "function"
    },
    {
      "inputs": [],
      "name": "renounceOwnership",
      "outputs": [],
      "stateMutability": "nonpayable",
      "type": "function"
    },
    {
      "inputs": [
        {
          "internalType": "uint64",
          "name": "",
          "type": "uint64"
        }
      ],
      "name": "requestQueries",
      "outputs": [
        {
          "internalType": "uint256",
          "name": "schema",
          "type": "uint256"
        },
        {
          "internalType": "uint256",
          "name": "slotIndex",
          "type": "uint256"
        },
        {
          "internalType": "uint256",
          "name": "operator",
          "type": "uint256"
        },
        {
          "internalType": "string",
          "name": "circuitId",
          "type": "string"
        }
      ],
      "stateMutability": "view",
      "type": "function"
    },
    {
      "inputs": [
        {
          "internalType": "uint64",
          "name": "",
          "type": "uint64"
        }
      ],
      "name": "requestValidators",
      "outputs": [
        {
          "internalType": "contract ICircuitValidator",
          "name": "",
          "type": "address"
        }
      ],
      "stateMutability": "view",
      "type": "function"
    },
    {
      "inputs": [
        {
          "internalType": "uint64",
          "name": "requestId",
          "type": "uint64"
        },
        {
          "internalType": "contract ICircuitValidator",
          "name": "validator",
          "type": "address"
        },
        {
          "components": [
            {
              "internalType": "uint256",
              "name": "schema",
              "type": "uint256"
            },
            {
              "internalType": "uint256",
              "name": "slotIndex",
              "type": "uint256"
            },
            {
              "internalType": "uint256",
              "name": "operator",
              "type": "uint256"
            },
            {
              "internalType": "uint256[]",
              "name": "value",
              "type": "uint256[]"
            },
            {
              "internalType": "string",
              "name": "circuitId",
              "type": "string"
            }
          ],
          "internalType": "struct ICircuitValidator.CircuitQuery",
          "name": "query",
          "type": "tuple"
        }
      ],
      "name": "setZKPRequest",
      "outputs": [
        {
          "internalType": "bool",
          "name": "",
          "type": "bool"
        }
      ],
      "stateMutability": "nonpayable",
      "type": "function"
    },
    {
      "inputs": [
        {
          "internalType": "uint64",
          "name": "requestId",
          "type": "uint64"
        },
        {
          "internalType": "uint256[]",
          "name": "inputs",
          "type": "uint256[]"
        },
        {
          "internalType": "uint256[2]",
          "name": "a",
          "type": "uint256[2]"
        },
        {
          "internalType": "uint256[2][2]",
          "name": "b",
          "type": "uint256[2][2]"
        },
        {
          "internalType": "uint256[2]",
          "name": "c",
          "type": "uint256[2]"
        }
      ],
      "name": "submitZKPResponse",
      "outputs": [
        {
          "internalType": "bool",
          "name": "",
          "type": "bool"
        }
      ],
      "stateMutability": "nonpayable",
      "type": "function"
    },
    {
      "inputs": [
        {
          "internalType": "uint256",
          "name": "",
          "type": "uint256"
        }
      ],
      "name": "supportedRequests",
      "outputs": [
        {
          "internalType": "uint64",
          "name": "",
          "type": "uint64"
        }
      ],
      "stateMutability": "view",
      "type": "function"
    },
    {
      "inputs": [],
      "name": "symbol",
      "outputs": [
        {
          "internalType": "string",
          "name": "",
          "type": "string"
        }
      ],
      "stateMutability": "view",
      "type": "function"
    },
    {
      "inputs": [],
      "name": "totalSupply",
      "outputs": [
        {
          "internalType": "uint256",
          "name": "",
          "type": "uint256"
        }
      ],
      "stateMutability": "view",
      "type": "function"
    },
    {
      "inputs": [
        {
          "internalType": "address",
          "name": "to",
          "type": "address"
        },
        {
          "internalType": "uint256",
          "name": "amount",
          "type": "uint256"
        }
      ],
      "name": "transfer",
      "outputs": [
        {
          "internalType": "bool",
          "name": "",
          "type": "bool"
        }
      ],
      "stateMutability": "nonpayable",
      "type": "function"
    },
    {
      "inputs": [
        {
          "internalType": "address",
          "name": "from",
          "type": "address"
        },
        {
          "internalType": "address",
          "name": "to",
          "type": "address"
        },
        {
          "internalType": "uint256",
          "name": "amount",
          "type": "uint256"
        }
      ],
      "name": "transferFrom",
      "outputs": [
        {
          "internalType": "bool",
          "name": "",
          "type": "bool"
        }
      ],
      "stateMutability": "nonpayable",
      "type": "function"
    },
    {
      "inputs": [
        {
          "internalType": "address",
          "name": "newOwner",
          "type": "address"
        }
      ],
      "name": "transferOwnership",
      "outputs": [],
      "stateMutability": "nonpayable",
      "type": "function"
    }
  ],
  "bytecode": "0x60806040526200000e62000128565b6200001e9060ff16600a62000471565b6200002b9060056200056e565b600a553480156200003b57600080fd5b50604051620029e3380380620029e38339810160408190526200005e916200033b565b6040518060400160405280601081526020016f283934b6b2902a37b0b2102a37b5b2b760811b8152506040518060400160405280600381526020016214151560ea1b8152508160039080519060200190620000bb92919062000295565b508051620000d190600490602084019062000295565b505050620000ee620000e86200012d60201b60201c565b62000131565b50336200012181620000ff62000128565b6200010c90600a62000482565b6200011b90620f42406200056e565b62000183565b50620005e3565b601290565b3390565b600580546001600160a01b038381166001600160a01b0319831681179093556040519116919082907f8be0079c531659141344cd1fd0a4f28419497f9722a3daafe3b4186f6b6457e090600090a35050565b6001600160a01b038216620001b55760405162461bcd60e51b8152600401620001ac90620003c9565b60405180910390fd5b620001c36000838362000245565b8060026000828254620001d7919062000409565b90915550506001600160a01b038216600081815260208190526040808220805485019055517fddf252ad1be2c89b69c2b068fc378daa952ba7f163c4a11628f55a4df523b3ef906200022b90859062000400565b60405180910390a3620002416000838362000290565b5050565b6001600160a01b0382166000908152600660209081526040808320600180855292529091205460ff16151514620002905760405162461bcd60e51b8152600401620001ac906200036b565b505050565b828054620002a39062000590565b90600052602060002090601f016020900481019282620002c7576000855562000312565b82601f10620002e257805160ff191683800117855562000312565b8280016001018555821562000312579182015b8281111562000312578251825591602001919060010190620002f5565b506200032092915062000324565b5090565b5b8082111562000320576000815560010162000325565b6000602082840312156200034d578081fd5b81516001600160a01b038116811462000364578182fd5b9392505050565b602080825260409082018190527f6f6e6c79206964656e7469746965732077686f2070726f76696465642070726f908201527f6f662061726520616c6c6f77656420746f207265636569766520746f6b656e73606082015260800190565b6020808252601f908201527f45524332303a206d696e7420746f20746865207a65726f206164647265737300604082015260600190565b90815260200190565b600082198211156200041f576200041f620005cd565b500190565b80825b600180861162000438575062000468565b8187048211156200044d576200044d620005cd565b808616156200045b57918102915b9490941c93800262000427565b94509492505050565b600062000364600019848462000491565b60006200036460001960ff8516845b600082620004a25750600162000364565b81620004b15750600062000364565b8160018114620004ca5760028114620004d55762000509565b600191505062000364565b60ff841115620004e957620004e9620005cd565b6001841b915084821115620005025762000502620005cd565b5062000364565b5060208310610133831016604e8410600b841016171562000541575081810a838111156200053b576200053b620005cd565b62000364565b62000550848484600162000424565b808604821115620005655762000565620005cd565b02949350505050565b60008160001904831182151516156200058b576200058b620005cd565b500290565b600281046001821680620005a557607f821691505b60208210811415620005c757634e487b7160e01b600052602260045260246000fd5b50919050565b634e487b7160e01b600052601160045260246000fd5b6123f080620005f36000396000f3fe608060405234801561001057600080fd5b50600436106101c45760003560e01c80638da5cb5b116100f9578063b68967e211610097578063dd62ed3e11610071578063dd62ed3e146103b1578063f1435326146103c4578063f2fde38b146103d7578063fee207e6146103ea576101c4565b8063b68967e21461036b578063c76d08451461037e578063cb0e0d7d1461039e576101c4565b8063a457c2d7116100d3578063a457c2d71461031f578063a872311414610332578063a9059cbb14610345578063b45c0fdf14610358576101c4565b80638da5cb5b146102ec57806395d89b41146102f457806396bf4741146102fc576101c4565b806339509351116101665780637042f36b116101405780637042f36b146102b657806370a08231146102be578063715018a6146102d157806379cc6790146102d9576101c4565b8063395093511461027957806342966c681461028c57806363ec508f146102a1576101c4565b806323b872dd116101a257806323b872dd1461021c5780632a2d0c471461022f578063313ce5671461024f57806337ba952314610264576101c4565b806306fdde03146101c9578063095ea7b3146101e757806318160ddd14610207575b600080fd5b6101d16103fd565b6040516101de9190611d57565b60405180910390f35b6101fa6101f536600461182f565b61048f565b6040516101de9190611d4c565b61020f6104b1565b6040516101de9190612281565b6101fa61022a3660046117ef565b6104b7565b61024261023d3660046118ae565b6104e5565b6040516101de9190611c00565b610257610500565b6040516101de91906122cd565b61026c610505565b6040516101de9190611cff565b6101fa61028736600461182f565b61058e565b61029f61029a3660046118ae565b6105ba565b005b6102a96105ce565b6040516101de91906122b9565b61020f6105d3565b61020f6102cc366004611794565b6105d9565b61029f6105f8565b61029f6102e736600461182f565b61060c565b61024261062c565b6101d161063b565b61030f61030a3660046118de565b61064a565b6040516101de949392919061228a565b6101fa61032d36600461182f565b6106fd565b6102426103403660046118de565b61074e565b6101fa61035336600461182f565b610769565b6101fa61036636600461185a565b610781565b6101fa6103793660046118f8565b6107a1565b61039161038c3660046118de565b61095f565b6040516101de9190612221565b61020f6103ac366004611794565b610a92565b61020f6103bf3660046117b7565b610aa4565b6102a96103d23660046118ae565b610acf565b61029f6103e5366004611794565b610b0c565b6101fa6103f83660046119d1565b610b43565b60606003805461040c90612354565b80601f016020809104026020016040519081016040528092919081815260200182805461043890612354565b80156104855780601f1061045a57610100808354040283529160200191610485565b820191906000526020600020905b81548152906001019060200180831161046857829003601f168201915b5050505050905090565b60008061049a610ccc565b90506104a7818585610cd0565b5060019392505050565b60025490565b6000806104c2610ccc565b90506104cf858285610d84565b6104da858585610dce565b506001949350505050565b600b602052600090815260409020546001600160a01b031681565b601290565b6060600980548060200260200160405190810160405280929190818152602001828054801561048557602002820191906000526020600020906000905b82829054906101000a90046001600160401b03166001600160401b0316815260200190600801906020826007010492830192600103820291508084116105425790505050505050905090565b600080610599610ccc565b90506104a78185856105ab8589610aa4565b6105b59190612330565b610cd0565b6105cb6105c5610ccc565b82610ecf565b50565b600181565b600a5481565b6001600160a01b0381166000908152602081905260409020545b919050565b610600610fa7565b61060a6000610fe6565b565b61061e82610618610ccc565b83610d84565b6106288282610ecf565b5050565b6005546001600160a01b031690565b60606004805461040c90612354565b60076020526000908152604090208054600182015460028301546004840180549394929391929161067a90612354565b80601f01602080910402602001604051908101604052809291908181526020018280546106a690612354565b80156106f35780601f106106c8576101008083540402835291602001916106f3565b820191906000526020600020905b8154815290600101906020018083116106d657829003601f168201915b5050505050905084565b600080610708610ccc565b905060006107168286610aa4565b9050838110156107415760405162461bcd60e51b8152600401610738906121a5565b60405180910390fd5b6104da8286868403610cd0565b6008602052600090815260409020546001600160a01b031681565b600080610774610ccc565b90506104a7818585610dce565b600660209081526000928352604080842090915290825290205460ff1681565b6001600160401b0385166000908152600860205260408120546001600160a01b03166107df5760405162461bcd60e51b81526004016107389061204f565b6001600160401b0386166000908152600760205260409020546108145760405162461bcd60e51b815260040161073890612097565b6001600160401b03861660009081526008602052604090205461084390879087906001600160a01b0316611038565b6001600160401b03861660009081526008602090815260408083205460079092529182902091516319f8754160e21b81526001600160a01b03909116916367e1d5049161089b91899189918991899190600401611c14565b60206040518083038186803b1580156108b357600080fd5b505afa1580156108c7573d6000803e3d6000fd5b505050506040513d601f19601f820116820180604052508101906108eb919061188e565b6109075760405162461bcd60e51b815260040161073890611f9a565b3360009081526006602090815260408083206001600160401b038a1684528252808320805460ff19166001179055600890915290205461095390879087906001600160a01b0316611114565b50600195945050505050565b61096761151c565b6001600160401b038216600090815260076020908152604091829020825160a0810184528154815260018201548184015260028201548185015260038201805485518186028101860190965280865291949293606086019392908301828280156109f057602002820191906000526020600020905b8154815260200190600101908083116109dc575b50505050508152602001600482018054610a0990612354565b80601f0160208091040260200160405190810160405280929190818152602001828054610a3590612354565b8015610a825780601f10610a5757610100808354040283529160200191610a82565b820191906000526020600020905b815481529060010190602001808311610a6557829003601f168201915b5050505050815250509050919050565b600c6020526000908152604090205481565b6001600160a01b03918216600090815260016020908152604080832093909416825291909152205490565b60098181548110610adf57600080fd5b9060005260206000209060049182820401919006600802915054906101000a90046001600160401b031681565b610b14610fa7565b6001600160a01b038116610b3a5760405162461bcd60e51b815260040161073890611def565b6105cb81610fe6565b6000610b4d610fa7565b6001600160401b0384166000908152600860205260409020546001600160a01b0316610bd157600980546001810182556000919091527f6e1540171b6c0c960b71a7020d9f60077f6af931a8bbf590da0223dacf75c7af6004820401805460039092166008026101000a6001600160401b0381810219909316928716029190911790555b60608201516001600160401b03851660009081526007602090815260409091208251610c06936003909201929091019061154b565b506040808301516001600160401b038616600090815260076020908152929020600281019190915560808401518051610c49936004909301929190910190611596565b506020808301516001600160401b0386166000908152600783526040902060018101919091558351815560808401518051610c8e936004909301929190910190611596565b50506001600160401b038316600090815260086020526040902080546001600160a01b0384166001600160a01b031990911617905560019392505050565b3390565b6001600160a01b038316610cf65760405162461bcd60e51b815260040161073890612161565b6001600160a01b038216610d1c5760405162461bcd60e51b815260040161073890611e35565b6001600160a01b0380841660008181526001602090815260408083209487168084529490915290819020849055517f8c5be1e5ebec7d5bd14f71427d1e84f3dd0314c0f7b2291e5b200ac8c7c3b92590610d77908590612281565b60405180910390a3505050565b6000610d908484610aa4565b90506000198114610dc85781811015610dbb5760405162461bcd60e51b815260040161073890611ebf565b610dc88484848403610cd0565b50505050565b6001600160a01b038316610df45760405162461bcd60e51b81526004016107389061211c565b6001600160a01b038216610e1a5760405162461bcd60e51b815260040161073890611d6a565b610e2583838361129e565b6001600160a01b03831660009081526020819052604090205481811015610e5e5760405162461bcd60e51b815260040161073890611ef6565b6001600160a01b0380851660008181526020819052604080822086860390559286168082529083902080548601905591517fddf252ad1be2c89b69c2b068fc378daa952ba7f163c4a11628f55a4df523b3ef90610ebc908690612281565b60405180910390a3610dc8848484610fa2565b6001600160a01b038216610ef55760405162461bcd60e51b8152600401610738906120db565b610f018260008361129e565b6001600160a01b03821660009081526020819052604090205481811015610f3a5760405162461bcd60e51b815260040161073890611dad565b6001600160a01b0383166000818152602081905260408082208585039055600280548690039055519091907fddf252ad1be2c89b69c2b068fc378daa952ba7f163c4a11628f55a4df523b3ef90610f92908690612281565b60405180910390a3610fa2836000845b505050565b610faf610ccc565b6001600160a01b0316610fc061062c565b6001600160a01b03161461060a5760405162461bcd60e51b815260040161073890611fd1565b600580546001600160a01b038381166001600160a01b0319831681179093556040519116919082907f8be0079c531659141344cd1fd0a4f28419497f9722a3daafe3b4186f6b6457e090600090a35050565b60006110da83836001600160a01b0316639f442afa6040518163ffffffff1660e01b815260040160206040518083038186803b15801561107757600080fd5b505afa15801561108b573d6000803e3d6000fd5b505050506040513d601f19601f820116820180604052508101906110af91906118c6565b815181106110cd57634e487b7160e01b600052603260045260246000fd5b60200260200101516112e6565b9050806001600160a01b03166110ee610ccc565b6001600160a01b031614610dc85760405162461bcd60e51b815260040161073890611e77565b6001600160401b03831660011480156111505750600c6000611134610ccc565b6001600160a01b03168152602081019190915260400160002054155b61116c5760405162461bcd60e51b815260040161073890612006565b600082826001600160a01b0316639f442afa6040518163ffffffff1660e01b815260040160206040518083038186803b1580156111a857600080fd5b505afa1580156111bc573d6000803e3d6000fd5b505050506040513d601f19601f820116820180604052508101906111e091906118c6565b815181106111fe57634e487b7160e01b600052603260045260246000fd5b6020908102919091018101516000818152600b9092526040909120549091506001600160a01b0316610dc85761123d611235610ccc565b600a54611307565b80600c600061124a610ccc565b6001600160a01b0316815260208101919091526040016000205561126c610ccc565b6000918252600b602052604090912080546001600160a01b0319166001600160a01b0392909216919091179055505050565b6001600160a01b0382166000908152600660209081526040808320600180855292529091205460ff16151514610fa25760405162461bcd60e51b815260040161073890611f3c565b60006113016112fc6112f7846113b1565b6114eb565b611515565b92915050565b6001600160a01b03821661132d5760405162461bcd60e51b8152600401610738906121ea565b6113396000838361129e565b806002600082825461134b9190612330565b90915550506001600160a01b038216600081815260208190526040808220805485019055517fddf252ad1be2c89b69c2b068fc378daa952ba7f163c4a11628f55a4df523b3ef9061139d908590612281565b60405180910390a361062860008383610fa2565b600881811c7eff00ff00ff00ff00ff00ff00ff00ff00ff00ff00ff00ff00ff00ff00ff00ff167fff00ff00ff00ff00ff00ff00ff00ff00ff00ff00ff00ff00ff00ff00ff00ff009290911b9190911617601081811c7dffff0000ffff0000ffff0000ffff0000ffff0000ffff0000ffff0000ffff167fffff0000ffff0000ffff0000ffff0000ffff0000ffff0000ffff0000ffff00009290911b9190911617602081811c7bffffffff00000000ffffffff00000000ffffffff00000000ffffffff167fffffffff00000000ffffffff00000000ffffffff00000000ffffffff000000009290911b9190911617604081811c77ffffffffffffffff0000000000000000ffffffffffffffff1677ffffffffffffffff0000000000000000ffffffffffffffff199290911b9190911617608081811c91901b1790565b60408051602080825281830190925260609160208201818036833750505060208101929092525090565b6014015190565b6040518060a0016040528060008152602001600081526020016000815260200160608152602001606081525090565b828054828255906000526020600020908101928215611586579160200282015b8281111561158657825182559160200191906001019061156b565b50611592929150611609565b5090565b8280546115a290612354565b90600052602060002090601f0160209004810192826115c45760008555611586565b82601f106115dd57805160ff1916838001178555611586565b82800160010185558215611586579182018281111561158657825182559160200191906001019061156b565b5b80821115611592576000815560010161160a565b600082601f83011261162e578081fd5b604051604081018181106001600160401b03821117156116505761165061238f565b8060405250808385604086011115611666578384fd5b835b6002811015611687578135835260209283019290910190600101611668565b509195945050505050565b600082601f8301126116a2578081fd5b813560206001600160401b038211156116bd576116bd61238f565b8082026116cb8282016122db565b8381528281019086840183880185018910156116e5578687fd5b8693505b858410156117075780358352600193909301929184019184016116e9565b50979650505050505050565b600082601f830112611723578081fd5b81356001600160401b0381111561173c5761173c61238f565b61174f601f8201601f19166020016122db565b818152846020838601011115611763578283fd5b816020850160208301379081016020019190915292915050565b80356001600160401b03811681146105f357600080fd5b6000602082840312156117a5578081fd5b81356117b0816123a5565b9392505050565b600080604083850312156117c9578081fd5b82356117d4816123a5565b915060208301356117e4816123a5565b809150509250929050565b600080600060608486031215611803578081fd5b833561180e816123a5565b9250602084013561181e816123a5565b929592945050506040919091013590565b60008060408385031215611841578182fd5b823561184c816123a5565b946020939093013593505050565b6000806040838503121561186c578182fd5b8235611877816123a5565b91506118856020840161177d565b90509250929050565b60006020828403121561189f578081fd5b815180151581146117b0578182fd5b6000602082840312156118bf578081fd5b5035919050565b6000602082840312156118d7578081fd5b5051919050565b6000602082840312156118ef578081fd5b6117b08261177d565b60008060008060006101408688031215611910578283fd5b6119198661177d565b94506020808701356001600160401b03811115611934578485fd5b61194089828a01611692565b955050604061195189828a0161161e565b945088609f890112611961578283fd5b600261197461196f82612304565b6122db565b8060808b016101008c018d81111561198a578788fd5b875b858110156119b05761199e8f8461161e565b8552938701939186019160010161198c565b508298506119be8e8261161e565b9750505050505050509295509295909350565b6000806000606084860312156119e5578081fd5b6119ee8461177d565b925060208401356119fe816123a5565b915060408401356001600160401b0380821115611a19578283fd5b9085019060a08288031215611a2c578283fd5b60405160a081018181108382111715611a4757611a4761238f565b8060405250823581526020830135602082015260408301356040820152606083013582811115611a75578485fd5b611a8189828601611692565b606083015250608083013582811115611a98578485fd5b611aa489828601611713565b6080830152508093505050509250925092565b8060005b6002811015610dc8578151845260209384019390910190600101611abb565b6000815180845260208085019450808401835b83811015611b0957815187529582019590820190600101611aed565b509495945050505050565b60008151808452815b81811015611b3957602081850181015186830182015201611b1d565b81811115611b4a5782602083870101525b50601f01601f19169290920160200192915050565b805460009060028104600180831680611b7957607f831692505b6020808410821415611b9957634e487b7160e01b86526022600452602486fd5b611ba38489612281565b828015611bb75760018114611bc857611bf3565b60ff19871682528282019750611bf3565b611bd189612324565b60005b87811015611bed57815484820152908601908401611bd4565b83019850505b5050505050505092915050565b6001600160a01b0391909116815260200190565b6000610140808352611c2881840189611ada565b90506020611c3881850189611ab7565b6060840187845b6002811015611c6657611c53838351611ab7565b6040929092019190830190600101611c3f565b505050611c7660e0850187611ab7565b83820361012085015284548252600180860154828401526002860154604084015260a06060840181905260038701805491850182905285528285209190859060c08601905b80831015611cd85784548252938301939183019190850190611cbb565b508581036080870152611cee8160048b01611b5f565b9d9c50505050505050505050505050565b6020808252825182820181905260009190848201906040850190845b81811015611d405783516001600160401b031683529284019291840191600101611d1b565b50909695505050505050565b901515815260200190565b6000602082526117b06020830184611b14565b60208082526023908201527f45524332303a207472616e7366657220746f20746865207a65726f206164647260408201526265737360e81b606082015260800190565b60208082526022908201527f45524332303a206275726e20616d6f756e7420657863656564732062616c616e604082015261636560f01b606082015260800190565b60208082526026908201527f4f776e61626c653a206e6577206f776e657220697320746865207a65726f206160408201526564647265737360d01b606082015260800190565b60208082526022908201527f45524332303a20617070726f766520746f20746865207a65726f206164647265604082015261737360f01b606082015260800190565b60208082526028908201527f6164647265737320696e2070726f6f66206973206e6f7420612073656e646572604082015267206164647265737360c01b606082015260800190565b6020808252601d908201527f45524332303a20696e73756666696369656e7420616c6c6f77616e6365000000604082015260600190565b60208082526026908201527f45524332303a207472616e7366657220616d6f756e7420657863656564732062604082015265616c616e636560d01b606082015260800190565b602080825260409082018190527f6f6e6c79206964656e7469746965732077686f2070726f76696465642070726f908201527f6f662061726520616c6c6f77656420746f207265636569766520746f6b656e73606082015260800190565b6020808252601b908201527f70726f6f6620726573706f6e7365206973206e6f742076616c69640000000000604082015260600190565b6020808252818101527f4f776e61626c653a2063616c6c6572206973206e6f7420746865206f776e6572604082015260600190565b60208082526029908201527f70726f6f662063616e206e6f74206265207375626d6974746564206d6f7265206040820152687468616e206f6e636560b81b606082015260800190565b60208082526028908201527f76616c696461746f72206973206e6f742073657420666f7220746869732072656040820152671c5d595cdd081a5960c21b606082015260800190565b60208082526024908201527f7175657279206973206e6f742073657420666f722074686973207265717565736040820152631d081a5960e21b606082015260800190565b60208082526021908201527f45524332303a206275726e2066726f6d20746865207a65726f206164647265736040820152607360f81b606082015260800190565b60208082526025908201527f45524332303a207472616e736665722066726f6d20746865207a65726f206164604082015264647265737360d81b606082015260800190565b60208082526024908201527f45524332303a20617070726f76652066726f6d20746865207a65726f206164646040820152637265737360e01b606082015260800190565b60208082526025908201527f45524332303a2064656372656173656420616c6c6f77616e63652062656c6f77604082015264207a65726f60d81b606082015260800190565b6020808252601f908201527f45524332303a206d696e7420746f20746865207a65726f206164647265737300604082015260600190565b600060208252825160208301526020830151604083015260408301516060830152606083015160a0608084015261225b60c0840182611ada565b90506080840151601f198483030160a08501526122788282611b14565b95945050505050565b90815260200190565b6000858252846020830152836040830152608060608301526122af6080830184611b14565b9695505050505050565b6001600160401b0391909116815260200190565b60ff91909116815260200190565b6040518181016001600160401b03811182821017156122fc576122fc61238f565b604052919050565b60006001600160401b0382111561231d5761231d61238f565b5060200290565b60009081526020902090565b6000821982111561234f57634e487b7160e01b81526011600452602481fd5b500190565b60028104600182168061236857607f821691505b6020821081141561238957634e487b7160e01b600052602260045260246000fd5b50919050565b634e487b7160e01b600052604160045260246000fd5b6001600160a01b03811681146105cb57600080fdfea26469706673582212204a8e5f571d46e08de3555c9fabe4fdb98c2c2725e504642c41f2a2ad312d82bb64736f6c63430008000033",
  "linkReferences": {},
  "deployedLinkReferences": {}
}